:020000040800F2
:10000000E022012441030008973F00088F3F0008C9
:10001000933F00083D0700086954000800000000F5
:100020000000000000000000000000006542000821
:1000300041070008000000009B3F000867420008DD
:1000400067030008670300086703000867030008E8
:1000500067030008670300086703000867030008D8
:1000600067030008670300086703000867030008C8
:1000700067030008670300086703000867030008B8
:1000800067030008670300086703000867030008A8
:100090006703000867030008670300086703000898
:1000A0006703000867030008670300086703000888
:1000B0006703000867030008670300086703000878
:1000C0006703000867030008670300086703000868
:1000D000670300084D5400085D54000867030008DA
:1000E00067030008670300080000000067030008BA
:1000F0006703000867030008670300086703000838
:100100006703000867030008670300086703000827
:100110006703000867030008670300086703000817
:100120006703000867030008670300086703000807
:1001300067030008670300086703000867030008F7
:1001400000000000000000000000000000000000AF
:1001500067030008670300086703000867030008D7
:1001600067030008670300086703000867030008C7
:100170006703000867030008670300080000000029
:1001800067030008670300086703000867030008A7
:100190006703000867030008670300086703000897
:1001A0006703000867030008670300086703000887
:1001B0006703000867030008670300086703000877
:1001C0006703000867030008670300086703000867
:1001D0006703000867030008670300086703000857
:1001E0006703000867030008670300086703000847
:1001F0006703000867030008670300086703000837
:100200006703000867030008670300086703000826
:100210006703000867030008670300086703000816
:100220006703000867030008670300080000000078
:100230006703000867030008000000006703000868
:1002400067030008670300086703000867030008E6
:1002500067030008670300086703000867030008D6
:1002600067030008670300086703000867030008C6
:100270006703000867030008670300080000000028
:100280006703000867030008670300080000000018
:10029000000000006703000800F002F800F041F8D9
:1002A0000AA090E8000C82448344AAF10107DA45D1
:1002B00001D100F036F8AFF2090EBAE80F0013F0E2
:1002C000010F18BFFB1A43F001031847D05E00006E
:1002D000F05E0000103A24BF78C878C1FAD85207FF
:1002E00024BF30C830C144BF04680C6070470000B0
:1002F0000023002400250026103A28BF78C1FBD82F
:10030000520728BF30C148BF0B607047752900F005
:10031000F580002070471FB505F003FF1FBD10B525
:1003200010BD00F0D9F91146FFF7F5FF05F096FA78
:1003300000F0F7F903B4FFF7F2FF03BC05F0B2F8E1
:10034000DFF83000016841F4700101600A4880471D
:100350000A480047FEE7FEE7FEE7FEE7FEE7FEE7A6
:10036000FEE7FEE7FEE7FEE705480649044A064BBE
:100370007047000088ED00E0FD4300089902000886
:10038000E01A0124E0220124E01A0124704753EA14
:10039000020C00F069802DE9F04B4FF00006002BB5
:1003A0001FBFB3FA83F503FA05F424FA05F65E409D
:1003B00012BF1643B2FA82F502FA05F4C5F1200520
:1003C0001EBF22FA05FC44EA0C04203556EA044C10
:1003D0004FEA144418BF641C4FF000084FF00009A6
:1003E000904271EB030C39D3002919BFB1FA81F7A0
:1003F00001FA07F6B0FA80F700FA07F6C7F120070E
:100400001EBF20FA07FC46EA0C062037B6FBF4FCB8
:10041000A7EB0507103F07F01F0BCBF120060CFAE6
:100420000BFB2CFA06F644BFB3460026202FA4BFD0
:100430005E464FF0000B5BEA060C08BF4FF0010B65
:1004400019EB0B09ABFB027C48EB0608C01B06FB53
:1004500002CC0BFB03CC71EB0C01C1E70B4602464F
:1004600041464846BDE8F08B13B54FF000004FF011
:100470000001AFF30080BDE81C4070470FB4044991
:1004800010B503AA029800F0F9F810BC5DF814FB4F
:10049000140000242DE9F0410E460446002020629D
:1004A0002046E168884730B3252805D0D4E90121EA
:1004B0009047206A401CF2E7E16820460027884701
:1004C000050018D0A5F14100192802D820354FF4B5
:1004D00000673246294620462760FFF717FF40B1E4
:1004E000012804D0F61D26F007060836D8E7361D89
:1004F000D6E72846DAE7206ABDE8F0812DE9F04129
:100500000646002410687529314616A510D0AFF3B1
:100510000080002802DA404213A507E031688A070C
:1005200001D512A502E0490704D511A5012401E077
:10053000AFF3008000210A2206F1240709E0B0FB96
:10054000F2FCB0FBF2F302FB1C003030785418468A
:10055000491C0028F3D123462A463046BDE8F04125
:1005600000F033B8000000002D0000002B00000058
:10057000200000004FF0000200B513469446964656
:10058000203922BFA0E80C50A0E80C50B1F12001A6
:10059000BFF4F7AF090728BFA0E80C5048BF0CC054
:1005A0005DF804EB890028BF40F8042B08BF7047B2
:1005B00048BF20F8022B11F0804F18BF00F8012B24
:1005C000704770477047704770472DE9F0470D46F8
:1005D00099469246044600F124080168880604D52D
:1005E000E06921F01001216000E00120A84201DD56
:1005F000471B00E00027A1697A1902EB0900081ADD
:10060000A0612078C00602D42046AFF30080002607
:1006100008E0D4E901211AF806009047206A401C3E
:10062000761C20624E45F4DB2078C0060AD52046B1
:10063000AFF3008006E0D4E9012130209047206A22
:10064000401C2062381EA7F10107F4DC07E0D4E962
:10065000012118F805009047206A401C2062281EDE
:10066000A5F10105F3DC2046AFF3008020780006F9
:1006700002D50220BDE8F0870120FBE7074B70B5EB
:100680000D467B4400F011F80446284600F020F89F
:1006900010B14FF0FF3070BD204670BD77500000A4
:1006A00001694A1C02610878704700B58FB0CDE936
:1006B00001310021059105497944CDE90310114626
:1006C0006846FFF7E7FE0FB000BD0000E5FFFFFF43
:1006D000007B00F080007047754600F02BF8AE46B6
:1006E00005006946534620F00700854618B020B53E
:1006F000FFF73AFEBDE820404FF000064FF000073C
:100700004FF000084FF0000B21F00701AC46ACE8B9
:10071000C009ACE8C009ACE8C009ACE8C0098D4626
:10072000704710B50446AFF300802046BDE8104086
:10073000FFF700BE00487047801A012400BFFEE7A3
:100740007047000010B500242B480068C0F34040FB
:1007500018B12AA0FFF792FE012427480068C0F3D1
:10076000C04018B128A0FFF789FE02242248006883
:10077000C0F3005018B12CA0FFF780FE03241E48E0
:100780000068C0F3405018B12FA0FFF777FE052492
:1007900019480068C0F3805018B106242DA0FFF757
:1007A0006DFE15480068C0F3C05018B107242CA096
:1007B000FFF764FE10480068C0F3006018B1082419
:1007C0002BA0FFF75BFE0C480068C0F3405018B147
:1007D000092415A0FFF752FE07480068C0F38060A7
:1007E00018B10A242AA0FFF749FE0348006840F424
:1007F00080300149086010BDD04402584350552054
:1008000072657365740A0000443120646F6D61691C
:100810006E20706F776572207377697463682072D9
:10082000657365740A000000443220646F6D61696D
:100830006E20706F776572207377697463682072B9
:10084000657365740A000000424F5220726573653B
:10085000740A000050696E2072657365740A0000A6
:10086000504F522F504452202072657365740A0015
:1008700053797374656D2072657365742066726F49
:100880006D204350552072657365740A00000000A6
:1008900043505520496E646570656E64656E7420C2
:1008A0005761746368646F672072657365740A00CA
:1008B00001B9704700BFFEE710B501F001037BB13D
:1008C000134BDB6823F4E663114CE36042F004034E
:1008D00043EA002343F08003E46823430C4CE360C5
:1008E00001F00203022B12D10A4B1B6823F4E663CA
:1008F000074CC4F80C3142F0040343EA002343F0F0
:100900008003D4F80C412343014CC4F80C3110BDD2
:10091000002000520C21005201F00302032A1BD1D7
:10092000234AD26822F03002214BDA60214A126851
:1009300022F03002C3F80C211A46D2680243DA6072
:100940001A46D2F80C210243C3F80C211A469269C8
:1009500042F010029A6129E001F0010272B1144ADA
:10096000D26822F03002124BDA601A46D268024393
:10097000DA601A46D26842F08802DA6001F00202B8
:10098000022A13D10B4A126822F03002084BC3F836
:100990000C211A46D2F80C210243C3F80C211A4646
:1009A000D2F80C2142F08802C3F80C2170470000F5
:1009B000002000520C2100522DE9F04107460E465E
:1009C0000424002500F056FF8046022E00D1344C4E
:1009D0000BE0781C48B100F04DFFA0EB0800B842D6
:1009E00000D817B90320BDE8F0812E482040A0426E
:1009F00008D12D4800692040A04201D101200DE01E
:100A000000200BE02948006824F00041084024F051
:100A10000041884201D1012000E000200028D8D107
:100A2000012E05D120480069214900EA010505E0B1
:100A30001E4800681F49084040F0004525F000406E
:100A400090B11D48806928431B498861154828409A
:100A5000A84202D11448456104E025F00040134942
:100A6000091D08600120BEE7012E0AD10E48006969
:100A700000F48030B0F5803F0FD130040A4948615E
:100A80000BE00A48006800F48030B0F5803F04D1E4
:100A90004FF480300549091D08600020A3E70000DD
:100AA000040000800F00EF1F0020005210210052B0
:100AB0000000EE170000EE97500A00242DE9F041E7
:100AC000044600F0D7FE804614B90120BDE8F0814D
:100AD00094F83500022808D08020606500BF00200F
:100AE00084F8340000BF0120F0E7FE492068884206
:100AF00049D0FC4918312068884244D0F949303146
:100B0000206888423FD0F7494831206888423AD06F
:100B1000F44960312068884235D0F2497831206844
:100B2000884230D0EF499031206888422BD0ED497F
:100B3000A8312068884226D0EB492068884222D01C
:100B4000E9491831206888421DD0E74930312068D2
:100B5000884218D0E44948312068884213D0E249DD
:100B60006031206888420ED0DF49783120688842A1
:100B700009D0DD4990312068884204D0DA49A83193
:100B80002068884201D1012000E0002068B120687F
:100B9000006820F01E00216808602068406920F08D
:100BA000800021684861256806E02068006820F020
:100BB0000E00216808602568CA492068884270D004
:100BC000C8491831206888426BD0C6493031206846
:100BD000884266D0C34948312068884261D0C14903
:100BE0006031206888425CD0BE49783120688842F4
:100BF00057D0BC4990312068884252D0B949A831B9
:100C0000206888424DD0B8492068884249D0B6490A
:100C100018312068884244D0B34930312068884276
:100C20003FD0B1494831206888423AD0AE4960315E
:100C30002068884235D0AC4978312068884230D06D
:100C4000A9499031206888422BD0A749A831206853
:100C5000884226D0A5492068884222D0A349143171
:100C6000206888421DD0A14928312068884218D0C8
:100C70009E493C312068884213D09C4950312068FD
:100C800088420ED0994964312068884209D097493A
:100C900078312068884204D094498C312068884299
:100CA00001D1012000E0002028B1206E006820F46E
:100CB0008070216E08608B492068884249D089493C
:100CC00018312068884244D08649303120688842F3
:100CD0003FD084494831206888423AD08149603108
:100CE0002068884235D07F4978312068884230D0EA
:100CF0007C499031206888422BD07A49A8312068FD
:100D0000884226D078492068884222D07649183116
:100D1000206888421DD0744930312068884218D03C
:100D2000714948312068884213D06F49603120688A
:100D300088420ED06C4978312068884209D06A49CF
:100D400090312068884204D06749A83120688842E1
:100D500006D12068006820F001002168086005E0E5
:100D60002068006820F001002168086011E000F0B0
:100D700081FDA0EB080005280BD920206065032029
:100D800084F8350000BF002084F8340000BF012043
:100D90009CE6286800F001000028E8D1514920684D
:100DA000884249D04F4918312068884244D04D4983
:100DB0003031206888423FD04A4948312068884213
:100DC0003AD0484960312068884235D04549783169
:100DD0002068884230D043499031206888422BD027
:100DE0004049A8312068884226D03F49206888427F
:100DF00022D03D491831206888421DD03A4930310F
:100E00002068884218D0384948312068884213D079
:100E100035496031206888420ED0334978312068E6
:100E2000884209D0304990312068884204D02E4948
:100E3000A8312068884201D1012000E0002040B1A3
:100E4000A66D94F85C0000F01F013F208840B06060
:100E500007E0A76D94F85C0000F01F0101208840B6
:100E6000786020492068884276D01E491831206871
:100E7000884271D01B493031206888426CD01949B2
:100E800048312068884267D016496031206888421E
:100E900062D014497831206888425DD01149903180
:100EA0002068884258D00F49A8312068884253D022
:100EB0000D49206888424FD00B491831206888427C
:100EC0004AD0094930312068884245D00649483126
:100ED0002068884240D004496031206888423BD075
:100EE000014905E010000240100402400854025875
:100EF0007831206888422FD02549206888422BD03D
:100F0000234918312068884226D022492068884227
:100F100022D020491431206888421DD01D49283133
:100F20002068884218D01B493C312068884213D081
:100F300018495031206888420ED016496431206823
:100F4000884209D0134978312068884204D0114979
:100F50008C312068884201D1012000E0002068B176
:100F6000D4E919104860E06E40B1E06E006820F4EA
:100F70008070E16E0860D4E91C104860012084F89C
:100F8000350000BF002084F8340000BF00BF9DE59D
:100F9000A00402400854025870B504460CB9012060
:100FA00070BD94F83500022803D0802060650120D0
:100FB000F6E7DC492068884249D0DA4918312068D0
:100FC000884244D0D7493031206888423FD0D54943
:100FD0004831206888423AD0D2496031206888423E
:100FE00035D0D04978312068884230D0CD49903111
:100FF000206888422BD0CB49A8312068884226D06F
:10100000C9492068884222D0C749183120688842DF
:101010001DD0C54930312068884218D0C2494831B6
:101020002068884213D0C0496031206888420ED0C1
:10103000BD4978312068884209D0BB499031206889
:10104000884204D0B849A8312068884201D10120E3
:1010500000E00020F0B3042084F83500B149206896
:1010600088424BD0AF4918312068884246D0AD49FC
:1010700030312068884241D0AA49483120688842EE
:101080003CD0A84960312068884237D0A5497831E2
:101090002068884232D0A3499031206888422DD000
:1010A000A049A8312068884228D09F4920688842FA
:1010B00024D09D491831206888421FD09A49303188
:1010C000206888421AD0984948312068884215D053
:1010D000954900E020E06031206888420ED09249B6
:1010E00078312068884209D08F4990312068884241
:1010F00004D08D49A8312068884206D12068006854
:1011000020F001002168086009E12068006820F0F3
:1011100001002168086002E12068006820F00E00EC
:10112000216808607F492068884249D07D4918318C
:101130002068884244D07B493031206888423FD0C3
:1011400078494831206888423AD076496031206831
:10115000884235D0734978312068884230D071494F
:101160009031206888422BD06E49A831206888428F
:1011700026D06D492068884222D06B4918312068FA
:1011800088421DD0684930312068884218D06649AD
:1011900048312068884213D0634960312068884212
:1011A0000ED0614978312068884209D05E4990317B
:1011B0002068884204D05C49A8312068884206D162
:1011C0002068006820F001002168086005E02068C0
:1011D000006820F0010021680860524920688842B8
:1011E00070D050491831206888426BD04D49303159
:1011F0002068884266D04B4948312068884261D0D7
:1012000048496031206888425CD04649783120687E
:10121000884257D0434990312068884252D0414992
:10122000A831206888424DD03F492068884249D083
:101230003D4918312068884244D03B49303120680C
:1012400088423FD038494831206888423AD03649F0
:1012500060312068884235D033497831206888422F
:1012600030D031499031206888422BD02E49A831A6
:101270002068884226D02D492068884222D02B49F8
:101280001431206888421DD02849283120688842BE
:1012900018D026493C312068884213D02349503168
:1012A000206888420ED0214964312068884209D0E4
:1012B0001E4978312068884204D01C498C3120684E
:1012C000884201D1012000E00020D8B1206E0068E2
:1012D00020F48070216E0860A56D94F85C0000F029
:1012E0001F01012088406860D4E919104860E06E51
:1012F00040B1E06E006820F48070E16E0860D4E9CF
:101300001C104860012084F8350000BF002084F8DC
:10131000340000BF206D10B12046216D88470020A9
:101320003EE600001000024010040240085402583B
:101330000348006840F00100014908607047000060
:10134000200400582DE9F04104460E46002700BF56
:101350004848007D012802D10220BDE8F08101202B
:101360004449087500BF00208861207900F0010021
:1013700030B101214CF25030FFF71EFB00B10127C4
:10138000207900F00200022806D102214CF25030F0
:10139000FFF712FB00B10127002F63D1206801285D
:1013A00028D161682069FFF7B7FA207900F00100C1
:1013B00060B101214CF25030FFF7FEFA00B1012775
:1013C0002D48C06820F008002B49C860207900F043
:1013D0000200022846D102214CF25030FFF7ECFA0D
:1013E00000B101272548006820F008002249C1F813
:1013F0000C0137E04FF0FF303060A5682CE0284644
:1014000022696168FFF758FA207900F0010060B1A5
:1014100001214CF25030FFF7CFFA07461648C0685A
:1014200040F2047188431449C860207900F002003A
:1014300002280DD102214CF25030FFF7BDFA0746C9
:101440000E48006840F2047188430B49C1F80C0152
:101450000FB1356005E06D1CD4E902100844A842C4
:10146000CDD800BF00BF00200249087500BF384634
:1014700073E70000500A0024002000520C210052A3
:101480000E48C06840F001000C49C8600846C068BA
:1014900000F0010008B9012070470948006840F0D9
:1014A00001000649C1F80C010548006800F0010080
:1014B00008B90120F0E70020EEE70000002000520C
:1014C0000C2100522DE9F05F83460C461746A046DA
:1014D000B9464FF0080A00BF4248007D012802D1FA
:1014E0000220BDE8F09F01203E49087500BFB4F11D
:1014F000006F04D3B4F1016F01D2012509E0B4F10A
:10150000016F04D3B4F1026F01D2022501E0012082
:10151000E7E700203349886129464CF25030FFF755
:101520004BFA0646002E55D1012D06D12E48C06833
:1015300040F002002C49C86006E02C48006840F0EA
:1015400002002949C1F80C0100BF00BF00BFBFF372
:101550006F8F00BF00BF00BF00BF00BF00BFBFF361
:101560004F8F00BF00BF00BF00BFD9F80000C8F810
:10157000000008F1040809F10409AAF1010000F0D3
:10158000FF0ABAF1000FF0D100BF00BF00BFBFF3E8
:101590006F8F00BF00BF00BF00BF00BF00BFBFF321
:1015A0004F8F00BF00BF00BF29464CF25030FFF7FD
:1015B00003FA0646012D06D10B48C06820F0020050
:1015C0000949C86006E00948006820F002000649A1
:1015D000C1F80C0100BF00200249087500BF304669
:1015E0007FE70000500A0024002000520C21005226
:1015F0001348C06800F0010058B112481049486013
:10160000114848600846C06800F0010008B1012098
:1016100070470E48006800F0010070B109480B499E
:101620000839086008480649C1F8040107480068FD
:1016300000F0010008B10120EAE70020E8E700001F
:101640000020005223016745AB89EFCD0C210052E9
:10165000F8B502460B4600216F4DD7E001278F40B9
:101660001E6806EA0704002C72D01E7906F00306F5
:10167000012E04D01E7906F00306022E13D19068C5
:101680004F000326BE40B0434F00DE68BE403043EB
:101690009060506801268E40B0431E79C6F3001654
:1016A0008E40304350601E7906F00306032E09D0A9
:1016B000D0684F000326BE40B0434F009E68BE4036
:1016C0003043D0601E7906F00306022E13D1CF08F6
:1016D00002F1200656F827004E07F70E0F26BE40EF
:1016E000B0434F07FF0E1E69BE403043CF0802F1E2
:1016F000200646F8270010684F000326BE40B0437E
:101700001E7906F003064F00BE40304310605E684D
:1017100006F44036002E78D000BF404E366846F0C2
:1017200002063E4F3E603E46366806F002060096D0
:1017300000BF00BF3A4E8F0856F827008E07370FBC
:101740000F26BE40B043374EB24202D100262EE0F3
:101750005BE0354EB24201D1012628E0334EB24261
:1017600001D1022623E0324EB24201D103261EE00F
:10177000304EB24201D1042619E02F4EB24201D1BF
:10178000052614E02D4EB24201D106260FE02C4E64
:10179000B24201D107260AE02A4EB24201D1082600
:1017A00005E0294EB24201D1092600E00A268F0742
:1017B0003F0FBE4030431A4E8F0846F827004FF0C7
:1017C000B0463068A0435E6806F4801606B1204338
:1017D0004FF0B04630607068A0435E6806F40016B3
:1017E00006B120434FF0B04670606868A0435E6861
:1017F00006F4003606B1204368602868A0435E689E
:1018000006F4803606B120432860491C1E68CE408D
:10181000002E7FF423AFF8BD80000058F444025836
:10182000080400580000025800040258000802583A
:10183000000C0258001002580014025800180258F8
:10184000001C025800200258002402580246136966
:101850000B400BB1012000E0002070470AB181610C
:1018600001E00B048361704701480068000C704779
:101870000010005C01480068704700001C00002454
:101880000348006803490978084401490860704723
:101890001C0000242400002410B5052000F00EF9DF
:1018A00001F0EEFA10490968C1F303210F4A515CB7
:1018B00001F01F0120FA01F40B48006800F00F004E
:1018C0001146085C00F01F0024FA00F00849086087
:1018D000084804600F2000F00FF808B1012010BD87
:1018E00000F09AF80020FAE7184402582C6100082A
:1018F000080000240400002470B504461148007854
:1019000008B9012070BD0F4800784FF47A71B1FB1F
:10191000F0F00D490968B1FBF0F5284601F0C6FF6B
:1019200008B10120EEE7102C07D200222146501EFC
:1019300000F087F80548046001E00120E2E700209C
:10194000E0E700002400002404000024200000241C
:101950004178154A11600178F9B1121D4168116092
:10196000017B0907C27A41EA0261827A41EAC241F7
:10197000427B41EA8241827B41EA4241C27B41EAA9
:101980000241427A41EA0221027A41EA42010278A6
:101990001143054A0832116005E00021024A121D78
:1019A0001160121D1160704798ED00E000BF00BF8C
:1019B00000BFBFF35F8F00BF00BF00BF05480068D6
:1019C00020F480300349086000200249703108602B
:1019D0007047000024ED00E040F001010D4A116065
:1019E0000C497039096841F480310A4A703A116033
:1019F00000BF00BF00BFBFF34F8F00BF00BF00BFDD
:101A000000BF00BF00BFBFF36F8F00BF00BF00BFAC
:101A10007047000094ED00E070470146084600283A
:101A20000DDB00BF00BF00F01F0301229A404309F5
:101A30009B0003F1E023C3F8002100BF00BF00BFFB
:101A400070472DE9F05F80460D46164603F00EFD07
:101A5000074639462A46334601F00700C0F1070A17
:101A6000BAF1040F02D94FF0040A01E0C0F1070AED
:101A7000D14600F1040ABAF1070F02D24FF0000A72
:101A800001E0A0F1030AD4464FF0010A0AFA09FA6C
:101A9000AAF1010A0AEA020A0AFA0CFA4FF0010B4B
:101AA0000BFA0CFBABF1010B0BEA030B4AEA0B043C
:101AB0002146404603F0E2FCBDE8F09F00BF00F085
:101AC0000702064B19684FF6FF031940044B0B43FE
:101AD00043EA0221014B196000BF70470CED00E0A2
:101AE0000000FA0510B501F081F905490968C1F354
:101AF0000211044A515C01F01F01C84010BD0000F2
:101B0000204402582C61000870B50146844D2D68B0
:101B100005F00303824D2D68C5F30530804D2D1D62
:101B20002D68C5F300147E4D14352D68C5F3CC0522
:101B300015FB04F501EE105AB8EE411AF0EE410A19
:101B400000286FD023B1012B4ED0022B6BD16BE05C
:101B5000734D283D2D68C5F340153DB3704D283DAC
:101B60002D68C5F3C1066F4D25FA06F201EE102A65
:101B7000F8EE411A01EE100AB8EE411A81EE812A00
:101B80009FED691AC0EE811A654D10352D68C5F3B9
:101B9000080501EE105AB8EE411A31EE811AF7EE3F
:101BA000001A31EE211A22EE010A1CE001EE100AA1
:101BB000B8EE411ADFED5D1A81EE812A9FED5A1AC7
:101BC000C0EE811A564D10352D68C5F3080501EE9B
:101BD000105AB8EE411A31EE811AF7EE001A31EEC2
:101BE000211A22EE010A5BE001EE100AB8EE411A5A
:101BF000DFED4F1A81EE812A9FED4B1AC0EE811A5C
:101C0000474D10352D68C5F3080501EE105AB8EEA2
:101C1000411A31EE811AF7EE001A31EE211A22EE46
:101C2000010A3DE077E01DE001EE100AB8EE411A2E
:101C30009FED402AC2EE011A9FED3B1A80EE812AE9
:101C4000374D10352D68C5F3080501EE105AB8EE72
:101C5000411A32EE011AB7EE002A31EE021A21EED5
:101C6000810A1DE001EE100AB8EE411ADFED301ACC
:101C700081EE812A9FED2C1AC0EE811A284D103575
:101C80002D68C5F3080501EE105AB8EE411A31EE81
:101C9000811AF7EE001A31EE211A22EE010A00BF76
:101CA00000BF1F4D10352D68C5F3462501EE105AB3
:101CB000B8EE411AF7EE001A31EE211AC0EE011A01
:101CC000BCEEE11A81ED001A154D10352D68C5F3F3
:101CD000064501EE105AB8EE411AF7EE001A31EE41
:101CE000211AC0EE011ABCEEE11A81ED011A0C4D69
:101CF00010352D68C5F3066501EE105AB8EE411A8D
:101D0000F7EE001A31EE211AC0EE011ABCEEE11A0C
:101D100081ED021A03E000250D604D608D6070BDFD
:101D2000284402580090D003000000460024744C60
:101D30000024744A20BCBE4B70B50146844D2D680A
:101D400005F00303824D2D68C5F30550804D2D1D10
:101D50002D68C5F300247E4D1C352D68C5F3CC05D8
:101D600015FB04F501EE105AB8EE411AF0EE410AE7
:101D700000286FD023B1012B4ED0022B6BD16BE02A
:101D8000734D283D2D68C5F340153DB3704D283D7A
:101D90002D68C5F3C1066F4D25FA06F201EE102A33
:101DA000F8EE411A01EE100AB8EE411A81EE812ACE
:101DB0009FED691AC0EE811A654D18352D68C5F37F
:101DC000080501EE105AB8EE411A31EE811AF7EE0D
:101DD000001A31EE211A22EE010A1CE001EE100A6F
:101DE000B8EE411ADFED5D1A81EE812A9FED5A1A95
:101DF000C0EE811A564D18352D68C5F3080501EE61
:101E0000105AB8EE411A31EE811AF7EE001A31EE8F
:101E1000211A22EE010A5BE001EE100AB8EE411A27
:101E2000DFED4F1A81EE812A9FED4B1AC0EE811A29
:101E3000474D18352D68C5F3080501EE105AB8EE68
:101E4000411A31EE811AF7EE001A31EE211A22EE14
:101E5000010A3DE077E01DE001EE100AB8EE411AFC
:101E60009FED402AC2EE011A9FED3B1A80EE812AB7
:101E7000374D18352D68C5F3080501EE105AB8EE38
:101E8000411A32EE011AB7EE002A31EE021A21EEA3
:101E9000810A1DE001EE100AB8EE411ADFED301A9A
:101EA00081EE812A9FED2C1AC0EE811A284D18353B
:101EB0002D68C5F3080501EE105AB8EE411A31EE4F
:101EC000811AF7EE001A31EE211A22EE010A00BF44
:101ED00000BF1F4D18352D68C5F3462501EE105A79
:101EE000B8EE411AF7EE001A31EE211AC0EE011ACF
:101EF000BCEEE11A81ED001A154D18352D68C5F3B9
:101F0000064501EE105AB8EE411AF7EE001A31EE0E
:101F1000211AC0EE011ABCEEE11A81ED011A0C4D36
:101F200018352D68C5F3066501EE105AB8EE411A52
:101F3000F7EE001A31EE211AC0EE011ABCEEE11ADA
:101F400081ED021A03E000250D604D608D6070BDCB
:101F5000284402580090D003000000460024744C2E
:101F60000024744A20BCBE4B2DE9F04104460025F4
:101F7000A846206800F00060B0F1006F30D1606EBC
:101F800048B1B0F5801F0DD0B0F5001F10D0B0F5EE
:101F9000401F15D113E0F948006840F40030F749BC
:101FA00008600FE00221201D01F0F8FF054609E05E
:101FB000022104F1240002F0A3F8054602E001E04A
:101FC000012500BF00BF55B9EC482430006820F45B
:101FD0004010616E0843E9492431086000E0A846DA
:101FE000208800F48070B0F5807F2DD1606D0528C9
:101FF0001AD2DFE800F0030A10171800DF48006863
:1020000040F40030DD49086010E00021201D01F09F
:10201000C5FF05460AE0002104F1240002F070F833
:10202000054603E002E001E0012500BF00BF55B90D
:10203000D2482430006820F00700616D0843CF4982
:102040002431086000E0A846208800F40070B0F554
:10205000007F33D1A06D802817D003DC40B1402829
:102060001CD10CE0C02817D0B0F5807F16D114E049
:10207000C248006840F40030C049086010E0002108
:10208000201D01F08BFF05460AE0002104F1240029
:1020900002F036F8054603E002E001E0012500BF4A
:1020A00000BF55B9B5482430006820F4E070A16D38
:1020B0000843B2492431086000E0A846208800F4B3
:1020C0008060B0F5806F38D1D4F8A400B0F5800FEF
:1020D00019D004DC50B1B0F5001F1DD10DE0B0F5F2
:1020E000C00F17D0B0F5000F16D114E0A348006858
:1020F00040F40030A149086010E00021201D01F0EB
:102100004DFF05460AE0002104F1240001F0F8FF2C
:10211000054603E002E001E0012500BF00BF5DB914
:1021200096482C30006820F46000D4F8A4100843CE
:1021300092492C31086000E0A846208800F4006035
:10214000B0F5006F38D1D4F8A800B0F1007F19D0F5
:1021500004DC50B1B0F1807F1DD10DE0B0F1407FC3
:1021600017D0B0F1806F16D114E08448006840F4B5
:1021700000308249086010E00021201D01F00EFFB0
:1021800005460AE0002104F1240001F0B9FF0546EC
:1021900003E002E001E0012500BF00BF5DB9774820
:1021A0002C30006820F0E060D4F8A8100843734990
:1021B0002C31086000E0A846206800F00070B0F103
:1021C000007F27D1A06CA0B1102804D0202809D00E
:1021D00030280FD10CE06948006840F400306749AE
:1021E000086009E00221201D01F0D8FE054603E049
:1021F00002E001E0012500BF00BF55B95F48203073
:10220000006820F03000A16C08435C492031086070
:1022100000E0A846208800F48050B0F5805F36D1F9
:10222000E06DB0F5005F19D004DC50B1B0F5805F0F
:102230001DD10DE0B0F5405F17D0B0F5804F16D13D
:1022400014E04E48006840F400304C49086010E04B
:102250000021201D01F0A2FE05460AE0002104F144
:10226000240001F04DFF054603E002E001E00125F6
:1022700000BF00BF55B941482430006820F4E04059
:10228000E16D08433D492431086000E0A8462088FC
:1022900000F40050B0F5005F34D1206EB0F5403F3F
:1022A0001DD007DC68B1B0F5803F0BD0B0F5003F22
:1022B00018D10DE0B0F5802F12D0B0F5A02F11D1BC
:1022C0000FE011E00121201D01F068FE05460BE042
:1022D000012104F1240001F013FF054604E003E0AE
:1022E00002E001E0012500BF00BF55B923482430BA
:1022F000006820F4E020216E084320492431086062
:1023000000E0A846208800F48040B0F5804F38D126
:10231000D4F8AC00B0F1405F1DD007DC68B1B0F17B
:10232000805F0BD0B0F1005F18D10DE0B0F1804FAD
:1023300012D0B0F1A04F11D10FE011E00121201D0A
:1023400001F02CFE05460BE0012104F1240001F010
:10235000D7FE054604E003E002E001E0012500BFEE
:1023600000BF6DB905482C30006820F0E040D4F87B
:10237000AC10084301492C31086002E02C4402589B
:10238000A846208800F40040B0F5004F26D1E06E4A
:1023900098B1B0F1805F03D0B0F1005F0ED106E0DC
:1023A000F948006840F40030F749086008E001216E
:1023B000201D01F0F3FD054602E001E0012500BF0C
:1023C00000BF55B9F0482430006820F04050E16E5D
:1023D0000843ED492431086000E0A846206800F079
:1023E0008070B0F1807F27D1606CA0B1012804D04B
:1023F000022809D003280FD10CE0E348006840F41C
:102400000030E149086009E00221201D01F0C6FD0D
:10241000054603E002E001E0012500BF00BF55B919
:10242000D9482030006820F00300616C0843D64989
:102430002031086000E0A846206800F48000B0F574
:10244000800F7DD1D148006840F48070CF4908608A
:10245000FFF710FA064606E0FFF70CFA801B642827
:1024600001D9032505E0C948006800F48070002800
:10247000F2D000BF85BBC4484430006800F440700F
:10248000B4F8B01001F44071884213D0BE48443013
:10249000006820F44077BC484430006840F4803045
:1024A000B949443108600846006820F4803008606B
:1024B00008460760D4F8B000B0F5807F15D1FFF76B
:1024C000D9F9064609E0FFF7D5F9801B41F28831BA
:1024D000884202D9032507E038E0AB484430006861
:1024E000C0F340000028EED000BF55BB00BFB4F8D9
:1024F000B00000F44070B0F5407F0ED1A2481C3807
:10250000006820F47C51A24AD4F8B000104041EA9F
:1025100010109D491C39086007E09B481C38006872
:1025200020F47C5098491C39086097484430006872
:10253000B4F8B010C1F30B0108439349443101E0F2
:1025400005E001E0086002E0A84600E0A846207827
:1025500000F0010068B3A06F182819D005DC48B15D
:10256000082808D0102816D10BE0202811D02828E0
:1025700011D10FE011E00121201D01F00FFD0546F2
:102580000BE0012104F1240001F0BAFD054604E04E
:1025900003E002E001E0012500BF00BF55B97A4821
:1025A0002830006820F03800A16F084376492831B0
:1025B000086000E0A846207800F00200022828D138
:1025C000606F062815D2DFE800F003040A11121329
:1025D00011E00121201D01F0E1FC05460BE0012185
:1025E00004F1240001F08CFD054604E003E002E064
:1025F00001E0012500BF00BF55B9634828300068DD
:1026000020F00700616F08435F492831086000E04F
:10261000A846207800F0040004282AD1D4F89000BD
:10262000062815D2DFE800F003040A11121311E0A6
:102630000121201D01F0B2FC05460BE0012104F14F
:10264000240001F05DFD054604E003E002E001E046
:10265000012500BF00BF5DB94B482C30006820F059
:102660000700D4F89010084347492C31086000E077
:10267000A846207800F02000202836D1D4F88C001D
:10268000B0F1405F1DD007DC68B1B0F1805F0BD0C6
:10269000B0F1005F18D10DE0B0F1804F12D0B0F171
:1026A000A04F11D10FE011E00021201D01F076FCB8
:1026B00005460BE0022104F1240001F021FD05464E
:1026C00004E003E002E001E0012500BF00BF5DB9C6
:1026D0002D482830006820F0E040D4F88C100843E2
:1026E00029492831086000E0A846207800F0400021
:1026F000402836D1D4F89800B0F5406F1DD007DCE3
:1027000068B1B0F5806F0BD0B0F5006F18D10DE057
:10271000B0F5805F12D0B0F5A05F11D10FE011E0ED
:102720000021201D01F03AFC05460BE0022104F1D6
:10273000240001F0E5FC054604E003E002E001E0CE
:10274000012500BF00BF5DB90F482C30006820F4A0
:10275000E050D4F8981008430B492C31086000E091
:10276000A846207800F0800080283AD1D4F89C0058
:10277000B0F5C04F23D00DDC98B1B0F5005F11D09B
:10278000B0F5804F1ED113E02C4402580048025887
:10279000FFFCFF0FB0F5004F12D0B0F5204F11D164
:1027A0000FE011E00021201D01F0F8FB05460BE0D1
:1027B000022104F1240001F0A3FC054604E003E03B
:1027C00002E001E0012500BF00BF4DB9BE4800682E
:1027D00020F46040D4F89C100843BB49086000E036
:1027E000A846207800F00800082817D1D4F8800007
:1027F000B0F5805F07D1022104F1240001F080FCD4
:1028000008B14FF00108B048001F006820F44050A4
:10281000D4F880100843AC49091F0860207800F004
:102820001000102815D1D4F89400B0F5807F07D19E
:10283000022104F1240001F063FC08B14FF001080B
:10284000A148006820F44070D4F8941008439E49D1
:102850000860206800F40020B0F5002F26D1D4F8DD
:10286000A00030B1B0F5803F09D0B0F5003F0ED1E7
:102870000CE00021201D01F091FB054609E002213A
:1028800004F1240001F03CFC054602E001E00125D2
:1028900000BF00BF4DB98C48006820F44030D4F828
:1028A000A01008438849086000E0A846206800F4AA
:1028B0008020B0F5802F2DD1D4F88400B0F5801F92
:1028C00006D0B0F5001F0CD0B0F5401F11D10FE0BD
:1028D0007D482C38006840F400307B492C39086072
:1028E00009E0012104F1240001F00AFC054602E0A0
:1028F00001E0012500BF00BF5DB97348001F0068FB
:1029000020F44010D4F8841008436F49091F086070
:1029100000E0A846206800F48030B0F5803F24D164
:10292000E06C18B1B0F5803F0FD108E066482C3854
:10293000006840F4003064492C39086007E0022147
:10294000201D01F02BFB054601E0012500BF00BF63
:1029500055B95D480C38006820F48030E16C0843BC
:1029600059490C39086000E0A846206800F0005082
:10297000B0F1005F07D1022104F1240001F0C0FB97
:1029800008B14FF00108206800F40030B0F5003FB6
:1029900027D1E06FA0B1B0F5807F06D0B0F5007F01
:1029A0000CD0B0F5407F0CD109E047482C380068C6
:1029B00040F4003044492C39086004E003E002E0B0
:1029C00001E0012500BF00BF55B93F48001F006866
:1029D00020F44070E16F08433B49091F086000E0A4
:1029E000A846206800F48010B0F5801F09D1364851
:1029F0000838006820F00040216F08433249083948
:102A00000860206800F08050B0F1805F0AD12E4845
:102A10004838006820F48040D4F8B41008432A49AC
:102A200048390860206800F40010B0F5001F09D193
:102A300025480838006820F08070A16E08432249BC
:102A400008390860206800F08040B0F1804F11D153
:102A500000BF1D484838006820F400401A49483932
:102A6000086008460068D4F8B81008431649483989
:102A7000086000BF206800F00040B0F1004F09D1AD
:102A800011480C38006820F04050216D08430E4971
:102A90000C390860206800F40000B0F5000F0AD17E
:102AA0000948001F006820F44000D4F8881008434B
:102AB0000549091F0860B8F1000F02D10020BDE8E8
:102AC000F0810120FBE70000584402582DE9F04155
:102AD00004460D4614B90120BDE8F081BD480068E8
:102AE00000F00F00A8420ED2BA48006820F00F0094
:102AF0002843B84908600846006800F00F00A84263
:102B000001D00120E8E7207800F0040004280ED16D
:102B1000B1492069096801F07001884207D9AE48BF
:102B2000006820F0700021690843AB4908602078F4
:102B300000F00800082811D1A749091D606909683B
:102B400001F07001884209D9A348001D006820F0F7
:102B5000700061690843A049091D0860207800F0F1
:102B60001000102811D19C49091DA069096801F4C1
:102B7000E061884209D99848001D006820F4E060AF
:102B8000A16908439449091D0860207800F02000DD
:102B9000202811D190490831E069096801F07001DD
:102BA000884209D98C480830006820F07000E1693B
:102BB0000843894908310860207800F002000228A3
:102BC0000ED18549E068096801F00F01884207D9F4
:102BD0008148006820F00F00E16808437E490860E2
:102BE000207800F00100002850D07B48006820F4D5
:102BF0007060A1680843784908606068022807D1BE
:102C0000754818380068C0F34040F8B9012063E700
:102C10006068032807D1704818380068C0F3406026
:102C2000A0B9012058E76068012807D16A48183820
:102C30000068C0F3002048B901204DE76648183805
:102C40000068C0F3800008B9012045E762480838F1
:102C5000006820F00700616808435F490839086090
:102C6000FEF708FE064608E0FEF704FE801B41F270
:102C70008831884201D903202EE757480838006878
:102C800000F038006168B0EBC10FEDD1207800F0A2
:102C9000020002280ED15049E068096801F00F01D6
:102CA000884207D24C48006820F00F00E1680843D2
:102CB000494908604748006800F00F00A8420ED953
:102CC0004448006820F00F00284342490860084645
:102CD000006800F00F00A84201D00120FCE6207837
:102CE00000F0040004280ED13B492069096801F076
:102CF0007001884207D23848006820F070002169CE
:102D0000084335490860207800F00800082811D1F0
:102D10003149091D6069096801F07001884209D2D2
:102D20002D48001D006820F07000616908432A49A1
:102D3000091D0860207800F01000102811D12649E4
:102D4000091DA069096801F4E061884209D222489E
:102D5000001D006820F4E060A16908431E49091DB8
:102D60000860207800F02000202811D11A4908318D
:102D7000E069096801F07001884209D216480830FC
:102D8000006820F07000E1690843134908310860C9
:102D900000F076F810490968C1F303210F4A515C2D
:102DA00001F01F0120FA01F70B48006800F00F0046
:102DB0001146085C00F01F0027FA00F0084908607F
:102DC0000848076008480068FEF796FD80464046C0
:102DD00082E6000000200052184402582C610008CE
:102DE00008000024040000242000002410B500F096
:102DF00047F80D490968C1F303210C4A515C01F001
:102E00001F0120FA01F40848006800F00F00114685
:102E1000085C00F01F0024FA00F00549086005482E
:102E200004600846006810BD184402582C61000870
:102E3000080000240400002400B5FFF7D7FF05496F
:102E40000968C1F30211044A515C01F01F01C84036
:102E500000BD00001C4402582C61000800B5FFF7BB
:102E6000C5FF05490968C1F30221044A515C01F01C
:102E70001F01C84000BD00001C4402582C6100081E
:102E8000F0B5824E366806F0380636B1082E15D0F9
:102E9000102E15D0182E7DD114E07C4E103E3668D1
:102EA000C6F3401646B1794E103E3668C6F3C107E8
:102EB000774E26FA07F000E07548E5E07548E3E054
:102EC0007548E1E0714E1836366806F003046F4E1F
:102ED00018363668C6F305116C4E1C36366806F097
:102EE00001056A4E24363668C6F3CC0616FB05F695
:102EF00001EE106AB8EE410A002971D024B1012C0C
:102F000050D0022C6DD16DE0604E103E3668C6F395
:102F100040163EB35D4E103E3668C6F3C1075C4EA8
:102F200026FA07F301EE103AF8EE411A01EE101AF4
:102F3000B8EE411A81EE812A9FED581AC0EE011AAF
:102F4000524E20363668C6F3080601EE106AB8EE17
:102F5000411A31EE811AF7EE001A31EE211A62EEB3
:102F6000010A1EE001EE101AB8EE411ADFED4C1A0C
:102F700081EE812A9FED491AC0EE011A434E203698
:102F80003668C6F3080601EE106AB8EE411A31EE53
:102F9000811A00E076E0F7EE001A31EE211A62EEB7
:102FA000010A5BE001EE101AB8EE411A9FED3D2ACE
:102FB000C2EE011A9FED391A80EE012A334E2036F7
:102FC0003668C6F3080601EE106AB8EE411A32EE12
:102FD000011AB7EE002A31EE021A61EE810A3DE0D5
:102FE0004EE01DE001EE101AB8EE411ADFED2E1A88
:102FF00081EE812A9FED291AC0EE011A234E203658
:103000003668C6F3080601EE106AB8EE411A31EED2
:10301000811AF7EE001A31EE211A62EE010A1DE064
:1030200001EE101AB8EE411A9FED1E2AC2EE011AE7
:103030009FED1A1A80EE012A144E20363668C6F328
:10304000080601EE106AB8EE411A32EE011AB7EE28
:10305000002A31EE021A61EE810A00BF00BF0B4E5A
:1030600020363668C6F34626721C01EE102AB8EEEA
:10307000411AC0EE811ABCEEE11A11EE100A00E00E
:10308000002001E0034800BF00BFF0BD104402581B
:103090000090D00300093D0040787D01000000460B
:1030A0000024744C0024744A20BCBE4B2DE9F04728
:1030B000044614B90120BDE8F087207800F0010033
:1030C000002870D0FA48006800F03808F848183036
:1030D000D0F80090B8F1100F06D0B8F1180F0FD14A
:1030E00009F0030002280BD1F14810380068C0F342
:1030F000404000286AD06068002867D10120DAE7E4
:1031000000BF6068B0F5803F08D1E948103800681A
:1031100040F48030E649103908602EE0606868B9F4
:10312000E3481038006820F48030E1491039086025
:103130000846006820F4802008601EE06068B0F552
:10314000A02F0DD1DA481038006840F48020D8490B
:10315000103908600846006840F4803008600CE0D0
:10316000D3481038006820F48030D1491039086005
:103170000846006820F48020086000BF606898B1AD
:10318000FEF778FB054606E0FEF774FB401B64285B
:1031900001D903208FE7C64810380068C0F34040CB
:1031A0000028F1D012E012E0FEF764FB054606E0CD
:1031B000FEF760FB401B642801D903207BE7BC4875
:1031C00010380068C0F340400028F1D100BF2078DB
:1031D00000F00200022874D1B548006800F03808F9
:1031E000B3481830D0F80090B8F1000F05D0B8F10E
:1031F000180F56D109F00300D0BBAD481038006855
:10320000C0F3800018B1E06808B9012053E7A8486E
:103210001038006820F01900E1680843A44910390B
:103220000860FEF727FB054606E0FEF723FB401B80
:10323000022801D903203EE79D4810380068C0F3FA
:1032400080000028F1D000BFFEF70EFB41F2030121
:1032500088421AD8206940280BD195480C3800685C
:1032600020F47C3040F4003091490C39086017E0BC
:1032700017E08F480C38006820F47C30216940EA60
:1032800001308B490C3908600AE089480C38006825
:1032900020F0FE40217C40EA016085490C3908603D
:1032A00066E0E06888B382481038006820F01900B2
:1032B000E16808437E4910390860FEF7DBFA0546ED
:1032C00007E056E0FEF7D6FA401B022801D903209A
:1032D000F1E6774810380068C0F380000028F1D08C
:1032E00000BFFEF7C1FA41F2030188421AD82069F3
:1032F00040280BD16E480C38006820F47C3040F434
:1033000000306B490C39086017E017E068480C384A
:10331000006820F47C30216940EA013064490C39AE
:1033200008600AE062480C38006820F0FE40217C0A
:1033300040EA01605E490C39086019E05C481038C9
:10334000006820F001005A4910390860FEF792FA2F
:10335000054606E0FEF78EFA401B022801D903203D
:10336000A9E6534810380068C0F380000028F1D166
:1033700000BF207800F0100010287CD14C48006875
:1033800000F038084A481830D0F80090B8F1080F1B
:1033900006D0B8F1180F3DD109F00300012839D14A
:1033A000434810380068C0F3002020B1E06980284D
:1033B00001D001207FE600BFFEF756FA41F203017B
:1033C00088421AD8206A20280AD139480C38006867
:1033D00020F0F84040F0804035490C39086018E092
:1033E00033480C38006820F0F84094F8201040EA88
:1033F00081602F490C3908600BE02D48001F0068E0
:1034000020F07C5094F8201040EA01602849091F00
:10341000086066E0E06978B325481038006840F03D
:103420008000234910390860FEF724FA054606E0BB
:10343000FEF720FA401B022801D903203BE61C4876
:1034400010380068C0F300200028F1D000BFFEF75C
:103450000BFA41F2030188421CD8206A20280CD1C3
:1034600013480C38006820F0F84040F080401049C4
:103470000C3908601AE035E01CE00D480C38006893
:1034800020F0F84094F8201040EA816008490C3997
:1034900008600BE00648001F006820F07C5094F89C
:1034A000201040EA01600249091F086019E000008D
:1034B00010440258FA48006820F08000F84908607B
:1034C000FEF7D8F9054606E0FEF7D4F9401B0228BE
:1034D00001D90320EFE5F2480068C0F3002000287E
:1034E000F2D100BF207800F00800082836D16069CA
:1034F000D0B1EB487430006840F00100E849743105
:103500000860FEF7B7F9054606E0FEF7B3F9401B81
:10351000022801D90320CEE5E14874300068C0F3E9
:1035200040000028F1D019E0DD487430006820F038
:103530000100DB4974310860FEF79CF9054606E09E
:10354000FEF798F9401B022801D90320B3E5D448BF
:1035500074300068C0F340000028F1D1207800F0FA
:103560002000202830D1A069B8B1CD48006840F4CF
:103570008050CB490860FEF77DF9054606E0FEF76E
:1035800079F9401B022801D9032094E5C44800685A
:10359000C0F340300028F2D016E0C148006820F4A3
:1035A0008050BF490860FEF765F9054606E0FEF762
:1035B00061F9401B022801D903207CE5B848006866
:1035C000C0F340300028F2D1207800F00400042835
:1035D0007DD1B448006840F48070B2490860FEF7BD
:1035E00049F9054606E0FEF745F9401B642801D974
:1035F000032060E5AB48006800F480700028F2D03A
:1036000000BFA068012808D1A5487030006840F0CC
:103610000100A349703108602DE0A06868B9A04896
:103620007030006820F001009D4970310860084644
:10363000006820F0040008601DE0A06805280DD196
:1036400097487030006840F0040095497031086078
:103650000846006840F0010008600CE090487030B7
:10366000006820F001008E4970310860084600684B
:1036700020F00400086000BFA068A0B1FEF7FAF8CF
:10368000054608E0FEF7F6F8401B41F28831884213
:1036900001D903200FE5824870300068C0F3400074
:1036A0000028EFD013E0FEF7E5F8054608E0FEF746
:1036B000E1F8401B41F28831884201D90320FAE445
:1036C000774870300068C0F340000028EFD1606A8E
:1036D00000287DD072481030006800F038001828AB
:1036E00077D0606A022875D16D48006820F080703C
:1036F0006B490860FEF7BEF8054606E0FEF7BAF82B
:10370000401B022801D90320D5E465480068C0F3B6
:1037100040600028F2D100BFD4E90A1041EA00104D
:103720005F492831096840F2F332914308435C490C
:1037300028310860208E401EC0F30800616B491ECE
:103740004FF47E4202EA41210843218F491ED201F3
:1037500002EA014108433C21095D491E120202EAC6
:10376000016108434E493031086000BF081F0068FE
:1037700020F00100091F08604948343000684FF606
:10378000F8718843A16C40EAC100454934310860B2
:1037900043482C30006820F00C00216C084340495D
:1037A0002C3108600846006820F00200616C084374
:1037B0003B492C3108600846006840F480300860BE
:1037C0000846006840F4003008600846006802E0DF
:1037D0006AE038E01FE040F4802008600846006896
:1037E00040F0010008602E48006840F080702C49CD
:1037F0000860FEF73FF8054606E0FEF73BF8401B81
:10380000022801D9032056E425480068C0F340602F
:103810000028F2D048E02248006820F0807020495B
:103820000860FEF727F8054606E0FEF723F8401B80
:10383000022801D903203EE419480068C0F3406023
:103840000028F2D130E0164828300768144830309C
:103850000668606A012821D007F00301A06A81424E
:103860001CD1C7F30511E06A884217D1C6F30801DD
:10387000206B401E814211D1606B401EC6F3462171
:1038800088420BD1A06B401EC6F30641884205D189
:10389000E06B401EC6F30661884205D001200AE4B1
:1038A0000044025800480258002004E470B5044661
:1038B0002546681EB0F1807F01D301200FE0681E0D
:1038C0004FF0E02148610F214FF0FF3001F0D6FDAD
:1038D00000204FF0E021886107200861002070BDC2
:1038E0007047704770477047704700002DE9F047F8
:1038F00004462068C569206806682068876840F625
:103900000F0005EA0009B9F1000F0FD105F0200002
:1039100060B106F0200010B907F0805030B1206F80
:1039200010B12046216F8847BDE8F087B9F1000F3C
:103930007ED0F948384018B9F84830400028F7D010
:1039400005F0010058B106F4807040B101202168F3
:103950000862D4F88C0040F00100C4F88C0005F037
:10396000020058B107F0010040B10220216808624E
:10397000D4F88C0040F00400C4F88C0005F004007A
:1039800058B107F0010040B1042021680862D4F862
:103990008C0040F00200C4F88C0005F0080070B103
:1039A00006F0200010B9DC48384040B108202168FA
:1039B0000862D4F88C0040F00800C4F88C0005F4CC
:1039C000006060B106F0806048B14FF4006021688B
:1039D0000862D4F88C0040F02000C4F88C00D4F8C1
:1039E0008C0000284ED005F0200050B106F02000D9
:1039F00010B907F0805020B1206F10B12046216F20
:103A00008847D4F88CA02068806800F040004028E7
:103A100002D00AF0280070B3204600F031FE206882
:103A2000806800F04000402821D100BF00BF00E0C6
:103A300029E02168083151E8001F21F04000216889
:103A4000083141E80002002AF1D100BFE06F50B117
:103A5000B348E16F0865E06FFDF79EFA90B1E06F43
:103A6000016D88470EE02046FFF73EFF0AE0204642
:103A7000FFF73AFF06E0FFE72046FFF735FF00209B
:103A8000C4F88C0050E7E06E012872D105F01000F8
:103A900000286ED006F010000028FAD0102021680F
:103AA00008622068806800F0400040287ED1E06F06
:103AB00000689C49884258D0E06F006899491831E5
:103AC000884252D0E06F00689649303188424CD02D
:103AD000E06F006893494831884246D0E06F006843
:103AE00090496031884240D0E06F00688D4978315C
:103AF00088423AD0E06F00688A499031884234D0D9
:103B0000E06F00688749A83188422ED0E06F0068D6
:103B10008549884229D0E06F00688349183188427E
:103B200023D0E06F00688049303188421DD0E06FBB
:103B300000687D494831884217D0E06F00687A49B3
:103B40006031884211D0E06F00687749783188424F
:103B50000BD0E06F006874499031884205D0E06F67
:103B600000687149A831884204D1E06F006840685C
:103B700003E0A0E0E06F006840681FFA80F8B8F149
:103B8000000F55D0B4F85C00404551DDA4F85E80CC
:103B9000E06FC069B0F5807F41D000BF00BF2168F1
:103BA00051E8001F21F48070226800E041E042E803
:103BB00000010029F3D100BF00BF00BF2168083118
:103BC00051E8001F21F001002168083141E800029E
:103BD000002AF3D100BF00BF00BF2168083151E8BF
:103BE000001F21F040002168083141E80002002A4E
:103BF000F3D100BF2020C4F888000020E06600BF99
:103C000000BF216851E8001F21F01000226842E83F
:103C100000010029F5D100BFE06FFCF74FFFB4F8B9
:103C20005C00B4F85E20801A81B22046FFF758FE8F
:103C30007AE634F85C0F6188401A1FFA80F86088D1
:103C40005C3CB8B3B8F1000F34D000BF00BF2168AE
:103C500051E8001F21F49070226842E80001002919
:103C6000F5D100BF00BF00BF2168083151E8001F37
:103C7000294AD24301EA02002168083141E80002E2
:103C8000002AF1D100BF2020C4F888000020E0669F
:103C9000206700BF00BF216851E8001F21F010001D
:103CA000226842E800010029F5D100BF41462046C4
:103CB000FFF716FE38E605F4801050B107F48000D7
:103CC00038B14FF48010216808622046FFF70BFEE0
:103CD0002AE605F0800058B106F0800010B907F41C
:103CE000000028B1606F10B12046616F88471BE665
:103CF00005F0400030B106F0400018B1204600F059
:103D0000F5FC11E605F4000080B106F0804068B1D2
:103D10002046FFF7E7FD07E6010000102001000440
:103D200067460008100002401004024005F0807051
:103D300030B106F0004018B12046FFF7D2FDF3E5A0
:103D400000BFF1E510B504460CB9012010BDA06913
:103D500000B100E000BFD4F8840028B9002084F846
:103D60008000204600F02AF82420C4F8840020684F
:103D7000006820F0010021680860204600F068FF1C
:103D8000012800D1E2E7A06A10B1204600F0B4FBA0
:103D90002068406820F4904021684860206880686E
:103DA00020F02A00216888602068006840F0010047
:103DB00021680860204600F01BFCC7E710B586B0FC
:103DC00004462B492068884250D100BF00BF2948D3
:103DD000006840F01000274908600846006800F0BD
:103DE0001000009000BF00BF00BF00BF00BF21480F
:103DF0001038006840F001001E491039086008467C
:103E0000006800F00100009000BF00BF00BF00BFCD
:103E100000BF0846006840F00100086008460068DE
:103E200000F00100009000BF00BF00BF4FF4007021
:103E300001900220029001200390022004900720AC
:103E4000059001A90C48FDF703FC4FF48060019038
:103E50000720059001A90848FDF7FAFB2520FDF78A
:103E6000DCFD032211462520FDF7EBFD06B010BD59
:103E700000100140F04402580000025870B504469A
:103E80000D461646D4F8880020282CD105B10EB96D
:103E9000012070BD00BF94F88000012801D10220EC
:103EA000F7E7012084F8800000BF0020E0660F499A
:103EB0002068884211D02068406800F4000060B19A
:103EC00000BF00BF216851E8001F41F080602268F8
:103ED00042E800010029F5D100BF324629462046BC
:103EE00001F07CF9D5E70220D3E70000000C005870
:103EF00010B504462049206888423BD11F480088FD
:103F000000F4004088BB1D48008800F4804070B178
:103F10001B4800780A2803D000201849088024E0B4
:103F20001648008840F40040144908801DE01448F9
:103F300000780D2806D11148008840F480400F49D0
:103F4000088012E00E4800780C490988C1F30D0181
:103F50000C4A505409480088401C0849088008460B
:103F60000088C72801DD0020088001220449064896
:103F7000FFF784FF10BD000000100140180000246E
:103F80001A000024F8080024C0090024704700BF6C
:103F9000FEE700BFFEE700BFFEE770472DE9F041F6
:103FA00004460E4600275548006800F00300032829
:103FB00002D10120BDE8F08150482838006820F087
:103FC00080604E4928390860FDF754FC054606E03C
:103FD000FDF750FC401B022801D90320EAE74748BF
:103FE00028380068C0F3C0600028F1D100BF434802
:103FF000006820F47C30216840EA01303F490860C5
:10400000A088401EC0F30800A168491E4FF47E42FC
:1040100002EA41210843A189491ED20102EA014175
:104020000843217C491E120202EA01610843334918
:104030001031086000BF3148001D006820F0C0004A
:10404000616908432D49091D08600846006820F091
:104050002000A16908432949091D08600846006835
:1040600020F0100008602548143000684FF6F87101
:104070008843E16940EAC1002049143108601F48C3
:10408000001D006840F010001C49091D08602EB991
:104090000846006840F40020086012E0012E08D1B4
:1040A0001648001D006840F480101449091D08607E
:1040B00007E01248001D006840F400100F49091D78
:1040C00008600E482838006840F080600B492839A5
:1040D0000860FDF7CFFB054606E0FDF7CBFB401B74
:1040E000022801D9032065E7044828380068C0F396
:1040F000C0600028F1D038465CE700002844025830
:104100002DE9F04104460E4600275548006800F0AE
:104110000300032802D10120BDE8F081504828386F
:10412000006820F080504E4928390860FDF7A2FB56
:10413000054606E0FDF79EFB401B022801D903203F
:10414000EAE7474828380068C0F340700028F1D1FA
:1041500000BF4348006820F07C70218840EA01508D
:104160003F490860A088401EC0F30800A168491EAE
:104170004FF47E4202EA41210843A189491ED2013F
:1041800002EA01410843217C491E120202EA016150
:10419000084333491831086000BF3148001D0068EA
:1041A00020F44060616908432D49091D08600846F4
:1041B000006820F40070A16908432949091D0860BE
:1041C0000846006820F48070086025481C300068AC
:1041D0004FF6F8718843E16940EAC10020491C317B
:1041E00008601F48001D006840F480701C49091DCC
:1041F00008602EB90846006840F48000086012E0AC
:10420000012E08D11648001D006840F40000144932
:10421000091D086007E01248001D006840F080702A
:104220000F49091D08600E482838006840F080508A
:104230000B4928390860FDF71DFB054606E0FDF730
:1042400019FB401B022801D9032065E704482838E0
:104250000068C0F340700028F1D038465CE70000E9
:1042600028440258704710B5FDF70AFB10BD000046
:1042700000B59DB04C210AA8FCF77CF9202102A8CA
:10428000FCF778F95248006820F0040050490860B3
:1042900000BF002001904F48006820F001004D4908
:1042A00008600846006800F00100019048480C30A2
:1042B000006840F4404046490C31086008460068F8
:1042C00000F44040019000BF00BF00BF40480C30E8
:1042D000006800F40050B0F5005FF7D101200A90AB
:1042E00000040B90022013900221149105211591D6
:1042F000C0211691022117911891199108211A9144
:1043000000211B911C910AA8FEF7D0FE18B1AC2128
:1043100031A0FCF7CDFA3F2002900320039000204B
:104320000490082005904020069007900001089016
:1043300040200990042102A8FEF7C8FB18B1C5214E
:1043400025A0FCF7B5FA2C48006840F080002A4907
:10435000086000BF2848F430006840F00200264999
:10436000F43108600846006800F00200019000BFC8
:1043700000BFFCF7DDFF00BF1F48DC30006840F0E5
:1043800000501D49DC3108600846006800F000500C
:10439000019000BF00BF00BF0846006840F08040A9
:1043A00008600846006800F08040019000BF00BF30
:1043B00000BF0846006840F00040086008460068FA
:1043C00000F00040019000BF00BF1DB000BD000024
:1043D0000C4802582C0400582E2E5C2E2E5C447281
:1043E00069766572735C53595354454D5C737973A8
:1043F0005C7379732E6300000044025834480068EF
:1044000040F47000324908603248006800F00F0044
:10441000072806D22F48006820F00F00C01D2D4944
:1044200008602D48006840F001002B49086000201A
:104430002949103108602848006828490840264961
:1044400008602448006800F00F00072806D92148BA
:10445000006820F00F00C01D1E49086000201E49A2
:1044600018310860091D0860091D08601C481A49B8
:10447000283108601B48091D08601B48091D086099
:104480000020091D08601848091D08600020091D4A
:1044900008601548091D08600020091D08600E48C5
:1044A000006820F480200C49086000200A4960312F
:1044B00008600E4800686FF30F00B0F1005F02D291
:1044C00001200B49086043F2D2000A490860704796
:1044D00088ED00E000200052004402587FEDF6EA2B
:1044E000000202020000FF01800201010010005CD6
:1044F000088100510040005290F8281001F001019D
:1045000039B10168496821F40031C26A1143026877
:10451000516090F8281001F00201022907D10168CA
:10452000496821F48031026B11430268516090F8B0
:10453000281001F00401042907D10168496821F419
:104540008021426B11430268516090F8281001F0FD
:104550000801082907D10168496821F40041826BEC
:1045600011430268516090F8281001F010011029E1
:1045700007D10168896821F48051C26B1143026838
:10458000916090F8281001F02001202907D10168DE
:10459000896821F40051026C11430268916090F81F
:1045A000281001F04001402913D10168496821F425
:1045B0008011426C114302685160416CB1F5801F5B
:1045C00007D10168496821F4C001826C1143026877
:1045D000516090F8281001F08001802907D101680E
:1045E000496821F40021C26C114302685160704790
:1045F00038B504460020C4F88C00FDF73BF90546A9
:104600002068006800F0080008280CD16FF07E4098
:104610002B4600224FF400110090204600F096FE39
:1046200008B1032038BD2068006800F004000428A9
:104630000CD16FF07E402B4600224FF48001009099
:10464000204600F083FE08B10320EBE72020C4F8E9
:104650008400C4F888000020E06600BF84F8800071
:1046600000BF00BFDEE770B50546AC6B0020A4F8C4
:104670005E00A4F856002046FFF736F970BD000032
:1046800000BF00BF026852E8002F22F49071036857
:1046900043E80012002AF5D100BF00BF00BF026846
:1046A000083252E8002F104B02EA03010268083278
:1046B00042E80013002BF2D100BFC16E01290CD1DA
:1046C00000BF00BF026852E8002F22F0100103680B
:1046D00043E80012002AF5D100BF2021C0F888105D
:1046E0000021C16601677047FEFFFFEF10B5044669
:1046F00000BF00BF216851E8001F21F04000226880
:1047000042E800010029F5D100BF2020C4F8840050
:10471000002060672046FFF739FC10BD2DE9F0410D
:104720000446B4F86070D4F88800222857D1206875
:10473000406A86B2A56D06EA07002880A06D801C3D
:10474000A065B4F85E00401EA4F85E00B4F85E00F8
:1047500000284AD100BF00BF216851E8001F21F4A2
:104760009070226842E800010029F5D100BF00BF27
:1047700000BF2168083151E8001F21F001002168C5
:10478000083141E80002002AF3D100BF2020C4F81C
:10479000880000202067E06E01281CD10020E06620
:1047A00000BF00BF216851E8001F21F010002268FF
:1047B00042E800010029F5D100BF2068C069C0F3BC
:1047C000001010B1102021680862B4F85C10204677
:1047D000FFF786F809E02046FFF78AFB05E020682E
:1047E000806940F0080021688861BDE8F081000020
:1047F0002DE9F84F0446B4F860B02068C569206818
:10480000006800902068D0F808A0D4F8880022281A
:104810007ED1B4F8689096E02068406A1FFA80F86C
:10482000A76D08EA0B003880A06D801CA065B4F865
:104830005E00401EA4F85E002068C56905F0070010
:10484000B0B305F0010060B1009800F4807040B191
:10485000012021680862D4F88C0040F00100C4F8FF
:104860008C0005F0020058B10AF0010040B10220AE
:1048700021680862D4F88C0040F00400C4F88C0071
:1048800005F0040058B10AF0010040B1042021688D
:104890000862D4F88C0040F00200C4F88C00D4F810
:1048A0008C0028B12046FFF71FF80020C4F88C00C8
:1048B000B4F85E0068BB00BF00BF216851E8001F6C
:1048C00021F48070226842E800010029F5D100BF80
:1048D00000BF00BF2168083151E8001F344A01EAD7
:1048E00002002168083141E80002002AF2D100BF2D
:1048F0002020C4F8880000202067E06E01281FD126
:104900000020E06600BF00BF216851E8001F01E001
:1049100046E018E021F01000226842E8000100297A
:10492000F2D100BF2068C069C0F3001010B11020A0
:1049300021680862B4F85C102046FEF7D1FF02E05F
:104940002046FFF7D5FAB9F1000F04D005F020009A
:1049500000287FF461AFB4F85E6006B3B4F8680075
:10496000B04223DD00BF00BF2168083151E8001FBD
:1049700021F080502168083141E80002002AF3D17B
:1049800000BF0C48206700BF00BF216851E8001F2E
:1049900041F02000226842E800010029F5D105E03D
:1049A0002068806940F0080021688861BDE8F88FC0
:1049B000FEFFFFEF1D47000870B50446B4F86060C5
:1049C000D4F88800222857D12068406A85B2F0B216
:1049D0002840A16D0870A06D401CA065B4F85E0071
:1049E000401EA4F85E00B4F85E0000284AD100BF63
:1049F00000BF216851E8001F21F49070226842E84E
:104A000000010029F5D100BF00BF00BF21680831B7
:104A100051E8001F21F001002168083141E800023F
:104A2000002AF3D100BF2020C4F8880000202067AE
:104A3000E06E01281CD10020E06600BF00BF2168A5
:104A400051E8001F21F01000226842E8000100290F
:104A5000F5D100BF2068C069C0F3001010B110206C
:104A600021680862B4F85C102046FEF739FF09E0BF
:104A70002046FFF73DFA05E02068806940F0080015
:104A80002168886170BD00002DE9F05F0446B4F82C
:104A900060A02068C5692068D0F800B02068D0F810
:104AA0000890D4F8880022287DD1B4F8688095E079
:104AB0002068406A87B20AF0FF003840A16D087094
:104AC000A06D401CA065B4F85E00401EA4F85E0016
:104AD0002068C56905F00700A8B305F0010058B1CA
:104AE0000BF4807040B1012021680862D4F88C007A
:104AF00040F00100C4F88C0005F0020058B109F044
:104B0000010040B1022021680862D4F88C0040F016
:104B10000400C4F88C0005F0040058B109F001004D
:104B200040B1042021680862D4F88C0040F00200F3
:104B3000C4F88C00D4F88C0028B12046FEF7D4FECF
:104B40000020C4F88C00B4F85E0068BB00BF00BF52
:104B5000216851E8001F21F48070226842E80001BA
:104B60000029F5D100BF00BF00BF2168083151E81E
:104B7000001F354A01EA02002168083141E80002BD
:104B8000002AF2D100BF2020C4F88800002020674E
:104B9000E06E01281FD10020E06600BF00BF216841
:104BA00051E8001F01E046E018E021F01000226803
:104BB00042E800010029F2D100BF2068C069C0F3BB
:104BC000001010B1102021680862B4F85C10204673
:104BD000FEF786FE02E02046FFF78AF9B8F1000FE3
:104BE00004D005F0200000287FF462AFB4F85E60C6
:104BF00006B3B4F86800B04223DD00BF00BF2168EF
:104C0000083151E8001F21F080502168083141E847
:104C10000002002AF3D100BF0C48206700BF00BF8C
:104C2000216851E8001F41F02000226842E800019D
:104C30000029F5D105E02068806940F0080021686E
:104C40008861BDE8F09F0000FEFFFFEFB949000852
:104C50002DE9F04F89B0054600200890F8492868F2
:104C6000884200D100E000BF2969A868084369694B
:104C70000843E96940EA010828680068F1490840EA
:104C800040EA0800296808602868406820F440501D
:104C9000E968084329684860D5F81880E849286819
:104CA000884202D0286A40EA080828688068E649F5
:104CB000084040EA0800296888602868C06A20F037
:104CC0000F00696A08432968C86200BFDF49286885
:104CD000884220D1DE48006800F03800182811D042
:104CE00005DC48B1082809D0102811D108E0202897
:104CF0000AD028280CD109E001240BE0042409E0A3
:104D0000082407E0102405E0202403E0402401E00B
:104D1000802400BFF8E0CF492868884219D1CC48E8
:104D2000006800F00700062810D2DFE800F0030555
:104D300007090B0D00240BE0042409E0082407E018
:104D4000102405E0202403E0402401E0802400BF7B
:104D5000DAE0C1492868884219D1BD48006800F0EE
:104D60000700062810D2DFE800F0030507090B0D45
:104D700000240BE0042409E0082407E0102405E0E7
:104D8000202403E0402401E0802400BFBCE0B349BC
:104D90002868884219D1AE48006800F0070006284C
:104DA00010D2DFE800F0030507090B0D00240BE02B
:104DB000042409E0082407E0102405E0202403E08F
:104DC000402401E0802400BF9EE0A5492868884275
:104DD00019D19F48006800F00700062810D2DFE8CC
:104DE00000F0030507090B0D00240BE0042409E083
:104DF000082407E0102405E0202403E0402401E01B
:104E0000802400BF80E097492868884220D19048DC
:104E1000006800F03800182811D005DC48B10828D7
:104E200009D0102811D108E020280AD028280CD158
:104E300009E001240BE0042409E0082407E0102421
:104E400005E0202403E0402401E0802400BF5BE073
:104E500085492868884219D17D48006800F007001C
:104E6000062810D2DFE800F0030507090B0D002427
:104E70000BE0042409E0082407E0102405E02024C6
:104E800003E0402401E0802400BF3DE0774928682A
:104E9000884219D16E48006800F00700062810D239
:104EA000DFE800F0030507090B0D00240BE00424E4
:104EB00009E0082407E0102405E0202403E0402452
:104EC00001E0802400BF1FE05D49286888421AD1B4
:104ED0005F48001D006800F00700062810D2DFE8D8
:104EE00000F0030507090B0D02240BE0042409E080
:104EF000082407E0102405E0202403E0402401E01A
:104F0000802400BF00E0802400BF4D49286888420B
:104F10007DD1102C1AD006DC022C09D0042C0BD029
:104F2000082C29D10DE0202C21D0402C24D120E0C8
:104F3000FCF7D8FD064623E005A8FCF7E5FD069E34
:104F40001EE002A8FCF7F8FE039E19E04048543822
:104F50000068C0F3401040B13D4854380068C0F3C9
:104F6000C101434820FA01F600E0414E08E0414EFD
:104F700006E04FF4004603E000260120089000BF41
:104F800000BF002E10D03C49686A31F81000B6FB13
:104F9000F0F9686800EB4000484503D868680003F2
:104FA000484502D20120089003E13349686A31F88C
:104FB00010C06246002330461946FBF7E8F94FF46B
:104FC000807300228446ACFB030B01FB03B10CFB96
:104FD000021C69684908034659184CEB0200CDE9E8
:104FE0000010D5F804C06246002308460199FBF77B
:104FF000CEF90746B7F5407F06D3B7F5801F03D239
:105000002868C760D5E002E001200890D1E0E86997
:10501000B0F5004F7BD1082C39D005DC5CB1012CF8
:105020002CD0042C4CD12DE0102C35D0202C42D08B
:10503000402C45D141E0FDF7FFFE064644E000006C
:10504000000C0058F369FFCFFFF4FF11001001407E
:10505000544402580044004000480040004C0040C6
:10506000005000400014014000780040007C0040E7
:105070000090D00300093D003C610008FDF7EEFE02
:10508000064621E005A8FCF73FFD069E1CE002A8AD
:10509000FCF752FE039E17E04C480068C0F3401036
:1050A00038B14A480068C0F3C101494820FA01F606
:1050B00000E0474E08E0474E06E04FF4004603E0AC
:1050C00000260120089000BF00BFFEB14249686A77
:1050D00031F81000B6FBF0F04000696800EB5100B9
:1050E000B0FBF1F7102F0FD3B7F5803F0CD24FF67E
:1050F000F07007EA000AC7F342004AEA000A28688B
:10510000C0F80CA055E002E00120089051E0082C06
:105110001AD005DC5CB1012C0DD0042C2DD10EE091
:10512000102C16D0202C23D0402C26D122E0FDF7C5
:1051300083FE064625E0FDF791FE064621E005A820
:10514000FCF7E2FC069E1CE002A8FCF7F5FD039EBE
:1051500017E01E480068C0F3401038B11B480068D3
:10516000C0F3C1011A4820FA01F600E0184E08E029
:10517000184E06E04FF4004603E000260120089098
:1051800000BF00BFAEB11449686A31F81000B6FB29
:10519000F0F0696800EB5100B0FBF1F7102F06D377
:1051A000B7F5803F03D2B8B22968C86001E001209A
:1051B00008900120A5F86A00A5F86800002028677B
:1051C0006867089809B0BDE8F08F000000440258F5
:1051D0000090D00300093D003C61000830B5034653
:1051E0009965A3F85C20A3F85E200020186700BF33
:1051F0009868B0F5805F0AD1186920B940F2FF10B5
:10520000A3F8600020E0FF20A3F860001CE098688D
:1052100048B9186918B9FF20A3F8600014E07F208E
:10522000A3F8600010E09868B0F1805F09D11869B8
:1052300018B97F20A3F8600006E03F20A3F86000C3
:1052400002E00020A3F8600000BF0020C3F88C003B
:105250002220C3F8880000BF00BF1C68083454E84F
:10526000004F44F001001C68083444E80005002D9C
:10527000F3D100BF586EB0F1005F31D1B3F86800D0
:1052800090422DDC9868B0F5805F04D1186910B9A0
:105290002A48186701E02A48186700BF002083F8F1
:1052A000800000BF186960B100BF00BF1C6854E8EF
:1052B000004F44F480701D6845E80004002CF5D1CF
:1052C00000BF00BF00BF1C68083454E8004F44F022
:1052D00080501C68083444E80005002DF3D12BE011
:1052E0009868B0F5805F04D1186910B9154818673F
:1052F00001E01548186700BF002083F8800000BF58
:10530000186960B100BF00BF1C6854E8004F44F446
:1053100090701D6845E80004002CF5D10CE000BF3A
:1053200000BF1C6854E8004F44F020001D6845E8A9
:105330000004002CF5D100BF002030BDF14700086B
:10534000894A00081D470008B94900082DE9F041C5
:1053500004460D4617469846069E6AE0701C0028D3
:1053600067D0FCF787FAA0EB0800B04200D846BB34
:1053700000BF00BF216851E8001F21F4D0702268EF
:1053800042E800010029F5D100BF00BF00BF21683D
:10539000083151E8001F21F001002168083141E87F
:1053A0000002002AF3D100BF2020C4F88400C4F812
:1053B000880000BF002084F8800000BF0320BDE803
:1053C000F0812068006800F0040088B32068C0699C
:1053D000C0F3C02060B34FF400602168086200BFD2
:1053E00000BF216851E8001F21F4D070226842E814
:1053F00000010029F5D100BF00BF00BF21680831BE
:1054000051E8001F21F001002168083141E8000245
:10541000002AF3D100BF202044F8840F6060A06010
:10542000843C00BF002084F8800000BF0320C6E752
:10543000FFE72068C0692840A84201D1012000E0B0
:105440000020B8428AD00020B9E7000010B5024819
:10545000FEF74CFA10BD0000C009002401480068A6
:10546000C06970476808002400BFFEE70248006872
:10547000C0F30220704700000CED00E010B50028DA
:1054800004DB0A07130E054A135406E00A07140E3C
:10549000034A00F00F031B1FD45410BD00E400E0CA
:1054A00018ED00E000BF704700B587B0142102A8D6
:1054B000FBF760F800BF3248006840F00400304954
:1054C00008600846006800F00400019000BF00BFBB
:1054D00000BF0846006840F0800008600846006889
:1054E00000F08000019000BF00BF00BF08460068C8
:1054F00040F0010008600846006800F001000190DB
:1055000000BF00BF00BF0846006840F0020008600E
:105510000846006800F00200019000BF00BF00BF15
:105520000846006840F0100008600846006800F077
:105530001000019000BF00BF01224FF440711148DC
:10554000FCF78CF9012211460F48FCF787F94FF45C
:10555000407002900120039000200490059002A961
:105560000848FCF775F80120029003900020049091
:10557000059002A90348FCF76BF807B000BD0000D6
:10558000E0440258000402580010025810B5B6B0AA
:105590000446142131A8FAF7EDFFBC2102A8FAF75E
:1055A000E9FF0220029000201F9002A8FCF7DCFC1B
:1055B00018B122212BA0FBF77BF900BF314800680E
:1055C00040F400302F4908600846006800F40030BD
:1055D000019000BF00BF00BF2A480838006840F0B3
:1055E00001002849083908600846006800F00100F9
:1055F000019000BF00BF0C203190022032900120AA
:105600003390032034900720359031A91E48FCF7D1
:105610001FF81E481E49086008464460002181604A
:10562000C160016181610C214161FEF78BFB18486B
:105630000068006820F040001549096808601448B7
:105640000068006840F020001149096808602620C1
:10565000FCF7E3F9032211462620FCF7F2F936B0F5
:1056600010BD00002E2E5C2E2E5C486172647761A6
:1056700072655C7372635C6273705F757361727480
:10568000322E6300E84402580000025800440040F3
:1056900068080024014908607047000010000024D9
:1056A00010B504464FF47A7104FB01F000F002F8E3
:1056B00010BD000070B5034600224FF0E02675696A
:1056C0000D4E366803FB06F44FF0E026B16910E09A
:1056D0004FF0E026B06988420BD0884202D20E1A01
:1056E000324402E02E1A0E4432440146A24200D354
:1056F00000E0EDE700BF70BD1000002400BF054AC8
:10570000D26902F04002002AF9D0C2B2014B9A627B
:10571000704700000010014010B504462068094998
:105720000840B0F1105F0BD107A0FAF7A7FE606840
:1057300008490860206800F015FC064800688047AA
:1057400010BD00000000F02FCCF8D7AAB5BD415025
:10575000500D0A000C0000242DE9F05F0746884632
:1057600091460025BB464446AA461DE0E078060661
:10577000A07846EA0046607846EA0026207806438C
:10578000241D2846691C8DB20C4941F82060B5F5EE
:10579000007F07D100254FF40072584600F09EFAB2
:1057A0000BF5006B0AF1040ACA45DFD325B12A467E
:1057B0000249584600F092FABDE8F09F68000024C4
:1057C0007047704710B5012211020748FCF746F8F0
:1057D000012251020448FCF741F801221146024817
:1057E000FCF73CF810BD00000004025810B5002280
:1057F0004FF480710748FCF731F800224FF4007134
:105800000448FCF72BF8002201210248FCF726F897
:1058100010BD00000004025870B50546642095FBD9
:10582000F0F100FB1150C4B2322C08DA0A480078BB
:1058300028B9012008490870FFF7D8FF0AE0322C88
:1058400008DB05480078012804D1002002490870CF
:10585000FFF7B8FF70BD00000000002400F0E2FA7E
:10586000FCF71AF8FEF704FD4FF4F070FFF712FF93
:1058700000F022F8FFF718FE00F09CF94FF4E13039
:10588000FFF784FE4FF4E13000F02EFCFAF75AFFE8
:105890004FF47A710420FFF794FF00F069FB06E0F3
:1058A00003A0FAF7EBFD4FF47A70FFF7F9FEF7E784
:1058B0007573617274310A001FB501200022032341
:1058C000CDE90120009303901346024610214007C2
:1058D00000F04FF8002001210323CDE900310346F9
:1058E0000222CDE902101221480600F042F8012000
:1058F00000220323CDE901200093039013460322E5
:105900001221100700F035F8012000220323CDE911
:10591000012000930390134604220F214FF06050A2
:1059200000F027F800200323CDE900300290034661
:105930000522192103904FF0C04000F01AF8012011
:1059400000220323CDE90120009303901346062291
:105950001821C80600F00DF800200323CDE900301F
:105960000290012307221B210390C80700F001F8D1
:105970001FBD2DE9FF5F04460D4616461F46DDE9B3
:1059800010ABDDE90E89FCF711F801208DF800005D
:10599000F0B28DF8010001948DF80C70E8B28DF82A
:1059A000080000208DF809008DF80A008DF80B80A2
:1059B0008DF80D908DF80EA08DF80FB06846FBF7AE
:1059C000C7FF0420FCF708F8002004B0BDE8F09FF2
:1059D0002DE9F04104460E461548005D38B91448DB
:1059E00038380168204688470120BDE8F081114819
:1059F00050F82400B04219D90F4850F82400B6FBE3
:105A0000F0F10B48183850F8240050F821200025F8
:105A100008E000230648183850F824004F1940F8D1
:105A200027306D1C9542F4DB0020DEE70220DCE726
:105A300060000024846100086C61000830B50446F1
:105A40000425084951F8241001FB05F2064951F8D4
:105A50002400002100F07EF8012103481830015590
:105A600030BD000054610008480000242DE9F047D3
:105A700004460F460025A9462348005D20B9224868
:105A800038380168204688471FB94FF0FF30BDE81D
:105A9000F0871E4850F82400B7FBF0F61B4850F87A
:105AA0002400B7FBF0F100FB117000B1761C184820
:105AB00050F82400451E22E01348183850F82400FE
:105AC00050F8250010B909F1010901E04FF0000973
:105AD000B14513D14FF0000809E00B48183850F8D1
