:020000040802F0
:10000000A87E03248503020845A50208B903020857
:10001000B1A402083118020839D502080000000016
:10002000000000000000000000000000B102020813
:10003000691E0208000000000D030208ADB60208A8
:10004000AB030208AB030208AB030208AB030208D0
:10005000AB030208AB030208AB030208AB030208C0
:10006000AB030208AB030208AB0302087D180208C9
:10007000AB0302088D1802089D180208AD1802088B
:10008000BD180208CD180208AB030208AB03020832
:10009000AB030208AB030208AB030208AB03020880
:1000A000AB030208AB030208AB030208AB03020870
:1000B000CDB70208F5B7020835B80208AB0302084D
:1000C000AB030208AB030208AB030208D5AB02087E
:1000D000AB03020819CE02082DD00208A5D00208F1
:1000E000AB03020889A8020800000000AB03020865
:1000F000AB030208AB030208AB030208AB03020820
:10010000AB030208AB0302084DB80208AB030208B8
:10011000E9BA020805BD020865B802087DB8020800
:10012000AB030208AB030208DD180208ED18020851
:10013000AB0302081D1F0208AB030208AB03020851
:1001400000000000000000000000000000000000AF
:10015000AB030208AB030208AB030208DDD20208BE
:10016000AB030208AB030208AB030208AB030208AF
:10017000AB030208AB030208AB0302080000000057
:10018000AB030208AB03020819BF020859C10208F9
:10019000AB030208AB030208AB030208AB0302087F
:1001A000AB030208AB030208AB030208AB0302086F
:1001B000AB030208AB030208AB030208AB0302085F
:1001C000AB030208AB030208AB030208AB0302084F
:1001D000AB030208AB030208AB030208AB0302083F
:1001E000AB030208AB030208AB030208AB0302082F
:1001F000AB030208AB030208AB030208AB0302081F
:10020000AB030208AB030208AB030208AB0302080E
:10021000AB030208AB030208AB030208AB030208FE
:10022000AB030208AB030208AB03020800000000A6
:10023000AB030208AB03020800000000AB03020896
:10024000AB03020821180208AB030208AB03020843
:10025000AB030208AB030208AB030208AB030208BE
:10026000AB030208AB030208AB030208AB030208AE
:10027000AB030208AB03020895A2020800000000CD
:10028000AB030208AB030208AB0302080000000046
:1002900000000000AB030208DFF810D001F01CF8EA
:1002A0000048004789790408AFF30080A87E032442
:1002B0002D4B19680868B0E8F04F80F30988BFF348
:1002C0006F8F4FF0000080F311887047000000002E
:1002D00008480068006880F308884FF0000080F349
:1002E000148862B661B6BFF34F8FBFF36F8F00DF24
:1002F00000BF00BF08ED00E0DFF80C00016841F42A
:1003000070010160704700BF88ED00E0EFF30980E5
:10031000BFF36F8F144B1A681EF0100F08BF20ED4B
:10032000108A20E9F04F106009B44FF0100072B647
:1003300080F31188BFF34F8FBFF36F8F62B638F031
:1003400011FA4FF0000080F3118809BC19680868A1
:10035000B0E8F04F1EF0100F08BFB0EC108A80F329
:100360000988BFF36F8F7047BC030024EFF305804B
:1003700070470000EFF308807047EFF30980704783
:1003800068467047DFF82400016841F4700101609D
:100390000748804707480047FEE7FEE7FEE7FEE71D
:1003A000FEE7FEE7FEE7FEE7FEE7FEE788ED00E09A
:1003B000C1B60208990202087046694612F056FF5B
:1003C000FFF7FEFF2DE9F05F0546002092469B46B1
:1003D00088460646814640241BE02846414647465B
:1003E000224600F0D4FA53465A46C01A914110D31F
:1003F00011461846224600F0BBFA2D1A67EB010899
:100400004F4622460120002100F0B2FA17EB000906
:100410004E41201EA4F10104DFDC484631462A4645
:100420004346BDE8F09F000000487047ACFF050858
:1004300010B50446FFF7F8FF0068005D00F001000A
:1004400010BDA0F14101192900D8203070470000EB
:100450000649074A0868504343F2390210440860CD
:100460004008704701490860704700006404002498
:100470006D4EC64110B5441A0346944209D2841801
:10048000114403E011F8013D04F8013D521EF9D278
:1004900010BD40EA0104A40703D009E010C9121FEF
:1004A00010C3042AFAD203E011F8014B03F8014B00
:1004B000521EF9D210BDD2B201E000F8012B491E44
:1004C000FBD270470022F6E710B513460A460446F1
:1004D0001946FFF7F0FF204610BD421E12F8013FFB
:1004E000002BFBD111F8013B02F8013B002BF9D1A5
:1004F000704730B505462A460B4612F8010B13F833
:10050000014B08B1A042F8D01CB1002802D06D1CEC
:10051000F1E7284630BD10B5044604E00B7800F83A
:10052000013B03B1491C521EF8D2204610BDCAB28D
:10053000401E10F8011F8A4202D00029F9D1002084
:100540007047421C10F8011B0029FBD1801A70472C
:1005500010B5002200E0521C835C8C5CA34201D1E8
:10056000002BF8D1D8B2E1B2401A10BD30B5044624
:100570000020034600E05B1C934203D2E05CCD5CAC
:10058000401BF8D030BD034611F8012B00F8012BB9
:10059000002AF9D11846704730B5054600200346B9
:1005A00000E05B1C934205D2EC5CC85C201A01D1D0
:1005B000002CF6D130BD000070B50F4D00B9286891
:1005C000002412E00A4602E09E4203D0521C137837
:1005D000002BF9D1DAB2224305D02BB124B100218E
:1005E00000F8011B04E00446401C0678002EE9D107
:1005F0002860204670BD00006804002430B5034622
:100600001D783DB10A4612F8014B1CB1AC42FAD13B
:100610005B1CF5E7181A30BD30B50546002008E030
:100620000A4602E0A34207D0521C1378002BF9D1EE
:10063000401C2C5C002CF3D130BD00000FB400B581
:100640008DB010A909900B9000914FF0FF300A90E7
:1006500000200C9005480690054807906A4609A8B6
:100660000F9900F0B5FB0DB05DF814FBED0D02081D
:100670000B0E02082DE9FF5F1D464FF0FF3BD5E949
:10068000014691465F464FF00008A9697F1C01981A
:100690008847296A824688470028F6D1BAF1FF3F89
:1006A0000CD024F4C064002E19DD600614D5BAF114
:1006B0002B0F09D0BAF12D0F0ED103E0584604B02C
:1006C000BDE8F09F44F48064A9697F1C01988847C5
:1006D000761E8246002E02DDBAF1300F03D0B9F14A
:1006E000000F26D032E0A969761E44F400747F1C06
:1006F000019888478246002E05DDBAF1780F06D0B2
:10070000BAF1580F03D0B9F1000F10D01EE0B9F1C3
:10071000000F02D0B9F1100F18D1A969761E24F488
:1007200000747F1C019888478246102002E0082050
:1007300000E00A20814609E008FB0908A969761E45
:1007400044F400747F1C019888478246002E05DD22
:100750004946504600F078F90028EDDAE969019839
:100760008847A00502D46FF00100A8E7E00725D173
:10077000600613D5600502D5C8F1000000E04046D0
:1007800029680A1D2A600968220501D5087015E04C
:10079000220701D5088011E008600FE02868011DDC
:1007A00029600068210502D580F8008006E0210755
:1007B00002D5A0F8008001E0C0F8008038467EE74E
:1007C0002DE9FF5FD2E901A74FF000089169994632
:1007D0001446DDF838B0464601988847054659EA80
:1007E0000B0005D009E0A169761C019888470546F1
:1007F000216A284688470028F5D1681C03D05FEAA3
:10080000CA7005D015E04FF0FF3004B0BDE8F09F8E
:100810002068011D2160D0F800800AE05FEACA70FC
:1008200001D108F8015BA169761C7F1E01988847F9
:100830000546002F1ADD681C18D0B9F1000F0DD045
:10084000E81705EBD060421120F01F0059F8221084
:100850002A1A012090400142E0D107E0BBF1000FCD
:10086000DCD1216A284688470028D7D0E169019861
:100870008847BBF1000F07D1002E05DD5FEACA7083
:1008800002D1002188F80010A068B84203DDBBF156
:10089000000F03D017B16FF00100B6E73046B4E7A0
:1008A0002DE9F04791460F4680460446002614F88D
:1008B000015B2DB1FFF7B8FD0068405DC007F6D1C0
:1008C0002B2D02D02D2D18D0641E4A4639462046C5
:1008D00000F0ACFA27B13968A14201D1C7F8008015
:1008E00071054FF002040BD54042002803DD0CF0E7
:1008F0001FFF0460A007BDE8F08746F48066E4E7C8
:100900000028F8DA0CF014FF04606FF00040F2E702
:1009100070B506460CF00CFF046805460A2200215B
:100920003046FFF7BDFF2C6070BD70B506460CF079
:10093000FFFE046805460A2200213046FFF7B0FF9B
:100940002C6070BD30B50B460146002020220124EA
:1009500009E021FA02F59D4205D303FA02F5491B8D
:1009600004FA02F52844151EA2F10102F1DC30BDA3
:10097000202A04DB203A00FA02F10020704791405F
:10098000C2F1200320FA03F3194390407047202A54
:1009900004DB203A21FA02F00021704721FA02F329
:1009A000D040C2F120029140084319467047000030
:1009B000014900F003B80000A851032410B50068F5
:1009C0003C22B0FBF2F302FB1303B0FBF2F00B602E
:1009D000B0FBF2F302FB1303B0FBF2F018224B6002
:1009E000B0FBF2F302FB1303B0FBF2F0021D8B60CD
:1009F0000723B2FBF3F403FB1422800040F2B5534B
:100A000000F66C308A61B0FBF3F2B0FBF3F403FB49
:100A10001400443280084A61C8613B2802D392071F
:100A200000D0401C0022074C13460A61E25C82425F
:100A300003D8801A5B1C0B61F8E7401CC8600846AD
:100A400010BD0000B0FF05083A2800D2303820F071
:100A50002002412A01D3A2F13700884201D34FF08E
:100A6000FF3070472DE9FF4F087883B09946FF2883
:100A700005D0491C2D2804D00024002008E00020C7
:100A80000BE00124F9E700EB800003EB4000491C78
:100A90000B78FF2BF7D104B1404200230293147866
:100AA00019461D462D2C01D02B2C04D1521C2D2C67
:100AB00013D000240294AA461478FF2C0FD00A25E4
:100AC000A3FB057801FB05814FF0000C03FB0C1123
:100AD000521CE3194AEB0101EEE70124EAE78144E5
:100AE00053EA010002D019F5C87F06DA0398002105
:100AF000C0E9001107B0BDE8F08F0025AE4E2F46CB
:100B0000DFF8B882184600F000FECDE90001B9F127
:100B1000000002DAC9F1000400E004460023A74AFD
:100B20001AEB030B42EB045A12E0E00707D02A4607
:100B300033463846414600F0BEFA074688462A4604
:100B400033461046194600F0B6FA05460E466410C4
:100B5000002CEAD1DDE90001B9F1000F5A465346F5
:100B600006DA00F01AFB3A46434600F016FB05E0B1
:100B700000F0A1FA3A46434600F09DFA029A0AB103
:100B800081F00041039AC2E90001B3E72DE9FF4F6C
:100B90001F468DB0D7E901464FF0FF382E2045465D
:100BA0004FF000090B90B9696D1C0E988847396A9F
:100BB000824688470028F6D1BAF1FF3F0AD024F4D4
:100BC000D064002E11DDBAF12B0F08D0BAF12D0F31
:100BD0000BD102E0404611B08DE744F48064B9695E
:100BE0006D1C0E9888478246761E6946600501D5C1
:100BF0002D2000E02B208DF8000001F1010B0DF1FC
:100C0000200809E0B9696D1C0E98884782460F9844
:100C100044F40074761E0560002E02DDBAF1300F38
:100C2000F0D00B998A453ED144F0800406E00F993C
:100C3000681CA9F1010944F400740860B9696D1CCD
:100C4000761E0E98884782463028F0D02BE00B990C
:100C50008A4505D1200603D444F08004761E18E0AE
:100C600050460DF043F808B30DF11301761E44F41D
:100C700000748B4508D2AAF130000BF8010B200656
:100C800007D5A9F1010003E0200602D409F1010013
:100C90008146A00502D50F99681C0860B9696D1CD2
:100CA0000E9888478246002ED1DC53E0002E51DD9D
:100CB000BAF1650F02D0BAF1450F4BD1A00549D565
:100CC000B9696D1C24F44074761E0E9888478246DC
:100CD000002E0CDD2B2804D0BAF12D0F07D144F4DF
:100CE0008074B9696D1C0E9888478246761EE005AF
:100CF00001D52D2100E02B2108F8011BCDF82C8017
:100D000021E00DF12901761E44F4007488450CD2CF
:100D1000AAF1300010F0FF0088F8000002D10B9912
:100D2000884509D908F1010806E0E00501D5244805
:100D300001E042F20F708146B9696D1C0E98884738
:100D400082460F980560002E04DD50460CF0CEFF61
:100D50000028D6D1F9690E988847FF208BF800004B
:100D600088F800000020069007904B466A4608A9C4
:100D700006A8FFF777FEA00502D46FF001002AE76E
:100D800014F0240F0AD0E00714D1DDE90612386808
:100D9000031D3B600068C0E900120BE0DDE90601BD
:100DA00000F0BFFC0146E00704D13868021D3A603C
:100DB0000068016028460EE7000014400000F03F84
:100DC000F1D8FFFF0268114413780160184670479C
:100DD000D160044951610449116200211161114639
:100DE00000F09EBAC50D020831040208426842B103
:100DF000016811F8013B23B1521EC0E900121846E8
:100E000070470121C160881E704742685AB1C368AB
:100E1000016843B983688B4205D0491E521CC0E962
:100E20000012002070474FF0FF3070472DE9F05F4F
:100E300082460078002715468B460AF10104B94620
:100E4000302801D09DB113E014F8010B0127782858
:100E500003D0582801D045B10AE00DB1102D07D1BB
:100E60000027102514F8010B02E0082500E00A25F0
:100E70000026B0460EE005FB080005FB06F1012741
:100E800001EB10461FFA80F8B6F5803F00D3B94653
:100E900014F8010B2946FFF7D7FD0028EBDABBF168
:100EA000000F05D00FB1641E00E05446CBF800409F
:100EB000B9F1000F06D00CF03BFC02210160C81E06
:100EC000BDE8F09F48EA0640FAE700000FB40023AF
:100ED00000B589B00CA900910B996FF00042CB606E
:100EE0001E4B06931E4B07930423CDE901321D4A86
:100EF000089202466B460020FFF748FE09B05DF8F5
:100F000014FB70B586B006464FF0FF300091CDE976
:100F10000101002015460C4604903246694604A89B
:100F2000FFF7D4FF02460498211825B108B10846FE
:100F300000E020462860049800280DD0002A02DD39
:100F40000098884208D0081B0094CDE9010432467D
:100F5000694604A8FFF7BAFF06B070BDED0D0208A0
:100F60000B0E0208310402082DE9FE4F804681EA8B
:100F70000300C00F0C46009021F0004123F0004513
:100F8000B8EB0200A94105D24046214690461C46D6
:100F90000B46024623F00040104347D0270DC7F30D
:100FA0000A00C3F30A510290401A019040286BDAFC
:100FB000C3F3130040F4801B0098924620B1002335
:100FC000D2EB030A63EB0B0B01985946C0F14002C8
:100FD0005046FFF7CDFC06460D4650465946019A4D
:100FE00000F08CF910EB08006141002487EA1152EF
:100FF00084EAE7731A4340D0009A62B3019A012A47
:101000004FEA075215DC001B61EB02014FF0004272
:1010100002EA0752CDE90042001C41F58011324638
:101020002B4600F024FB03B0BDE8F08F404621467C
:10103000F9E7001B61EB0201001C41F58013001869
:101040005B412018A2F5001747EB030140EAD57079
:10105000B6196D4111E06D084FEA360645EAC075D4
:101060004FEA0752001B61EB0201001C41F58011A1
:1010700049084FEA30000019514132462B4603B06F
:10108000BDE8F04F00F0E4BA0098012240000023D0
:10109000D0EB020263EBE073009821464FEAE07464
:1010A000B8EB000061EB0401E9E783F000435BE784
:1010B00081F0004158E72DE9FE4F81EA030404F076
:1010C000004421F0004100944FF0000B23F0004356
:1010D00050EA01045ED052EA03045BD0C3F30A5421
:1010E000C1F30A552C44A4F2F3340194A0FB02543A
:1010F000C1F3130141F48011C3F3130343F48013CC
:1011000001FB024400FB034E840A970A44EA81541F
:1011100047EA8357A4FB076802958D0A05FB0785FC
:101120004FEA932C04FB0C542705029D4FEA065806
:1011300047EA1637B5EB08056EEB070C870E920EE3
:1011400047EA811742EA8312A7FB0201B6EB0B01C3
:1011500064EB00042B0D43EA0C335E1844EB1C5087
:10116000DA465146E7FB0201C5F313044FEA0B339D
:1011700043EA14534FEA0432019C43EA0603A4F104
:101180000C040294009CCDE900B400F070FA03B0A6
:10119000BDE8F08F00200146F9E72DE9F04D81EA26
:1011A000030404F0004B21F0004514464FF0000A00
:1011B00023F0004150EA050220D054EA01021DD07C
:1011C000C5F30A570246C5F31303C1F31300C1F375
:1011D0000A5640F4801543F48013A7EB0608101B51
:1011E000D64608F2FD3873EB050002D308F101087A
:1011F00001E092185B41B8F1000F03DA00200146CC
:10120000BDE8F08D00204FF48011064684460EE0C4
:10121000171B73EB050705D3121B63EB050306438E
:101220004CEA010C49084FEA300092185B4150EA41
:101230000107EDD152EA030012D082EA040083EAEA
:101240000501084305D0101BAB4106D20122002343
:1012500006E000224FF0004302E06FF0010253105D
:101260001AEB06004CEB085110EB0A0041EB0B01A6
:10127000BDE8F04D00F0ECB9C1F30A52C1F313011F
:1012800040F2FF3341F480119A4202DA0020014615
:10129000704740F233439A42A2F2334202DC524298
:1012A000FFF775BBFFF764BB30B5041E71F1000496
:1012B00004DB4FF00044404264EB0101141E73F163
:1012C000000405DB1C464FF00043524263EB04036D
:1012D000994208BF904230BD064C074D06E0E068D9
:1012E00040F0010394E8070098471034AC42F6D36D
:1012F000FEF7D6FF500D0608A00D0608202A06DBD3
:10130000CB17203A41FA02F043EAE07306E041FAD3
:1013100002F3D040C2F120029140084319467047C1
:101320002DE9F34F8BB04FF0000801F10C000C4693
:101330004FF0010B46460DF1080A01906269012148
:1013400001989047051E2DD0252D2CD0216A884765
:10135000C0B16269012101989047216A884700283D
:10136000F7D1411E62690198904700E0761CA1699F
:101370000B988847216A88470028F7D1E1690B98C4
:101380008847DBE7A1690B9888470746A84201D147
:10139000761CD3E7E1690B9888477F1C02D1B8F12E
:1013A000000F6FD047E1002762693D46394601983A
:1013B00090472A2804D162690121019890470125AC
:1013C000DFF888926269012101989047A0F130010D
:1013D0000A290AD24F45E5DC07EB870100EB4107FC
:1013E000303FDFD445F01005ECE7E90601D46FF09B
:1013F00000476C280AD04C2814D0682815D06A28D9
:101400000DD074281CD07A281AD01DE06269012101
:10141000019890476C2802D045F0040514E045F08F
:1014200002050DE045F020050AE0626901210198FE
:101430009047682802D045F0080505E045F40065AE
:101440006269012101989047C4E9015765283DD0A0
:1014500019DC58287AD00CDC452837D004DC252844
:1014600026D0412831D131E046282FD047282CD131
:101470002CE05B2877D0612828D063287CD06428B2
:1014800023D15AE0D1E06F2848D008DC66281DD06F
:1014900067281BD0692821D06E2816D127E0702834
:1014A00045D0732868D0752847D078280DD14DE0F5
:1014B000A1690B988847054625283FF469AFE16983
:1014C0000B9888476D1C3FF46AAFB4E023466A4628
:1014D0006FF001000B99FFF759FB9FE045F04000CA
:1014E0006060A80723464FF0000236D43EE0E807CC
:1014F0007FF447AF2068011D21600068290501D5F0
:1015000006701BE7290701D5068017E7A90703D551
:10151000F117C0E9006111E706600FE745F04000F0
:101520006060A80723464FF0080216D41EE040F67C
:101530000E0125EA0100606016E045F040006060A1
:10154000A80723464FF00A0207D40FE045F04000F9
:101550006060A80708D5234610226FF001000B99A0
:10156000AFF300805AE007E0234610226FF001003D
:101570000B99FFF77FF851E04FF000094F464B46BB
:10158000632802D05B2807D041E02079C00601D44F
:101590000120A06001273AE062690121019890478B
:1015A0005E2805D14FF001096269494601989047CC
:1015B000216939B900210A46534643F82120491CC4
:1015C0000829FADBB0B3216969B9C11700EBD16210
:1015D00053110AEB830122F01F02821A01200B68CB
:1015E000904003430B6062690121019890475D2898
:1015F000E8D1B9F1000F09D00020514651F8202060
:10160000D24341F82020401C0828F7DB02AB2246D9
:1016100000976FF001000B99FFF7D2F800280CDA61
:10162000401C08D1BBF1000F05D04FF0FF300DB0CA
:10163000BDE8F08FFFE74046F9E7E90701D108F17F
:10164000010806444FF0000B78E60000CCCCCC0C2F
:1016500010B5141E73F1000408DA401C41F10001BA
:1016600092185B411A4301D120F0010010BD2DE911
:10167000F04D92469B4611B1B1FA81F202E0B0FA08
:1016800080F220329046FFF773F904460F4640EA95
:101690000A0041EA0B0153465A46084313D011464B
:1016A00053EA010019D0C8F140025046FFF76FF924
:1016B00005460E46504659464246FFF759F908433B
:1016C00005D0012004E020463946BDE8F08D002019
:1016D000054346EAE0762C4337430A986305E40A5B
:1016E000A0EB08000022FD0A44EA47540A3002D564
:1016F00000200146E9E7010510196941DDE90845C7
:1017000000196941BDE8F04DA2E70EB540F2334241
:1017100002920022CDE900221346FFF7A8FF03B092
:1017200000BD01F0004330B421F0004150EA010255
:1017300006D00A0DA2F56072C1F31301002A02DC83
:1017400030BC00207047440F44EAC104C100E018D7
:1017500030BC00EBC250AFF300800029A8BF704737
:10176000401C490008BF20F00100704710B4B0FAD7
:1017700080FC00FA0CF050EA010404BF10BC704772
:1017800049B1CCF1200421FA04F411FA0CF118BF8C
:10179000012121430843A3EB0C01CB1D4FEA00615B
:1017A0004FEA102042BF002010BC704700EBC3502E
:1017B00010440029A4BF10BC7047401C490008BF5A
:1017C00020F0010010BC704770B58C1810F8015B58
:1017D00015F0070301D110F8013B2A1106D110F8CA
:1017E000012B03E010F8016B01F8016B5B1EF9D1CE
:1017F0002B0705D40023521E0DD401F8013BFAE754
:1018000010F8013BCB1A921C03E013F8015B01F8BE
:10181000015B521EF9D5A142D8D3002070BD000053
:1018200010B5024801F088FE10BD00009874002435
:1018300000BFFEE7F8B505460E464FF6FF7448F2C6
:10184000050000906946684608F05CF910E015F85C
:10185000010B4440002009E004F0010121B1BDF872
:10186000001081EA640400E06410401C0828F3DBE7
:10187000301EA6F10106EAD12046F8BD10B5024897
:1018800001F05AFE10BD0000905A002410B5024825
:1018900001F052FE10BD0000906D002410B502480A
:1018A00001F04AFE10BD0000106F002410B5024880
:1018B00001F042FE10BD00009070002410B50248F7
:1018C00001F03AFE10BD00001072002410B502486D
:1018D00001F032FE10BD00009073002410B50249E3
:1018E000C86F01F029FE10BD1075002410B5024923
:1018F000886F01F021FE10BD107500240146374AA3
:101900000868904249D0354A18320868904244D05D
:10191000324A3032086890423FD0304A4832086834
:1019200090423AD02D4A60320868904235D02B4A16
:1019300078320868904230D0284A90320868904245
:101940002BD0264AA8320868904226D0244A08683C
:10195000904222D0224A1832086890421DD0204A74
:1019600030320868904218D01D4A483208689042C8
:1019700013D01B4A6032086890420ED0184A783261
:101980000868904209D0164A90320868904204D004
:10199000134AA8320868904201D1012000E00020DB
:1019A000B0B10A78103A1823B2FBF3F000F0070246
:1019B0000C4B9A5CCA65032805D90A686FF30902C3
:1019C000121D8A6503E00A686FF309028A6503E065
:1019D000086820F0FF008865886D7047100002409D
:1019E00010040240A4A2050810B502682B4C03683D
:1019F000A34222D0294C14340368A3421DD0274CA3
:101A000028340368A34218D0244C3C340368A34212
:101A100013D0224C50340368A3420ED01F4C6434C0
:101A20000368A34209D01D4C78340368A34204D054
:101A30001A4C8C340368A34201D1012300E0002337
:101A40008BB10378083B1424B3FBF4F1144B03EB84
:101A500081030366124B8033436601F01F040123A8
:101A6000A340836618E00378103B1824B3FBF4F11D
:101A70000C4B9A4204D80B4BA83B9A4200D3083136
:101A8000094B03EB81030366074B8033436601F088
:101A90001F040123A340836610BD000008540258B0
:101AA00000580258B8040240000802400179A9B366
:101AB000082940D8204B02689A4222D01E4B14338A
:101AC00002689A421DD01C4B283302689A4218D0F3
:101AD000194B3C3302689A4213D0174B50330268BB
:101AE0009A420ED0144B643302689A4209D0124BCA
:101AF000783302689A4204D00F4B8C3302689A42C2
:101B000001D1012200E000224AB14A1E0B4B03EB37
:101B10008202C266094A4032026708E00BE04A1EB0
:101B2000074B03EB8202C266054A403202674A1E37
:101B300001239340436770470854025800590258E4
:101B400000090240014600208A69D2B98A6A32B18E
:101B5000012A0DD0022A03D0032A10D10EE000BFC3
:101B6000CA6A02F08072B2F1807F00D1012007E0E2
:101B7000CA6AB2F1C07F00D1012001E000E000BFDD
:101B800036E08A69B2F5005F1BD18A6A32B1012A58
:101B900007D0022A03D0032A11D10AE000BF012096
:101BA0000EE0CA6A02F08072B2F1807F00D101209B
:101BB00006E0CA6AB2F1C07F00D1012000E000BF98
:101BC00016E08A6A32B1012A05D0022A04D0032A1B
:101BD0000CD103E000BF00BF012008E0CA6A02F098
:101BE0008072B2F1807F00D1012000E000BF00BF11
:101BF00070470000F0B5856D846D984F0668BE4251
:101C000070D0964F18370668BE426BD0934F30376E
:101C10000668BE4266D0914F48370668BE4261D022
:101C20008E4F60370668BE425CD08C4F78370668AE
:101C3000BE4257D0894F90370668BE4252D0874F78
:101C4000A8370668BE424DD0854F0668BE4249D0CF
:101C5000834F18370668BE4244D0814F303706683C
:101C6000BE423FD07E4F48370668BE423AD07C4FD6
:101C700060370668BE4235D0794F78370668BE4275
:101C800030D0774F90370668BE422BD0744FA837BC
:101C90000668BE4226D0734F0668BE4222D0714FFE
:101CA00014370668BE421DD06E4F28370668BE4204
:101CB00018D06C4F3C370668BE4213D0694F50377E
:101CC0000668BE420ED0674F64370668BE4209D030
:101CD000644F78370668BE4204D0624F8C3706687E
:101CE000BE4201D1012600E000263EB1D0E91976BE
:101CF0007E60C66E16B1D0E91C767E60574F0668CE
:101D0000BE4249D0554F18370668BE4244D0534FA3
:101D100030370668BE423FD0504F48370668BE4253
:101D20003AD04E4F60370668BE4235D04B4F7837B9
:101D30000668BE4230D0494F90370668BE422BD06D
:101D4000464FA8370668BE4226D0454F0668BE42B9
:101D500022D0434F18370668BE421DD0404F30375F
:101D60000668BE4218D03E4F48370668BE4213D0C0
:101D70003B4F60370668BE420ED0394F7837066851
:101D8000BE4209D0364F90370668BE4204D0344F69
:101D9000A8370668BE4201D1012600E00026DEB168
:101DA00090F85C6006F01F073F26BE40AE600668F4
:101DB000366826F4802607683E6006687360866889
:101DC000402E04D10668B2600668F16044E00668FF
:101DD000B1600668F2603FE0224F0668BE4222D042
:101DE000204F14370668BE421DD01E4F28370668A4
:101DF000BE4218D01B4F3C370668BE4213D0194F65
:101E000050370668BE420ED0164F64370668BE4291
:101E100009D0144F78370668BE4204D0114F8C3772
:101E20000668BE4201D1012600E00026A6B190F866
:101E30005C6006F01F070126BE406660066873609E
:101E40008668402E04D10668B2600668F16003E03F
:101E50000668B1600668F260F0BD00001000024044
:101E60001004024008540258704710B5002210E0D8
:101E700002EB4204036903EBC40100230B604B60D7
:101E80008B60CB600B614B6100F1440343F822107F
:101E9000521C042AECD3002444658465C46544665E
:101EA00004660324036803F58053C3F830410368D4
:101EB00003F580530469C3F81C410369483304687F
:101EC00004F58054C4F8283110BD10B500220EE08E
:101ED00002EB4204C36803EBC40100230B604B60B8
:101EE0008B60CB6000F1180343F82210521C042AC7
:101EF000EED3002484620324036803F58053C3F8FF
:101F00002C41036803F58053C468C3F81441036887
:101F100003F58053C468C3F8204110BD10B50248D2
:101F200002F0D4FE10BD00005089002410B5A2B00C
:101F3000044601208DF83300002012908DF84100F6
:101F40008DF8430001208DF828008DF856008DF89B
:101F5000320000208DF84C0001208DF884004003F1
:101F60000F9000208DF85C0018908DF885008DF89A
:101F700086004FF4C360169000208DF830000B905F
:101F800001208DF8350000208DF836008DF84000D6
:101F90001D901B9014908DF864008DF87A0001203C
:101FA0008DF842002020209001208DF84400002070
:101FB0008DF855004FF0405009904FF480400E903E
:101FC00000208DF8310002201F9000208DF878004D
:101FD0008DF879008DF8540001208DF83400002030
:101FE0001A9001208DF8700009A9204600F0AEFA81
:101FF00001208DF804000290002000908DF81C0054
:102000008DF80D008DF80C004FF4001006900020A4
:102010008DF814004FF40010049000208DF81D007E
:102020004FF4067008906946204600F031FA22B05D
:1020300010BD000070B506463068D0F8004224F4A8
:10204000706405F021FA05461348854205D313480C
:10205000854202D244F400741AE01048854205D348
:102060000F48854202D244F4407411E00C48854286
:1020700003D30C48854200D20AE00A48854205D3C2
:102080000948854202D244F4807401E044F480643B
:102090003068C0F8004270BD002D3101C00E16023C
:1020A0000087930300E1F50580D1F0080020704718
:1020B00010B503F07BFE10BD10B5024803F0E4F943
:1020C000002010BD5089002470B504460D46164608
:1020D00033462A462146044803F06BF910B14FF00D
:1020E000FF3070BD0020FCE75089002470B5044625
:1020F0000D46164633462A462146044803F06AFB3D
:1021000010B14FF0FF3070BD0020FCE75089002473
:102110002DE9F04F06460B46914606F11804226958
:10212000D4F810C0002754F822109D68BA46C86839
:1021300000F00040B0F1004F04D004F1140050F85A
:10214000220010B10220BDE8F08F187800F00400E2
:10215000C8B3C8686FF30F00D3F824B040EA0B008F
:10216000C860C86840F48030C8603068006E40F4D1
:102170008010D6F800B0CBF86000187800F00800A6
:1021800008B3B3F82CB088686BF31F408860C86848
:1021900040F40030C860C86820F44020D3F830B064
:1021A00040EA0B00C8603068406E40F48010D6F8FA
:1021B00000B0CBF864003068006D40F08060D6F865
:1021C00000B0CBF85000187800F0100058B18868C3
:1021D0006FF30D00D3F818B040EA0B008860C868B0
:1021E00040F08060C860187800F0040018B91878D2
:1021F00000F01000F0B1C86840F08040C860C868C6
:1022000040F00040C86000BF521C042A00D3121FD7
:1022100000BF54F822107F1CC86800F00040B0F1E5
:10222000004F07D154F82C10C86820F00040C86057
:10223000022088E77F1C2868086088686FF30D001B
:10224000D5F804B040EA0B008860A86868B1AD68B2
:10225000286848608868DFF834B200EA0B00B5F8F7
:1022600004B040EA0B40886007E0002048608868BE
:10227000DFF818B200EA0B008860187800F0100050
:10228000A0B1C86820F4F000B3F820B040EACB4019
:10229000C860C8686FF31100D3F81CB040EA0B00A7
:1022A000C860C86840F48020C8601FE0C8686FF349
:1022B0000E00D3F804B040EA0B00C860187800F0B4
:1022C000010038B1C86820F44030D3F814B040EAB7
:1022D0000B00C860187800F0200038B1C86820F002
:1022E0004060D3F810B040EA0B00C860187800F0E6
:1022F000040038B1886820F44040D3F828B040EAA0
:102300000B008860C86840F00050C860C86820F0C2
:102310008040C860C86840F00040C860187800F08D
:10232000020038B1C86820F06070D3F80CB040EA01
:102330000B00C86085E0C86820F08050C86000BF0E
:10234000521C042A00D3121F00BF54F82210C86880
:1023500020F00050C860C86800F00040B0F1004FA5
:1023600004D004F1140050F82200B8B1624654F8C9
:1023700022104FF000080DE0C86820F00040C8604F
:1023800000BF521C042A00D3121F00BF54F82210B1
:1023900008F10108B845EFD30220D4E67F1CAD68F0
:1023A0002868086088686FF30D00D5F804B040EA2B
:1023B0000B008860A86868B1AD68286848608868C4
:1023C000DFF8C8B000EA0B00B5F804B040EA0B40F3
:1023D000886007E0002048608868DFF8B0B000EA55
:1023E0000B008860187800F0100060B1C8686FF3C7
:1023F0001100D3F81CB040EA0B00C860C86840F474
:102400008020C86013E0C8686FF30E00D3F804B0F2
:1024100040EA0B00C860187800F0010038B1C868C5
:1024200020F44030D3F814B040EA0B00C8600AF141
:10243000010AC86840F00040C860C86820F08040C9
:10244000C860A86800287FF476AFB9F1000F04D007
:10245000886840F00040886003E0886820F0004011
:102460008860C86840F08050C86004F11400D4F857
:1024700024B040F822B0226172B60AF10100D4F80B
:1024800028B05844A06262B600205CE6FFFF00C09E
:1024900010B5036803F580531B6847F60204A34395
:1024A0000C682343046804F5805423600C798B681E
:1024B00043EA04330C7B43EAC432036803F58053D8
:1024C0005B684DF20104A3431343046804F5805490
:1024D00063604C7B0B6A43EA0442036803F5805354
:1024E000D3F80031164C23401343046804F580549C
:1024F000C4F800310C7D0B6943EA04134C7F43EAB6
:102500000432036803F58053D3F804310D4C2340A3
:102510001343046804F58054C4F804310C7F8B69BC
:1025200043EAC472036803F58053D3F80831064CBC
:1025300023401343046804F58054C4F8083110BDE7
:1025400000C0FEFFEFEFC0FFFFFFC07F10B50C68BB
:102550008B6823430C7943EAC4630C7B43EAC4537E
:102560004C7B43EA84538C7B43EA4453CC7B43EA61
:1025700004530C7C0CB9012400E0002443EAC4435A
:102580004C7C0CB9012400E0002443EA44438C7CD9
:1025900043EA04434C6923438C6923430C7F43EA99
:1025A00004334C7F43EAC4238C7F0CB9012400E040
:1025B000002443EA8423CC7F43EA442391F820405B
:1025C0000CB9012400E0002443EA042351F8244F0D
:1025D00023430C7943EA04138C6843EA040203683A
:1025E0001B683D4C23401343046823600B7E5B064D
:1025F0000C7D43EA04630C7B43EA84434C7B43EA4F
:1026000044438C7B24390CB9012400E0002443EAC4
:1026100004434C6B43EA040203685B682F4C23407D
:1026200013430468636091F840404B6C43EA042212
:102630000368DB6840F20F14A34313430468E360AC
:1026400091F854400B6D43EA440391F84C400CB9A7
:10265000012400E0002443EAC41331F8484F43EA60
:10266000044203681B6F4FF60D7423401343046844
:1026700023678B7B4C7B43EA44020368D3F890309A
:1026800023F0030313430468C4F890300368D3F8BD
:10269000003D23F072030C6923430468C4F8003D35
:1026A0000C7E4B6948390CB9012400E0002443EA50
:1026B000841391F8614043EA041391F8624043EABD
:1026C000C4020368D3F8303D23F07B03134304684E
:1026D000C4F8303D10BD0000838004000080F8C0C5
:1026E000042800DB7047032808D000EB4002104BA1
:1026F00003EB8202127A8A4200D8F3E70D4A52F8BD
:10270000202001238B409A430A4B43F820201A468D
:1027100052F820204AB900EB4002054B53F8223012
:10272000054A12689A43044B1A6000BFDAE70000BA
:10273000909C05089C0400244400002401B97047C3
:1027400000BFFEE7042800DB7047032808D000EB39
:1027500040020E4B03EB8202127A8A4200D8F3E762
:102760000B4A52F8202001238B401A43084B43F8B0
:10277000202000EB4002054B53F82220054B1B683C
:102780001A43044B1A6000BFDEE70000909C050866
:102790009C0400244400002410B501F001037BB127
:1027A000134BDB6823F4E663114CE36042F004034F
:1027B00043EA002343F08003E46823430C4CE360C6
:1027C00001F00203022B12D10A4B1B6823F4E663CB
:1027D000074CC4F80C3142F0040343EA002343F0F1
:1027E0008003D4F80C412343014CC4F80C3110BDD4
:1027F000002000520C21005201F00302032A1BD1D9
:10280000234AD26822F03002214BDA60214A126852
:1028100022F03002C3F80C211A46D2680243DA6073
:102820001A46D2F80C210243C3F80C211A469269C9
:1028300042F010029A6129E001F0010272B1144ADB
:10284000D26822F03002124BDA601A46D268024394
:10285000DA601A46D26842F08802DA6001F00202B9
:10286000022A13D10B4A126822F03002084BC3F837
:102870000C211A46D2F80C210243C3F80C211A4647
:10288000D2F80C2142F08802C3F80C2170470000F6
:10289000002000520C2100522DE9F04107460E465F
:1028A0000424002503F082FA8046022E00D1344C25
:1028B0000BE0781C48B103F079FAA0EB0800B842AD
:1028C00000D817B90320BDE8F0812E482040A0426F
:1028D00008D12D4800692040A04201D101200DE01F
:1028E00000200BE02948006824F00041084024F053
:1028F0000041884201D1012000E000200028D8D109
:10290000012E05D120480069214900EA010505E0B2
:102910001E4800681F49084040F0004525F000406F
:1029200090B11D48806928431B498861154828409B
:10293000A84202D11448456104E025F00040134943
:10294000091D08600120BEE7012E0AD10E4800696A
:1029500000F48030B0F5803F0FD130040A4948615F
:102960000BE00A48006800F48030B0F5803F04D1E5
:102970004FF480300549091D08600020A3E70000DE
:10298000040000800F00EF1F0020005210210052B1
:102990000000EE170000EE97348900242DE9F04185
:1029A00007460D461646002409E055F8241038461F
:1029B000FDF7CEFD10B92046BDE8F081641CB4429D
:1029C000F3DB4FF0FF30F7E72DE9F0410546002437
:1029D00025E004EB4400154911F8200029888842BD
:1029E0001CD104EB4403114F07EB8303198904EB5B
:1029F000440307EB830358680D4B1A68904706465B
:102A000004EB4400394601EB8000807AB04201D1EA
:102A1000012600E000263046BDE8F081641C054830
:102A200000788442D5DB0020F6E700008C0100240A
:102A3000740100240FA305082DE9F041044603F0BA
:102A4000B5F9804614B90120BDE8F08194F835004D
:102A5000022808D08020606500BF002084F8340080
:102A600000BF0120F0E7FE492068884249D0FC49B8
:102A700018312068884244D0F949303120688842B2
:102A80003FD0F7494831206888423AD0F449603154
:102A90002068884235D0F24978312068884230D0A9
:102AA000EF499031206888422BD0ED49A831206849
:102AB000884226D0EB492068884222D0E949183163
:102AC000206888421DD0E74930312068884218D0FC
:102AD000E44948312068884213D0E24960312068D7
:102AE00088420ED0DF4978312068884209D0DD491C
:102AF00090312068884204D0DA49A83120688842A1
:102B000001D1012000E0002068B12068006820F0B9
:102B10001E00216808602068406920F0800021685C
:102B20004861256806E02068006820F00E002168F2
:102B300008602568CA492068884270D0C8491831A1
:102B4000206888426BD0C64930312068884266D000
:102B5000C34948312068884261D0C149603120684A
:102B600088425CD0BE4978312068884257D0BC4941
:102B700090312068884252D0B949A83120688842F3
:102B80004DD0B8492068884249D0B64918312068EC
:102B9000884244D0B3493031206888423FD0B1499F
:102BA0004831206888423AD0AE4960312068884276
:102BB00035D0AC4978312068884230D0A94990316D
:102BC000206888422BD0A749A8312068884226D0A7
:102BD000A5492068884222D0A34914312068884240
:102BE0001DD0A14928312068884218D09E493C3127
:102BF0002068884213D09C495031206888420ED00A
:102C0000994964312068884209D097497831206811
:102C1000884204D094498C312068884201D1012037
:102C200000E0002028B1206E006820F48070216E42
:102C300008608B492068884249D08949183120684A
:102C4000884244D086493031206888423FD0844948
:102C50004831206888423AD08149603120688842F2
:102C600035D07F4978312068884230D07C49903116
:102C7000206888422BD07A49A8312068884226D023
:102C800078492068884222D07649183120688842E5
:102C90001DD0744930312068884218D071494831BC
:102CA0002068884213D06F496031206888420ED076
:102CB0006C4978312068884209D06A49903120688F
:102CC000884204D06749A8312068884206D120682C
:102CD000006820F001002168086005E020680068B5
:102CE00020F001002168086011E003F05FF8A0EB1C
:102CF000080005280BD920206065032084F83500E2
:102D000000BF002084F8340000BF01209CE6286842
:102D100000F001000028E8D151492068884249D0DC
:102D20004F4918312068884244D04D4930312068DD
:102D300088423FD04A494831206888423AD04849C1
:102D400060312068884235D0454978312068884212
:102D500030D043499031206888422BD04049A83177
:102D60002068884226D03F492068884222D03D49C9
:102D70001831206888421DD03A4930312068884295
:102D800018D0384948312068884213D0354960311D
:102D9000206888420ED0334978312068884209D0B3
:102DA000304990312068884204D02E49A8312068EB
:102DB000884201D1012000E0002040B1A66D94F8C6
:102DC0005C0000F01F013F208840B06007E0A76D65
:102DD00094F85C0000F01F010120884078602049D1
:102DE0002068884276D01E4918312068884271D008
:102DF0001B493031206888426CD01949483120681D
:102E0000884267D0164960312068884262D01449F0
:102E10007831206888425DD011499031206888421D
:102E200058D00F49A8312068884253D00D492068F6
:102E300088424FD00B491831206888424AD009494E
:102E400030312068884245D00649483120688842A0
:102E500040D004496031206888423BD0014905E0F8
:102E600010000240100402400854025878312068D3
:102E700088422FD02549206888422BD02349183119
:102E80002068884226D022492068884222D02049E2
:102E90001431206888421DD01D492831206888429D
:102EA00018D01B493C312068884213D01849503152
:102EB000206888420ED0164964312068884209D0C3
:102EC000134978312068884204D011498C31206838
:102ED000884201D1012000E0002068B1D4E9191036
:102EE0004860E06E40B1E06E006820F48070E16EF2
:102EF0000860D4E91C104860012084F8350000BF48
:102F0000002084F8340000BF00BF9DE5A00402400B
:102F10000854025870B504460CB9012070BD94F8ED
:102F20003500022803D0802060650120F6E7DC49E7
:102F30002068884249D0DA4918312068884244D054
:102F4000D7493031206888423FD0D5494831206880
:102F500088423AD0D24960312068884235D0D04981
:102F600078312068884230D0CD499031206888423D
:102F70002BD0CB49A8312068884226D0C949206887
:102F8000884222D0C7491831206888421DD0C549DF
:102F900030312068884218D0C249483120688842C0
:102FA00013D0C0496031206888420ED0BD497831C5
:102FB0002068884209D0BB4990312068884204D0FB
:102FC000B849A8312068884201D1012000E00020E2
:102FD000F0B3042084F83500B149206888424BD012
:102FE000AF4918312068884246D0AD493031206859
:102FF000884241D0AA494831206888423CD0A8493B
:1030000060312068884237D0A549783120688842ED
:1030100032D0A3499031206888422DD0A049A831F0
:103020002068884228D09F492068884224D09D4942
:103030001831206888421FD09A4930312068884270
:103040001AD0984948312068884215D0954900E047
:1030500020E06031206888420ED0924978312068A3
:10306000884209D08F4990312068884204D08D4928
:10307000A8312068884206D12068006820F001004D
:103080002168086009E12068006820F001002168DB
:10309000086002E12068006820F00E0021680860E6
:1030A0007F492068884249D07D491831206888428C
:1030B00044D07B493031206888423FD0784948313C
:1030C000206888423AD0764960312068884235D0FD
:1030D000734978312068884230D071499031206836
:1030E00088422BD06E49A8312068884226D06D498D
:1030F0002068884222D06B491831206888421DD050
:10310000684930312068884218D0664948312068C3
:10311000884213D063496031206888420ED06149EB
:1031200078312068884209D05E4990312068884211
:1031300004D05C49A8312068884206D12068006824
:1031400020F001002168086005E02068006820F098
:1031500001002168086052492068884270D05049B7
:103160001831206888426BD04D4930312068884240
:1031700066D04B4948312068884261D04849603167
:10318000206888425CD0464978312068884257D010
:10319000434990312068884252D04149A831206883
:1031A00088424DD03F492068884249D03D49183176
:1031B0002068884244D03B493031206888423FD063
:1031C00038494831206888423AD036496031206811
:1031D000884235D0334978312068884230D031492F
:1031E0009031206888422BD02E49A831206888422F
:1031F00026D02D492068884222D02B4914312068DE
:1032000088421DD0284928312068884218D0264994
:103210003C312068884213D02349503120688842CD
:103220000ED0214964312068884209D01E49783186
:103230002068884204D01C498C312068884201D122
:10324000012000E00020D8B1206E006820F48070DA
:10325000216E0860A56D94F85C0000F01F0101204C
:1032600088406860D4E919104860E06E40B1E06EB3
:10327000006820F48070E16E0860D4E91C1048609A
:10328000012084F8350000BF002084F8340000BF1E
:10329000206D10B12046216D884700203EE60000D9
:1032A00010000240100402400854025870B5044651
:1032B0000CB9012070BD9B492068884249D09949CA
:1032C00018312068884244D09649303120688842BD
:1032D0003FD094494831206888423AD091496031C2
:1032E0002068884235D08F4978312068884230D0B4
:1032F0008C499031206888422BD08A49A8312068B7
:10330000884226D088492068884222D086491831D0
:10331000206888421DD0844930312068884218D006
:10332000814948312068884213D07F496031206844
:1033300088420ED07C4978312068884209D07A4989
:1033400090312068884204D07749A83120688842AB
:1033500006D12068006820F001002168086005E0BF
:103360002068006820F00100216808606D4920682D
:10337000884249D06B4918312068884244D0694955
:103380003031206888423FD0664948312068884201
:103390003AD0644960312068884235D0614978313B
:1033A0002068884230D05F499031206888422BD015
:1033B0005C49A8312068884226D05B492068884251
:1033C00022D059491831206888421DD056493031E1
:1033D0002068884218D0544948312068884213D068
:1033E00051496031206888420ED04F4978312068B9
:1033F000884209D04C4990312068884204D04A491B
:10340000A8312068884201D1012000E00020C8B125
:103410000020216808602168486021688860216870
:10342000C860216808612120216848612046FEF7B4
:1034300065FA064694F85C0000F01F013F208840C2
:10344000B06043E039492068884222D037491431BE
:10345000206888421DD0354928312068884218D01C
:1034600032493C312068884213D0304950312068BD
:1034700088420ED02D4964312068884209D02B49FA
:1034800078312068884204D028498C3120688842ED
:1034900001D1012000E00020B0B1002021680860C7
:1034A00021684860216888602168C86021680861D7
:1034B0002046FEF723FA054694F85C0000F01F0151
:1034C00001208840686001E00120F3E62046FEF715
:1034D0008BFA206E28B10020216E0860D4E9191003
:1034E0004860606858B16068082808D82046FEF730
:1034F000DDFA0020E16E0860D4E91C10486000206D
:10350000E06620676067E06320646064A064E06454
:103510002065606584F8350000BF84F8340000BF82
:1035200000BFC7E6100002401004024008540258D1
:103530000146486D704700002DE9F84F0446002011
:103540000090FE4800684FF41651B0FBF1FAA66DEA
:10355000D4F858803768D8F80090F9492068884234
:1035600049D0F74918312068884244D0F4493031B5
:10357000206888423FD0F2494831206888423AD0DA
:10358000EF4960312068884235D0ED4978312068B4
:10359000884230D0EA499031206888422BD0E849EF
:1035A000A8312068884226D0E6492068884222D087
:1035B000E4491831206888421DD0E2493031206842
:1035C000884218D0DF4948312068884213D0DD494D
:1035D0006031206888420ED0DA497831206888420C
:1035E00009D0D84990312068884204D0D549A83103
:1035F0002068884201D1012000E0002000287DD011
:1036000094F85C0000F01F01082088403840002832
:1036100068D0CB492068884249D0C9491831206810
:10362000884244D0C6493031206888423FD0C449DE
:103630004831206888423AD0C149603120688842C8
:1036400035D0BF4978312068884230D0BC499031AC
:10365000206888422BD0BA49A8312068884226D0F9
:10366000B8492068884222D0B6491831206888427B
:103670001DD0B44930312068884218D0B149483152
:103680002068884213D0AF496031206888420ED04C
:10369000AC4978312068884209D0AA499031206825
:1036A000884204D0A749A8312068884204D1206804
:1036B000006800F0040003E02068006800F00800E3
:1036C00080B12068006820F004002168086094F848
:1036D0005C0000F01F0108208840B060606D40F081
:1036E0000100606594F85C0000F01F010120884033
:1036F0003840E8B392492068884200E0B7E24BD0F6
:103700008F4918312068884246D08D493031206871
:10371000884241D08A494831206888423CD0884953
:1037200060312068884237D08549783120688842E6
:1037300032D083499031206888422DD08049A83109
:103740002068884228D07F492068884224D07D495B
:103750001831206888421FD07A4930312068884269
:103760001AD0784948312068884215D0754900E060
:1037700026E06031206888420ED072497831206896
:10378000884209D06F4990312068884204D06D4941
:10379000A8312068884204D12068406900F0800088
:1037A00002E020680068002050B194F85C0000F04E
:1037B0001F0101208840B060606D40F0020060652C
:1037C00094F85C0000F01F01042088403840E8B302
:1037D0005B49206888424BD059491831206888429B
:1037E00046D0574930312068884241D05449483149
:1037F000206888423CD0524960312068884237D0E6
:103800004F4978312068884232D04D499031206844
:1038100088422DD04A49A8312068884228D0494999
:103820002068884224D047491831206888421FD038
:1038300044493031206888421AD0424948312068D2
:10384000884215D03F496031206800E024E088427A
:103850000ED03C4978312068884209D039499031EE
:103860002068884204D03749A8312068884204D1B2
:103870002068006800F0020002E020680068002074
:1038800050B194F85C0000F01F0104208840B06043
:10389000606D40F00400606594F85C0000F01F016A
:1038A000102088403840E8B325492068884251D02C
:1038B00023491831206888424CD021493031206892
:1038C000884247D01E4948312068884242D01C496E
:1038D0006031206888423DD019497831206888429B
:1038E00038D0174990312068884233D01449A83124
:1038F000206888422ED01349206888422AD0114976
:1039000018312068884225D00E493031206888421D
:1039100020D00C494831206888421BD009496031C9
:10392000206800E04DE0884214D0064978312068D4
:1039300088420FD003499031206805E00000002440
:103940001000024010040240884203D0FE49206863
:10395000884204D12068006800F0080003E0206875
:10396000006800F0040060B394F85C0000F01F01F0
:1039700010208840B0602068006800F4802080B18A
:103980002068006800F4002028B9206CC8B12046E7
:10399000216C884715E0A06C98B12046A16C88473F
:1039A0000FE02068006800F4807028B92068006883
:1039B00020F0080021680860206C10B12046216CBE
:1039C000884794F85C0000F01F01202088403840B0
:1039D00000287DD0DD492068884249D0DB49183174
:1039E0002068884244D0D9493031206888423FD08D
:1039F000D6494831206888423AD0D449603120689D
:103A0000884235D0D14978312068884230D0CF49BA
:103A10009031206888422BD0CC49A8312068884258
:103A200026D0C949A8392068884221D0C649903992
:103A3000206888421CD0C44978392068884217D051
:103A4000C14960392068884212D0BF49483920688E
:103A500088420DD0BC4930392068884208D0BA4924
:103A600018392068884203D0B7492068884204D1B9
:103A70002068006800F0100003E02068006800F093
:103A8000020028B394F85C0000F01F012020884059
:103A9000B06094F8350004282DD12068006820F02B
:103AA0001600216808602068406920F080002168C5
:103AB0004861206C08B9A06C28B12068006820F02B
:103AC00008002168086094F85C0000F01F0100E025
:103AD0003FE03F208840B060012084F8350000BFFF
:103AE000002084F8340000BF206D10B12046216D05
:103AF0008847BDE8F88F2068006800F4802080B116
:103B00002068006800F4002028B9606C08B32046E3
:103B1000616C88471DE0E06BD8B12046E16B8847B7
:103B200017E02068006800F4807068B920680068B9
:103B300020F0100021680860012084F8350000BFE3
:103B4000002084F8340000BFE06B10B12046E16B28
:103B50008847606D00287AD0606D00F00100E8B3FE
:103B6000042084F835007949206888424BD0774991
:103B700018312068884246D0744930312068884224
:103B800041D072494831206888423CD06F49603149
:103B90002068884237D06D4978312068884232D019
:103BA0006A499031206888422DD06849A831206840
:103BB000884228D06449A8392068884223D06249C5
:103BC0009039206888421ED05F4978392068884241
:103BD00019D05D4960392068884200E040E012D089
:103BE00059494839206888420DD0574930392068F2
:103BF000884208D0544918392068884203D0524975
:103C00002068884206D12068006820F00100216801
:103C1000086005E02068006820F001002168086065
:103C200000BF0098401C0090504500D905E0206876
:103C3000006800F001000028F3D100BF2068006890
:103C400000F0010020B1032084F8350003E00DE00E
:103C5000012084F8350000BF002084F8340000BF44
:103C6000E06C002802D02046E16C8847D9E1384951
:103C70002068884222D036491431206888421DD0FD
:103C8000334928312068884218D031493C312068B6
:103C9000884213D02E495031206888420ED02C49DA
:103CA00064312068884209D02949783120688842E7
:103CB00004D027498C312068884201D1012000E0DE
:103CC00000200028D2D02068056894F85C0000F03D
:103CD0001F010420884000EA0900D8B305F0040061
:103CE000C0B394F85C0000F01F0104208840C8F8BD
:103CF000040005F4004080B105F4803030B9A06CB8
:103D00000028B3D02046A16C88478AE1206C0028A7
:103D1000ACD02046216C884783E105F02000E8BB49
:103D20000A492068884253D00849183120688842DF
:103D30004ED0064930312068884249D00349483185
:103D40002068884244D006E0B804024010000240D7
:103D5000085402584FE0B44960312068884237D097
:103D6000B14978312068884232D0AF49903120681B
:103D700088422DD0AC49A8312068884228D0AB4970
:103D80002068884224D0A9491831206888421FD071
:103D9000A6493031206888421AD000E025E0A349C6
:103DA00048312068884213D0A04960312068884299
:103DB0000ED09E4978312068884209D09B499031C5
:103DC0002068884204D09949A8312068884206D1E9
:103DD0002068006820F008002168086005E020687D
:103DE000006820F0040021680860206C10B32046B1
:103DF000216C884715E194F85C0000F01F01022057
:103E0000884000EA0900E8B305F00200D0B394F856
:103E10005C0000F01F0102208840C8F8040005F48F
:103E2000004070B105F4803028B9606C10B12046B4
:103E3000616C8847F5E0E06BF0B32046E16B8847A2
:103E4000EFE005F02000C0BB7749206888424ED0E3
:103E5000754918312068884249D07349303120684B
:103E6000884244D070494831206888423FD06E492A
:103E70006031206888423AD06B49783120688842A6
:103E800035D000E04EE068499031206888422ED05D
:103E90006549A8312068884229D064492068884251
:103EA00025D0624918312068884220D05F493031DE
:103EB000206888421BD001E06EE02DE05B4948316C
:103EC0002068884213D059496031206888420ED05A
:103ED000564978312068884209D054499031206889
:103EE000884204D05149A8312068884206D1206810
:103EF000006820F014002168086005E02068006870
:103F000020F00A0021680860012084F8350000BF15
:103F1000002084F8340000BFE06BE8B32046E16B7A
:103F200088477EE094F85C0000F01F01082088407C
:103F300000EA090080B305F0080068B33A49206838
:103F400088424BD0384918312068884246D03649DB
:103F500030312068884241D0334948312068884256
:103F60003CD0314960312068884237D02E497831C1
:103F70002068884232D02C499031206888422DD068
:103F80002949A8312068884228D0284920688842D9
:103F900024D02649183100E043E0206888421DD033
:103FA000224930312068884218D0204948312068A1
:103FB000884213D01D496031206888420ED01B49C9
:103FC00078312068884209D01849903120688842A9
:103FD00004D01649A8312068884206D120680068BC
:103FE00020F01C002168086005E02068006820F0CF
:103FF0000E002168086094F85C0000F01F010120A9
:104000008840C8F804000120606584F8350000BFCE
:10401000002084F8340000BFE06C10B12046E16C51
:10402000884700BF65E50000100002401004024010
:104030002DE9F041044601F0B9FE804614B9012093
:10404000BDE8F081FE492068884249D0FC4918311A
:104050002068884244D0FA493031206888423FD0F5
:10406000F7494831206888423AD0F54960312068E4
:10407000884235D0F24978312068884230D0F04902
:104080009031206888422BD0ED49A83120688842C1
:1040900026D0EC492068884222D0EA4918312068AD
:1040A00088421DD0E74930312068884218D0E54960
:1040B00048312068884213D0E24960312068884244
:1040C0000ED0E04978312068884209D0DD4990312E
:1040D0002068884204D0DB49A8312068884201D199
:1040E000012000E00020002873D0606A00B100BF0A
:1040F000022084F8350000BF002084F8340000BF9F
:10410000CF492068884249D0CD491831206888427B
:1041100044D0CB493031206888423FD0C84948312B
:10412000206888423AD0C64960312068884235D03C
:10413000C34978312068884230D0C1499031206825
:1041400088422BD0BE49A8312068884226D0BD497C
:104150002068884222D0BB491831206888421DD08F
:10416000B84930312068884218D0B64948312068B3
:10417000884213D0B3496031206888420ED0B149DB
:1041800078312068884209D0AE4990312068884251
:1041900004D0AC49A8312068884206D12068006864
:1041A00020F001002168086005E02068006820F028
:1041B0000100216808600DE001F0F8FDA0EB0800A7
:1041C000052807D920206065032084F835000120E8
:1041D00036E76AE02068006800F001000028EBD1B3
:1041E0002068056898480540D4E902010843216920
:1041F000084361690843A1690843E1690843216AEA
:1042000008430543606A042803D1D4E90B0108433D
:1042100005438E4800686FF30F00B0F1005F1DD3B7
:104220006068292802D360682E2811D960683F2869
:1042300002D3606842280BD96068472802D36068BF
:10424000482805D960684F2804D36068522801D8EF
:10425000012000E0002008B145F4801520680560C9
:104260002068456925F00705606A0543606A0428EF
:104270000DD1A06A0543E06A48B12046FDF762FC13
:1042800028B140206065012084F83500D8E6206818
:1042900045612046FDF732FB064694F85C0000F0CD
:1042A0001F013F208840B0609EE069492068884235
:1042B00022D067491431206888421DD064492831D2
:1042C0002068884218D062493C312068884213D067
:1042D0005F495031206888420ED05D4964312068C2
:1042E000884209D05A4978312068884204D0584918
:1042F0008C312068884201D1012000E00020E0B329
:1043000053492068884222D051491431206888429C
:104310001DD04F4928312068884218D04C493C3183
:104320002068884213D04A495031206888420ED014
:10433000474964312068884209D04549783120686E
:10434000884204D042498C312068884201D1012042
:1043500000E0002000B100BF022084F8350000BF5B
:10436000002084F8340000BF206805683948054003
:10437000A068402802D1102106E02EE0A068802825
:1043800001D1C10100E00021E06841EAD0012069CB
:1043900041EAD001606941EAD001A06941EAD00157
:1043A000E06941EAD001206A41EA10100543206823
:1043B000056027492068401A1421B0FBF1F0800005
:1043C000E0652046FDF79AFA074694F85C0000F095
:1043D0001F0101208840786006E0402060650320CE
:1043E00084F8350001202BE61549206888427FD0EB
:1043F00013491831206888427AD011493031206839
:10440000884275D00E4948312068884270D00C49E6
:104410006031206888426BD0094978312068884231
:1044200066D0074990312068884261D00449A8319C
:10443000206888425CD003492068884258D00BE04D
:1044400010000240100402403F8010FE0010005C8B
:10445000085402580F00FEFF3B491831206888427B
:1044600046D0394930312068884241D036494831F8
:10447000206888423CD0344960312068884237D077
:10448000314978312068884232D02F4990312068F4
:1044900088422DD02C49A8312068884228D02B4949
:1044A0002068884224D029491431206888421FD0CE
:1044B00026492831206888421AD024493C31206896
:1044C000884215D0214950312068884210D01F49B8
:1044D0006431206888420BD01C49783120688842BA
:1044E00006D01A498C312068884200E000E001D1F2
:1044F000012000E0002000B32046FDF775FAA06817
:10450000802801D1002060602079216E0860D4E904
:1045100019104860606860B16068082809D82046B2
:10452000FDF7C4FA0020E16E0860D4E91C10486071
:1045300003E00020E06620676067002060650120DE
:1045400084F8350000207BE510040240085402582E
:104550002DE9F04104460D4616461F464FF000086F
:1045600014B90120BDE8F08100BF94F8340001289F
:1045700001D10220F6E7012084F8340000BF94F84E
:10458000350001287ED1022084F8350000206065C6
:10459000E4492068884249D0E249183120688842BD
:1045A00044D0E0493031206888423FD0DD4948316D
:1045B000206888423AD0DB4960312068884235D093
:1045C000D84978312068884230D0D6499031206867
:1045D00088422BD0D349A8312068884226D0D249BE
:1045E0002068884222D0D0491831206888421DD0E6
:1045F000CD4930312068884218D0CB4948312068F5
:10460000884213D0C8496031206888420ED0C6491C
:1046100078312068884209D0C349903120688842A7
:1046200004D0C149A8312068884206D120680068BA
:1046300020F001002168086005E02068006820F093
:104640000100216808603B46324629462046FDF7B6
:10465000D1FAB449206888424BD0B2491831206859
:10466000884246D0AF4930312068884241D0AD49B8
:104670004831206888423CD0AA496031206888428D
:1046800037D000E042E1A74978312068884230D035
:10469000A4499031206888422BD0A249A8312068D3
:1046A000884226D0A0492068884222D09E491831ED
:1046B000206888421DD09C4930312068884218D03B
:1046C000994948312068884213D097496031206861
:1046D00088420ED0944978312068884209D09249A6
:1046E00090312068884204D08F49A83120688842E0
:1046F00001D1012000E0002080B12068006820F096
:104700001E0040F0160021680860206CB0B12068DF
:10471000006840F00800216808600FE02068006829
:1047200020F00E0040F00A0021680860206C28B1DB
:104730002068006840F0040021680860794920681A
:10474000884270D077491831206888426BD075490B
:1047500030312068884266D07249483120688842EA
:1047600061D070496031206888425CD06D497831F1
:104770002068884257D06B4990312068884252D0D7
:104780006849A831206888424DD06749206888422E
:1047900049D0654918312068884244D06249303197
:1047A000206888423FD060494831206888423AD02A
:1047B0005D4960312068884235D05B497831206896
:1047C000884230D058499031206888422BD05649D1
:1047D000A8312068884226D054492068884222D0D7
:1047E00052491431206888421DD050492831206830
:1047F000884218D04D493C312068884213D04B493B
:104800005031206888420ED048496431206888427F
:1048100009D0464978312068884204D043498C3118
:104820002068884201D1012000E0002090B1206E74
:10483000006800F4803028B1206E006840F4807079
:10484000216E0860E06E28B1E06E006840F4807070
:10485000E16E086033492068884249D031491831F7
:104860002068884244D02F493031206888423FD0A8
:104870002C494831206888423AD02A496031206862
:10488000884235D0274978312068884230D0254980
:104890009031206888422BD02249A8312068884274
:1048A00026D021492068884222D01F49183120682B
:1048B00088421DD01C4930312068884218D01A49DE
:1048C00048312068884213D01749603120688842F7
:1048D0000ED0154978312068884209D012499031AC
:1048E0002068884204D01049A8312068884206D147
:1048F0002068006840F001002168086010E020682E
:10490000006840F001002168086009E04FF4006091
:10491000606500BF002084F8340000BF4FF001083C
:1049200040461FE61000024010040240085402589E
:10493000F0B5044604F14402536952F82310966915
:10494000906908B90120F0BDD06900B1761C00253E
:1049500022E0086908604FF08070C860486928B19B
:1049600048698860C86840F00070C860C86840F056
:104970000040C860106A18B1C86840F08040C86044
:10498000701EA84207D900BF5B1C042B00D31B1F5D
:1049900000BF52F823106D1CB542DAD3206800F531
:1049A0008050C0F82811002090610027276600BFC2
:1049B000C9E7704730B504460D4604F1440050F88D
:1049C00025100AB1042D02D30120606730BD0A60B2
:1049D0000A61C86840F08070C8602BB18B604B6181
:1049E000C86840F00070C860C86840F00040C86007
:1049F0000020EBE77047024609B9012070471068B4
:104A0000006800F00C00C86210680068C0F3001075
:104A100081F828001068006800F0600048621068A3
:104A20000068C0F3002080F0010081F820001068C9
:104A30000068C0F34020C87710680068C0F3802089
:104A400080F00100887710680068C0F3C0204877C4
:104A500010680068C0F3003008771068006800F440
:104A6000005088611068006800F480404861106858
:104A70000068C0F30040887410680068C0F34040CC
:104A800080F00100487410680068C0F3C04080F0F6
:104A90000100087410680068C0F30050C873106803
:104AA0000068C0F34050887310680068C0F38050FD
:104AB000487310680068C0F3C0500873106800683D
:104AC00000F0E060886010680068C0F3C0600871A2
:104AD0001068006800F0E040086010684068C0F3AB
:104AE0000D00486310684068C0F3004080F001008A
:104AF00081F8320010684068C0F3404081F831000E
:104B000010684068C0F3804081F830001068406849
:104B1000C0F3006081F8380010684068C0F344605A
:104B2000C8631068C068C0F3002081F840001068B6
:104B3000C06800F00F0048641068006FC0F34000C8
:104B400081F854001068006FC0F3C01080F00100BD
:104B500081F84C001068006F00F070000865106864
:104B6000006F000C88641068D0F8900000F001001D
:104B700081F856001068D0F89000C0F3400081F82A
:104B800055001068D0F8000D00F0720088651068BC
:104B9000D0F8300D00F02300C8651068D0F8300D53
:104BA000C0F3C00081F862001068D0F8300DC0F387
:104BB000001081F861001068D0F8300DC0F380104B
:104BC00080F0010081F86000002017E72DE9F84F20
:104BD00005468A4605F14407D7F814800020009066
:104BE00057F8286054461CB901206867BDE8F88F63
:104BF000B86948B9284600F0DFF908B90120F5E79F
:104C0000D7F8148057F828604FF0000B1CE030698B
:104C1000206068696060706920B1A4687069206074
:104C200068696060F068C0F30E00009000BF08F192
:104C30000108B8F1040F01D3A8F1040800BF57F828
:104C40002860A4680BF1010BB869401E5845DED8F6
:104C5000F068C0F30E010098A1EB000930692060F4
:104C60006869484502D3C4F804900DE0706948B102
:104C700068696060A468706920606869A9EB0000D9
:104C8000606001E00120B1E70020AFE72DE9F041CD
:104C900080460E4608F144046569A06930B9404673
:104CA00000F08AF910B90120BDE8F08100BFA069C9
:104CB000401E0544042D00D32D1F00BF54F825705D
:104CC000F868C0F30E0030600020EDE710B5044630
:104CD000206800F58050D0F8600100F040004028C6
:104CE00012D1206800F58050D0F8340100F0400067
:104CF000402809D1204600F099FB48F24001206885
:104D000000F58050C0F86011206800F58050D0F8A0
:104D1000600100F0010088B1206800F58050D0F8F3
:104D2000340100F0010048B1204600F051FD48F286
:104D30000101206800F58050C0F86011206800F57E
:104D40008050D0F8600100F48040B0F5804F41D130
:104D5000206800F58050D0F8340100F48040B0F5B0
:104D6000804F37D1606F40F008006067206800F521
:104D70008050D0F8600100F48050B0F5805F17D10A
:104D8000206800F58050D0F8600141F2021108401F
:104D9000A067206800F58050D0F8340120F440412D
:104DA000206800F58050C0F83411E020E0660EE085
:104DB000206800F58050D0F8600100F4CD40A06775
:104DC0004FF4CD41206800F58050C0F860112046B6
:104DD000FFF7EFFD2068D0F8B00000F4C040B0F558
:104DE000C04F0AD12068D0F8B800E067E020E06644
:104DF000204600F06AF90020E0672068D0F8B00093
:104E000000F0100010280CD12068D0F8C00000F08D
:104E10006000C4F88000204600F0CAFA0020C4F800
:104E200080002068D0F8B00000F0200020280CD1CD
:104E30002068D0F8C00000F00F00C4F884002046BD
:104E4000FFF7D8FD0020C4F884000648006800F48D
:104E5000800030B14FF4800002490860204600F025
:104E6000B8FC10BDA800005838B504460CB90120A4
:104E700038BDE06E10B9204600F028F92320E06626
:104E800000BF4B48006840F00200494908600846EE
:104E9000006800F00200009000BF00BF207A18B93F
:104EA000002004F0F3FB03E04FF4000004F0EEFBFD
:104EB000206800F58050006840F00101206800F58E
:104EC0008050016000F072FF05460BE000F06EFFBD
:104ED000401BB0F5FA7F05D904206067E020E0664A
:104EE0000120C5E7206800F58050006800F001004F
:104EF0000028EBD12046FDF79DF802F0C5FA2D49B8
:104F0000B0FBF1F0401E2168C1F8DC002046FDF73F
:104F10000DF8206800F58050D0F8000120F4E01072
:104F200040F40021206800F58050C0F80011207D79
:104F300000F0030028B101206067E020E066012056
:104F400096E7206800F58050D0F8080147F6FE711A
:104F50008843616940EA4101206800F58050C0F84B
:104F600008112046FCF7B1FF2046FCF77EFF606881
:104F700000796168497940EA01202168C1F800039D
:104F80006068C07800066168897840EA014061681D
:104F9000497840EA01206168097808432168C1F82E
:104FA0000403002060671020E066206700205FE7B0
:104FB000F444025840420F00F0B5074607F144039D
:104FC000196953F82120002500240026986908B1AA
:104FD0000020F0BD3DE06D1CD06800F0805000B3B3
:104FE000641C012C00D10E4600BF491C042900D3CB
:104FF000091F00BF53F82120D06800F0004058B9C5
:10500000D06800F0804038B10120D86100BF491C51
:10501000042900D3091F00BF19615E619C61012052
:10502000D7E7D06800F0005050B10E46012400BF11
:10503000491C042900D3091F00BF53F8212008E0B0
:10504000641C00BF491C042900D3091F00BF53F88A
:105050002120D06800F0004008B9042DBBD384B3F0
:1050600019615E61314653F82120002522E0106964
:1050700010604FF08070D060506928B15069906026
:10508000D06840F00070D060D06840F00040D06040
:10509000186A18B1D06840F08040D060601EA84205
:1050A00007D900BF491C042900D3091F00BF53F8CA
:1050B00021206D1CA542DAD3386800F58050C0F875
:1050C00028210020986100BF83E7704730B587B082
:1050D000054600BF00BFB248006840F00100B0497B
:1050E00008600846006800F00100019000BF00BFA2
:1050F00000BF00BF00BF0846006840F00100086024
:105100000846006800F00100019000BF00BF00BF2A
:1051100000BF00BF0846006840F001000860084674
:10512000006800F00100019000BF00BF00BF00BF99
:1051300000BF0846006840F00400086008460068A8
:1051400000F00400019000BF00BF00BF00BF00BF1F
:105150000846006840F0040008600846006800F057
:105160000400019000BF00BF00BF00BF00BF0846A1
:10517000006840F0040008600846006800F0040081
:10518000019000BF00BF00BF00BF00BF084600681D
:1051900040F0020008600846006800F0020001903C
:1051A00000BF00BF00BF00BF00BF0846006840F05E
:1051B000020008600846006800F00200019000BF8D
:1051C00000BF00BF00BF00BF0846006840F00200FB
:1051D00008600846006800F00200019000BF00BFB0
:1051E00000BF00BF00BF0846006840F00100086033
:1051F0000846006800F00100019000BF00BF00BF3A
:1052000000BF00BF0846006840F002000860084682
:10521000006800F00200019000BF00BF00BF00BFA7
:105220005F480838006840F400405D49083908606C
:105230000846006800F40040019000BF00BF00BFB6
:105240000846006840F4803008600846006800F4B2
:105250008030019000BF00BF00BF0846006840F4E6
:10526000003008600846006800F40030019000BF7C
:1052700000BF0220029003900020049003200590BC
:105280000B20069002A9474800F074FC042002900D
:1052900002A9444800F06EFC8020029002A9414817
:1052A00000F068FC0220029002A93F4800F062FC76
:1052B0001020029002A93C4800F05CFC20200290E3
:1052C00002A9394800F056FC4FF40060029002A990
:1052D000364800F04FFC4FF48050029002A933484A
:1052E00000F048FC4FF40050029002A92F4800F053
:1052F00041FC012240212B4800F04CFD402002904F
:1053000001200390002004900220059002A9254866
:1053100000F030FC00220121244800F03BFD012078
:1053200002900390002004900220059002A91F48DB
:1053300000F020FC2AF0FFF9022012F0F7FF0446EB
:105340008CB100BF00224021164800F023FD6420EC
:105350000FF072FE01224021124800F01BFD642074
:105360000FF06AFE0FE0002240210E4800F012FD0F
:1053700064200FF061FE012240210A4800F00AFD7E
:1053800064200FF059FE2AF0D8F9002201213D20B7
:1053900000F06FFE3D2000F058FE07B030BD000069
:1053A000E044025800000258000802580004025865
:1053B00070472DE9F04704460F469046994620680D
:1053C000D0F8000200F0010010B10120BDE8F08724
:1053D0002068D0F8005225F0787040EA475525F44F
:1053E000F81040EA084545F00C0545F00105206835
:1053F000C0F8005200F0DAFC064607E000F0D6FCE8
:10540000801BB0F57A7F01D90120DFE72068D0F852
:10541000000200F001000028F0D12068D0F804025A
:1054200080B2C9F800000020D0E7000038B504467B
:105430000020009069460948006833F0D9FC012833
:105440000BD100BF009838B14FF08050044908607C
:10545000BFF34F8FBFF36F8F00BF38BDA40200248E
:1054600004ED00E070B504460D460DB9012070BD95
:10547000206F102805D129462046FDF767F8002047
:10548000F5E70120F3E7000070B506463068D0F874
:10549000004224F4706401F0F7FF0546134885428A
:1054A00005D31348854202D244F400741AE0104830
:1054B000854205D30F48854202D244F4407411E07E
:1054C0000C48854203D30C48854200D20AE00A48C2
:1054D000854205D30948854202D244F4807401E034
:1054E00044F480643068C0F8004270BD002D310182
:1054F000C00E16020087930300E1F50580D1F00885
:105500000146C86E10283FD12320C866086800688D
:1055100040F002000A6810600868006840F001006E
:105520000A6810600868D0F8000D40F001000A68B1
:10553000C2F8000D086800F58050D0F8040140F072
:105540000102086800F58050C0F80421086800F5E1
:105550008050D0F8080140F00102086800F5805042
:10556000C0F80821086800F58050D0F8600140F4C8
:105570008172086800F58050C0F860211020C8666C
:1055800022200867002070470120FCE710B5014683
:10559000C86E10285BD12320C866002208E001F104
:1055A000440050F82230D86840F08040D860521C47
:1055B000042AF4D301244C660868006840F0020015
:1055C0000C6820600868006840F001000C682060EA
:1055D0000868D0F8000D40F001000C68C4F8000D18
:1055E000086800F58050D0F8040140F00104086814
:1055F00000F58050C0F80441086800F58050D0F8EC
:10560000080140F00104086800F58050C0F8084126
:10561000086800F58050D0F8600140F48174086893
:1056200000F58050C0F86041086800F58050D0F85F
:1056300034014DF2410420430C6804F58054C4F851
:1056400034011020C86622200867002010BD012008
:10565000FCE710B50146C86E00284ED02320C8666E
:10566000086800F58050D0F834014DF24104A043A1
:105670000C6804F58054C4F83401086800F58050C3
:10568000D0F8040120F00104086800F58050C0F84B
:105690000441086800F58050D0F8080120F00104AA
:1056A000086800F58050C0F808410868006820F0DC
:1056B00001000C6820600868D0F8000D40F001007F
:1056C0000C68C4F8000D0868006820F002000C683F
:1056D0002060002208E001F1440050F82230D86830
:1056E00020F08040D860521C042AF4D300244C6679
:1056F0001020C8660867002010BD0120FCE72DE9D6
:10570000F04104460F46154637B9606F40F001007E
:1057100060670120BDE8F081E06E102856D10022BC
:1057200039462046FCF7F4FC28B1606F40F00200D7
:1057300060670120EEE704F11800A16A50F82180AB
:1057400000BFA06A401CA062A06A042802D3A06A1D
:10575000001FA06200BF04F11800A16A50F82110D8
:10576000206800F58050C0F8201100F01FFB0646AD
:1057700025E0206800F58050D0F8600100F48050EA
:1057800068B1606F40F008006067206800F58050E5
:10579000D0F86001A067E020E0660120BAE7681C4D
:1057A00068B100F003FB801BA84200D83DB9606FD0
:1057B00040F004006067E020E0660120AAE7D8F826
:1057C0000C0000F000400028D3D1A3E70120A1E79E
:1057D000704770472DE9F04705460F4690469946B9
:1057E0002868D0F8000200F0010010B10120BDE8E7
:1057F000F0872868D0F8004224F0787040EA4754D7
:1058000024F4F81040EA084424F00C00041D44F08D
:1058100001041FFA89F00D4908600D48C0F80042E4
:1058200000F0C4FA064607E000F0C0FA801BB0F5AD
:105830007A7F01D90120DAE72868D0F8000200F069
:1058400001000028F0D100BFD1E70000048202402F
:10585000008002400348006840F0010001490860F0
:1058600070470000200400582DE9F04104460E4620
:10587000002700BF4848007D012802D10220BDE872
:10588000F08101204449087500BF0020886120791B
:1058900000F0010030B101214CF25030FCF7FCFF68
:1058A00000B10127207900F00200022806D1022170
:1058B0004CF25030FCF7F0FF00B10127002F63D10C
:1058C0002068012828D161682069FCF795FF2079BC
:1058D00000F0010060B101214CF25030FCF7DCFF18
:1058E00000B101272D48C06820F008002B49C8608E
:1058F000207900F00200022846D102214CF25030FB
:10590000FCF7CAFF00B101272548006820F0080015
:105910002249C1F80C0137E04FF0FF303060A56834
:105920002CE0284622696168FCF736FF207900F0F8
:10593000010060B101214CF25030FCF7ADFF074689
:105940001648C06840F2047188431449C860207941
:1059500000F0020002280DD102214CF25030FCF779
:105960009BFF07460E48006840F2047188430B49CC
:10597000C1F80C010FB1356005E06D1CD4E90210CF
:105980000844A842CDD800BF00BF002002490875D6
:1059900000BF384673E7000034890024002000521D
:1059A0000C2100520E48C06840F001000C49C8604C
:1059B0000846C06800F0010008B901207047094896
:1059C000006840F001000649C1F80C010548006874
:1059D00000F0010008B90120F0E70020EEE7000028
:1059E000002000520C2100522DE9F05F83460C4646
:1059F0001746A046B9464FF0080A00BF4248007D4E
:105A0000012802D10220BDE8F09F01203E4908751F
:105A100000BFB4F1006F04D3B4F1016F01D20125CE
:105A200009E0B4F1016F04D3B4F1026F01D2022591
:105A300001E00120E7E700203349886129464CF264
:105A40005030FCF729FF0646002E55D1012D06D116
:105A50002E48C06840F002002C49C86006E02C487F
:105A6000006840F002002949C1F80C0100BF00BFE6
:105A700000BFBFF36F8F00BF00BF00BF00BF00BFFC
:105A800000BFBFF34F8F00BF00BF00BF00BFD9F8FA
:105A90000000C8F8000008F1040809F10409AAF19F
:105AA000010000F0FF0ABAF1000FF0D100BF00BF03
:105AB00000BFBFF36F8F00BF00BF00BF00BF00BFBC
:105AC00000BFBFF34F8F00BF00BF00BF29464CF29D
:105AD0005030FCF7E1FE0646012D06D10B48C068A8
