:020000040800F2
:10000000A8220224750300084D7F000865760008C9
:10001000497F0008AD0B000801A4000800000000A3
:10002000000000000000000000000000B102000815
:100030009D110008000000000D0300088D860008D7
:100040009B0300089B0300089B0300089B03000818
:100050009B0300089B0300089B0300089B03000808
:100060009B0300089B0300089B0300089B030008F8
:10007000B10B0008C10B0008D10B0008E10B000810
:10008000F10B0008010C00089B0300089B0300080B
:100090009B0300089B0300089B0300089B030008C8
:1000A0009B0300089B0300089B0300089B030008B8
:1000B000A9870008C1870008018800089B03000881
:1000C0009B0300089B0300089B0300088984000829
:1000D0009B030008A59C00081D9D00085D9F00086B
:1000E0009B03000871820008000000009B030008C9
:1000F0009B0300089B0300089B0300089B03000868
:100100009B0300089B030008198800089B03000854
:100110002D8900086D8B0008318800084988000887
:100120009B0300089B030008110C0008210C000829
:100130009B030008911300089B0300089B03000821
:1001400000000000000000000000000000000000AF
:100150009B0300089B0300089B0300089DA1000867
:100160009B0300089B0300089B0300089B030008F7
:100170009B0300089B0300089B030008000000008D
:100180009B0300089B030008A58D0008E58F00086D
:100190009B0300089B0300089B0300089B030008C7
:1001A0009B0300089B0300089B0300089B030008B7
:1001B0009B0300089B0300089B0300089B030008A7
:1001C0009B0300089B0300089B0300089B03000897
:1001D0009B0300089B0300089B0300089B03000887
:1001E0009B0300089B0300089B0300089B03000877
:1001F0009B0300089B0300089B0300089B03000867
:100200009B0300089B0300089B0300089B03000856
:100210009B0300089B0300089B0300089B03000846
:100220009B0300089B0300089B03000800000000DC
:100230009B0300089B030008000000009B030008CC
:100240009B0300089D0B00089B0300089B0300080C
:100250009B0300089B0300089B0300089B03000806
:100260009B0300089B0300089B0300089B030008F6
:100270009B0300089B030008E57C000800000000C9
:100280009B0300089B0300089B030008000000007C
:10029000000000009B030008DFF810D000F082FB94
:1002A0000048004721340108AFF30080A82202244F
:1002B0002D4B19680868B0E8F04F80F30988BFF348
:1002C0006F8F4FF0000080F311887047000000002E
:1002D00008480068006880F308884FF0000080F349
:1002E000148862B661B6BFF34F8FBFF36F8F00DF24
:1002F00000BF00BF08ED00E0DFF80C00016841F42A
:1003000070010160704700BF88ED00E0EFF30980E5
:10031000BFF36F8F144B1A681EF0100F08BF20ED4B
:10032000108A20E9F04F106009B44FF0100072B647
:1003300080F31188BFF34F8FBFF36F8F62B616F053
:100340004DF94FF0000080F3118809BC1968086866
:10035000B0E8F04F1EF0100F08BFB0EC108A80F329
:100360000988BFF36F8F7047E0000024EFF305802A
:1003700070470000DFF82400016841F4700101605B
:100380000748804707480047FEE7FEE7FEE7FEE72D
:10039000FEE7FEE7FEE7FEE7FEE7FEE788ED00E0AA
:1003A000A1860008990200082DE9F05F05460020AB
:1003B00092469B4688460646814640241BE02846D6
:1003C00041464746224600F0DEF853465A46C01AD8
:1003D000914110D311461846224600F0C5F82D1A57
:1003E00067EB01084F4622460120002100F0BCF8CF
:1003F00017EB00094E41201EA4F10104DFDC484642
:1004000031462A464346BDE8F09F00000048704749
:100410003877010810B5431A934209D28318881817
:1004200003E010F8011D03F8011D521EF9D210BDA2
:1004300040EA01039B0703D009E008C9121F08C066
:10044000042AFAD203E011F8013B00F8013B521EE6
:10045000F9D210BDD2B201E000F8012B491EFBD247
:1004600070470022F6E710B513460A4604461946BF
:10047000FFF7F0FF204610BDCAB2401E10F8011F62
:100480008A4202D00029F9D100207047421C10F89E
:10049000011B0029FBD1801A704730B504460020AB
:1004A000034600E05B1C934203D2E05CCD5C401B42
:1004B000F8D030BD034611F8012B00F8012B002ABB
:1004C000F9D11846704730B505460020034600E0D4
:1004D0005B1C934205D2EC5CC85C201A01D1002C55
:1004E000F6D130BD30B503461D783DB10A4612F84D
:1004F000014B1CB1AC42FAD15B1CF5E7181A30BDB8
:1005000030B50546002008E00A4602E0A34207D0C5
:10051000521C1378002BF9D1401C2C5C002CF3D119
:1005200030BD70B506460AF06DF8046805460A222B
:100530000021304600F045F82C6070BD30B50B4608
:10054000014600202022012409E021FA02F59D4203
:1005500005D303FA02F5491B04FA02F52844151ED7
:10056000A2F10102F1DC30BD202A04DB203A00FABE
:1005700002F1002070479140C2F1200320FA03F3FA
:10058000194390407047202A04DB203A21FA02F0F8
:100590000021704721FA02F3D040C2F120029140BD
:1005A0000843194670473A2800D2303820F020021C
:1005B000412A01D3A2F13700884201D34FF0FF3026
:1005C00070472DE9F04791460F46804604460026C5
:1005D00014F8015B2DB1FFF719FF0068405DC007FB
:1005E000F6D12B2D02D02D2D18D0641E4A46394647
:1005F000204600F0FBF927B13968A14201D1C7F8C4
:10060000008071054FF002040BD54042002803DD45
:1006100009F0F8FF0460A007BDE8F08746F48066A3
:10062000E4E70028F8DA09F0EDFF04606FF000401D
:10063000F2E72DE9FE4F804681EA0300C00F0C4629
:10064000009021F0004123F00045B8EB0200A941E1
:1006500005D24046214690461C460B46024623F0F2
:100660000040104347D0270DC7F30A00C3F30A51D7
:100670000290401A019040286BDAC3F3130040F453
:10068000801B0098924620B10023D2EB030A63EB53
:100690000B0B01985946C0F140025046FFF764FF2A
:1006A00006460D4650465946019A00F08DF910EB6A
:1006B00008006141002487EA115284EAE7731A4373
:1006C00040D0009A62B3019A012A4FEA075215DC22
:1006D000001B61EB02014FF0004202EA0752CDE934
:1006E0000042001C41F5801132462B4600F0DCF937
:1006F00003B0BDE8F08F40462146F9E7001B61EBEF
:100700000201001C41F5801300185B412018A2F57E
:10071000001747EB030140EAD570B6196D4111E0AF
:100720006D084FEA360645EAC0754FEA0752001BCE
:1007300061EB0201001C41F5801149084FEA3000CD
:100740000019514132462B4603B0BDE8F04F00F08E
:100750009CB90098012240000023D0EB020263EB19
:10076000E073009821464FEAE074B8EB000061EBBB
:100770000401E9E783F000435BE781F0004158E7BB
:100780002DE9FE4F81EA030404F0004421F000410A
:1007900000944FF0000B23F0004350EA01045ED0B8
:1007A00052EA03045BD0C3F30A54C1F30A552C4444
:1007B000A4F2F3340194A0FB0254C1F3130141F4F9
:1007C0008011C3F3130343F4801301FB024400FBC5
:1007D000034E840A970A44EA815447EA8357A4FBEC
:1007E000076802958D0A05FB07854FEA932C04FBE9
:1007F0000C542705029D4FEA065847EA1637B5EB19
:1008000008056EEB070C870E920E47EA811742EA45
:100810008312A7FB0201B6EB0B0164EB00042B0D66
:1008200043EA0C335E1844EB1C50DA465146E7FBB2
:100830000201C5F313044FEA0B3343EA14534FEAA2
:100840000432019C43EA0603A4F10C040294009CC8
:10085000CDE900B400F028F903B0BDE8F08F002026
:100860000146F9E72DE9F04D81EA030404F0004B5D
:1008700021F0004514464FF0000A23F0004150EAF1
:10088000050220D054EA01021DD0C5F30A570246E2
:10089000C5F31303C1F31300C1F30A5640F48015E6
:1008A00043F48013A7EB0608101BD64608F2FD3868
:1008B00073EB050002D308F1010801E092185B41D7
:1008C000B8F1000F03DA00200146BDE8F08D0020EA
:1008D0004FF48011064684460EE0171B73EB0507A4
:1008E00005D3121B63EB050306434CEA010C4908D0
:1008F0004FEA300092185B4150EA0107EDD152EA0D
:10090000030012D082EA040083EA0501084305D0FF
:10091000101BAB4106D20122002306E000224FF05B
:10092000004302E06FF0010253101AEB06004CEB9B
:10093000085110EB0A0041EB0B01BDE8F04D00F04F
:10094000A4B8C1F30A52C1F3130140F2FF3341F4DA
:1009500080119A4202DA00200146704740F2334388
:100960009A42A2F2334202DC5242FFF70CBEFFF77A
:10097000FBBD000030B5041E71F1000404DB4FF034
:100980000044404264EB0101141E73F1000405DBD6
:100990001C464FF00043524263EB0403994208BFE8
:1009A000904230BD064C074D06E0E06840F0010380
:1009B00094E8070098471034AC42F6D3FFF770FC78
:1009C000B478010804790108202A06DBCB17203A05
:1009D00041FA02F043EAE07306E041FA02F3D04044
:1009E000C2F1200291400843194670472DE9F05F9B
:1009F00082460078002715468B460AF10104B94665
:100A0000302801D09DB113E014F8010B012778289C
:100A100003D0582801D045B10AE00DB1102D07D1FF
:100A20000027102514F8010B02E0082500E00A2534
:100A30000026B0460EE005FB080005FB06F1012785
:100A400001EB10461FFA80F8B6F5803F00D3B94697
:100A500014F8010B2946FFF7A6FD0028EBDABBF1DD
:100A6000000F05D00FB1641E00E05446CBF80040E3
:100A7000B9F1000F06D009F0C5FD02210160C81EC2
:100A8000BDE8F09F48EA0640FAE710B5141E73F17E
:100A9000000408DA401C41F1000192185B411A433E
:100AA00001D120F0010010BD2DE9F04D92469B468A
:100AB00011B1B1FA81F202E0B0FA80F22032904630
:100AC000FFF752FD04460F4640EA0A0041EA0B01D7
:100AD00053465A46084313D0114653EA010019D031
:100AE000C8F140025046FFF74EFD05460E465046FF
:100AF00059464246FFF738FD084305D0012004E07F
:100B000020463946BDE8F08D0020054346EAE076F0
:100B10002C4337430A986305E40AA0EB080000223F
:100B2000FD0A44EA47540A3002D500200146E9E7AD
:100B3000010510196941DDE9084500196941BDE861
:100B4000F04DA2E770B58C1810F8015B15F00703A3
:100B500001D110F8013B2A1106D110F8012B03E056
:100B600010F8016B01F8016B5B1EF9D12B0705D45E
:100B70000023521E0DD401F8013BFAE710F8013BA7
:100B8000CB1A921C03E013F8015B01F8015B521EC3
:100B9000F9D5A142D8D3002070BD000010B502489D
:100BA00001F0B6FA10BD00000C14002400BFFEE7EF
:100BB00010B5024801F0ACFA10BD0000840B00240F
:100BC00010B5024801F0A4FA10BD0000040D002485
:100BD00010B5024801F09CFA10BD0000840E0024FC
:100BE00010B5024801F094FA10BD00000410002472
:100BF00010B5024801F08CFA10BD000084110024E9
:100C000010B5024801F084FA10BD0000041300245E
:100C100010B50249C86F01F07BFA10BD841400249E
:100C200010B50249886F01F073FA10BD84140024D6
:100C30000146374A0868904249D0354A1832086858
:100C4000904244D0324A3032086890423FD0304A15
:100C50004832086890423AD02D4A60320868904283
:100C600035D02B4A78320868904230D0284A9032EA
:100C7000086890422BD0264AA8320868904226D0B5
:100C8000244A0868904222D0224A183208689042CA
:100C90001DD0204A30320868904218D01D4A483290
:100CA0000868904213D01B4A6032086890420ED008
:100CB000184A78320868904209D0164A903208687B
:100CC000904204D0134AA8320868904201D1012012
:100CD00000E00020B0B10A78103A1823B2FBF3F01C
:100CE00000F007020C4B9A5CCA65032805D90A6814
:100CF0006FF30902121D8A6503E00A686FF30902A7
:100D00008A6503E0086820F0FF008865886D7047F9
:100D100010000240100402403474010810B502684B
:100D20002B4C0368A34222D0294C14340368A342FD
:100D30001DD0274C28340368A34218D0244C3C34DF
:100D40000368A34213D0224C50340368A3420ED050
:100D50001F4C64340368A34209D01D4C78340368E7
:100D6000A34204D01A4C8C340368A34201D101235E
:100D700000E000238BB10378083B1424B3FBF4F1AB
:100D8000144B03EB81030366124B8033436601F07F
:100D90001F040123A340836618E00378103B182446
:100DA000B3FBF4F10C4B9A4204D80B4BA83B9A428C
:100DB00000D30831094B03EB81030366074B8033F3
:100DC000436601F01F040123A340836610BD0000A9
:100DD0000854025800580258B80402400008024063
:100DE0000179A9B3082940D8204B02689A4222D041
:100DF0001E4B143302689A421DD01C4B28330268E4
:100E00009A4218D0194B3C3302689A4213D0174BC0
:100E1000503302689A420ED0144B643302689A42EF
:100E200009D0124B783302689A4204D00F4B8C33AE
:100E300002689A4201D1012200E000224AB14A1E12
:100E40000B4B03EB8202C266094A4032026708E09C
:100E50000BE04A1E074B03EB8202C266054A403292
:100E600002674A1E012393404367704708540258A3
:100E70000059025800090240014600208A69D2B98F
:100E80008A6A32B1012A0DD0022A03D0032A10D176
:100E90000EE000BFCA6A02F08072B2F1807F00D11A
:100EA000012007E0CA6AB2F1C07F00D1012001E051
:100EB00000E000BF36E08A69B2F5005F1BD18A6AA4
:100EC00032B1012A07D0022A03D0032A11D10AE045
:100ED00000BF01200EE0CA6A02F08072B2F1807F8A
:100EE00000D1012006E0CA6AB2F1C07F00D1012022
:100EF00000E000BF16E08A6A32B1012A05D0022A5A
:100F000004D0032A0CD103E000BF00BF012008E099
:100F1000CA6A02F08072B2F1807F00D1012000E045
:100F200000BF00BF70470000F0B5856D846D984F1D
:100F30000668BE4270D0964F18370668BE426BD026
:100F4000934F30370668BE4266D0914F48370668E7
:100F5000BE4261D08E4F60370668BE425CD08C4F77
:100F600078370668BE4257D0894F90370668BE4230
:100F700052D0874FA8370668BE424DD0854F0668CD
:100F8000BE4249D0834F18370668BE4244D0814FD5
:100F900030370668BE423FD07E4F48370668BE42B3
:100FA0003AD07C4F60370668BE4235D0794F7837EB
:100FB0000668BE4230D0774F90370668BE422BD0CD
:100FC000744FA8370668BE4226D0734F0668BE42EB
:100FD00022D0714F14370668BE421DD06E4F28379D
:100FE0000668BE4218D06C4F3C370668BE4213D02C
:100FF000694F50370668BE420ED0674F64370668A7
:10100000BE4209D0644F78370668BE4204D0624FB2
:101010008C370668BE4201D1012600E000263EB1B1
:10102000D0E919767E60C66E16B1D0E91C767E6076
:10103000574F0668BE4249D0554F18370668BE4222
:1010400044D0534F30370668BE423FD0504F4837E8
:101050000668BE423AD04E4F60370668BE4235D071
:101060004B4F78370668BE4230D0494F90370668FC
:10107000BE422BD0464FA8370668BE4226D0454F09
:101080000668BE4222D0434F18370668BE421DD0C4
:10109000404F30370668BE4218D03E4F483706688A
:1010A000BE4213D03B4F60370668BE420ED0394F68
:1010B00078370668BE4209D0364F90370668BE4280
:1010C00004D0344FA8370668BE4201D1012600E0A3
:1010D0000026DEB190F85C6006F01F073F26BE4098
:1010E000AE600668366826F4802607683E600668AB
:1010F00073608668402E04D10668B2600668F160AD
:1011000044E00668B1600668F2603FE0224F06687E
:10111000BE4222D0204F14370668BE421DD01E4F5B
:1011200028370668BE4218D01B4F3C370668BE42BF
:1011300013D0194F50370668BE420ED0164F643791
:101140000668BE4209D0144F78370668BE4204D004
:10115000114F8C370668BE4201D1012600E00026FF
:10116000A6B190F85C6006F01F070126BE406660DD
:10117000066873608668402E04D10668B26006680F
:10118000F16003E00668B1600668F260F0BD00003F
:10119000100002401004024008540258704700003A
:1011A0009AB0402102A8FFF75CF9514813909920AA
:1011B0008DF8480047F28870ADF84A009FED4D0A5F
:1011C0008DED140A01208DF85400022112A84173FC
:1011D000032181730421C173052101740621417427
:1011E000454C46A009F07CF980E048480CF03AFDF7
:1011F000C7B2394646A009F073F9312F04D0322F17
:1012000034D0332F71D15AE020460AF01DFAAA20BB
:10121000199045F2AA50189041481790012219A937
:1012200020460CF0E5FA022218A904F120000CF087
:10123000DFFA042217A904F140000CF0D9FA254680
:1012400004F1200804F14009BDF860209DF8641005
:1012500034A0179B09F044F9B8F800202C462978EF
:101260003DA0D9F8003009F03BF93EE020460AF0F5
:10127000EBF9142212A920460CF0BAFA26464022B5
:1012800002A920460CF092FA9DED140AB7EEC00AAE
:101290008DED000BBDF84A309DF848203A4813996F
:1012A00009F01EF996ED020AB7EEC00A8DED000BAB
:1012B000738832783548716809F012F915E0142303
:1012C00012AA04F1200120460CF0D2FB04F1200602
:1012D00096ED020AB7EEC00A8DED000B73883278E6
:1012E0002A48716809F0FCF800BF00BF7DE70000E4
:1012F000AAAA5555E1FAC74200001E0844656D6F61
:10130000466C61736820320D0A0000006001002401
:10131000BDD3CAD5B5BDD7D6B7FBA3BA25630A00DE
:1013200044332211D0B4C8EBCAFDBEDDA3BA756345
:1013300054657374203D2025782C2075695465739D
:1013400074203D2025782C20756C54657374203DE5
:101350002025780D0A000000B6C1C8A1CAFDBEDD77
:10136000A3BA70747238203D2025782C20707472D6
:101370003136203D2025782C207074723332203D88
:101380002025780D0A000000807701083C770108CD
:1013900010B5024802F0BAF810BD0000C42A0024BB
:1013A0000020704710B502F003FD10BD10B50248D3
:1013B00002F0D4F9002010BDC42A002470B5044600
:1013C0000D46164633462A462146044802F06EF979
:1013D00010B14FF0FF3070BD0020FCE7C42A00249C
:1013E00070B504460D46164633462A462146044843
:1013F00002F0F2F910B14FF0FF3070BD0020FCE7B1
:10140000C42A002401B9704700BFFEE710B501F0FF
:1014100001037BB1134BDB6823F4E663114CE360FB
:1014200042F0040343EA002343F08003E4682343CB
:101430000C4CE36001F00203022B12D10A4B1B6833
:1014400023F4E663074CC4F80C3142F0040343EA8A
:10145000002343F08003D4F80C412343014CC4F82B
:101460000C3110BD002000520C21005201F003028B
:10147000032A1BD1234AD26822F03002214BDA60C2
:10148000214A126822F03002C3F80C211A46D268B1
:101490000243DA601A46D2F80C210243C3F80C2149
:1014A0001A46926942F010029A6129E001F00102A5
:1014B00072B1144AD26822F03002124BDA601A4636
:1014C000D2680243DA601A46D26842F08802DA60D3
:1014D00001F00202022A13D10B4A126822F03002F4
:1014E000084BC3F80C211A46D2F80C210243C3F86A
:1014F0000C211A46D2F80C2142F08802C3F80C21C4
:1015000070470000002000520C2100522DE9F041EC
:1015100007460E460424002502F04AFC8046022EAF
:1015200000D1344C0BE0781C48B102F041FCA0EB38
:101530000800B84200D817B90320BDE8F0812E4852
:101540002040A04208D12D4800692040A04201D18E
:1015500001200DE000200BE02948006824F0004144
:10156000084024F00041884201D1012000E0002021
:101570000028D8D1012E05D120480069214900EA70
:10158000010505E01E4800681F49084040F000457D
:1015900025F0004090B11D48806928431B498861AF
:1015A00015482840A84202D11448456104E025F0BE
:1015B00000401349091D08600120BEE7012E0AD131
:1015C0000E48006900F48030B0F5803F0FD1300440
:1015D0000A4948610BE00A48006800F48030B0F521
:1015E000803F04D14FF480300549091D0860002078
:1015F000A3E70000040000800F00EF1F002000524E
:10160000102100520000EE170000EE97A82A0024D7
:101610002DE9F041044602F0CBFB804614B90120CD
:10162000BDE8F08194F83500022808D0802060657C
:1016300000BF002084F8340000BF0120F0E7FE491D
:101640002068884249D0FC4918312068884244D03B
:10165000F9493031206888423FD0F7494831206845
:1016600088423AD0F44960312068884235D0F24946
:1016700078312068884230D0EF4990312068884224
:101680002BD0ED49A8312068884226D0EB4920684C
:10169000884222D0E9491831206888421DD0E749A4
:1016A00030312068884218D0E449483120688842A7
:1016B00013D0E2496031206888420ED0DF4978318A
:1016C0002068884209D0DD4990312068884204D0E2
:1016D000DA49A8312068884201D1012000E00020C9
:1016E00068B12068006820F01E002168086020684A
:1016F000406920F0800021684861256806E0206884
:10170000006820F00E00216808602568CA4920683A
:10171000884270D0C8491831206888426BD0C649C9
:1017200030312068884266D0C349483120688842F9
:1017300061D0C1496031206888425CD0BE497831AF
:101740002068884257D0BC4990312068884252D0E6
:10175000B949A831206888424DD0B84920688842EC
:1017600049D0B64918312068884244D0B349303155
:10177000206888423FD0B1494831206888423AD039
:10178000AE4960312068884235D0AC497831206854
:10179000884230D0A9499031206888422BD0A7498F
:1017A000A8312068884226D0A5492068884222D0E6
:1017B000A3491431206888421DD0A14928312068EE
:1017C000884218D09E493C312068884213D09C49F9
:1017D0005031206888420ED099496431206888428F
:1017E00009D0974978312068884204D094498C31D7
:1017F0002068884201D1012000E0002028B1206E3D
:10180000006820F48070216E08608B49206888424F
:1018100049D0894918312068884244D086493031FE
:10182000206888423FD084494831206888423AD0B5
:10183000814960312068884235D07F4978312068FD
:10184000884230D07C499031206888422BD07A4938
:10185000A8312068884226D078492068884222D062
:1018600076491831206888421DD07449303120688B
:10187000884218D0714948312068884213D06F4996
:101880006031206888420ED06C49783120688842E7
:1018900009D06A4990312068884204D06749A8314C
:1018A0002068884206D12068006820F00100216885
:1018B000086005E02068006820F0010021680860E9
:1018C00011E002F075FAA0EB080005280BD92020E2
:1018D0006065032084F8350000BF002084F83400E0
:1018E00000BF01209CE6286800F001000028E8D134
:1018F00051492068884249D04F49183120688842B0
:1019000044D04D493031206888423FD04A4948315F
:10191000206888423AD0484960312068884235D0F2
:10192000454978312068884230D043499031206859
:1019300088422BD04049A8312068884226D03F49B0
:101940002068884222D03D491831206888421DD045
:101950003A4930312068884218D0384948312068E7
:10196000884213D035496031206888420ED033490F
:1019700078312068884209D0304990312068884207
:1019800004D02E49A8312068884201D1012000E00E
:10199000002040B1A66D94F85C0000F01F013F20CC
:1019A0008840B06007E0A76D94F85C0000F01F016C
:1019B00001208840786020492068884276D01E49FE
:1019C00018312068884271D01B4930312068884224
:1019D0006CD0194948312068884267D01649603177
:1019E0002068884262D014497831206888425DD0EE
:1019F000114990312068884258D00F49A831206899
:101A0000884253D00D49206888424FD00B49183185
:101A1000206888424AD0094930312068884245D040
:101A2000064948312068884240D004496031206826
:101A300088423BD0014905E01000024010040240FA
:101A4000085402587831206888422FD025492068F0
:101A500088422BD0234918312068884226D0224959
:101A60002068884222D020491431206888421DD045
:101A70001D4928312068884218D01B493C31206814
:101A8000884213D018495031206888420ED0164938
:101A900064312068884209D013497831206888422F
:101AA00004D011498C312068884201D1012000E026
:101AB000002068B1D4E919104860E06E40B1E06ED2
:101AC000006820F48070E16E0860D4E91C10486062
:101AD000012084F8350000BF002084F8340000BFE6
:101AE00000BF9DE5A00402400854025870B50446AA
:101AF0000CB9012070BD94F83500022803D0802075
:101B000060650120F6E7DC492068884249D0DA495F
:101B100018312068884244D0D74930312068884243
:101B20003FD0D5494831206888423AD0D249603107
:101B30002068884235D0D04978312068884230D03A
:101B4000CD499031206888422BD0CB49A8312068FC
:101B5000884226D0C9492068884222D0C749183116
:101B6000206888421DD0C54930312068884218D08D
:101B7000C24948312068884213D0C049603120688A
:101B800088420ED0BD4978312068884209D0BB49CF
:101B900090312068884204D0B849A8312068884232
:101BA00001D1012000E00020F0B3042084F83500CA
:101BB000B149206888424BD0AF491831206888422B
:101BC00046D0AD4930312068884241D0AA494831D9
:101BD000206888423CD0A84960312068884237D0CC
:101BE000A54978312068884232D0A34990312068D5
:101BF00088422DD0A049A8312068884228D09F492A
:101C00002068884224D09D491831206888421FD01E
:101C10009A493031206888421AD098494831206862
:101C2000884215D0954900E020E060312068884264
:101C30000ED0924978312068884209D08F4990317E
:101C40002068884204D08D49A8312068884206D196
:101C50002068006820F001002168086009E1206820
:101C6000006820F001002168086002E12068006837
:101C700020F00E00216808607F492068884249D022
:101C80007D4918312068884244D07B493031206832
:101C900088423FD078494831206888423AD0764916
:101CA00060312068884235D0734978312068884295
:101CB00030D071499031206888422BD06E49A831CC
:101CC0002068884226D06D492068884222D06B491E
:101CD0001831206888421DD0684930312068884218
:101CE00018D0664948312068884213D06349603172
:101CF000206888420ED0614978312068884209D036
:101D00005E4990312068884204D05C49A83120683F
:101D1000884206D12068006820F001002168086030
:101D200005E02068006820F0010021680860524941
:101D30002068884270D050491831206888426BD0A2
:101D40004D4930312068884266D04B49483120687F
:101D5000884261D048496031206888425CD0464959
:101D600078312068884257D04349903120688842B2
:101D700052D04149A831206888424DD03F4920685F
:101D8000884249D03D4918312068884244D03B49B7
:101D90003031206888423FD0384948312068884235
:101DA0003AD0364960312068884235D0334978319D
:101DB0002068884230D031499031206888422BD049
:101DC0002E49A8312068884226D02D4920688842B3
:101DD00022D02B491431206888421DD0284928314F
:101DE0002068884218D026493C312068884213D0A8
:101DF00023495031206888420ED02149643120683F
:101E0000884209D01E4978312068884204D01C4994
:101E10008C312068884201D1012000E00020D8B137
:101E2000206E006820F48070216E0860A56D94F823
:101E30005C0000F01F01012088406860D4E919109F
:101E40004860E06E40B1E06E006820F48070E16EA2
:101E50000860D4E91C104860012084F8350000BFF8
:101E6000002084F8340000BF206D10B12046216DA1
:101E7000884700203EE600001000024010040240A7
:101E80000854025870B504460CB9012070BD9B4936
:101E90002068884249D0994918312068884244D046
:101EA00096493031206888423FD0944948312068B3
:101EB00088423AD0914960312068884235D08F49B4
:101EC00078312068884230D08C499031206888422F
:101ED0002BD08A49A8312068884226D088492068BA
:101EE000884222D086491831206888421DD0844912
:101EF00030312068884218D08149483120688842B2
:101F000013D07F496031206888420ED07C497831F7
:101F10002068884209D07A4990312068884204D0EC
:101F20007749A8312068884206D12068006820F0EF
:101F300001002168086005E02068006820F00100C9
:101F4000216808606D492068884249D06B49183182
:101F50002068884244D069493031206888423FD0A7
:101F600066494831206888423AD064496031206827
:101F7000884235D0614978312068884230D05F4945
:101F80009031206888422BD05C49A8312068884273
:101F900026D05B492068884222D0594918312068F0
:101FA00088421DD0564930312068884218D05449A3
:101FB00048312068884213D05149603120688842F6
:101FC0000ED04F4978312068884209D04C49903171
:101FD0002068884204D04A49A8312068884201D14B
:101FE000012000E00020C8B10020216808602168BD
:101FF0004860216888602168C860216808612120E4
:10200000216848612046FEF713FE064694F85C00FE
:1020100000F01F013F208840B06043E0394920684C
:10202000884222D037491431206888421DD0354972
:1020300028312068884218D032493C3120688842D3
:1020400013D030495031206888420ED02D49643178
:102050002068884209D02B4978312068884204D012
:1020600028498C312068884201D1012000E00020FD
:10207000B0B100202168086021684860216888604C
:102080002168C860216808612046FEF7D1FD054639
:1020900094F85C0000F01F0101208840686001E0B6
:1020A0000120F3E62046FEF739FE206E28B100201D
:1020B000216E0860D4E919104860606858B1606802
:1020C000082808D82046FEF78BFE0020E16E086045
:1020D000D4E91C1048600020E06620676067E06378
:1020E00020646064A064E0642065606584F8350065
:1020F00000BF84F8340000BF00BFC7E610000240F4
:1021000010040240085402580146486D7047000010
:102110002DE9F84F044600200090FE4800684FF477
:102120001651B0FBF1FAA66DD4F858803768D8F88C
:102130000090F9492068884249D0F7491831206851
:10214000884244D0F4493031206888423FD0F24977
:102150004831206888423AD0EF496031206888428F
:1021600035D0ED4978312068884230D0EA49903145
:10217000206888422BD0E849A8312068884226D0C0
:10218000E6492068884222D0E44918312068884214
:102190001DD0E24930312068884218D0DF494831EB
:1021A0002068884213D0DD496031206888420ED013
:1021B000DA4978312068884209D0D84990312068BE
:1021C000884204D0D549A8312068884201D1012035
:1021D00000E0002000287DD094F85C0000F01F0192
:1021E000082088403840002868D0CB4920688842C1
:1021F00049D0C94918312068884244D0C649303195
:10220000206888423FD0C4494831206888423AD08B
:10221000C14960312068884235D0BF497831206893
:10222000884230D0BC499031206888422BD0BA49CE
:10223000A8312068884226D0B8492068884222D038
:10224000B6491831206888421DD0B4493031206821
:10225000884218D0B14948312068884213D0AF492C
:102260006031206888420ED0AC49783120688842BD
:1022700009D0AA4990312068884204D0A749A831E2
:102280002068884204D12068006800F0040003E060
:102290002068006800F0080080B12068006820F025
:1022A00004002168086094F85C0000F01F01082019
:1022B0008840B060606D40F00100606594F85C009B
:1022C00000F01F01012088403840E8B3924920689F
:1022D000884200E0B7E24BD08F491831206888422D
:1022E00046D08D4930312068884241D08A494831F2
:1022F000206888423CD0884960312068884237D0C5
:10230000854978312068884232D0834990312068ED
:1023100088422DD08049A8312068884228D07F4942
:102320002068884224D07D491831206888421FD017
:102330007A493031206888421AD07849483120687B
:10234000884215D0754900E026E060312068884257
:102350000ED0724978312068884209D06F49903197
:102360002068884204D06D49A8312068884204D191
:102370002068406900F0800002E0206800680020CA
:1023800050B194F85C0000F01F0101208840B0605B
:10239000606D40F00200606594F85C0000F01F0181
:1023A000042088403840E8B35B49206888424BD01D
:1023B000594918312068884246D057493031206841
:1023C000884241D054494831206888423CD0524923
:1023D00060312068884237D04F4978312068884280
:1023E00032D04D499031206888422DD04A49A831D9
:1023F0002068884228D049492068884224D047492B
:102400001831206888421FD0444930312068884202
:102410001AD0424948312068884215D03F4960317E
:10242000206800E024E088420ED03C4978312068E2
:10243000884209D0394990312068884204D0374910
:10244000A8312068884204D12068006800F00200AA
:1024500002E020680068002050B194F85C0000F0B1
:102460001F0104208840B060606D40F0040060658A
:1024700094F85C0000F01F01102088403840E8B359
:1024800025492068884251D0234918312068884264
:102490004CD0214930312068884247D01E4948310C
:1024A0002068884242D01C496031206888423DD073
:1024B000194978312068884238D01749903120680E
:1024C000884233D01449A831206888422ED013495D
:1024D000206888422AD0114918312068884225D0C6
:1024E0000E4930312068884220D00C49483120689C
:1024F00088421BD009496031206800E04DE08842E5
:1025000014D006497831206888420FD003499031B1
:10251000206805E000000024100002401004024082
:10252000884203D0FE492068884204D120680068B0
:1025300000F0080003E02068006800F0040060B3C9
:1025400094F85C0000F01F0110208840B060206803
:10255000006800F4802080B12068006800F400204A
:1025600028B9206CC8B12046216C884715E0A06CC2
:1025700098B12046A16C88470FE02068006800F4FD
:10258000807028B92068006820F008002168086081
:10259000206C10B12046216C884794F85C0000F054
:1025A0001F0120208840384000287DD0DD49206868
:1025B000884249D0DB4918312068884244D0D94943
:1025C0003031206888423FD0D6494831206888425F
:1025D0003AD0D44960312068884235D0D149783129
:1025E0002068884230D0CF499031206888422BD073
:1025F000CC49A8312068884226D0C949A83920682A
:10260000884221D0C6499039206888421CD0C449EC
:1026100078392068884217D0C149603920688842DB
:1026200012D0BF494839206888420DD0BC493039A2
:102630002068884208D0BA4918392068884203D0F7
:10264000B7492068884204D12068006800F0100073
:1026500003E02068006800F0020028B394F85C00F2
:1026600000F01F0120208840B06094F83500042855
:102670002DD12068006820F01600216808602068CD
:10268000406920F0800021684861206C08B9A06C86
:1026900028B12068006820F008002168086094F8DC
:1026A0005C0000F01F0100E03FE03F208840B06088
:1026B000012084F8350000BF002084F8340000BFFA
:1026C000206D10B12046216D8847BDE8F88F206845
:1026D000006800F4802080B12068006800F40020C9
:1026E00028B9606C08B32046616C88471DE0E06B38
:1026F000D8B12046E16B884717E02068006800F4F5
:10270000807068B92068006820F0100021680860B7
:10271000012084F8350000BF002084F8340000BF99
:10272000E06B10B12046E16B8847606D00287AD0DD
:10273000606D00F00100E8B3042084F835007949A9
:10274000206888424BD0774918312068884246D0AB
:10275000744930312068884241D07249483120683C
:1027600088423CD06F4960312068884237D06D493B
:1027700078312068884232D06A4990312068884296
:102780002DD06849A8312068884228D06449A839EA
:102790002068884223D062499039206888421ED040
:1027A0005F4978392068884219D05D4960392068CE
:1027B000884200E040E012D05949483920688842F8
:1027C0000DD0574930392068884208D0544918390B
:1027D0002068884203D052492068884206D1206888
:1027E000006820F001002168086005E020680068AA
:1027F00020F001002168086000BF0098401C009094
:10280000504500D905E02068006800F0010000286C
:10281000F3D100BF2068006800F0010020B1032060
:1028200084F8350003E00DE0012084F8350000BF96
:10283000002084F8340000BFE06C002802D020465D
:10284000E16C8847D9E138492068884222D036496E
:102850001431206888421DD03349283120688842CD
:1028600018D031493C312068884213D02E4950316C
:10287000206888420ED02C4964312068884209D0F3
:10288000294978312068884204D027498C31206852
:10289000884201D1012000E000200028D2D0206829
:1028A000056894F85C0000F01F010420884000EAED
:1028B0000900D8B305F00400C0B394F85C0000F040
:1028C0001F0104208840C8F8040005F4004080B1CE
:1028D00005F4803030B9A06C0028B3D02046A16C3C
:1028E00088478AE1206C0028ACD02046216C8847BC
:1028F00083E105F02000E8BB0A492068884253D0F4
:1029000008491831206888424ED006493031206885
:10291000884249D0034948312068884244D006E0C3
:10292000B804024010000240085402584FE0B44975
:1029300060312068884237D0B149783120688842B8
:1029400032D0AF499031206888422DD0AC49A831AF
:102950002068884228D0AB492068884224D0A94901
:102960001831206888421FD0A6493031206888423B
:102970001AD000E025E0A34948312068884213D0EE
:10298000A0496031206888420ED09E497831206885
:10299000884209D09B4990312068884204D09949E7
:1029A000A8312068884206D12068006820F008001D
:1029B0002168086005E02068006820F004002168B4
:1029C0000860206C10B32046216C884715E194F80C
:1029D0005C0000F01F010220884000EA0900E8B313
:1029E00005F00200D0B394F85C0000F01F01022053
:1029F0008840C8F8040005F4004070B105F4803048
:102A000028B9606C10B12046616C8847F5E0E06B36
:102A1000F0B32046E16B8847EFE005F02000C0BB33
:102A20007749206888424ED075491831206888421D
:102A300049D0734930312068884244D070494831C8
:102A4000206888423FD06E496031206888423AD081
:102A50006B4978312068884235D000E04EE0684903
:102A60009031206888422ED06549A831206888427C
:102A700029D064492068884225D0624918312068ED
:102A8000884220D05F493031206888421BD001E065
:102A90006EE02DE05B4948312068884213D05949E7
:102AA0006031206888420ED05649783120688842CB
:102AB00009D0544990312068884204D05149A83146
:102AC0002068884206D12068006820F01400216840
:102AD000086005E02068006820F00A0021680860AE
:102AE000012084F8350000BF002084F8340000BFC6
:102AF000E06BE8B32046E16B88477EE094F85C0029
:102B000000F01F010820884000EA090080B305F0AA
:102B1000080068B33A49206888424BD038491831D8
:102B20002068884246D0364930312068884241D0FA
:102B300033494831206888423CD0314960312068AF
:102B4000884237D02E4978312068884232D02C49CB
:102B50009031206888422DD02949A83120688842C8
:102B600028D028492068884224D02649183100E01E
:102B700043E0206888421DD02249303120688842D5
:102B800018D0204948312068884213D01D4960314F
:102B9000206888420ED01B4978312068884209D0CD
:102BA000184990312068884204D01649A83120681D
:102BB000884206D12068006820F01C002168086067
:102BC00005E02068006820F00E002168086094F895
:102BD0005C0000F01F0101208840C8F804000120BB
:102BE000606584F8350000BF002084F8340000BF21
:102BF000E06C10B12046E16C884700BF65E500003D
:102C000010000240100402402DE9F041044601F09A
:102C1000CFF8804614B90120BDE8F081FE49206854
:102C2000884249D0FC4918312068884244D0FA498A
:102C30003031206888423FD0F749483120688842C7
:102C40003AD0F54960312068884235D0F249783170
:102C50002068884230D0F0499031206888422BD0DB
:102C6000ED49A8312068884226D0EC492068884286
:102C700022D0EA491831206888421DD0E749303116
:102C80002068884218D0E54948312068884213D02E
:102C9000E2496031206888420ED0E04978312068EE
:102CA000884209D0DD4990312068884204D0DB4950
:102CB000A8312068884201D1012000E000200028CE
:102CC00073D0606A00B100BF022084F8350000BFF5
:102CD000002084F8340000BFCF492068884249D0E2
:102CE000CD4918312068884244D0CB493031206822
:102CF00088423FD0C8494831206888423AD0C64906
:102D000060312068884235D0C349783120688842D4
:102D100030D0C1499031206888422BD0BE49A831BB
:102D20002068884226D0BD492068884222D0BB490D
:102D30001831206888421DD0B84930312068884257
:102D400018D0B64948312068884213D0B349603161
:102D5000206888420ED0B14978312068884209D075
:102D6000AE4990312068884204D0AC49A83120682F
:102D7000884206D12068006820F0010021680860C0
:102D800005E02068006820F00100216808600DE07F
:102D900001F00EF8A0EB0800052807D92020606597
:102DA000032084F83500012036E76AE020680068D7
:102DB00000F001000028EBD1206805689848054024
:102DC000D4E9020108432169084361690843A16904
:102DD0000843E1690843216A08430543606A0428FF
:102DE00003D1D4E90B01084305438E4800686FF313
:102DF0000F00B0F1005F1DD36068292802D360681E
:102E00002E2811D960683F2802D3606842280BD968
:102E10006068472802D36068482805D960684F2851
:102E200004D36068522801D8012000E0002008B1D6
:102E300045F48015206805602068456925F0070580
:102E4000606A0543606A04280DD1A06A0543E06A00
:102E500048B12046FEF710F828B1402060650120F7
:102E600084F83500D8E6206845612046FDF7E0FE8D
:102E7000064694F85C0000F01F013F208840B060D7
:102E80009EE069492068884222D067491431206851
:102E900088421DD0644928312068884218D0624990
:102EA0003C312068884213D05F4950312068884205
:102EB0000ED05D4964312068884209D05A49783182
:102EC0002068884204D058498C312068884201D15A
:102ED000012000E00020E0B353492068884222D05E
:102EE00051491431206888421DD04F49283120684B
:102EF000884218D04C493C312068884213D04A4956
:102F00005031206888420ED0474964312068884299
:102F100009D0454978312068884204D042498C3133
:102F20002068884201D1012000E0002000B100BFEC
:102F3000022084F8350000BF002084F8340000BF70
:102F40002068056839480540A068402802D1102152
:102F500006E02EE0A068802801D1C10100E0002138
:102F6000E06841EAD001206941EAD001606941EAA4
:102F7000D001A06941EAD001E06941EAD001206AAC
:102F800041EA101005432068056027492068401A6F
:102F90001421B0FBF1F08000E0652046FDF748FE0B
:102FA000074694F85C0000F01F010120884078601B
:102FB00006E040206065032084F8350001202BE600
:102FC0001549206888427FD013491831206888420B
:102FD0007AD0114930312068884275D00E49483185
:102FE0002068884270D00C496031206888426BD0DC
:102FF000094978312068884266D0074990312068B5
:10300000884261D00449A831206888425CD00349D5
:103010002068884258D00BE01000024010040240A3
:103020003F8010FE0010005C085402580F00FEFFA5
:103030003B4918312068884246D0394930312068F0
:10304000884241D036494831206888423CD03449D2
:1030500060312068884237D0314978312068884211
:1030600032D02F499031206888422DD02C49A83188
:103070002068884228D02B492068884224D02949DA
:103080001431206888421FD02649283120688842A0
:103090001AD024493C312068884215D0214950314A
:1030A0002068884210D01F496431206888420BD0C4
:1030B0001C4978312068884206D01A498C31206832
:1030C000884200E000E001D1012000E0002000B3D0
:1030D0002046FDF723FEA068802801D10020606013
:1030E0002079216E0860D4E919104860606860B1E9
:1030F0006068082809D82046FDF772FE0020E16EBE
:103100000860D4E91C10486003E00020E0662067F6
:10311000606700206065012084F8350000207BE5B1
:1031200010040240085402582DE9F04104460D46AF
:1031300016461F464FF0000814B90120BDE8F08183
:1031400000BF94F83400012801D10220F6E70120E5
:1031500084F8340000BF94F8350001287ED10220A5
:1031600084F8350000206065E4492068884249D031
:10317000E24918312068884244D0E0493031206863
:1031800088423FD0DD494831206888423AD0DB4947
:1031900060312068884235D0D8497831206888422B
:1031A00030D0D6499031206888422BD0D349A831FD
:1031B0002068884226D0D2492068884222D0D0494F
:1031C0001831206888421DD0CD49303120688842AE
:1031D00018D0CB4948312068884213D0C8496031A3
:1031E000206888420ED0C64978312068884209D0CC
:1031F000C34990312068884204D0C149A831206871
:10320000884206D12068006820F00100216808602B
:1032100005E02068006820F00100216808603B4656
:10322000324629462046FDF77FFEB4492068884291
:103230004BD0B24918312068884246D0AF4930316E
:103240002068884241D0AD494831206888423CD04E
:10325000AA4960312068884237D000E042E1A7499E
:1032600078312068884230D0A44990312068884263
:103270002BD0A249A8312068884226D0A0492068D6
:10328000884222D09E491831206888421DD09C492E
:1032900030312068884218D09949483120688842E6
:1032A00013D097496031206888420ED09449783114
:1032B0002068884209D0924990312068884204D021
:1032C0008F49A8312068884201D1012000E0002008
:1032D00080B12068006820F01E0040F016002168D0
:1032E0000860206CB0B12068006840F008002168D8
:1032F00008600FE02068006820F00E0040F00A002F
:1033000021680860206C28B12068006840F0040043
:103310002168086079492068884270D0774918315F
:10332000206888426BD0754930312068884266D069
:10333000724948312068884261D070496031206804
:1033400088425CD06D4978312068884257D06B49FB
:1033500090312068884252D06849A831206888425C
:103360004DD067492068884249D0654918312068A6
:10337000884244D062493031206888423FD0604959
:103380004831206888423AD05D49603120688842DF
:1033900035D05B4978312068884230D05849903127
:1033A000206888422BD05649A8312068884226D010
:1033B00054492068884222D05249143120688842FA
:1033C0001DD0504928312068884218D04D493C31E1
:1033D0002068884213D04B495031206888420ED073
:1033E000484964312068884209D0464978312068CC
:1033F000884204D043498C312068884201D10120A1
:1034000000E0002090B1206E006800F4803028B108
:10341000206E006840F48070216E0860E06E28B174
:10342000E06E006840F48070E16E08603349206807
:10343000884249D0314918312068884244D02F4908
:103440003031206888423FD02C494831206888427A
:103450003AD02A4960312068884235D027497831EE
:103460002068884230D025499031206888422BD08E
:103470002249A8312068884226D021492068884204
:1034800022D01F491831206888421DD01C49303194
:103490002068884218D01A4948312068884213D0E1
:1034A00017496031206888420ED01549783120686C
:1034B000884209D0124990312068884204D01049CE
:1034C000A8312068884206D12068006840F00100D9
:1034D0002168086010E02068006840F00100216861
:1034E000086009E04FF40060606500BF002084F8C8
:1034F000340000BF4FF0010840461FE610000240B4
:1035000010040240085402587047704710B5044632
:10351000206800F58050D0F8600100F0400040289D
:1035200012D1206800F58050D0F8340100F040003E
:10353000402809D1204600F0F5F848F24001206803
:1035400000F58050C0F86011206800F58050D0F878
:10355000600100F0010088B1206800F58050D0F8CB
:10356000340100F0010048B1204600F033F948F280
:103570000101206800F58050C0F86011206800F556
:103580008050D0F8600100F48040B0F5804F41D108
:10359000206800F58050D0F8340100F48040B0F588
:1035A000804F37D1606F40F008006067206800F5F9
:1035B0008050D0F8600100F48050B0F5805F17D1E2
:1035C000206800F58050D0F8600141F202110840F7
:1035D000A067206800F58050D0F8340120F4404105
:1035E000206800F58050C0F83411E020E0660EE05D
:1035F000206800F58050D0F8600100F4CD40A0674D
:103600004FF4CD41206800F58050C0F8601120468D
:10361000FFF77AFF2068D0F8B00000F4C040B0F5A2
:10362000C04F0AD12068D0F8B800E067E020E0661B
:10363000204600F039F80020E0672068D0F8B0009C
:1036400000F0100010280CD12068D0F8C00000F065
:103650006000C4F88000204600F027F80020C4F87D
:1036600080002068D0F8B00000F0200020280CD1A5
:103670002068D0F8C00000F00F00C4F88400204695
:10368000FFF743FF0020C4F884000648006800F4F8
:10369000800030B14FF4800002490860204600F0FD
:1036A0009AF810BDA8000058704770472DE9F04700
:1036B00004460F46904699462068D0F8000200F074
:1036C000010010B10120BDE8F0872068D0F8005259
:1036D00025F0787040EA475525F4F81040EA08458F
:1036E00045F00C0545F001052068C0F8005200F0D7
:1036F0005FFB064607E000F05BFB801BB0F57A7FBE
:1037000001D90120DFE72068D0F8000200F00100B5
:103710000028F0D12068D0F8040280B2C9F8000077
:103720000020D0E738B504460020009069460948DB
:10373000006813F045F901280BD100BF009838B19B
:103740004FF0805004490860BFF34F8FBFF36F8F75
:1037500000BF38BDC400002404ED00E070B506468B
:103760003068D0F8004224F4706401F08FFE054602
:103770001348854205D31348854202D244F40074AD
:103780001AE01048854205D30F48854202D244F41E
:10379000407411E00C48854203D30C48854200D2A6
:1037A0000AE00A48854205D30948854202D244F41A
:1037B000807401E044F480643068C0F8004270BD59
:1037C000002D3101C00E16020087930300E1F505BC
:1037D00080D1F008704770472DE9F04705460F4645
:1037E000904699462868D0F8000200F0010010B118
:1037F0000120BDE8F0872868D0F8004224F07870F6
:1038000040EA475424F4F81040EA084424F00C003D
:10381000041D44F001041FFA89F00D4908600D48A9
:10382000C0F8004200F0C4FA064607E000F0C0FA13
:10383000801BB0F57A7F01D90120DAE72868D0F83B
:10384000000200F001000028F0D100BFD1E7000025
:1038500004820240008002400348006840F00100FA
:103860000149086070470000200400582DE9F0412C
:1038700004460E46002700BF4848007D012802D1BB
:103880000220BDE8F08101204449087500BF0020F6
:103890008861207900F0010030B101214CF25030F4
:1038A000FDF734FE00B10127207900F00200022864
:1038B00006D102214CF25030FDF728FE00B101275D
:1038C000002F63D12068012828D161682069FDF7A5
:1038D000CDFD207900F0010060B101214CF25030A3
:1038E000FDF714FE00B101272D48C06820F0080044
:1038F0002B49C860207900F00200022846D102213D
:103900004CF25030FDF702FE00B101272548006857
:1039100020F008002249C1F80C0137E04FF0FF30D9
:103920003060A5682CE0284622696168FDF76EFDCD
:10393000207900F0010060B101214CF25030FDF718
:10394000E5FD07461648C06840F2047188431449F3
:10395000C860207900F0020002280DD102214CF24B
:103960005030FDF7D3FD07460E48006840F2047161
:1039700088430B49C1F80C010FB1356005E06D1C9F
:10398000D4E902100844A842CDD800BF00BF0020EF
:103990000249087500BF384673E70000A82A0024D2
:1039A000002000520C2100520E48C06840F0010077
:1039B0000C49C8600846C06800F0010008B9012041
:1039C00070470948006840F001000649C1F80C0141
:1039D0000548006800F0010008B90120F0E7002068
:1039E000EEE70000002000520C2100522DE9F05FAC
:1039F00083460C461746A046B9464FF0080A00BF5A
:103A00004248007D012802D10220BDE8F09F01203C
:103A10003E49087500BFB4F1006F04D3B4F1016FE3
:103A200001D2012509E0B4F1016F04D3B4F1026FB2
:103A300001D2022501E00120E7E700203349886137
:103A400029464CF25030FDF761FD0646002E55D157
:103A5000012D06D12E48C06840F002002C49C860F4
:103A600006E02C48006840F002002949C1F80C012A
:103A700000BF00BF00BFBFF36F8F00BF00BF00BF1C
:103A800000BF00BF00BFBFF34F8F00BF00BF00BF2C
:103A900000BFD9F80000C8F8000008F1040809F1D7
:103AA0000409AAF1010000F0FF0ABAF1000FF0D1F9
:103AB00000BF00BF00BFBFF36F8F00BF00BF00BFDC
:103AC00000BF00BF00BFBFF34F8F00BF00BF00BFEC
:103AD00029464CF25030FDF719FD0646012D06D15E
:103AE0000B48C06820F002000949C86006E0094898
:103AF000006820F002000649C1F80C0100BF002058
:103B00000249087500BF30467FE70000A82A00245C
:103B1000002000520C2100521348C06800F0010040
:103B200058B1124810494860114848600846C068BA
:103B300000F0010008B1012070470E48006800F055
:103B4000010070B109480B49083908600848064966
:103B5000C1F804010748006800F0010008B1012025
:103B6000EAE70020E8E70000002000522301674553
:103B7000AB89EFCD0C210052F8B502460B4600216F
:103B80006F4DD7E001278F401E6806EA0704002C1E
:103B900072D01E7906F00306012E04D01E7906F0BD
:103BA0000306022E13D190684F000326BE40B04397
:103BB0004F00DE68BE4030439060506801268E4062
:103BC000B0431E79C6F300168E40304350601E7914
:103BD00006F00306032E09D0D0684F000326BE402E
:103BE000B0434F009E68BE403043D0601E7906F05F
:103BF0000306022E13D1CF0802F1200656F8270043
:103C00004E07F70E0F26BE40B0434F07FF0E1E694A
:103C1000BE403043CF0802F1200646F82700106866
:103C20004F000326BE40B0431E7906F003064F0046
:103C3000BE40304310605E6806F44036002E78D0F7
:103C400000BF404E366846F002063E4F3E603E469C
:103C5000366806F00206009600BF00BF3A4E8F0895
:103C600056F827008E07370F0F26BE40B043374E59
:103C7000B24202D100262EE05BE0354EB24201D1C5
:103C8000012628E0334EB24201D1022623E0324E13
:103C9000B24201D103261EE0304EB24201D10426C9
:103CA00019E02F4EB24201D1052614E02D4EB2424A
:103CB00001D106260FE02C4EB24201D107260AE0C0
:103CC0002A4EB24201D1082605E0294EB24201D166
:103CD000092600E00A268F073F0FBE4030431A4EE8
:103CE0008F0846F827004FF0B0463068A0435E6862
:103CF00006F4801606B120434FF0B046306070687D
:103D0000A0435E6806F4001606B120434FF0B046AB
:103D100070606868A0435E6806F4003606B1204310
:103D200068602868A0435E6806F4803606B12043C8
:103D30002860491C1E68CE40002E7FF423AFF8BDDA
:103D400080000058F444025808040058000002584B
:103D50000004025800080258000C025800100258D3
:103D60000014025800180258001C02580020025883
:103D700000240258024613690B400BB1012000E0F9
:103D80000020704710B5426921EA020302EA0104EB
:103D900043EA0443836110BD0AB1816101E00B0471
:103DA0008361704701480068000C70470010005C98
:103DB00001480068704700008C0000242DE9F041A4
:103DC00007460D4616464FF001080AF00DF91C494A
:103DD00008780AF0D1F80AF04FF910B14FF0000856
:103DE00028E038460AF0C8F80AF046F910B14FF05A
:103DF00000081FE00AF0F8F811490978491CC8B218
:103E00000AF0BAF80AF038F910B14FF0000811E0E2
:103E100000240CE0701EA04204D100200AF07CF8BF
:103E2000285503E001200AF077F82855641CB442B5
:103E3000F0D300BF0AF000F94046BDE8F081000071
:103E4000AE0000242DE9F04107460D4616464FF01E
:103E5000010800240AF0C8F8154908780AF08CF81F
:103E60000AF00AF908B1A04617E038460AF084F8CB
:103E70000AF002F910B14FF000080EE0002409E04A
:103E8000285D0AF079F80AF0F7F810B14FF0000851
:103E900003E0641CB442F3D300BF0AF0CDF8B8F1DC
:103EA000000F02D00120BDE8F0810020FBE70000F8
:103EB000AE0000240348006803490978084401491A
:103EC000086070478C0000249400002410B5032083
:103ED00000F00EF901F024FB10490968C1F3032139
:103EE0000F4A515C01F01F0120FA01F40B480068F1
:103EF00000F00F001146085C00F01F0024FA00F0EB
:103F000008490860084804600F2000F00FF808B165
:103F1000012010BD00F09AF80020FAE7184402587A
:103F200024740108040000240000002470B5044635
:103F30001148007808B9012070BD0F4800784FF48F
:103F40007A71B1FBF0F00D490968B1FBF0F5284634
:103F500003F021F908B10120EEE7102C07D200226E
:103F60002146501E00F087F80548046001E001205A
:103F7000E2E70020E0E700009400002400000024B5
:103F8000900000244178154A11600178F9B1121DA2
:103F900041681160017B0907C27A41EA0261827AB5
:103FA00041EAC241427B41EA8241827B41EA42418D
:103FB000C27B41EA0241427A41EA0221027A41EAA5
:103FC000420102781143054A0832116005E00021E0
:103FD000024A121D1160121D1160704798ED00E039
:103FE00000BF00BF00BFBFF35F8F00BF00BF00BFB7
:103FF0000548006820F48030034908600020024929
:10400000703108607047000024ED00E040F00101CD
:104010000D4A11600C497039096841F480310A4A2F
:10402000703A116000BF00BF00BFBFF34F8F00BFE9
:1040300000BF00BF00BF00BF00BFBFF36F8F00BF56
:1040400000BF00BF7047000094ED00E070470146DC
:10405000084600280DDB00BF00BF00F01F0301224F
:104060009A4043099B0003F1E023C3F8002100BFFD
:1040700000BF00BF70472DE9F05F80460D46164631
:1040800006F056FA074639462A46334601F007003D
:10409000C0F1070ABAF1040F02D94FF0040A01E097
:1040A000C0F1070AD14600F1040ABAF1070F02D2A3
:1040B0004FF0000A01E0A0F1030AD4464FF0010AD4
:1040C0000AFA09FAAAF1010A0AEA020A0AFA0CFA39
:1040D0004FF0010B0BFA0CFBABF1010B0BEA030BDE
:1040E0004AEA0B042146404606F02AFABDE8F09F52
:1040F00000BF00F00702064B19684FF6FF03194096
:10410000044B0B4343EA0221014B196000BF704787
:104110000CED00E00000FA0500BF00BF00BF00BFCB
:1041200000BFBFF34F8F00BF00BF00BF094800684A
:1041300000F4E06008490843001D0649086000BF1C
:1041400000BF00BFBFF34F8F00BF00BF00BF00BF65
:1041500000BFFDE70CED00E00000FA050348006831
:1041600040F0807001490860704700000C48025818
:104170000348006840F480700149086070470000FF
:104180000048025810B501F081F905490968C1F3EA
:104190000211044A515C01F01F01C84010BD00002B
:1041A000204402582474010870B50146844D2D68DE
:1041B00005F00303824D2D68C5F30530804D2D1D9C
:1041C0002D68C5F300147E4D14352D68C5F3CC055C
:1041D00015FB04F501EE105AB8EE411AF0EE410A53
:1041E00000286FD023B1012B4ED0022B6BD16BE096
:1041F000734D283D2D68C5F340153DB3704D283DE6
:104200002D68C5F3C1066F4D25FA06F201EE102A9E
:10421000F8EE411A01EE100AB8EE411A81EE812A39
:104220009FED691AC0EE811A654D10352D68C5F3F2
:10423000080501EE105AB8EE411A31EE811AF7EE78
:10424000001A31EE211A22EE010A1CE001EE100ADA
:10425000B8EE411ADFED5D1A81EE812A9FED5A1A00
:10426000C0EE811A564D10352D68C5F3080501EED4
:10427000105AB8EE411A31EE811AF7EE001A31EEFB
:10428000211A22EE010A5BE001EE100AB8EE411A93
:10429000DFED4F1A81EE812A9FED4B1AC0EE811A95
:1042A000474D10352D68C5F3080501EE105AB8EEDC
:1042B000411A31EE811AF7EE001A31EE211A22EE80
:1042C000010A3DE077E01DE001EE100AB8EE411A68
:1042D0009FED402AC2EE011A9FED3B1A80EE812A23
:1042E000374D10352D68C5F3080501EE105AB8EEAC
:1042F000411A32EE011AB7EE002A31EE021A21EE0F
:10430000810A1DE001EE100AB8EE411ADFED301A05
:1043100081EE812A9FED2C1AC0EE811A284D1035AE
:104320002D68C5F3080501EE105AB8EE411A31EEBA
:10433000811AF7EE001A31EE211A22EE010A00BFAF
:1043400000BF1F4D10352D68C5F3462501EE105AEC
:10435000B8EE411AF7EE001A31EE211AC0EE011A3A
:10436000BCEEE11A81ED001A154D10352D68C5F32C
:10437000064501EE105AB8EE411AF7EE001A31EE7A
:10438000211AC0EE011ABCEEE11A81ED011A0C4DA2
:1043900010352D68C5F3066501EE105AB8EE411AC6
:1043A000F7EE001A31EE211AC0EE011ABCEEE11A46
:1043B00081ED021A03E000250D604D608D6070BD37
:1043C000284402580090D003000000460024744C9A
:1043D0000024744A20BCBE4B70B50146844D2D6844
:1043E00005F00303824D2D68C5F30550804D2D1D4A
:1043F0002D68C5F300247E4D1C352D68C5F3CC0512
:1044000015FB04F501EE105AB8EE411AF0EE410A20
:1044100000286FD023B1012B4ED0022B6BD16BE063
:10442000734D283D2D68C5F340153DB3704D283DB3
:104430002D68C5F3C1066F4D25FA06F201EE102A6C
:10444000F8EE411A01EE100AB8EE411A81EE812A07
:104450009FED691AC0EE811A654D18352D68C5F3B8
:10446000080501EE105AB8EE411A31EE811AF7EE46
:10447000001A31EE211A22EE010A1CE001EE100AA8
:10448000B8EE411ADFED5D1A81EE812A9FED5A1ACE
:10449000C0EE811A564D18352D68C5F3080501EE9A
:1044A000105AB8EE411A31EE811AF7EE001A31EEC9
:1044B000211A22EE010A5BE001EE100AB8EE411A61
:1044C000DFED4F1A81EE812A9FED4B1AC0EE811A63
:1044D000474D18352D68C5F3080501EE105AB8EEA2
:1044E000411A31EE811AF7EE001A31EE211A22EE4E
:1044F000010A3DE077E01DE001EE100AB8EE411A36
:104500009FED402AC2EE011A9FED3B1A80EE812AF0
:10451000374D18352D68C5F3080501EE105AB8EE71
:10452000411A32EE011AB7EE002A31EE021A21EEDC
:10453000810A1DE001EE100AB8EE411ADFED301AD3
:1045400081EE812A9FED2C1AC0EE811A284D183574
:104550002D68C5F3080501EE105AB8EE411A31EE88
:10456000811AF7EE001A31EE211A22EE010A00BF7D
:1045700000BF1F4D18352D68C5F3462501EE105AB2
:10458000B8EE411AF7EE001A31EE211AC0EE011A08
:10459000BCEEE11A81ED001A154D18352D68C5F3F2
:1045A000064501EE105AB8EE411AF7EE001A31EE48
:1045B000211AC0EE011ABCEEE11A81ED011A0C4D70
:1045C00018352D68C5F3066501EE105AB8EE411A8C
:1045D000F7EE001A31EE211AC0EE011ABCEEE11A14
:1045E00081ED021A03E000250D604D608D6070BD05
:1045F000284402580090D003000000460024744C68
:104600000024744A20BCBE4B2DE9F041044600252D
:10461000A846206800F00060B0F1006F30D1606EF5
:1046200048B1B0F5801F0DD0B0F5001F10D0B0F527
:10463000401F15D113E0F948006840F40030F749F5
:1046400008600FE00221201D03F082FC054609E00E
:10465000022104F1240003F02DFD054602E001E0F3
:10466000012500BF00BF55B9EC482430006820F494
:104670004010616E0843E9492431086000E0A84613
:10468000208800F48070B0F5807F2DD1606D052802
:104690001AD2DFE800F0030A10171800DF4800689C
:1046A00040F40030DD49086010E00021201D03F0D7
:1046B0004FFC05460AE0002104F1240003F0FAFC57
:1046C000054603E002E001E0012500BF00BF55B947
:1046D000D2482430006820F00700616D0843CF49BC
:1046E0002431086000E0A846208800F40070B0F58E
:1046F000007F33D1A06D802817D003DC40B1402863
:104700001CD10CE0C02817D0B0F5807F16D114E082
:10471000C248006840F40030C049086010E0002141
:10472000201D03F015FC05460AE0002104F12400D9
:1047300003F0C0FC054603E002E001E0012500BFF4
:1047400000BF55B9B5482430006820F4E070A16D71
:104750000843B2492431086000E0A846208800F4EC
:104760008060B0F5806F38D1D4F8A400B0F5800F28
:1047700019D004DC50B1B0F5001F1DD10DE0B0F52B
:10478000C00F17D0B0F5000F16D114E0A348006891
:1047900040F40030A149086010E00021201D03F022
:1047A000D7FB05460AE0002104F1240003F082FC57
:1047B000054603E002E001E0012500BF00BF5DB94E
:1047C00096482C30006820F46000D4F8A410084308
:1047D00092492C31086000E0A846208800F400606F
:1047E000B0F5006F38D1D4F8A800B0F1007F19D02F
:1047F00004DC50B1B0F1807F1DD10DE0B0F1407FFD
:1048000017D0B0F1806F16D114E08448006840F4EE
:1048100000308249086010E00021201D03F098FB61
:1048200005460AE0002104F1240003F043FC05469C
:1048300003E002E001E0012500BF00BF5DB9774859
:104840002C30006820F0E060D4F8A81008437349C9
:104850002C31086000E0A846206800F00070B0F13C
:10486000007F27D1A06CA0B1102804D0202809D047
:1048700030280FD10CE06948006840F400306749E7
:10488000086009E00221201D03F062FB054603E0F9
:1048900002E001E0012500BF00BF55B95F482030AC
:1048A000006820F03000A16C08435C4920310860AA
:1048B00000E0A846208800F48050B0F5805F36D133
:1048C000E06DB0F5005F19D004DC50B1B0F5805F49
:1048D0001DD10DE0B0F5405F17D0B0F5804F16D177
:1048E00014E04E48006840F400304C49086010E085
:1048F0000021201D03F02CFB05460AE0002104F1F5
:10490000240003F0D7FB054603E002E001E00125A7
:1049100000BF00BF55B941482430006820F4E04092
:10492000E16D08433D492431086000E0A846208835
:1049300000F40050B0F5005F34D1206EB0F5403F78
:104940001DD007DC68B1B0F5803F0BD0B0F5003F5B
:1049500018D10DE0B0F5802F12D0B0F5A02F11D1F5
:104960000FE011E00121201D03F0F2FA05460BE0F3
:10497000012104F1240003F09DFB054604E003E05F
:1049800002E001E0012500BF00BF55B923482430F3
:10499000006820F4E020216E08432049243108609B
:1049A00000E0A846208800F48040B0F5804F38D160
:1049B000D4F8AC00B0F1405F1DD007DC68B1B0F1B5
:1049C000805F0BD0B0F1005F18D10DE0B0F1804FE7
:1049D00012D0B0F1A04F11D10FE011E00121201D44
:1049E00003F0B6FA05460BE0012104F1240003F0C0
:1049F00061FB054604E003E002E001E0012500BFA1
:104A000000BF6DB905482C30006820F0E040D4F8B4
:104A1000AC10084301492C31086002E02C440258D4
:104A2000A846208800F40040B0F5004F26D1E06E83
:104A300098B1B0F1805F03D0B0F1005F0ED106E015
:104A4000F948006840F40030F749086008E00121A7
:104A5000201D03F07DFA054602E001E0012500BFBC
:104A600000BF55B9F0482430006820F04050E16E96
:104A70000843ED492431086000E0A846206800F0B2
:104A80008070B0F1807F27D1606CA0B1012804D084
:104A9000022809D003280FD10CE0E348006840F455
:104AA0000030E149086009E00221201D03F050FABE
:104AB000054603E002E001E0012500BF00BF55B953
:104AC000D9482030006820F00300616C0843D649C3
:104AD0002031086000E0A846206800F48000B0F5AE
:104AE000800F7DD1D148006840F48070CF490860C4
:104AF000FFF75EF9064606E0FFF75AF9801B6428C7
:104B000001D9032505E0C948006800F48070002839
:104B1000F2D000BF85BBC4484430006800F4407048
:104B2000B4F8B01001F44071884213D0BE4844304C
:104B3000006820F44077BC484430006840F480307E
:104B4000B949443108600846006820F480300860A4
:104B500008460760D4F8B000B0F5807F15D1FFF7A4
:104B600027F9064609E0FFF723F9801B41F2883157
:104B7000884202D9032507E038E0AB48443000689A
:104B8000C0F340000028EED000BF55BB00BFB4F812
:104B9000B00000F44070B0F5407F0ED1A2481C3840
:104BA000006820F47C51A24AD4F8B000104041EAD9
:104BB00010109D491C39086007E09B481C380068AC
:104BC00020F47C5098491C390860974844300068AC
:104BD000B4F8B010C1F30B0108439349443101E02C
:104BE00005E001E0086002E0A84600E0A846207861
:104BF00000F0010068B3A06F182819D005DC48B197
:104C0000082808D0102816D10BE0202811D0282819
:104C100011D10FE011E00121201D03F099F90546A3
:104C20000BE0012104F1240003F044FA054604E0FE
:104C300003E002E001E0012500BF00BF55B97A485A
:104C40002830006820F03800A16F084376492831E9
:104C5000086000E0A846207800F00200022828D171
:104C6000606F062815D2DFE800F003040A11121362
:104C700011E00121201D03F06BF905460BE0012135
:104C800004F1240003F016FA054604E003E002E014
:104C900001E0012500BF00BF55B963482830006816
:104CA00020F00700616F08435F492831086000E089
:104CB000A846207800F0040004282AD1D4F89000F7
:104CC000062815D2DFE800F003040A11121311E0E0
:104CD0000121201D03F03CF905460BE0012104F100
:104CE000240003F0E7F9054604E003E002E001E0F8
:104CF000012500BF00BF5DB94B482C30006820F093
:104D00000700D4F89010084347492C31086000E0B0
:104D1000A846207800F02000202836D1D4F88C0056
:104D2000B0F1405F1DD007DC68B1B0F1805F0BD0FF
:104D3000B0F1005F18D10DE0B0F1804F12D0B0F1AA
:104D4000A04F11D10FE011E00021201D03F000F968
:104D500005460BE0022104F1240003F0ABF90546FF
:104D600004E003E002E001E0012500BF00BF5DB9FF
:104D70002D482830006820F0E040D4F88C1008431B
:104D800029492831086000E0A846207800F040005A
:104D9000402836D1D4F89800B0F5406F1DD007DC1C
:104DA00068B1B0F5806F0BD0B0F5006F18D10DE091
:104DB000B0F5805F12D0B0F5A05F11D10FE011E027
:104DC0000021201D03F0C4F805460BE0022104F188
:104DD000240003F06FF9054604E003E002E001E07F
:104DE000012500BF00BF5DB90F482C30006820F4DA
:104DF000E050D4F8981008430B492C31086000E0CB
:104E0000A846207800F0800080283AD1D4F89C0091
:104E1000B0F5C04F23D00DDC98B1B0F5005F11D0D4
:104E2000B0F5804F1ED113E02C44025800480258C0
:104E3000FFFCFF0FB0F5004F12D0B0F5204F11D19D
:104E40000FE011E00021201D03F082F805460BE081
:104E5000022104F1240003F02DF9054604E003E0EB
:104E600002E001E0012500BF00BF4DB9BE48006867
:104E700020F46040D4F89C100843BB49086000E06F
:104E8000A846207800F00800082817D1D4F8800040
:104E9000B0F5805F07D1022104F1240003F00AF984
:104EA00008B14FF00108B048001F006820F44050DE
:104EB000D4F880100843AC49091F0860207800F03E
:104EC0001000102815D1D4F89400B0F5807F07D1D8
:104ED000022104F1240003F0EDF808B14FF00108BD
:104EE000A148006820F44070D4F8941008439E490B
:104EF0000860206800F40020B0F5002F26D1D4F817
:104F0000A00030B1B0F5803F09D0B0F5003F0ED120
:104F10000CE00021201D03F01BF8054609E00221EA
:104F200004F1240003F0C6F8054602E001E0012583
:104F300000BF00BF4DB98C48006820F44030D4F861
:104F4000A01008438849086000E0A846206800F4E3
:104F50008020B0F5802F2DD1D4F88400B0F5801FCB
:104F600006D0B0F5001F0CD0B0F5401F11D10FE0F6
:104F70007D482C38006840F400307B492C390860AB
:104F800009E0012104F1240003F094F8054602E051
:104F900001E0012500BF00BF5DB97348001F006834
:104FA00020F44010D4F8841008436F49091F0860AA
:104FB00000E0A846206800F48030B0F5803F24D19E
:104FC000E06C18B1B0F5803F0FD108E066482C388E
:104FD000006840F4003064492C39086007E0022181
:104FE000201D02F0B5FF054601E0012500BF00BF0E
:104FF00055B95D480C38006820F48030E16C0843F6
:1050000059490C39086000E0A846206800F00050BB
:10501000B0F1005F07D1022104F1240003F04AF847
:1050200008B14FF00108206800F40030B0F5003FEF
:1050300027D1E06FA0B1B0F5807F06D0B0F5007F3A
:105040000CD0B0F5407F0CD109E047482C380068FF
:1050500040F4003044492C39086004E003E002E0E9
:1050600001E0012500BF00BF55B93F48001F00689F
:1050700020F44070E16F08433B49091F086000E0DD
:10508000A846206800F48010B0F5801F09D136488A
:105090000838006820F00040216F08433249083981
:1050A0000860206800F08050B0F1805F0AD12E487F
:1050B0004838006820F48040D4F8B41008432A49E6
:1050C00048390860206800F40010B0F5001F09D1CD
:1050D00025480838006820F08070A16E08432249F6
:1050E00008390860206800F08040B0F1804F11D18D
:1050F00000BF1D484838006820F400401A4948396C
:10510000086008460068D4F8B810084316494839C2
:10511000086000BF206800F00040B0F1004F09D1E6
:1051200011480C38006820F04050216D08430E49AA
:105130000C390860206800F40000B0F5000F0AD1B7
:105140000948001F006820F44000D4F88810084384
:105150000549091F0860B8F1000F02D10020BDE821
:10516000F0810120FBE70000584402582DE9F0418E
:1051700004460D4614B90120BDE8F081BD48006821
:1051800000F00F00A8420ED2BA48006820F00F00CD
:105190002843B84908600846006800F00F00A8429C
:1051A00001D00120E8E7207800F0040004280ED1A7
:1051B000B1492069096801F07001884207D9AE48F9
:1051C000006820F0700021690843AB49086020782E
:1051D00000F00800082811D1A749091D6069096875
:1051E00001F07001884209D9A348001D006820F031
:1051F000700061690843A049091D0860207800F02B
:105200001000102811D19C49091DA069096801F4FA
:10521000E061884209D99848001D006820F4E060E8
:10522000A16908439449091D0860207800F0200016
:10523000202811D190490831E069096801F0700116
:10524000884209D98C480830006820F07000E16974
:105250000843894908310860207800F002000228DC
:105260000ED18549E068096801F00F01884207D92D
:105270008148006820F00F00E16808437E4908601B
:10528000207800F00100002850D07B48006820F40E
:105290007060A1680843784908606068022807D1F7
:1052A000754818380068C0F34040F8B9012063E73A
:1052B0006068032807D1704818380068C0F3406060
:1052C000A0B9012058E76068012807D16A4818385A
:1052D0000068C0F3002048B901204DE7664818383F
:1052E0000068C0F3800008B9012045E7624808382B
:1052F000006820F00700616808435F4908390860CA
:10530000FEF756FD064608E0FEF752FD801B41F20F
:105310008831884201D903202EE7574808380068B1
:1053200000F038006168B0EBC10FEDD1207800F0DB
:10533000020002280ED15049E068096801F00F010F
:10534000884207D24C48006820F00F00E16808430B
:10535000494908604748006800F00F00A8420ED98C
:105360004448006820F00F0028434249086008467E
:10537000006800F00F00A84201D00120FCE6207870
:1053800000F0040004280ED13B492069096801F0AF
:105390007001884207D23848006820F07000216907
:1053A000084335490860207800F00800082811D12A
:1053B0003149091D6069096801F07001884209D20C
:1053C0002D48001D006820F07000616908432A49DB
:1053D000091D0860207800F01000102811D126491E
:1053E000091DA069096801F4E061884209D22248D8
:1053F000001D006820F4E060A16908431E49091DF2
:105400000860207800F02000202811D11A490831C6
:10541000E069096801F07001884209D21648083035
:10542000006820F07000E169084313490831086002
:1054300000F076F810490968C1F303210F4A515C66
:1054400001F01F0120FA01F70B48006800F00F007F
:105450001146085C00F01F0027FA00F008490860B8
:105460000848076008480068FEF760FD804640462F
:1054700082E60000002000521844025824740108FB
:1054800004000024000000249000002410B500F067
:1054900047F80D490968C1F303210C4A515C01F03A
:1054A0001F0120FA01F40848006800F00F001146BF
:1054B000085C00F01F0024FA00F005490860054868
:1054C00004600846006810BD18440258247401089E
:1054D000040000240000002400B5FFF7D7FF0549B1
:1054E0000968C1F30211044A515C01F01F01C84070
:1054F00000BD00001C4402582474010800B5FFF7E9
:10550000C5FF05490968C1F30221044A515C01F055
:105510001F01C84000BD00001C440258247401084B
:10552000F0B5824E366806F0380636B1082E15D032
:10553000102E15D0182E7DD114E07C4E103E36680A
:10554000C6F3401646B1794E103E3668C6F3C10721
:10555000774E26FA07F000E07548E5E07548E3E08D
:105560007548E1E0714E1836366806F003046F4E58
:1055700018363668C6F305116C4E1C36366806F0D0
:1055800001056A4E24363668C6F3CC0616FB05F6CE
:1055900001EE106AB8EE410A002971D024B1012C45
:1055A00050D0022C6DD16DE0604E103E3668C6F3CF
:1055B00040163EB35D4E103E3668C6F3C1075C4EE2
:1055C00026FA07F301EE103AF8EE411A01EE101A2E
:1055D000B8EE411A81EE812A9FED581AC0EE011AE9
:1055E000524E20363668C6F3080601EE106AB8EE51
:1055F000411A31EE811AF7EE001A31EE211A62EEED
:10560000010A1EE001EE101AB8EE411ADFED4C1A45
:1056100081EE812A9FED491AC0EE011A434E2036D1
:105620003668C6F3080601EE106AB8EE411A31EE8C
:10563000811A00E076E0F7EE001A31EE211A62EEF0
:10564000010A5BE001EE101AB8EE411A9FED3D2A07
:10565000C2EE011A9FED391A80EE012A334E203630
:105660003668C6F3080601EE106AB8EE411A32EE4B
:10567000011AB7EE002A31EE021A61EE810A3DE00E
:105680004EE01DE001EE101AB8EE411ADFED2E1AC1
:1056900081EE812A9FED291AC0EE011A234E203691
:1056A0003668C6F3080601EE106AB8EE411A31EE0C
:1056B000811AF7EE001A31EE211A62EE010A1DE09E
:1056C00001EE101AB8EE411A9FED1E2AC2EE011A21
:1056D0009FED1A1A80EE012A144E20363668C6F362
:1056E000080601EE106AB8EE411A32EE011AB7EE62
:1056F000002A31EE021A61EE810A00BF00BF0B4E94
:1057000020363668C6F34626721C01EE102AB8EE23
:10571000411AC0EE811ABCEEE11A11EE100A00E047
:10572000002001E0034800BF00BFF0BD1044025854
:105730000090D00300093D0040787D010000004644
:105740000024744C0024744A20BCBE4B2DE9F04761
:10575000044614B90120BDE8F087207800F001006C
:10576000002872D0FC48006800F03808FA48183069
:10577000D0F80090B8F1100F06D0B8F1180F0FD183
:1057800009F0030002280BD1F34810380068C0F379
:10579000404000286ED0606800286BD10120DAE715
:1057A00000BF6068B0F5803F08D1EB481038006852
:1057B00040F48030E849103908602EE0606868B92C
:1057C000E5481038006820F48030E349103908605B
:1057D0000846006820F4802008601EE06068B0F58C
:1057E000A02F0DD1DC481038006840F48020DA4941
:1057F000103908600846006840F4803008600CE00A
:10580000D5481038006820F48030D349103908603A
:105810000846006820F48020086000BF6068A8B1D6
:10582000FEF7C6FA054608E0FEF7C2FA401B41F251
:105830008831884201D903208DE7C74810380068B5
:10584000C0F340400028EFD014E014E0FEF7B0FAB7
:10585000054608E0FEF7ACFA401B41F28831884269
:1058600001D9032077E7BC4810380068C0F34040F6
:105870000028EFD100BF207800F00200022874D188
:10588000B548006800F03808B3481830D0F80090E8
:10589000B8F1000F05D0B8F1180F56D109F0030088
:1058A000D0BBAD4810380068C0F3800018B1E06884
:1058B00008B901204FE7A8481038006820F0190007
:1058C000E1680843A44910390860FEF771FA0546FB
:1058D00006E0FEF76DFA401B022801D903203AE7E3
:1058E0009D4810380068C0F380000028F1D000BF48
:1058F000FEF758FA41F2030188421AD8206940287D
:105900000BD195480C38006820F47C3040F400300E
:1059100091490C39086017E017E08F480C3800688F
:1059200020F47C30216940EA01308B490C39086051
:105930000AE089480C38006820F0FE40217C40EAEB
:10594000016085490C39086066E0E06888B38248E8
:105950001038006820F01900E16808437E491039CA
:105960000860FEF725FA054607E056E0FEF720FA44
:10597000401B022801D90320EDE677481038006863
:10598000C0F380000028F1D000BFFEF70BFA41F20F
:10599000030188421AD8206940280BD16E480C3880
:1059A000006820F47C3040F400306B490C3908600A
:1059B00017E017E068480C38006820F47C30216953
:1059C00040EA013064490C3908600AE062480C384A
:1059D000006820F0FE40217C40EA01605E490C39FD
:1059E000086019E05C481038006820F001005A494E
:1059F00010390860FEF7DCF9054606E0FEF7D8F935
:105A0000401B022801D90320A5E65348103800683E
:105A1000C0F380000028F1D100BF207800F0100012
:105A200010287CD14C48006800F038084A481830EB
:105A3000D0F80090B8F1080F06D0B8F1180F3DD19A
:105A400009F00300012839D1434810380068C0F339
:105A5000002020B1E069802801D001207BE600BF52
:105A6000FEF7A0F941F2030188421AD8206A2028E3
:105A70000AD139480C38006820F0F84040F08040E6
:105A800035490C39086018E033480C38006820F0BC
:105A9000F84094F8201040EA81602F490C390860E2
:105AA0000BE02D48001F006820F07C5094F8201077
:105AB00040EA01602849091F086066E0E06978B3A0
:105AC00025481038006840F08000234910390860EC
:105AD000FEF76EF9054606E0FEF76AF9401B02285C
