:020000040802F0
:10000000A8870224F9030208B97402085B74020885
:100010005F740208A90A0208DD93020800000000CC
:10002000000000000000000000000000B102020813
:1000300081130208000000000D030208F579020890
:100040001F0402081F0402081F0402081F040208FC
:100050001F0402081F0402081F0402081F040208EC
:100060001F0402081F0402081F0402081F040208DC
:100070001F0402081F0402081F040208AD0A020838
:10008000BD0A0208610C02081F0402081F040208CE
:100090001F0402081F0402081F0402081F040208AC
:1000A0001F0402081F0402081F0402081F0402089C
:1000B0001F0402081F0402081F0402081F0402088C
:1000C0001F0402081F0402081F0402081F0402087C
:1000D0001F040208B18F0208A59002089D91020832
:1000E0001F040208DD770208000000001F04020858
:1000F0001F0402081F0402081F040208710C0208F2
:100100001F0402081F0402081F0402081F0402083B
:10011000297C02081F0402081F0402081F040208A9
:100120001F0402081F0402081F0402081F0402081B
:100130001F040208351402081F0402081F040208E5
:1001400000000000000000000000000000000000AF
:100150001F0402081F0402081F0402081F040208EB
:100160001F0402081F0402081F0402081F040208DB
:100170001F0402081F0402081F04020800000000F8
:100180001F0402081F0402081F0402081F040208BB
:100190001F0402081F0402081F0402081F040208AB
:1001A0001F0402081F0402081F0402081F0402089B
:1001B0001F0402081F0402081F0402081F0402088B
:1001C0001F0402081F0402081F0402081F0402087B
:1001D0001F0402081F0402081F0402081F0402086B
:1001E0001F0402081F0402081F0402081F0402085B
:1001F0001F0402081F0402081F0402081F0402084B
:100200001F0402081F0402081F0402081F0402083A
:100210001F0402081F0402081F0402081F0402082A
:100220001F0402081F0402081F0402080000000047
:100230001F0402081F040208000000001F04020837
:100240001F0402081F0402081F0402081F040208FA
:100250001F0402081F0402081F0402081F040208EA
:100260001F0402081F0402081F0402081F040208DA
:100270001F0402081F0402081F04020800000000F7
:100280001F0402081F0402081F04020800000000E7
:10029000000000001F040208DFF810D000F058FB37
:1002A0000048004729F60208AFF30080A88702241F
:1002B0002D4B19680868B0E8F04F80F30988BFF348
:1002C0006F8F4FF0000080F311887047000000002E
:1002D00008480068006880F308884FF0000080F349
:1002E000148862B661B6BFF34F8FBFF36F8F00DF24
:1002F00000BF00BF08ED00E0DFF80C00016841F42A
:1003000070010160704700BF88ED00E0EFF30980E5
:10031000BFF36F8F144B1A681EF0100F08BF20ED4B
:10032000108A20E9F04F106009B44FF0500072B607
:1003300080F31188BFF34F8FBFF36F8F62B61BF04E
:10034000FFFF4FF0000080F3118809BC19680868AE
:10035000B0E8F04F1EF0100F08BFB0EC108A80F329
:100360000988BFF36F8F704748010024EFF30580C1
:10037000704700000246D2E84F0F411CC2E8431FFD
:1003800003B1F8E77047024652E8000F411C42E80B
:10039000001303B1F8E770470246D2E84F0FC2E8F6
:1003A000431F03B1F9E77047024652E8000F42E8E5
:1003B000001303B1F9E77047024652E8000F8301CA
:1003C00003D3BFF32F8F0020704700F00040084395
:1003D00042E8000303B1F0E77047024652E8000F1D
:1003E000800103D2BFF32F8F0020704742E8001333
:1003F00003B1F3E701207047DFF82400016841F4FE
:10040000700101600748804707480047FEE7FEE7A4
:10041000FEE7FEE7FEE7FEE7FEE7FEE7FEE7FEE7B4
:1004200088ED00E02D7B0208990202082DE9F05FBB
:100430000546002092469B46884606468146402453
:100440001BE0284641464746224600F0B9F853468D
:100450005A46C01A914110D311461846224600F060
:10046000A0F82D1A67EB01084F4622460120002113
:1004700000F097F817EB00094E41201EA4F101048B
:10048000DFDC484631462A464346BDE8F09F00007F
:100490000649074A0868504343F23902104408608D
:1004A000400870470149086070470000DC010024E3
:1004B0006D4EC64110B5431A934209D2831888186D
:1004C00003E010F8011D03F8011D521EF9D210BD02
:1004D00040EA01039B0703D009E008C9121F08C0C6
:1004E000042AFAD203E011F8013B00F8013B521E46
:1004F000F9D210BDD2B201E000F8012B491EFBD2A7
:1005000070470022F6E710B513460A46044619461E
:10051000FFF7F0FF204610BD30B505462A460B46D2
:1005200012F8010B13F8014B08B1A042F8D01CB12E
:10053000002802D06D1CF1E7284630BD421C10F89F
:10054000011B0029FBD1801A704730B504460020FA
:10055000034600E05B1C934203D2E05CCD5C401B91
:10056000F8D030BD034611F8012B00F8012B002A0A
:10057000F9D11846704730B50B46014600202022BD
:10058000012409E021FA02F59D4205D303FA02F5A0
:10059000491B04FA02F52844151EA2F10102F1DC00
:1005A00030BD202A04DB203A00FA02F10020704717
:1005B0009140C2F1200320FA03F3194390407047A1
:1005C000202A04DB203A21FA02F00021704721FAA8
:1005D00002F3D040C2F1200291400843194670470F
:1005E0002DE9FE4F804681EA0300C00F0C460090C3
:1005F00021F0004123F00045B8EB0200A94105D2EB
:100600004046214690461C460B46024623F00040D9
:10061000104347D0270DC7F30A00C3F30A510290D5
:10062000401A019040286BDAC3F3130040F4801B9A
:100630000098924620B10023D2EB030A63EB0B0B28
:1006400001985946C0F140025046FFF7AAFF0646FE
:100650000D4650465946019A00F08CF910EB0800FF
:100660006141002487EA115284EAE7731A4340D0BB
:10067000009A62B3019A012A4FEA075215DC001B67
:1006800061EB02014FF0004202EA0752CDE900425D
:10069000001C41F5801132462B4600F08CF903B066
:1006A000BDE8F08F40462146F9E7001B61EB0201EF
:1006B000001C41F5801300185B412018A2F50017BB
:1006C00047EB030140EAD570B6196D4111E06D08A2
:1006D0004FEA360645EAC0754FEA0752001B61EB48
:1006E0000201001C41F5801149084FEA3000001951
:1006F000514132462B4603B0BDE8F04F00F04CB9F3
:100700000098012240000023D0EB020263EBE0736B
:10071000009821464FEAE074B8EB000061EB040159
:10072000E9E783F000435BE781F0004158E72DE9FA
:10073000FE4F81EA030404F0004421F000410094DC
:100740004FF0000B23F0004350EA01045ED052EA60
:1007500003045BD0C3F30A54C1F30A552C44A4F23A
:10076000F3340194A0FB0254C1F3130141F480114E
:10077000C3F3130343F4801301FB024400FB034E55
:10078000840A970A44EA815447EA8357A4FB07681E
:1007900002958D0A05FB07854FEA932C04FB0C5448
:1007A0002705029D4FEA065847EA1637B5EB0805BC
:1007B0006EEB070C870E920E47EA811742EA83120E
:1007C000A7FB0201B6EB0B0164EB00042B0D43EA1F
:1007D0000C335E1844EB1C50DA465146E7FB02012D
:1007E000C5F313044FEA0B3343EA14534FEA0432C0
:1007F000019C43EA0603A4F10C040294009CCDE999
:1008000000B400F0D8F803B0BDE8F08F0020014636
:10081000F9E72DE9F04D81EA030404F0004B21F0E3
:10082000004514464FF0000A23F0004150EA05024B
:1008300020D054EA01021DD0C5F30A570246C5F381
:100840001303C1F31300C1F30A5640F4801543F4B7
:100850008013A7EB0608101BD64608F2FD3873EB91
:10086000050002D308F1010801E092185B41B8F1DC
:10087000000F03DA00200146BDE8F08D00204FF4A0
:100880008011064684460EE0171B73EB050705D35F
:10089000121B63EB050306434CEA010C49084FEABF
:1008A000300092185B4150EA0107EDD152EA030093
:1008B00012D082EA040083EA0501084305D0101B28
:1008C000AB4106D20122002306E000224FF0004394
:1008D00002E06FF0010253101AEB06004CEB0851D6
:1008E00010EB0A0041EB0B01BDE8F04D00F054B8ED
:1008F000C1F30A52C1F3130140F2FF3341F48011F6
:100900009A4202DA00200146704740F233439A428D
:10091000A2F2334202DC5242FFF752BEFFF741BE61
:1009200030B5041E71F1000404DB4FF00044404276
:1009300064EB0101141E73F1000405DB1C464FF04B
:100940000043524263EB0403994208BF904230BD1A
:10095000064C074D06E0E06840F0010394E807000C
:1009600098471034AC42F6D3FFF79AFC34E50308FD
:1009700064E50308202A06DBCB17203A41FA02F08F
:1009800043EAE07306E041FA02F3D040C2F12002EC
:10099000914008431946704710B5141E73F10004C6
:1009A00008DA401C41F1000192185B411A4301D161
:1009B00020F0010010BD2DE9F04D92469B4611B18B
:1009C000B1FA81F202E0B0FA80F220329046FFF7ED
:1009D000E8FD04460F4640EA0A0041EA0B0153468F
:1009E0005A46084313D0114653EA010019D0C8F102
:1009F00040025046FFF7E4FD05460E465046594674
:100A00004246FFF7CEFD084305D0012004E0204612
:100A10003946BDE8F08D0020054346EAE0762C43D8
:100A200037430A986305E40AA0EB08000022FD0A98
:100A300044EA47540A3002D500200146E9E701059F
:100A400010196941DDE9084500196941BDE8F04D1B
:100A5000A2E770B58C1810F8015B15F0070301D1FF
:100A600010F8013B2A1106D110F8012B03E010F811
:100A7000016B01F8016B5B1EF9D12B0705D4002334
:100A8000521E0DD401F8013BFAE710F8013BCB1AD6
:100A9000921C03E013F8015B01F8015B521EF9D5CB
:100AA000A142D8D3002070BD00BFFEE710B50248B8
:100AB00001F050FD10BD0000C803002410B56448CB
:100AC00000686449884204D96348006800F4006003
:100AD00027E05F4800685F496039884205D95D4872
:100AE000B438006800F400601BE0594800685B49B6
:100AF000884205D95748B838006800F4006010E013
:100B00005348006855496039884205D95348B83878
:100B1000406800F4006004E05048B838006800F411
:100B2000006040B34A4800684A49884204D9C81462
:100B30004949091D086024E0454800684549603975
:100B4000884204D9C8144349AC39086019E04048C8
:100B500000684249884204D9C8143E49B039086047
:100B60000FE03B4800683D496039884204D9C81409
:100B70003A49B839C86004E04FF400603749B839E1
:100B80008860334800683349884204D93248006895
:100B900000F4007027E02E4800682E496039884232
:100BA00005D92C48B438006800F400701BE02848D0
:100BB00000682A49884205D92648B838006800F4F8
:100BC000007010E02248006824496039884205D945
:100BD0002248B838406800F4007004E01F48B83874
:100BE000006800F4007088B3194800681949884209
:100BF00004D948151849091D086024E01448006804
:100C000014496039884204D948151249AC39086042
:100C100019E00F4800681149884204D948150D4968
:100C2000B03908600FE00A4800680C496039884212
:100C300004D948150949B839C86004E04FF4007078
:100C40000649B8398860024801F016FA10BD000064
:100C500040040024B804024000540258B800024086
:100C600010B5024801F076FC10BD000048050024D4
:100C700010B5644800686449884204D96348006834
:100C800000F4006027E05F4800685F4960398842EF
:100C900005D95D48B438006800F400601BE059488D
:100CA00000685B49884205D95748B838006800F4A5
:100CB000006010E05348006855496039884205D902
:100CC0005348B838406800F4006004E05048B83831
:100CD000006800F4006040B34A4800684A4988420E
:100CE00004D9C8144949091D086024E04548006832
:100CF00045496039884204D9C8144349AC39086071
:100D000019E0404800684249884204D9C8143E4965
:100D1000B03908600FE03B4800683D4960398842BF
:100D200004D9C8143A49B839C86004E04FF40060E7
:100D30003749B8398860334800683349884204D954
:100D40003248006800F4007027E02E4800682E4901
:100D50006039884205D92C48B438006800F4007026
:100D60001BE0284800682A49884205D92648B83837
:100D7000006800F4007010E02248006824496039DF
:100D8000884205D92248B838406800F4007004E071
:100D90001F48B838006800F4007088B3194800682C
:100DA0001949884204D948151849091D086024E0EA
:100DB0001448006814496039884204D9481512491A
:100DC000AC39086019E00F4800681149884204D91D
:100DD00048150D49B03908600FE00A4800680C4911
:100DE0006039884204D948150949B839C86004E017
:100DF0004FF400700649B8398860024801F03CF9A8
:100E000010BD0000C0050024B80402400054025880
:100E1000B80002400146374A0868904249D0354A36
:100E200018320868904244D0324A30320868904202
:100E30003FD0304A4832086890423AD02D4A60325A
:100E40000868904235D02B4A78320868904230D0FA
:100E5000284A9032086890422BD0264AA832086867
:100E6000904226D0244A0868904222D0224A183262
:100E7000086890421DD0204A30320868904218D04D
:100E80001D4A48320868904213D01B4A60320868F5
:100E900090420ED0184A78320868904209D0164A1B
:100EA00090320868904204D0134AA83208689042F1
:100EB00001D1012000E00020B0B10A78103A1823D7
:100EC000B2FBF3F000F007020C4B9A5CCA650328F2
:100ED00005D90A686FF30902121D8A6503E00A68E2
:100EE0006FF309028A6503E0086820F0FF00886557
:100EF000886D7047100002401004024048D7030874
:100F000010B502682B4C0368A34222D0294C14343C
:100F10000368A3421DD0274C28340368A34218D08D
:100F2000244C3C340368A34213D0224C5034036851
:100F3000A3420ED01F4C64340368A34209D01D4C59
:100F400078340368A34204D01A4C8C340368A3425B
:100F500001D1012300E000238BB10378083B142466
:100F6000B3FBF4F1144B03EB81030366124B8033A4
:100F7000436601F01F040123A340836618E0037851
:100F8000103B1824B3FBF4F10C4B9A4204D80B4BE2
:100F9000A83B9A4200D30831094B03EB8103036657
:100FA000074B8033436601F01F040123A34083668F
:100FB00010BD00000854025800580258B8040240FE
:100FC000000802400179A9B3082940D8204B0268E3
:100FD0009A4222D01E4B143302689A421DD01C4BF9
:100FE000283302689A4218D0194B3C3302689A425F
:100FF00013D0174B503302689A420ED0144B64330F
:1010000002689A4209D0124B783302689A4204D09F
:101010000F4B8C3302689A4201D1012200E000227A
:101020004AB14A1E0B4B03EB8202C266094A4032A8
:10103000026708E00BE04A1E074B03EB8202C26620
:10104000054A403202674A1E0123934043677047B6
:101050000854025800590258000902400146002075
:101060008A69D2B98A6A32B1012A0DD0022A03D024
:10107000032A10D10EE000BFCA6A02F08072B2F1FA
:10108000807F00D1012007E0CA6AB2F1C07F00D1A1
:10109000012001E000E000BF36E08A69B2F5005FA0
:1010A0001BD18A6A32B1012A07D0022A03D0032A4F
:1010B00011D10AE000BF01200EE0CA6A02F080727E
:1010C000B2F1807F00D1012006E0CA6AB2F1C07F90
:1010D00000D1012000E000BF16E08A6A32B1012A87
:1010E00005D0022A04D0032A0CD103E000BF00BFC0
:1010F000012008E0CA6A02F08072B2F1807F00D15C
:10110000012000E000BF00BF70470000F0B5856D12
:10111000846D984F0668BE4270D0964F18370668A7
:10112000BE426BD0934F30370668BE4266D0914FB7
:1011300048370668BE4261D08E4F60370668BE42AF
:101140005CD08C4F78370668BE4257D0894F9037B5
:101150000668BE4252D0874FA8370668BE424DD0BF
:10116000854F0668BE4249D0834F18370668BE4295
:1011700044D0814F30370668BE423FD07E4F48375B
:101180000668BE423AD07C4F60370668BE4235D012
:10119000794F78370668BE4230D0774F903706686F
:1011A000BE422BD0744FA8370668BE4226D0734F7C
:1011B0000668BE4222D0714F14370668BE421DD069
:1011C0006E4F28370668BE4218D06C4F3C37066811
:1011D000BE4213D0694F50370668BE420ED0674FEB
:1011E00064370668BE4209D0644F78370668BE424D
:1011F00004D0624F8C370668BE4201D1012600E060
:1012000000263EB1D0E919767E60C66E16B1D0E9EF
:101210001C767E60574F0668BE4249D0554F18373E
:101220000668BE4244D0534F30370668BE423FD0B6
:10123000504F48370668BE423AD04E4F6037066876
:10124000BE4235D04B4F78370668BE4230D0494F4A
:1012500090370668BE422BD0464FA8370668BE427C
:1012600026D0454F0668BE4222D0434F1837066845
:10127000BE421DD0404F30370668BE4218D03E4FA8
:1012800048370668BE4213D03B4F60370668BE42FF
:101290000ED0394F78370668BE4209D0364F9037A6
:1012A0000668BE4204D0344FA8370668BE4201D15A
:1012B000012600E00026DEB190F85C6006F01F0712
:1012C0003F26BE40AE600668366826F48026076872
:1012D0003E60066873608668402E04D10668B2607E
:1012E0000668F16044E00668B1600668F2603FE0BD
:1012F000224F0668BE4222D0204F14370668BE42F5
:101300001DD01E4F28370668BE4218D01B4F3C37F1
:101310000668BE4213D0194F50370668BE420ED041
:10132000164F64370668BE4209D0144F78370668F6
:10133000BE4204D0114F8C370668BE4201D101264F
:1013400000E00026A6B190F85C6006F01F070126B9
:10135000BE406660066873608668402E04D10668E9
:10136000B2600668F16003E00668B1600668F2608A
:10137000F0BD000010000240100402400854025862
:10138000704710B5002210E002EB4204036903EB42
:10139000C40100230B604B608B60CB600B614B6121
:1013A00000F1440343F82210521C042AECD3002419
:1013B00044658465C465446604660324036803F5D4
:1013C0008053C3F83041036803F580530469C3F8C0
:1013D0001C4103694833046804F58054C4F828317B
:1013E00010BD10B500220EE002EB4204C36803EB0F
:1013F000C40100230B604B608B60CB6000F11803CD
:1014000043F82210521C042AEED3002484620324E1
:10141000036803F58053C3F82C41036803F5805338
:10142000C468C3F81441036803F58053C468C3F863
:10143000204110BD10B5024802F056FC10BD00005E
:101440003806002410B5A2B0044601208DF8330000
:10145000002012908DF841008DF8430001208DF896
:1014600028008DF856008DF8320000208DF84C00D1
:1014700001208DF8840040030F9000208DF85C005F
:1014800018908DF885008DF886004FF4C360169093
:1014900000208DF830000B9001208DF835000020E1
:1014A0008DF836008DF840001D901B9014908DF83B
:1014B00064008DF87A0001208DF8420020202090F1
:1014C00001208DF8440000208DF855004FF0405069
:1014D00009904FF480400E9000208DF831000220DA
:1014E0001F9000208DF878008DF879008DF8540059
:1014F00001208DF8340000201A9001208DF8700032
:1015000009A9204600F0AEFA01208DF804000290EF
:10151000002000908DF81C008DF80D008DF80C0057
:101520004FF40010069000208DF814004FF40010C6
:10153000049000208DF81D004FF406700890694655
:10154000204600F031FA22B010BD000070B506460A
:101550003068D0F8004224F4706404F0A9FD054618
:101560001348854205D31348854202D244F40074DF
:101570001AE01048854205D30F48854202D244F450
:10158000407411E00C48854203D30C48854200D2D8
:101590000AE00A48854205D30948854202D244F44C
:1015A000807401E044F480643068C0F8004270BD8B
:1015B000002D3101C00E16020087930300E1F505EE
:1015C00080D1F0080020704710B503F071FA10BD0B
:1015D00010B5024802F068FF002010BD3806002454
:1015E00070B504460D46164633462A462146044841
:1015F00002F0EFFE10B14FF0FF3070BD0020FCE7AD
:101600003806002470B504460D46164633462A4671
:101610002146044803F0EEF810B14FF0FF3070BDE2
:101620000020FCE7380600242DE9F04F06460B4663
:10163000914606F118042269D4F810C0002754F826
:1016400022109D68BA46C86800F00040B0F1004F13
:1016500004D004F1140050F8220010B10220BDE8BB
:10166000F08F187800F00400C8B3C8686FF30F005B
:10167000D3F824B040EA0B00C860C86840F480305A
:10168000C8603068006E40F48010D6F800B0CBF827
:101690006000187800F0080008B3B3F82CB0886830
:1016A0006BF31F408860C86840F40030C860C868A9
:1016B00020F44020D3F830B040EA0B00C860306816
:1016C000406E40F48010D6F800B0CBF8640030686B
:1016D000006D40F08060D6F800B0CBF8500018786C
:1016E00000F0100058B188686FF30D00D3F818B0FF
:1016F00040EA0B008860C86840F08060C8601878D5
:1017000000F0040018B9187800F01000F0B1C868B3
:1017100040F08040C860C86840F00040C86000BF2A
:10172000521C042A00D3121F00BF54F822107F1C41
:10173000C86800F00040B0F1004F07D154F82C10F9
:10174000C86820F00040C860022088E77F1C286835
:10175000086088686FF30D00D5F804B040EA0B000C
:101760008860A86868B1AD68286848608868DFF854
:1017700034B200EA0B00B5F804B040EA0B408860D0
:1017800007E0002048608868DFF818B200EA0B0024
:101790008860187800F01000A0B1C86820F4F0004C
:1017A000B3F820B040EACB40C860C8686FF31100BE
:1017B000D3F81CB040EA0B00C860C86840F4802031
:1017C000C8601FE0C8686FF30E00D3F804B040EAA9
:1017D0000B00C860187800F0010038B1C86820F428
:1017E0004030D3F814B040EA0B00C860187800F01D
:1017F000200038B1C86820F04060D3F810B040EA4B
:101800000B00C860187800F0040038B1886820F434
:101810004040D3F828B040EA0B008860C86840F028
:101820000050C860C86820F08040C860C86840F0B8
:101830000040C860187800F0020038B1C86820F095
:101840006070D3F80CB040EA0B00C86085E0C8684F
:1018500020F08050C86000BF521C042A00D3121F21
:1018600000BF54F82210C86820F00050C860C86853
:1018700000F00040B0F1004F04D004F1140050F823
:101880002200B8B1624654F822104FF000080DE073
:10189000C86820F00040C86000BF521C042A00D372
:1018A000121F00BF54F8221008F10108B845EFD309
:1018B0000220D4E67F1CAD682868086088686FF352
:1018C0000D00D5F804B040EA0B008860A86868B144
:1018D000AD68286848608868DFF8C8B000EA0B0087
:1018E000B5F804B040EA0B40886007E0002048608B
:1018F0008868DFF8B0B000EA0B008860187800F064
:10190000100060B1C8686FF31100D3F81CB040EA52
:101910000B00C860C86840F48020C86013E0C86845
:101920006FF30E00D3F804B040EA0B00C8601878DB
:1019300000F0010038B1C86820F44030D3F814B08A
:1019400040EA0B00C8600AF1010AC86840F0004094
:10195000C860C86820F08040C860A86800287FF48C
:1019600076AFB9F1000F04D0886840F0004088607D
:1019700003E0886820F000408860C86840F080502C
:10198000C86004F11400D4F824B040F822B02261F9
:1019900072B60AF10100D4F828B05844A06262B6C9
:1019A00000205CE6FFFF00C010B5036803F580531C
:1019B0001B6847F60204A3430C682343046804F53C
:1019C000805423600C798B6843EA04330C7B43EA30
:1019D000C432036803F580535B684DF20104A343EE
:1019E0001343046804F5805463604C7B0B6A43EA3C
:1019F0000442036803F58053D3F80031164C2340AA
:101A00001343046804F58054C4F800310C7D0B695D
:101A100043EA04134C7F43EA0432036803F580531E
:101A2000D3F804310D4C23401343046804F580546B
:101A3000C4F804310C7F8B6943EAC472036803F570
:101A40008053D3F80831064C23401343046804F54F
:101A50008054C4F8083110BD00C0FEFFEFEFC0FF96
:101A6000FFFFC07F10B50C688B6823430C7943EAF5
:101A7000C4630C7B43EAC4534C7B43EA84538C7BA2
:101A800043EA4453CC7B43EA04530C7C0CB9012455
:101A900000E0002443EAC4434C7C0CB9012400E07C
:101AA000002443EA44438C7C43EA04434C692343C7
:101AB0008C6923430C7F43EA04334C7F43EAC423FD
:101AC0008C7F0CB9012400E0002443EA8423CC7FFE
:101AD00043EA442391F820400CB9012400E000249B
:101AE00043EA042351F8244F23430C7943EA0413B7
:101AF0008C6843EA040203681B683D4C234013438F
:101B0000046823600B7E5B060C7D43EA04630C7B58
:101B100043EA84434C7B43EA44438C7B24390CB92D
:101B2000012400E0002443EA04434C6B43EA04022E
:101B300003685B682F4C234013430468636091F88B
:101B400040404B6C43EA04220368DB6840F20F1408
:101B5000A34313430468E36091F854400B6D43EAD8
:101B6000440391F84C400CB9012400E0002443EAFE
:101B7000C41331F8484F43EA044203681B6F4FF621
:101B80000D7423401343046823678B7B4C7B43EA2B
:101B900044020368D3F8903023F00303134304682E
:101BA000C4F890300368D3F8003D23F072030C6949
:101BB00023430468C4F8003D0C7E4B6948390CB9D6
:101BC000012400E0002443EA841391F8614043EAD1
:101BD000041391F8624043EAC4020368D3F8303D2D
:101BE00023F07B0313430468C4F8303D10BD0000AC
:101BF000838004000080F8C001B9704700BFFEE791
:101C00000146074A12780AB9002008E0054AC1F3E4
:101C1000C623D25CC1F30223DA4002F00100704710
:101C2000807502240075022470B500BF12488669D1
:101C300000F0FCF90446B44211D200BF01210F4864
:101C4000FEF7AAFB58B90C480069401C0A49086114
:101C500000BF00210948FEF79FFB00BF00BF00BF87
:101C6000214605481830FEF79FFB054600BFAE42EF
:101C7000DCD1204670BD000080750224C80100241C
:101C80002DE9FC47044688461546B8F1000F01D0FF
:101C9000802D02D90020BDE8FC872046FFF7B0FF69
:101CA00008B90120F7E7FFF7BFFF8246A4B200BFE3
:101CB000EFF3058010B14FF4002000E00020044352
:101CC000464645B900231A465146204600F064F8BE
:101CD00007463846DFE7082D16D80020009001900F
:101CE0002A4631466846FEF7E5FB4FF4E02000EA5D
:101CF0000540044344F040705146DDE9002300F004
:101D00004BF807463846C6E700F0AEF94FF4E0213D
:101D100001EA004930680090706801900836083D7B
:101D200044EA090444F080705146DDE9002300F0E4
:101D300033F807460FB90020ADE74FF6017049EAC6
:101D4000000410E030680090706801900836083D8B
:101D500051462046DDE9002300F01EF80746641CCA
:101D60000FB9002097E7082DECD8002000900190D3
:101D70002A4631466846FEF79DFB24F47F4444EA38
:101D8000052444F000705146DDE9002300F004F81A
:101D9000074638467FE700002DE9FF4F81B08846AF
:101DA00091469A464FF0070B51E000BF2E48FEF7D0
:101DB000EAFA064606F03F002C4901EB0014B00990
:101DC0004FF4700101EA00510091DDE90010084371
:101DD0004FF0805101EAD80108434FF0005101EA69
:101DE000990108434FF0804101EA5A01084340F04D
:101DF0004065294604F10C00FEF7DEFA054605F0C1
:101E0000806010B385F0806585F0004505F00047DF
:101E100028F000403843206029F0004038436060DB
:101E20002AF000403843A060294604F10C00FEF778
:101E3000D4FA48B100BF0C48001DFEF7A4FA00BF59
:101E4000012005B0BDE8F08F04E0ABF1010BBBF160
:101E5000000FAAD100BF00BF03480830FEF793FA75
:101E600000BF0020EDE70000847502240071022409
:101E7000F0B506460C461546FF2C01D2FF2D01D3C6
:101E80000020F0BD002200231AE0012098403040DD
:101E9000A0B1214610E002EBD1000B4F385C01F0FD
:101EA000070C012707FA0CF7384302EBD107DFF8DC
:101EB00018C00CF80700491CA942ECD920325B1C61
:101EC000042BE2D30120DCE7007502242DE9F05F4A
:101ED0008246894600204249087080214148FEF729
:101EE00010FB1821404808F041FE80463C48006A3B
:101EF0003E49884208D00846394908620846A0F899
:101F000002800120C8610FE035484088404506D076
:101F10003348A0F8028001203149C86104E030480C
:101F2000C069401C2E49C8612D48C06901280BD1E9
:101F300000202B49487048608860C8604FF4806179
:101F40002B48FEF7DEFA0FE000270BE0284800EBF5
:101F50000715E86800F0806018B1E86820F040607C
:101F6000E8607F1C402FF1D31D48C069012811D1C2
:101F700000F068F804461CB100F05EF8064600E088
:101F800000261748466100201549886108611949F3
:101F9000087002E000F056F80446ECB1FE22002181
:101FA0005046FFF765FFEF2211460F20FFF760FF55
:101FB000FE2211460420FFF75BFFFFF735FE834644
:101FC000074843695946C2690B48FFF7E5FEB9F176
:101FD000000F01D000F012F82046BDE8F09F00008D
:101FE0008075022400750224C4E303086B27A5E171
:101FF00000710224C801002400FF000310B5094845
:10200000007808B1012010BD012006490870FFF7D3
:102010000BFE044600231A4621460348FFF7BCFE88
:102020000120F0E78075022401FF000301484068A9
:1020300070470000001000E0014800687047000091
:10204000000000240648006840F0807004490860E1
:102050000448006840F00100024908600120704710
:10206000FCED00E0001000E010B50248FEF782F938
:1020700010BD0000817502242DE9F041044602F0F4
:1020800017FD804614B90120BDE8F08194F83500B1
:10209000022808D08020606500BF002084F834004A
:1020A00000BF0120F0E7FE492068884249D0FC4982
:1020B00018312068884244D0F9493031206888427C
:1020C0003FD0F7494831206888423AD0F44960311E
:1020D0002068884235D0F24978312068884230D073
:1020E000EF499031206888422BD0ED49A831206813
:1020F000884226D0EB492068884222D0E94918312D
:10210000206888421DD0E74930312068884218D0C5
:10211000E44948312068884213D0E24960312068A0
:1021200088420ED0DF4978312068884209D0DD49E5
:1021300090312068884204D0DA49A831206888426A
:1021400001D1012000E0002068B12068006820F083
:102150001E00216808602068406920F08000216826
:102160004861256806E02068006820F00E002168BC
:1021700008602568CA492068884270D0C84918316B
:10218000206888426BD0C64930312068884266D0CA
:10219000C34948312068884261D0C1496031206814
:1021A00088425CD0BE4978312068884257D0BC490B
:1021B00090312068884252D0B949A83120688842BD
:1021C0004DD0B8492068884249D0B64918312068B6
:1021D000884244D0B3493031206888423FD0B14969
:1021E0004831206888423AD0AE4960312068884240
:1021F00035D0AC4978312068884230D0A949903137
:10220000206888422BD0A749A8312068884226D070
:10221000A5492068884222D0A34914312068884209
:102220001DD0A14928312068884218D09E493C31F0
:102230002068884213D09C495031206888420ED0D3
:10224000994964312068884209D0974978312068DB
:10225000884204D094498C312068884201D1012001
:1022600000E0002028B1206E006820F48070216E0C
:1022700008608B492068884249D089491831206814
:10228000884244D086493031206888423FD0844912
:102290004831206888423AD08149603120688842BC
:1022A00035D07F4978312068884230D07C499031E0
:1022B000206888422BD07A49A8312068884226D0ED
:1022C00078492068884222D07649183120688842AF
:1022D0001DD0744930312068884218D07149483186
:1022E0002068884213D06F496031206888420ED040
:1022F0006C4978312068884209D06A499031206859
:10230000884204D06749A8312068884206D12068F5
:10231000006820F001002168086005E0206800687E
:1023200020F001002168086011E002F0C1FBA0EB81
:10233000080005280BD920206065032084F83500AB
:1023400000BF002084F8340000BF01209CE628680C
:1023500000F001000028E8D151492068884249D0A6
:102360004F4918312068884244D04D4930312068A7
:1023700088423FD04A494831206888423AD048498B
:1023800060312068884235D04549783120688842DC
:1023900030D043499031206888422BD04049A83141
:1023A0002068884226D03F492068884222D03D4993
:1023B0001831206888421DD03A493031206888425F
:1023C00018D0384948312068884213D035496031E7
:1023D000206888420ED0334978312068884209D07D
:1023E000304990312068884204D02E49A8312068B5
:1023F000884201D1012000E0002040B1A66D94F890
:102400005C0000F01F013F208840B06007E0A76D2E
:1024100094F85C0000F01F0101208840786020499A
:102420002068884276D01E4918312068884271D0D1
:102430001B493031206888426CD0194948312068E6
:10244000884267D0164960312068884262D01449BA
:102450007831206888425DD01149903120688842E7
:1024600058D00F49A8312068884253D00D492068C0
:1024700088424FD00B491831206888424AD0094918
:1024800030312068884245D006494831206888426A
:1024900040D004496031206888423BD0014905E0C2
:1024A000100002401004024008540258783120689D
:1024B00088422FD02549206888422BD023491831E3
:1024C0002068884226D022492068884222D02049AC
:1024D0001431206888421DD01D4928312068884267
:1024E00018D01B493C312068884213D0184950311C
:1024F000206888420ED0164964312068884209D08D
:10250000134978312068884204D011498C31206801
:10251000884201D1012000E0002068B1D4E91910FF
:102520004860E06E40B1E06E006820F48070E16EBB
:102530000860D4E91C104860012084F8350000BF11
:10254000002084F8340000BF00BF9DE5A0040240D5
:10255000085402582DE9F84F044600200090FE4828
:1025600000684FF41651B0FBF1FAA66DD4F858800C
:102570003768D8F80090F9492068884249D0F7496F
:1025800018312068884244D0F449303120688842AC
:102590003FD0F2494831206888423AD0EF49603153
:1025A0002068884235D0ED4978312068884230D0A3
:1025B000EA499031206888422BD0E849A831206848
:1025C000884226D0E6492068884222D0E449183162
:1025D000206888421DD0E24930312068884218D0F6
:1025E000DF4948312068884213D0DD4960312068D6
:1025F00088420ED0DA4978312068884209D0D8491B
:1026000090312068884204D0D549A831206888429A
:1026100001D1012000E0002000287DD094F85C006A
:1026200000F01F01082088403840002868D0CB49BE
:102630002068884249D0C94918312068884244D06E
:10264000C6493031206888423FD0C44948312068AB
:1026500088423AD0C14960312068884235D0BF49AC
:1026600078312068884230D0BC4990312068884257
:102670002BD0BA49A8312068884226D0B8492068B2
:10268000884222D0B6491831206888421DD0B4490A
:1026900030312068884218D0B149483120688842DA
:1026A00013D0AF496031206888420ED0AC497831F0
:1026B0002068884209D0AA4990312068884204D015
:1026C000A749A8312068884204D12068006800F03A
:1026D000040003E02068006800F0080080B1206872
:1026E000006820F004002168086094F85C0000F0A5
:1026F0001F0108208840B060606D40F001006065F7
:1027000094F85C0000F01F01012088403840E8B3D5
:1027100092492068884200E0B7E24BD08F491831D7
:102720002068884246D08D4930312068884241D0A7
:102730008A494831206888423CD088496031206805
:10274000884237D0854978312068884232D0834921
:102750009031206888422DD08049A8312068884275
:1027600028D07F492068884224D07D4918312068CC
:1027700088421FD07A493031206888421AD078497F
:1027800048312068884215D0754900E026E0603164
:10279000206888420ED0724978312068884209D07A
:1027A0006F4990312068884204D06D49A831206873
:1027B000884204D12068406900F0800002E020686F
:1027C0000068002050B194F85C0000F01F01012067
:1027D0008840B060606D40F00200606594F85C0075
:1027E00000F01F01042088403840E8B35B492068AE
:1027F00088424BD0594918312068884246D0574901
:1028000030312068884241D054494831206888429C
:102810003CD0524960312068884237D04F497831E6
:102820002068884232D04D499031206888422DD0AE
:102830004A49A8312068884228D0494920688842FE
:1028400024D047491831206888421FD0444930318C
:10285000206888421AD0424948312068884215D001
:102860003F496031206800E024E088420ED03C49B6
:1028700078312068884209D03949903120688842EF
:1028800004D03749A8312068884204D12068006804
:1028900000F0020002E020680068002050B194F8C7
:1028A0005C0000F01F0104208840B060606D40F0C3
:1028B0000400606594F85C0000F01F01102088405F
:1028C0003840E8B325492068884251D0234918315F
:1028D000206888424CD0214930312068884247D056
:1028E0001E4948312068884242D01C496031206826
:1028F00088423DD0194978312068884238D017493C
:1029000090312068884233D01449A8312068884229
:102910002ED01349206888422AD0114918312068E6
:10292000884225D00E4930312068884220D00C4999
:102930004831206888421BD009496031206800E096
:102940004DE0884214D006497831206888420FD083
:1029500003499031206805E0000000241000024087
:1029600010040240884203D0FE492068884204D106
:102970002068006800F0080003E02068006800F0AC
:10298000040060B394F85C0000F01F011020884040
:10299000B0602068006800F4802080B12068006882
:1029A00000F4002028B9206CC8B12046216C88476B
:1029B00015E0A06C98B12046A16C88470FE0206814
:1029C000006800F4807028B92068006820F00800D2
:1029D00021680860206C10B12046216C884794F86B
:1029E0005C0000F01F0120208840384000287DD086
:1029F000DD492068884249D0DB4918312068884287
:102A000044D0D9493031206888423FD0D649483136
:102A1000206888423AD0D44960312068884235D055
:102A2000D14978312068884230D0CF499031206830
:102A300088422BD0CC49A8312068884226D0C94989
:102A4000A8392068884221D0C64990392068884238
:102A50001CD0C44978392068884217D0C1496039F0
:102A60002068884212D0BF494839206888420DD07A
:102A7000BC4930392068884208D0BA4918392068E2
:102A8000884203D0B7492068884204D12068006892
:102A900000F0100003E02068006800F0020028B396
:102AA00094F85C0000F01F0120208840B06094F88A
:102AB000350004282DD12068006820F01600216818
:102AC00008602068406920F0800021684861206C1F
:102AD00008B9A06C28B12068006820F008002168BF
:102AE000086094F85C0000F01F0100E03FE03F2028
:102AF0008840B060012084F8350000BF002084F8D1
:102B0000340000BF206D10B12046216D8847BDE81C
:102B1000F88F2068006800F4802080B12068006889
:102B200000F4002028B9606C08B32046616C884727
:102B30001DE0E06BD8B12046E16B884717E02068C4
:102B4000006800F4807068B92068006820F0100008
:102B500021680860012084F8350000BF002084F857
:102B6000340000BFE06B10B12046E16B8847606D18
:102B700000287AD0606D00F00100E8B3042084F8EA
:102B800035007949206888424BD077491831206850
:102B9000884246D0744930312068884241D0724919
:102BA0004831206888423CD06F49603120688842B3
:102BB00037D06D4978312068884232D06A499031E7
:102BC000206888422DD06849A8312068884228D0E2
:102BD0006449A8392068884223D062499039206826
:102BE00088421ED05F4978392068884219D05D49F3
:102BF00060392068884200E040E012D059494839E5
:102C0000206888420DD0574930392068884208D062
:102C1000544918392068884203D0524920688842B4
:102C200006D12068006820F001002168086005E0F6
:102C30002068006820F001002168086000BF00984B
:102C4000401C0090504500D905E02068006800F065
:102C500001000028F3D100BF2068006800F00100E7
:102C600020B1032084F8350003E00DE0012084F852
:102C7000350000BF002084F8340000BFE06C00285D
:102C800002D02046E16C8847D9E138492068884263
:102C900022D036491431206888421DD0334928316A
:102CA0002068884218D031493C312068884213D0CE
:102CB0002E495031206888420ED02C49643120685A
:102CC000884209D0294978312068884204D02749B0
:102CD0008C312068884201D1012000E000200028CA
:102CE000D2D02068056894F85C0000F01F01042031
:102CF000884000EA0900D8B305F00400C0B394F896
:102D00005C0000F01F0104208840C8F8040005F4AE
:102D1000004080B105F4803030B9A06C0028B3D0F9
:102D20002046A16C88478AE1206C0028ACD0204660
:102D3000216C884783E105F02000E8BB0A49206840
:102D4000884253D008491831206888424ED006493D
:102D500030312068884249D0034948312068884290
:102D600044D006E0B8040240100002400854025863
:102D70004FE0B44960312068884237D0B14978319A
:102D80002068884232D0AF499031206888422DD0E7
:102D9000AC49A8312068884228D0AB4920688842D5
:102DA00024D0A9491831206888421FD0A649303163
:102DB000206888421AD000E025E0A3494831206805
:102DC000884213D0A0496031206888420ED09E49C5
:102DD00078312068884209D09B4990312068884228
:102DE00004D09949A8312068884206D1206800683B
:102DF00020F008002168086005E02068006820F0E5
:102E0000040021680860206C10B32046216C8847BC
:102E100015E194F85C0000F01F010220884000EAF0
:102E20000900E8B305F00200D0B394F85C0000F0AC
:102E30001F0102208840C8F8040005F4004070B16A
:102E400005F4803028B9606C10B12046616C884769
:102E5000F5E0E06BF0B32046E16B8847EFE005F06A
:102E60002000C0BB7749206888424ED07549183190
:102E70002068884249D0734930312068884244D064
:102E800070494831206888423FD06E4960312068DF
:102E900088423AD06B4978312068884235D000E0CA
:102EA0004EE068499031206888422ED06549A831AB
:102EB0002068884229D064492068884225D0624928
:102EC00018312068884220D05F493031206888421C
:102ED0001BD001E06EE02DE05B494831206888425C
:102EE00013D059496031206888420ED05649783154
:102EF0002068884209D0544990312068884204D023
:102F00005149A8312068884206D12068006820F025
:102F100014002168086005E02068006820F00A00BD
:102F200021680860012084F8350000BF002084F883
:102F3000340000BFE06BE8B32046E16B88477EE0D9
:102F400094F85C0000F01F010820884000EA0900A6
:102F500080B305F0080068B33A49206888424BD036
:102F6000384918312068884246D0364930312068C7
:102F7000884241D033494831206888423CD03149A9
:102F800060312068884237D02E49783120688842E5
:102F900032D02C499031206888422DD02949A8315F
:102FA0002068884228D028492068884224D02649B1
:102FB000183100E043E0206888421DD022493031BA
:102FC0002068884218D0204948312068884213D0B0
:102FD0001D496031206888420ED01B497831206835
:102FE000884209D0184990312068884204D0164997
:102FF000A8312068884206D12068006820F01C00B3
:103000002168086005E02068006820F00E00216853
:10301000086094F85C0000F01F0101208840C8F8A7
:1030200004000120606584F8350000BF002084F8AA
:10303000340000BFE06C10B12046E16C884700BF4F
:1030400065E5000010000240100402402DE9F04147
:10305000044601F02DFD804614B90120BDE8F08141
:10306000FE492068884249D0FC49183120688842CE
:1030700044D0FA493031206888423FD0F74948317E
:10308000206888423AD0F54960312068884235D0BE
:10309000F24978312068884230D0F0499031206878
:1030A00088422BD0ED49A8312068884226D0EC49CF
:1030B0002068884222D0EA491831206888421DD011
:1030C000E74930312068884218D0E5494831206806
:1030D000884213D0E2496031206888420ED0E0492E
:1030E00078312068884209D0DD49903120688842D3
:1030F00004D0DB49A8312068884201D1012000E0DA
:103100000020002873D0606A00B100BF022084F85C
:10311000350000BF002084F8340000BFCF4920688C
:10312000884249D0CD4918312068884244D0CB49E3
:103130003031206888423FD0C849483120688842F1
:103140003AD0C64960312068884235D0C3497831C9
:103150002068884230D0C1499031206888422BD005
:10316000BE49A8312068884226D0BD4920688842DF
:1031700022D0BB491831206888421DD0B84930316F
:103180002068884218D0B64948312068884213D058
:10319000B3496031206888420ED0B1497831206847
:1031A000884209D0AE4990312068884204D0AC49A9
:1031B000A8312068884206D12068006820F001000C
:1031C0002168086005E02068006820F0010021689F
:1031D00008600DE001F06CFCA0EB0800052807D9A1
:1031E00020206065032084F83500012036E76AE07E
:1031F0002068006800F001000028EBD12068056815
:1032000098480540D4E902010843216908436169EF
:103210000843A1690843E1690843216A084305435B
:10322000606A042803D1D4E90B01084305438E48A2
:1032300000686FF30F00B0F1005F1DD360682928AC
:1032400002D360682E2811D960683F2802D36068D5
:1032500042280BD96068472802D36068482805D9FE
:1032600060684F2804D36068522801D8012000E02C
:10327000002008B145F48015206805602068456984
:1032800025F00705606A0543606A04280DD1A06A2D
:103290000543E06A48B12046FDF7E0FE28B1402032
:1032A0006065012084F83500D8E620684561204635
:1032B000FDF7B0FD064694F85C0000F01F013F20CA
:1032C0008840B0609EE069492068884222D0674902
:1032D0001431206888421DD0644928312068884212
:1032E00018D062493C312068884213D05F49503180
:1032F000206888420ED05D4964312068884209D038
:103300005A4978312068884204D058498C31206865
:10331000884201D1012000E00020E0B35349206839
:10332000884222D051491431206888421DD04F492B
:1033300028312068884218D04C493C3120688842A6
:1033400013D04A495031206888420ED04749643131
:103350002068884209D0454978312068884204D0E5
:1033600042498C312068884201D1012000E00020D0
:1033700000B100BF022084F8350000BF002084F8AF
:10338000340000BF2068056839480540A06840281F
:1033900002D1102106E02EE0A068802801D1C101F1
:1033A00000E00021E06841EAD001206941EAD00153
:1033B000606941EAD001A06941EAD001E06941EACF
:1033C000D001206A41EA10100543206805602749B2
:1033D0002068401A1421B0FBF1F08000E06520461F
:1033E000FDF718FD074694F85C0000F01F0101206E
:1033F0008840786006E040206065032084F835004E
:1034000001202BE61549206888427FD013491831E6
:10341000206888427AD0114930312068884275D0BE
:103420000E4948312068884270D00C4960312068CC
:1034300088426BD0094978312068884266D00749B4
:1034400090312068884261D00449A83120688842C0
:103450005CD003492068884258D00BE0100002403D
:10346000100402403F8010FE0010005C0854025817
:103470000F00FEFF3B4918312068884246D0394989
:1034800030312068884241D036494831206888422E
:103490003CD0344960312068884237D03149783196
:1034A0002068884232D02F499031206888422DD040
:1034B0002C49A8312068884228D02B4920688842AE
:1034C00024D029491431206888421FD02649283148
:1034D000206888421AD024493C312068884215D09F
:1034E000214950312068884210D01F49643120683A
:1034F00088420BD01C4978312068884206D01A498E
:103500008C312068884200E000E001D1012000E019
:10351000002000B32046FDF7F3FCA068802801D10D
:10352000002060602079216E0860D4E9191048609D
:10353000606860B16068082809D82046FDF742FD40
:103540000020E16E0860D4E91C10486003E0002010
:10355000E0662067606700206065012084F8350020
:1035600000207BE510040240085402582DE9F04188
:1035700004460D4616461F464FF0000814B90120B8
:10358000BDE8F08100BF94F83400012801D1022089
:10359000F6E7012084F8340000BF94F835000128D4
:1035A0007ED1022084F8350000206065E44920685F
:1035B000884249D0E24918312068884244D0E04925
:1035C0003031206888423FD0DD4948312068884248
:1035D0003AD0DB4960312068884235D0D84978310B
:1035E0002068884230D0D6499031206888422BD05C
:1035F000D349A8312068884226D0D2492068884221
:1036000022D0D0491831206888421DD0CD493031B0
:103610002068884218D0CB4948312068884213D0AE
:10362000C8496031206888420ED0C6497831206888
:10363000884209D0C34990312068884204D0C149EA
:10364000A8312068884206D12068006820F0010077
:103650002168086005E02068006820F0010021680A
:1036600008603B46324629462046FDF74FFDB449E7
:10367000206888424BD0B24918312068884246D031
:10368000AF4930312068884241D0AD494831206887
:1036900088423CD0AA4960312068884237D000E097
:1036A00042E1A74978312068884230D0A44990315E
:1036B000206888422BD0A249A8312068884226D0B1
:1036C000A0492068884222D09E491831206888424B
:1036D0001DD09C4930312068884218D09949483122
:1036E0002068884213D097496031206888420ED004
:1036F000944978312068884209D0924990312068F5
:10370000884204D08F49A8312068884201D1012025
:1037100000E0002080B12068006820F01E0040F02A
:10372000160021680860206CB0B12068006840F085
:103730000800216808600FE02068006820F00E0093
:1037400040F00A0021680860206C28B120680068F9
:1037500040F004002168086079492068884270D0F0
:1037600077491831206888426BD07549303120681C
:10377000884266D0724948312068884261D07049D9
:103780006031206888425CD06D4978312068884279
:1037900057D06B4990312068884252D06849A8318F
:1037A000206888424DD067492068884249D06549E1
:1037B00018312068884244D06249303120688842FC
:1037C0003FD060494831206888423AD05D49603135
:1037D0002068884235D05B4978312068884230D0F3
:1037E00058499031206888422BD05649A83120682A
:1037F000884226D054492068884222D05249143148
:10380000206888421DD0504928312068884218D04D
:103810004D493C312068884213D04B4950312068D3
:1038200088420ED0484964312068884209D0464910
:1038300078312068884204D043498C31206888421E
:1038400001D1012000E0002090B1206E006800F45A
:10385000803028B1206E006840F48070216E0860CE
:10386000E06E28B1E06E006840F48070E16E0860A0
:1038700033492068884249D031491831206888424C
:1038800044D02F493031206888423FD02C494831FC
:10389000206888423AD02A4960312068884235D071
:1038A000274978312068884230D0254990312068F6
:1038B00088422BD02249A8312068884226D021494D
:1038C0002068884222D01F491831206888421DD0C4
:1038D0001C4930312068884218D01A494831206884
:1038E000884213D017496031206888420ED01549AC
:1038F00078312068884209D0124990312068884286
:1039000004D01049A8312068884206D12068006898
:1039100040F001002168086010E02068006840F075
:1039200001002168086009E04FF40060606500BF95
:10393000002084F8340000BF4FF0010840461FE625
:10394000100002401004024008540258F0B504462A
:1039500004F14402536952F823109669906908B93A
:103960000120F0BDD06900B1761C002522E0086975
:1039700008604FF08070C860486928B14869886065
:10398000C86840F00070C860C86840F00040C86077
:10399000106A18B1C86840F08040C860701EA84224
:1039A00007D900BF5B1C042B00D31B1F00BF52F8BC
:1039B00023106D1CB542DAD3206800F58050C0F8A2
:1039C0002811002090610027276600BFC9E77047D3
:1039D00030B504460D4604F1440050F825100AB1F4
:1039E000042D02D30120606730BD0A600A61C868F7
:1039F00040F08070C8602BB18B604B61C86840F0AC
:103A00000070C860C86840F00040C8600020EBE764
:103A10007047024609B9012070471068006800F03D
:103A20000C00C86210680068C0F3001081F828001C
:103A30001068006800F06000486210680068C0F319
:103A4000002080F0010081F8200010680068C0F3B9
:103A50004020C87710680068C0F3802080F0010023
:103A6000887710680068C0F3C02048771068006845
:103A7000C0F3003008771068006800F400508861D7
:103A80001068006800F48040486110680068C0F366
:103A90000040887410680068C0F3404080F0010066
:103AA000487410680068C0F3C04080F001000874DA
:103AB00010680068C0F30050C87310680068C0F355
:103AC0004050887310680068C0F3805048731068D5
:103AD0000068C0F3C05008731068006800F0E06030
:103AE000886010680068C0F3C060087110680068E2
:103AF00000F0E040086010684068C0F30D004863C3
:103B000010684068C0F3004080F0010081F8320086
:103B100010684068C0F3404081F831001068406888
:103B2000C0F3804081F8300010684068C0F3006046
:103B300081F8380010684068C0F34460C8631068BA
:103B4000C068C0F3002081F840001068C06800F031
:103B50000F0048641068006FC0F3400081F8540003
:103B60001068006FC0F3C01080F0010081F84C00B5
:103B70001068006F00F0700008651068006F000C9E
:103B800088641068D0F8900000F0010081F85600B9
:103B90001068D0F89000C0F3400081F8550010681C
:103BA000D0F8000D00F0720088651068D0F8300D74
:103BB00000F02300C8651068D0F8300DC0F3C000D5
:103BC00081F862001068D0F8300DC0F3001081F861
:103BD00061001068D0F8300DC0F3801080F0010053
:103BE00081F86000002017E72DE9F84F05468A4666
:103BF00005F14407D7F814800020009057F828609A
:103C000054461CB901206867BDE8F88FB86948B907
:103C1000284600F0DFF908B90120F5E7D7F814804D
:103C200057F828604FF0000B1CE03069206068698D
:103C30006060706920B1A468706920606869606024
:103C4000F068C0F30E00009000BF08F10108B8F161
:103C5000040F01D3A8F1040800BF57F82860A46836
:103C60000BF1010BB869401E5845DED8F068C0F36F
:103C70000E010098A1EB0009306920606869484591
:103C800002D3C4F804900DE0706948B168696060BF
:103C9000A468706920606869A9EB0000606001E0B9
:103CA0000120B1E70020AFE72DE9F04180460E4644
:103CB00008F144046569A06930B9404600F08AF90A
:103CC00010B90120BDE8F08100BFA069401E054485
:103CD000042D00D32D1F00BF54F82570F868C0F3E1
:103CE0000E0030600020EDE710B50446206800F5B6
:103CF0008050D0F8600100F04000402812D12068C8
:103D000000F58050D0F8340100F04000402809D17F
:103D1000204600F09BFB48F24001206800F58050EF
:103D2000C0F86011206800F58050D0F8600100F004
:103D3000010088B1206800F58050D0F8340100F00F
:103D4000010048B1204600F053FD48F2010120680F
:103D500000F58050C0F86011206800F58050D0F860
:103D6000600100F48040B0F5804F41D1206800F53B
:103D70008050D0F8340100F48040B0F5804F37D146
:103D8000606F40F008006067206800F58050D0F850
:103D9000600100F48050B0F5805F17D1206800F515
:103DA0008050D0F8600141F202110840A0672068FD
:103DB00000F58050D0F8340120F44041206800F52F
:103DC0008050C0F83411E020E0660EE0206800F575
:103DD0008050D0F8600100F4CD40A0674FF4CD4191
:103DE000206800F58050C0F860112046FFF7EFFD15
:103DF0002068D0F8B00000F4C040B0F5C04F0AD140
:103E00002068D0F8B800E067E020E066204600F0C7
:103E10006AF90020E0672068D0F8B00000F01000D8
:103E200010280CD12068D0F8C00000F06000C4F861
:103E30008000204600F0CCFA0020C4F88000206802
:103E4000D0F8B00000F0200020280CD12068D0F875
:103E5000C00000F00F00C4F884002046FFF7D8FD32
:103E60000020C4F884000648006800F4800030B1E7
:103E70004FF4800002490860204600F0BAFC10BDF3
:103E8000A800005838B504460CB9012038BDE06ED2
:103E900010B9204600F028F92320E06600BF4B4807
:103EA000006840F00200494908600846006800F0D8
:103EB0000200009000BF00BF207A18B9002003F074
:103EC0004DF903E04FF4000003F048F9206800F5D5
:103ED0008050006840F00101206800F580500160CA
:103EE00000F0E6FD05460BE000F0E2FD401BB0F5FA
:103EF000FA7F05D904206067E020E0660120C5E76D
:103F0000206800F58050006800F001000028EBD127
:103F10002046FDF71BFB02F0CBF82D49B0FBF1F07A
:103F2000401E2168C1F8DC002046FDF78BFA2068AE
:103F300000F58050D0F8000120F4E01040F400219A
:103F4000206800F58050C0F80011207D00F00300CB
:103F500028B101206067E020E066012096E7206834
:103F600000F58050D0F8080147F6FE71884361697A
:103F700040EA4101206800F58050C0F80811204651
:103F8000FDF72FFA2046FDF7FCF9606800796168BB
:103F9000497940EA01202168C1F800036068C078CF
:103FA00000066168897840EA01406168497840EA22
:103FB00001206168097808432168C1F804030020E2
:103FC00060671020E066206700205FE7F444025835
:103FD00040420F00F0B5074607F14403196953F852
:103FE0002120002500240026986908B10020F0BD9A
:103FF0003DE06D1CD06800F0805000B3641C012CC3
:1040000000D10E4600BF491C042900D3091F00BF80
:1040100053F82120D06800F0004058B9D06800F073
:10402000804038B10120D86100BF491C042900D369
:10403000091F00BF19615E619C610120D7E7D0684C
:1040400000F0005050B10E46012400BF491C042965
:1040500000D3091F00BF53F8212008E0641C00BFF3
:10406000491C042900D3091F00BF53F82120D06840
:1040700000F0004008B9042DBBD384B319615E6120
:10408000314653F82120002522E0106910604FF0DE
:104090008070D060506928B150699060D06840F05D
:1040A0000070D060D06840F00040D060186A18B14D
:1040B000D06840F08040D060601EA84207D900BFA1
:1040C000491C042900D3091F00BF53F821206D1C8F
:1040D000A542DAD3386800F58050C0F828210020C6
:1040E000986100BF83E7704730B587B0054600BFD1
:1040F00000BFB348006840F00100B14908600846BD
:10410000006800F00100019000BF00BF00BF00BFC9
:1041100000BF0846006840F00100086008460068DB
:1041200000F00100019000BF00BF00BF00BF00BF52
:104130000846006840F0010008600846006800F08A
:104140000100019000BF00BF00BF00BF00BF0846D4
:10415000006840F0040008600846006800F00400B1
:10416000019000BF00BF00BF00BF00BF084600684D
:1041700040F0040008600846006800F00400019068
:1041800000BF00BF00BF00BF00BF0846006840F08E
:10419000040008600846006800F00400019000BFB9
:1041A00000BF00BF00BF00BF0846006840F002002B
:1041B00008600846006800F00200019000BF00BFE0
:1041C00000BF00BF00BF0846006840F00200086062
:1041D0000846006800F00200019000BF00BF00BF69
:1041E00000BF00BF0846006840F0020008600846B3
:1041F000006800F00200019000BF00BF00BF00BFD8
:1042000000BF0846006840F00100086008460068EA
:1042100000F00100019000BF00BF00BF00BF00BF61
:104220000846006840F0020008600846006800F098
:104230000200019000BF00BF00BF00BF6048083807
:10424000006840F400405E4908390860084600688C
:1042500000F40040019000BF00BF00BF08460068A6
:1042600040F4803008600846006800F48030019017
:1042700000BF00BF00BF0846006840F4003008607F
:104280000846006800F40030019000BF00BF022023
:104290000290039000200490032005900B200690CC
:1042A00002A9484800F0F0FA0420029002A945480B
:1042B00000F0EAFA8020029002A9424800F0E4FAF5
:1042C0000220029002A9404800F0DEFA102002907D
:1042D00002A93D4800F0D8FA2020029002A93A48ED
:1042E00000F0D2FA4FF40060029002A9374800F0C3
:1042F000CBFA4FF48050029002A9344800F0C4FA7F
:104300004FF40050029002A9304800F0BDFA01229B
:1043100011022C4800F0C0FB4FF480700290012085
:104320000390002004900220059002A9254800F087
:10433000ABFA00220121254800F0AEFB01200290DB
:104340000390002004900220059002A91F4800F06D
:104350009BFA0FF024FE022007F0E6FF044694B11A
:1043600000BF00224FF48071164800F095FB6420D6
:1043700006F03AFC01221102124800F08DFB642085
:1043800006F032FC10E000224FF480710D4800F07E
:1043900083FB642006F028FC01221102094800F08A
:1043A0007BFB642006F020FC0FF0FBFD00220721C0
:1043B0003D2000F064FC3D2000F04DFC07B030BD16
:1043C000E044025800000258000802580004025855
:1043D00070472DE9F04704460F46904699462068FD
:1043E000D0F8000200F0010010B10120BDE8F08714
:1043F0002068D0F8005225F0787040EA475525F43F
:10440000F81040EA084545F00C0545F00105206824
:10441000C0F8005200F04CFB064607E000F048FBF5
:10442000801BB0F57A7F01D90120DFE72068D0F842
:10443000000200F001000028F0D12068D0F804024A
:1044400080B2C9F800000020D0E7000038B504466B
:104450000020009069460948006818F067FA0128B2
:104460000BD100BF009838B14FF08050044908606C
:10447000BFF34F8FBFF36F8F00BF38BD2C010024F7
:1044800004ED00E070B504460D460DB9012070BD85
:10449000206F102805D129462046FDF7E3FA0020B9
:1044A000F5E70120F3E7000070B506463068D0F864
:1044B000004224F4706401F0FBFD05461348854278
:1044C00005D31348854202D244F400741AE0104820
:1044D000854205D30F48854202D244F4407411E06E
:1044E0000C48854203D30C48854200D20AE00A48B2
:1044F000854205D30948854202D244F4807401E024
:1045000044F480643068C0F8004270BD002D310171
:10451000C00E16020087930300E1F50580D1F00874
:104520000146C86E10283FD12320C866086800687D
:1045300040F002000A6810600868006840F001005E
:104540000A6810600868D0F8000D40F001000A68A1
:10455000C2F8000D086800F58050D0F8040140F062
:104560000102086800F58050C0F80421086800F5D1
:104570008050D0F8080140F00102086800F5805032
:10458000C0F80821086800F58050D0F8600140F4B8
:104590008172086800F58050C0F860211020C8665C
:1045A00022200867002070470120FCE710B5014673
:1045B000C86E10285BD12320C866002208E001F1F4
:1045C000440050F82230D86840F08040D860521C37
:1045D000042AF4D301244C660868006840F0020005
:1045E0000C6820600868006840F001000C682060DA
:1045F0000868D0F8000D40F001000C68C4F8000D08
:10460000086800F58050D0F8040140F00104086803
:1046100000F58050C0F80441086800F58050D0F8DB
:10462000080140F00104086800F58050C0F8084116
:10463000086800F58050D0F8600140F48174086883
:1046400000F58050C0F86041086800F58050D0F84F
:1046500034014DF2410420430C6804F58054C4F841
:1046600034011020C86622200867002010BD0120F8
:10467000FCE710B50146C86E00284ED02320C8665E
:10468000086800F58050D0F834014DF24104A04391
:104690000C6804F58054C4F83401086800F58050B3
:1046A000D0F8040120F00104086800F58050C0F83B
:1046B0000441086800F58050D0F8080120F001049A
:1046C000086800F58050C0F808410868006820F0CC
:1046D00001000C6820600868D0F8000D40F001006F
:1046E0000C68C4F8000D0868006820F002000C682F
:1046F0002060002208E001F1440050F82230D86820
:1047000020F08040D860521C042AF4D300244C6668
:104710001020C8660867002010BD0120FCE72DE9C5
:10472000F04104460F46154637B9606F40F001006E
:1047300060670120BDE8F081E06E102856D10022AC
:1047400039462046FCF770FF28B1606F40F0020048
:1047500060670120EEE704F11800A16A50F821809B
:1047600000BFA06A401CA062A06A042802D3A06A0D
:10477000001FA06200BF04F11800A16A50F82110C8
:10478000206800F58050C0F8201100F091F906462D
:1047900025E0206800F58050D0F8600100F48050DA
:1047A00068B1606F40F008006067206800F58050D5
:1047B000D0F86001A067E020E0660120BAE7681C3D
:1047C00068B100F075F9801BA84200D83DB9606F50
:1047D00040F004006067E020E0660120AAE7D8F816
:1047E0000C0000F000400028D3D1A3E70120A1E78E
:1047F000704770472DE9F04705460F4690469946A9
:104800002868D0F8000200F0010010B10120BDE8D6
:10481000F0872868D0F8004224F0787040EA4754C6
:1048200024F4F81040EA084424F00C00041D44F07D
:1048300001041FFA89F00D4908600D48C0F80042D4
:1048400000F036F9064607E000F032F9801BB0F5BB
:104850007A7F01D90120DAE72868D0F8000200F059
:1048600001000028F0D100BFD1E70000048202401F
:10487000008002400348006840F0010001490860E0
:104880007047000020040058F8B502460B4600218E
:104890006F4DD7E001278F401E6806EA0704002C01
:1048A00072D01E7906F00306012E04D01E7906F0A0
:1048B0000306022E13D190684F000326BE40B0437A
:1048C0004F00DE68BE4030439060506801268E4045
:1048D000B0431E79C6F300168E40304350601E79F7
:1048E00006F00306032E09D0D0684F000326BE4011
:1048F000B0434F009E68BE403043D0601E7906F042
:104900000306022E13D1CF0802F1200656F8270025
:104910004E07F70E0F26BE40B0434F07FF0E1E692D
:10492000BE403043CF0802F1200646F82700106849
:104930004F000326BE40B0431E7906F003064F0029
:10494000BE40304310605E6806F44036002E78D0DA
:1049500000BF404E366846F002063E4F3E603E467F
:10496000366806F00206009600BF00BF3A4E8F0878
:1049700056F827008E07370F0F26BE40B043374E3C
:10498000B24202D100262EE05BE0354EB24201D1A8
:10499000012628E0334EB24201D1022623E0324EF6
:1049A000B24201D103261EE0304EB24201D10426AC
:1049B00019E02F4EB24201D1052614E02D4EB2422D
:1049C00001D106260FE02C4EB24201D107260AE0A3
:1049D0002A4EB24201D1082605E0294EB24201D149
:1049E000092600E00A268F073F0FBE4030431A4ECB
:1049F0008F0846F827004FF0B0463068A0435E6845
:104A000006F4801606B120434FF0B046306070685F
:104A1000A0435E6806F4001606B120434FF0B0468E
:104A200070606868A0435E6806F4003606B12043F3
:104A300068602868A0435E6806F4803606B12043AB
:104A40002860491C1E68CE40002E7FF423AFF8BDBD
:104A500080000058F444025808040058000002582E
:104A60000004025800080258000C025800100258B6
:104A70000014025800180258001C02580020025866
:104A80000024025810B5426921EA020302EA010437
:104A900043EA0443836110BD0AB1816101E00B0464
:104AA0008361704701480068000C70470010005C8B
:104AB0000148006870470000240000240348006893
:104AC000034909780844014908607047240000241C
:104AD0002C00002410B5032000F00EF901F032FB89
:104AE00010490968C1F303210F4A515C01F01F010D
:104AF00020FA01F40B48006800F00F001146085C32
:104B000000F01F0024FA00F008490860084804601B
:104B10000F2000F00FF808B1012010BD00F09AF846
:104B20000020FAE71844025838D70308040000248C
:104B30000000002470B504461148007808B901202F
:104B400070BD0F4800784FF47A71B1FBF0F00D4959
:104B50000968B1FBF0F5284602F01EFB08B1012000
:104B6000EEE7102C07D200222146501E00F087F8F5
:104B70000548046001E00120E2E70020E0E70000D2
:104B80002C00002400000024280000244178154A4D
:104B900011600178F9B1121D41681160017B0907AC
:104BA000C27A41EA0261827A41EAC241427B41EA29
:104BB0008241827B41EA4241C27B41EA0241427A20
:104BC00041EA0221027A41EA420102781143054A90
:104BD0000832116005E00021024A121D1160121D09
:104BE0001160704798ED00E000BF00BF00BFBFF349
:104BF0005F8F00BF00BF00BF0548006820F4803011
:104C000003490860002002497031086070470000C5
:104C100024ED00E040F001010D4A11600C497039AB
:104C2000096841F480310A4A703A116000BF00BF40
:104C300000BFBFF34F8F00BF00BF00BF00BF00BF6A
:104C400000BFBFF36F8F00BF00BF00BF7047000001
:104C500094ED00E070470146084600280DDB00BFD8
:104C600000BF00F01F0301229A4043099B0003F19B
:104C7000E023C3F8002100BF00BF00BF70472DE94B
:104C8000F05F80460D46164604F02AFC074639467A
:104C90002A46334601F00700C0F1070ABAF1040FB3
:104CA00002D94FF0040A01E0C0F1070AD14600F131
:104CB000040ABAF1070F02D24FF0000A01E0A0F196
:104CC000030AD4464FF0010A0AFA09FAAAF1010AC6
:104CD0000AEA020A0AFA0CFA4FF0010B0BFA0CFB73
:104CE000ABF1010B0BEA030B4AEA0B0421464046E9
:104CF00004F0FEFBBDE8F09F00BF00F00702064B8A
:104D000019684FF6FF031940044B0B4343EA022195
:104D1000014B196000BF70470CED00E00000FA0580
:104D200070B5044615480068C0F3800048B91348C0
:104D3000006800F00700A04201D0012070BD0020F3
:104D4000FCE70E48006820F0070020430B4908608C
:104D5000FFF7AEFE054607E0FFF7AAFE401BB0F5E1
:104D60007A7F01D90120E9E7044808380068C0F3D8
:104D700040300028F0D00020E0E700000C48025846
:104D80000348006840F080700149086070470000E7
:104D90000C4802580348006840F4807001490860DC
:104DA000704700000048025810B501F081F905492C
:104DB0000968C1F30211044A515C01F01F01C840A7
:104DC00010BD00002044025838D7030870B50146D2
:104DD000844D2D6805F00303824D2D68C5F3053021
:104DE000804D2D1D2D68C5F300147E4D14352D68A2
:104DF000C5F3CC0515FB04F501EE105AB8EE411AC7
:104E0000F0EE410A00286FD023B1012B4ED0022BC7
:104E10006BD16BE0734D283D2D68C5F340153DB354
:104E2000704D283D2D68C5F3C1066F4D25FA06F279
:104E300001EE102AF8EE411A01EE100AB8EE411AFE
:104E400081EE812A9FED691AC0EE811A654D1035F9
:104E50002D68C5F3080501EE105AB8EE411A31EE7F
:104E6000811AF7EE001A31EE211A22EE010A1CE037
:104E700001EE100AB8EE411ADFED5D1A81EE812ACB
:104E80009FED5A1AC0EE811A564D10352D68C5F3A4
:104E9000080501EE105AB8EE411A31EE811AF7EE0C
:104EA000001A31EE211A22EE010A5BE001EE100A2F
:104EB000B8EE411ADFED4F1A81EE812A9FED4B1AB1
:104EC000C0EE811A474D10352D68C5F3080501EE77
:104ED000105AB8EE411A31EE811AF7EE001A31EE8F
:104EE000211A22EE010A3DE077E01DE001EE100AF2
:104EF000B8EE411A9FED402AC2EE011A9FED3B1A0F
:104F000080EE812A374D10352D68C5F3080501EE76
:104F1000105AB8EE411A32EE011AB7EE002A31EEFD
:104F2000021A21EE810A1DE001EE100AB8EE411AC4
:104F3000DFED301A81EE812A9FED2C1AC0EE811A26
:104F4000284D10352D68C5F3080501EE105AB8EE4E
:104F5000411A31EE811AF7EE001A31EE211A22EED3
:104F6000010A00BF00BF1F4D10352D68C5F346254F
:104F700001EE105AB8EE411AF7EE001A31EE211A7E
:104F8000C0EE011ABCEEE11A81ED001A154D103584
:104F90002D68C5F3064501EE105AB8EE411AF7EE3A
:104FA000001A31EE211AC0EE011ABCEEE11A81EDB1
:104FB000011A0C4D10352D68C5F3066501EE105A27
:104FC000B8EE411AF7EE001A31EE211AC0EE011ABE
:104FD000BCEEE11A81ED021A03E000250D604D6080
:104FE0008D6070BD284402580090D0030000004638
:104FF0000024744C0024744A20BCBE4B70B501469A
:10500000844D2D6805F00303824D2D68C5F30550CE
:10501000804D2D1D2D68C5F300247E4D1C352D6857
:10502000C5F3CC0515FB04F501EE105AB8EE411A94
:10503000F0EE410A00286FD023B1012B4ED0022B95
:105040006BD16BE0734D283D2D68C5F340153DB322
:10505000704D283D2D68C5F3C1066F4D25FA06F247
:1050600001EE102AF8EE411A01EE100AB8EE411ACC
:1050700081EE812A9FED691AC0EE811A654D1835BF
:105080002D68C5F3080501EE105AB8EE411A31EE4D
:10509000811AF7EE001A31EE211A22EE010A1CE005
:1050A00001EE100AB8EE411ADFED5D1A81EE812A99
:1050B0009FED5A1AC0EE811A564D18352D68C5F36A
:1050C000080501EE105AB8EE411A31EE811AF7EEDA
:1050D000001A31EE211A22EE010A5BE001EE100AFD
:1050E000B8EE411ADFED4F1A81EE812A9FED4B1A7F
:1050F000C0EE811A474D18352D68C5F3080501EE3D
:10510000105AB8EE411A31EE811AF7EE001A31EE5C
:10511000211A22EE010A3DE077E01DE001EE100ABF
:10512000B8EE411A9FED402AC2EE011A9FED3B1ADC
:1051300080EE812A374D18352D68C5F3080501EE3C
:10514000105AB8EE411A32EE011AB7EE002A31EECB
:10515000021A21EE810A1DE001EE100AB8EE411A92
:10516000DFED301A81EE812A9FED2C1AC0EE811AF4
:10517000284D18352D68C5F3080501EE105AB8EE14
:10518000411A31EE811AF7EE001A31EE211A22EEA1
:10519000010A00BF00BF1F4D18352D68C5F3462515
:1051A00001EE105AB8EE411AF7EE001A31EE211A4C
:1051B000C0EE011ABCEEE11A81ED001A154D18354A
:1051C0002D68C5F3064501EE105AB8EE411AF7EE08
:1051D000001A31EE211AC0EE011ABCEEE11A81ED7F
:1051E000011A0C4D18352D68C5F3066501EE105AED
:1051F000B8EE411AF7EE001A31EE211AC0EE011A8C
:10520000BCEEE11A81ED021A03E000250D604D604D
:105210008D6070BD284402580090D0030000004605
:105220000024744C0024744A20BCBE4B2DE9F0418C
:1052300004460025A846206800F00060B0F1006F29
:1052400030D1606E48B1B0F5801F0DD0B0F5001FB1
:1052500010D0B0F5401F15D113E0F948006840F4B4
:105260000030F74908600FE00221201D02F026F906
:10527000054609E0022104F1240002F0D1F90546B7
:1052800002E001E0012500BF00BF55B9EC48243021
:10529000006820F44010616E0843E9492431086039
:1052A00000E0A846208800F48070B0F5807F2DD102
:1052B000606D05281AD2DFE800F0030A1017180005
:1052C000DF48006840F40030DD49086010E000214C
:1052D000201D02F0F3F805460AE0002104F1240045
:1052E00002F09EF9054603E002E001E0012500BF5F
:1052F00000BF55B9D2482430006820F00700616D26
:105300000843CF492431086000E0A846208800F413
:105310000070B0F5007F33D1A06D802817D003DC7A
:1053200040B140281CD10CE0C02817D0B0F5807FD8
:1053300016D114E0C248006840F40030C04908604B
:1053400010E00021201D02F0B9F805460AE0002116
:1053500004F1240002F064F9054603E002E001E0F4
:10536000012500BF00BF55B9B5482430006820F4BE
:10537000E070A16D0843B2492431086000E0A846FE
:10538000208800F48060B0F5806F38D1D4F8A40094
:10539000B0F5800F19D004DC50B1B0F5001F1DD15D
:1053A0000DE0B0F5C00F17D0B0F5000F16D114E026
:1053B000A348006840F40030A149086010E00021D3
:1053C000201D02F07BF805460AE0002104F12400CC
:1053D00002F026F9054603E002E001E0012500BFE6
:1053E00000BF5DB996482C30006820F46000D4F806
:1053F000A410084392492C31086000E0A846208898
:1054000000F40060B0F5006F38D1D4F8A800B0F116
:10541000007F19D004DC50B1B0F1807F1DD10DE0C8
:10542000B0F1407F17D0B0F1806F16D114E08448FE
:10543000006840F400308249086010E00021201D1F
:1054400002F03CF805460AE0002104F1240002F0D5
:10545000E7F8054603E002E001E0012500BF00BFD8
:105460005DB977482C30006820F0E060D4F8A810CF
:10547000084373492C31086000E0A846206800F01A
:105480000070B0F1007F27D1A06CA0B1102804D02B
:10549000202809D030280FD10CE06948006840F47A
:1054A00000306749086009E00221201D02F006F87B
:1054B000054603E002E001E0012500BF00BF55B949
:1054C0005F482030006820F03000A16C08435C4940
:1054D0002031086000E0A846208800F48050B0F534
:1054E000805F36D1E06DB0F5005F19D004DC50B1BB
:1054F000B0F5805F1DD10DE0B0F5405F17D0B0F57D
:10550000804F16D114E04E48006840F400304C49FA
:10551000086010E00021201D01F0D0FF05460AE0E0
:10552000002104F1240002F07BF8054603E002E0CC
:1055300001E0012500BF00BF55B941482430006893
:1055400020F4E040E16D08433D492431086000E06B
:10555000A846208800F40050B0F5005F34D1206EDA
:10556000B0F5403F1DD007DC68B1B0F5803F0BD0EF
:10557000B0F5003F18D10DE0B0F5802F12D0B0F596
:10558000A02F11D10FE011E00121201D01F096FFA5
:1055900005460BE0012104F1240002F041F8054624
:1055A00004E003E002E001E0012500BF00BF55B9BF
:1055B00023482430006820F4E020216E084320496D
:1055C0002431086000E0A846208800F48040B0F54F
:1055D000804F38D1D4F8AC00B0F1405F1DD007DC6B
:1055E00068B1B0F1805F0BD0B0F1005F18D10DE071
:1055F000B0F1804F12D0B0F1A04F11D10FE011E007
:105600000121201D01F05AFF05460BE0012104F1A4
:10561000240002F005F8054604E003E002E001E0A2
:10562000012500BF00BF6DB905482C30006820F08F
:10563000E040D4F8AC10084301492C31086002E086
:105640002C440258A846208800F40040B0F5004FD2
:1056500026D1E06E98B1B0F1805F03D0B0F1005F69
:105660000ED106E0F948006840F40030F7490860C0
:1056700008E00121201D01F021FF054602E001E0C4
:10568000012500BF00BF55B9F0482430006820F064
:105690004050E16E0843ED492431086000E0A8461F
:1056A000206800F08070B0F1807F27D1606CA0B1DD
:1056B000012804D0022809D003280FD10CE0E348C8
:1056C000006840F40030E149086009E00221201D33
:1056D00001F0F4FE054603E002E001E0012500BF11
:1056E00000BF55B9D9482030006820F00300616C34
:1056F0000843D6492031086000E0A846206800F43D
:105700008000B0F5800F7DD1D148006840F48070F2
:10571000CF490860FFF7CCF9064606E0FFF7C8F965
:10572000801B642801D9032505E0C948006800F4FE
:1057300080700028F2D000BF85BBC44844300068A8
:1057400000F44070B4F8B01001F44071884213D0F6
:10575000BE484430006820F44077BC4844300068BC
:1057600040F48030B949443108600846006820F4AC
:105770008030086008460760D4F8B000B0F5807F3C
:1057800015D1FFF795F9064609E0FFF791F9801B5F
:1057900041F28831884202D9032507E038E0AB485E
:1057A00044300068C0F340000028EED000BF55BB75
:1057B00000BFB4F8B00000F44070B0F5407F0ED1E7
:1057C000A2481C38006820F47C51A24AD4F8B000EA
:1057D000104041EA10109D491C39086007E09B48C1
:1057E0001C38006820F47C5098491C3908609748A0
:1057F00044300068B4F8B010C1F30B01084393497A
:10580000443101E005E001E0086002E0A84600E064
:10581000A846207800F0010068B3A06F182819D0BE
:1058200005DC48B1082808D0102816D10BE0202844
:1058300011D0282811D10FE011E00121201D01F025
:105840003DFE05460BE0012104F1240001F0E8FED5
:10585000054604E003E002E001E0012500BF00BFCF
:1058600055B97A482830006820F03800A16F084305
:1058700076492831086000E0A846207800F0020050
:10588000022828D1606F062815D2DFE800F0030453
:105890000A11121311E00121201D01F00FFE05462F
:1058A0000BE0012104F1240001F0BAFE054604E0FA
:1058B00003E002E001E0012500BF00BF55B96348E5
:1058C0002830006820F00700616F08435F492831E5
:1058D000086000E0A846207800F0040004282AD1DF
:1058E000D4F89000062815D2DFE800F003040A116E
:1058F000121311E00121201D01F0E0FD05460BE02F
:10590000012104F1240001F08BFE054604E003E0D0
:1059100002E001E0012500BF00BF5DB94B482C301B
:10592000006820F00700D4F89010084347492C3154
:10593000086000E0A846207800F02000202836D13A
:10594000D4F88C00B0F1405F1DD007DC68B1B0F135
:10595000805F0BD0B0F1005F18D10DE0B0F1804F47
:1059600012D0B0F1A04F11D10FE011E00021201DA5
:1059700001F0A4FD05460BE0022104F1240001F032
:105980004FFE054604E003E002E001E0012500BF10
:1059900000BF5DB92D482830006820F0E040D4F801
:1059A0008C10084329492831086000E0A846207877
:1059B00000F04000402836D1D4F89800B0F5406F90
:1059C0001DD007DC68B1B0F5806F0BD0B0F5006F6B
:1059D00018D10DE0B0F5805F12D0B0F5A05F11D105
:1059E0000FE011E00021201D01F068FD05460BE0ED
:1059F000022104F1240001F013FE054604E003E057
:105A000002E001E0012500BF00BF5DB90F482C3066
:105A1000006820F4E050D4F8981008430B492C316A
:105A2000086000E0A846207800F0800080283AD185
:105A3000D4F89C00B0F5C04F23D00DDC98B1B0F580
:105A4000005F11D0B0F5804F1ED113E02C440258F6
:105A500000480258FFFCFF0FB0F5004F12D0B0F520
:105A6000204F11D10FE011E00021201D01F026FD93
:105A700005460BE0022104F1240001F0D1FD0546AA
:105A800004E003E002E001E0012500BF00BF4DB9E2
:105A9000BE48006820F46040D4F89C100843BB491D
:105AA000086000E0A846207800F00800082817D118
:105AB000D4F88000B0F5805F07D1022104F1240002
:105AC00001F0AEFD08B14FF00108B048001F0068BA
:105AD00020F44050D4F880100843AC49091F0860F6
