:020000040800F2
:10000000083E0724890400084D620008DF5F0008ED
:10001000F3610008A10C00088D75000800000000C5
:100020000000000000000000000000009103000834
:10003000A50C000800000000ED0300081965000889
:10004000AF040008AF040008AF040008AF040008C4
:10005000AF040008AF040008AF040008AF040008B4
:10006000AF040008AF040008AF040008AF040008A4
:10007000AF040008AF040008AF040008AF04000894
:10008000AF040008AF040008AF040008AF04000884
:10009000AF040008AF040008AF040008AF04000874
:1000A000AF040008AF040008AF040008AF04000864
:1000B000AF040008AF040008AF040008AF04000854
:1000C000AF040008AF040008AF040008AF04000844
:1000D000AF0400087D750008AF040008AF040008F5
:1000E000AF040008AF04000800000000AF040008DF
:1000F000AF040008AF040008AF040008AF04000814
:10010000AF040008AF040008AF040008AF04000803
:10011000AF040008AF040008AF040008AF040008F3
:10012000AF040008AF040008AF040008AF040008E3
:10013000AF040008590D0008AF040008AF04000820
:1001400000000000000000000000000000000000AF
:10015000AF040008AF040008AF040008AF040008B3
:10016000AF040008AF040008AF040008AF040008A3
:10017000AF040008AF040008AF040008000000004E
:10018000AF040008AF040008AF040008AF04000883
:10019000AF040008AF040008AF040008AF04000873
:1001A000AF040008AF040008AF040008AF04000863
:1001B000AF040008AF040008AF040008AF04000853
:1001C000AF040008AF040008AF040008AF04000843
:1001D000AF040008AF040008AF040008AF04000833
:1001E000AF040008AF040008AF040008AF04000823
:1001F000AF040008AF040008AF040008AF04000813
:10020000AF040008AF040008AF040008AF04000802
:10021000AF040008AF040008AF040008AF040008F2
:10022000AF040008AF040008AF040008000000009D
:10023000AF040008AF04000800000000AF0400088D
:10024000AF040008AF040008AF040008AF040008C2
:10025000AF040008AF040008AF040008AF040008B2
:10026000AF040008AF040008AF040008AF040008A2
:10027000AF040008AF040008AF040008000000004D
:10028000AF040008AF040008AF040008000000003D
:1002900000000000AF04000800F002F800F069F868
:1002A0000AA090E8000C82448344AAF10107DA45D1
:1002B00001D100F05EF8AFF2090EBAE80F0013F0BA
:1002C000010F18BFFB1A43F0010318471CE7010098
:1002D0003CE701000A444FF0000C10F8013B13F01A
:1002E000070408BF10F8014B1D1108BF10F8015B8F
:1002F000641E05D010F8016B641E01F8016BF9D182
:1003000013F0080F1EBF10F8014BAD1C0C1B09D1D8
:100310006D1E58BF01F801CBFAD505E014F8016B4A
:1003200001F8016B6D1EF9D59142D6D370470000DC
:100330000023002400250026103A28BF78C1FBD8EE
:10034000520728BF30C148BF0B607047642900F0D6
:100350008781782900F0C081732900F0548400203F
:1003600070471FB51DF010FC00F093FA1FBD10B5CB
:1003700010BD00F067FC1146FFF7F3FF0FF0B6FC6D
:1003800000F085FC03B4FFF7F2FF03BC07F023F98C
:100390002D4B19680868B0E8F04F80F30988BFF367
:1003A0006F8F4FF0000080F311887047000000004D
:1003B00008480068006880F308884FF0000080F368
:1003C000148862B661B6BFF34F8FBFF36F8F00DF43
:1003D00000BF00BF08ED00E0DFF80C00016841F449
:1003E00070010160704700BF88ED00E0EFF3098005
:1003F000BFF36F8F144B1A681EF0100F08BF20ED6B
:10040000108A20E9F04F106009B44FF0500072B626
:1004100080F31188BFF34F8FBFF36F8F62B61CF06C
:10042000B7F94FF0000080F3118809BC196808681B
:10043000B0E8F04F1EF0100F08BFB0EC108A80F348
:100440000988BFF36F8F704764010024EFF30580C4
:10045000704700000B49D1F800C04A685CF8043BC3
:100460001068184442F8040B8C4528BFA1F1DC0C3D
:100470008A4228BFA1F1DC02C1F800C04A6020F026
:10048000004070479C2B0724DFF83000016841F4DE
:10049000700101600A4880470A480047FEE7FEE70E
:1004A000FEE7FEE7FEE7FEE7FEE7FEE7FEE7FEE724
:1004B00005480649064A074B7047000088ED00E0F2
:1004C0002D65000899020008082C0724083E07241F
:1004D000082E0724082E0724704753EA020C00F068
:1004E00069802DE9F04B4FF00006002B1FBFB3FAD7
:1004F00083F503FA05F424FA05F65E4012BF1643AD
:10050000B2FA82F502FA05F4C5F120051EBF22FAFF
:1005100005FC44EA0C04203556EA044C4FEA144426
:1005200018BF641C4FF000084FF00009904271EBB7
:10053000030C39D3002919BFB1FA81F701FA07F684
:10054000B0FA80F700FA07F6C7F120071EBF20FABD
:1005500007FC46EA0C062037B6FBF4FCA7EB0507C0
:10056000103F07F01F0BCBF120060CFA0BFB2CFA07
:1005700006F644BFB3460026202FA4BF5E464FF0C8
:10058000000B5BEA060C08BF4FF0010B19EB0B09DF
:10059000ABFB027C48EB0608C01B06FB02CC0BFB46
:1005A00003CC71EB0C01C1E70B46024641464846BD
:1005B000BDE8F08B13B54FF000004FF00001AFF332
:1005C0000080BDE81C4070470FB4044910B503AA71
:1005D000029800F01DFB10BC5DF814FB180000240D
:1005E0000FB41CB5084B06AA7B44694600900598D9
:1005F00000F0DFFA04460020694600F0EDFA2046DC
:100600001CBC5DF814FB0000ED05000070B50C4645
:100610000546012A05D02878800600D5EA6900231E
:1006200002E0012305E05B1C934202D2E05C00285B
:10063000F9D1A869E618C01AA861286A1844286286
:100640002846AFF3008004E0D5E9012114F8010B3E
:100650009047B442F8D32846AFF3008070BD000045
:100660002DE9F0410646002410687529314616A58B
:1006700010D0AFF30080002802DA404213A507E053
:1006800031688A0701D512A502E0490704D511A5F2
:10069000012401E0AFF3008000210A2206F12407C3
:1006A00009E0B0FBF2FCB0FBF2F302FB1C003030BF
:1006B00078541846491C0028F3D123462A46304670
:1006C000BDE8F04100F017BA000000002D00000066
:1006D0002B0000002000000070B504460D462146A6
:1006E0001068AFF300802188090502D50F4A7A44CB
:1006F00002E00E4A7A440E32002104F1240305E0A0
:1007000000F00F060009965D5E54491C0028F7D1E1
:1007100020780023000704D5702D02D009B10223F0
:1007200011322046BDE8704000F0E5B962E10100F9
:100730002DE9F05F894604464FF0000ADFF824B146
:10074000FB44C0F820A02046E168884700287DD0FF
:10075000252806D0D4E901219047206A401C206258
:10076000F1E700255F462046E168884720280646D5
:1007700007DB312E05D2B81910F8200C08B105435B
:10078000F1E7A80701D525F00405C4F81CA000274F
:10079000C4F818A02A2E09D0304606F015FF38B349
:1007A00004EB8708303EC8F8186019E059F8041BBC
:1007B000204604EB87029161E1688847012F0646D5
:1007C00018D1E069002820DA25F020051DE0D8F8CE
:1007D000180000EB800006EB40003038C8F8180025
:1007E0002046E1688847064606F0EEFE0028EED176
:1007F000012F0AD02E2E08D12046E16888477F1CA1
:100800000646022F45F02005C4DBA069002803DA64
:10081000404245F00105A061E80701D025F0100530
:10082000A6B1A6F14100192802D8203645F400658A
:100830004A463146204625604D46FFF787FD60B1A8
:10084000012807D0ED1D25F0070000E007E000F1CA
:10085000080978E705F1040975E730467AE7206A68
:10086000BDE8F09F38E101000B4910B5A1F17C0211
:100870000A4CC2E93712372106E000EB104342F878
:100880002130074B00FB03400B1EA1F10101F4DCFA
:1008900010BD0120E8E700003C2B0724E119D666D3
:1008A000CD0D010030B505460B462A4613F8014B25
:1008B00012F8010B08B1A042F8D01CB1002802D0F8
:1008C0006D1CF1E7284630BD40EA010310B59B07D7
:1008D0000FD1042A0DD310C808C9121F9C42F8D0AA
:1008E00020BA19BA884201D9012010BD4FF0FF305B
:1008F00010BD1AB1D30703D0521C07E0002010BD71
:1009000010F8013B11F8014B1B1B07D110F8013BFC
:1009100011F8014B1B1B01D1921EF1D1184610BDDD
:1009200010B5431C02E010F8011B71B18107FAD128
:100930004FF0013202C88C1A8C4314EAC211F9D06C
:10094000C01A0A0603D0C01E10BDC01A10BD0A048A
:1009500001D0801E10BD0902FCD0401E10BD032A2C
:1009600040F2308010F0030C00F0158011F8013BCC
:10097000BCF1020F624498BF11F801CB00F8013BB3
:1009800038BF11F8013BA2F1040298BF00F801CB77
:1009900038BF00F8013B11F0030300F02580083A4E
:1009A000C0F0088051F8043B083A51F804CBA0E8A5
:1009B0000810F5E7121D5CBF51F8043B40F8043BFA
:1009C000AFF30080D20724BF11F8013B11F801CB2F
:1009D00048BF11F8012B24BF00F8013B00F801CB00
:1009E00048BF00F8012B704710B5203AC0F00B80CB
:1009F000B1E81850203AA0E81850B1E81850A0E823
:100A00001850BFF4F5AF5FEA027C24BFB1E818507C
:100A1000A0E8185044BF18C918C0BDE810405FEAEC
:100A2000827C24BF51F8043B40F8043B08BF704768
:100A3000D20728BF31F8023B48BF11F8012B28BF6D
:100A400020F8023B48BF00F8012B704702F0FF037B
:100A500043EA032242EA024200F002B84FF00002E9
:100A60000429C0F0128010F0030C00F01B80CCF1C0
:100A7000040CBCF1020F18BF00F8012BA8BF20F82E
:100A8000022BA1EB0C0100F00DB85FEAC17C24BF82
:100A900000F8012B00F8012B48BF00F8012B70472C
:100AA0004FF0000200B5134694469646203922BF07
:100AB000A0E80C50A0E80C50B1F12001BFF4F7AF52
:100AC000090728BFA0E80C5048BF0CC05DF804EB34
:100AD000890028BF40F8042B08BF704748BF20F8A2
:100AE000022B11F0804F18BF00F8012B70477047A0
:100AF0007047704770472DE9F0470D46994692467A
:100B0000044600F124080168880604D5E06921F054
:100B10001001216000E00120A84201DD471B00E038
:100B20000027A1697A1902EB0900081AA061207850
:100B3000C00602D42046AFF30080002608E0D4E9C6
:100B400001211AF806009047206A401C761C20629A
:100B50004E45F4DB2078C0060AD52046AFF300806E
:100B600006E0D4E9012130209047206A401C206231
:100B7000381EA7F10107F4DC07E0D4E9012118F8D9
:100B800005009047206A401C2062281EA5F101053F
:100B9000F3DC2046AFF300802078000602D5022067
:100BA000BDE8F0870120FBE701694A1C0261087873
:100BB000704700B58FB0CDE901310021059105499D
:100BC0007944CDE9031011466846FFF7B1FD0FB037
:100BD00000BD0000E5FFFFFF0A6802F8010B0A6094
:100BE000704710B5436913B1AFF3008001E0FFF720
:100BF0000DFD012010BD127800F124010A700022C1
:100C00004A700122EDE711684FF0FF32E9E700007A
:100C1000074B70B50D467B44FFF7CBFF04462846D3
:100C200000F00CF810B14FF0FF3070BD204670BDE1
:100C3000CB83000000487047A42B0724007B00F002
:100C4000800070477546FFF7F5FFAE460500694620
:100C5000534620F00700854618B020B5FFF728FC62
:100C6000BDE820404FF000064FF000074FF00008AD
:100C70004FF0000B21F00701AC46ACE8C009ACE82E
:100C8000C009ACE8C009ACE8C0098D46704710B592
:100C90000446AFF300802046BDE81040FFF772BB6A
:100CA00000BFFEE7704710B5002210E002EB4204DF
:100CB000036903EBC40100230B604B608B60CB60C6
:100CC0000B614B6100F1440343F82210521C042ACB
:100CD000ECD3002444658465C4654466046603243B
:100CE000036803F58053C3F83041036803F580536C
:100CF0000469C3F81C4103694833046804F580544F
:100D0000C4F8283110BD10B500220EE002EB4204F9
:100D1000C36803EBC40100230B604B608B60CB60A6
:100D200000F1180343F82210521C042AEED30024C9
:100D300084620324036803F58053C3F82C410368DD
:100D400003F58053C468C3F81441036803F5805366
:100D5000C468C3F8204110BD10B5024801F02AFB59
:100D600010BD0000FC04002410B5A2B00446012010
:100D70008DF83300002012908DF841008DF843006B
:100D800001208DF828008DF856008DF832000020E3
:100D90008DF84C0001208DF8840040030F90002056
:100DA0008DF85C0018908DF885008DF886004FF462
:100DB000C360169000208DF830000B9001208DF854
:100DC000350000208DF836008DF840001D901B90F6
:100DD00014908DF864008DF87A0001208DF842009F
:100DE0002020209001208DF8440000208DF855002F
:100DF0004FF0405009904FF480400E9000208DF845
:100E0000310002201F9000208DF878008DF87900C5
:100E10008DF8540001208DF8340000201A90012034
:100E20008DF8700009A9204600F0AEFA01208DF877
:100E300004000290002000908DF81C008DF80D0039
:100E40008DF80C004FF40010069000208DF814006F
:100E50004FF40010049000208DF81D004FF4067030
:100E600008906946204600F031FA22B010BD00001B
:100E700070B506463068D0F8004224F4706403F080
:100E80003FFE05461348854205D31348854202D2EA
:100E900044F400741AE01048854205D30F48854297
:100EA00002D244F4407411E00C48854203D30C484C
:100EB000854200D20AE00A48854205D309488542A6
:100EC00002D244F4807401E044F480643068C0F8D5
:100ED000004270BD002D3101C00E16020087930341
:100EE00000E1F50580D1F0080020704710B502F050
:100EF0004DF910BD10B5024801F03CFE002010BDB8
:100F0000FC04002470B504460D46164633462A46B6
:100F10002146044801F0C3FD10B14FF0FF3070BD11
:100F20000020FCE7FC04002470B504460D4616467C
:100F300033462A462146044801F0C2FF10B14FF063
:100F4000FF3070BD0020FCE7FC0400242DE9F04FC9
:100F500006460B46914606F118042269D4F810C0E3
:100F6000002754F822109D68BA46C86800F0004077
:100F7000B0F1004F04D004F1140050F8220010B179
:100F80000220BDE8F08F187800F00400C8B3C868EC
:100F90006FF30F00D3F824B040EA0B00C860C868B4
:100FA00040F48030C8603068006E40F48010D6F89D
:100FB00000B0CBF86000187800F0080008B3B3F870
:100FC0002CB088686BF31F408860C86840F400301C
:100FD000C860C86820F44020D3F830B040EA0B0065
:100FE000C8603068406E40F48010D6F800B0CBF88E
:100FF00064003068006D40F08060D6F800B0CBF837
:101000005000187800F0100058B188686FF30D0098
:10101000D3F818B040EA0B008860C86840F08060E0
:10102000C860187800F0040018B9187800F01000B3
:10103000F0B1C86840F08040C860C86840F0004027
:10104000C86000BF521C042A00D3121F00BF54F80E
:1010500022107F1CC86800F00040B0F1004F07D19B
:1010600054F82C10C86820F00040C860022088E7BF
:101070007F1C2868086088686FF30D00D5F804B0FD
:1010800040EA0B008860A86868B1AD6828684860CD
:101090008868DFF834B200EA0B00B5F804B040EA23
:1010A0000B40886007E0002048608868DFF818B2CD
:1010B00000EA0B008860187800F01000A0B1C86842
:1010C00020F4F000B3F820B040EACB40C860C86814
:1010D0006FF31100D3F81CB040EA0B00C860C86879
:1010E00040F48020C8601FE0C8686FF30E00D3F89A
:1010F00004B040EA0B00C860187800F0010038B175
:10110000C86820F44030D3F814B040EA0B00C8603F
:10111000187800F0200038B1C86820F04060D3F89B
:1011200010B040EA0B00C860187800F0040038B135
:10113000886820F44040D3F828B040EA0B0088606B
:10114000C86840F00050C860C86820F08040C8609F
:10115000C86840F00040C860187800F0020038B15C
:10116000C86820F06070D3F80CB040EA0B00C8608B
:1011700085E0C86820F08050C86000BF521C042A77
:1011800000D3121F00BF54F82210C86820F000508E
:10119000C860C86800F00040B0F1004F04D004F10E
:1011A000140050F82200B8B1624654F822104FF0F3
:1011B00000080DE0C86820F00040C86000BF521C65
:1011C000042A00D3121F00BF54F8221008F10108AE
:1011D000B845EFD30220D4E67F1CAD6828680860CC
:1011E00088686FF30D00D5F804B040EA0B00886002
:1011F000A86868B1AD68286848608868DFF8C8B03A
:1012000000EA0B00B5F804B040EA0B40886007E044
:10121000002048608868DFF8B0B000EA0B00886002
:10122000187800F0100060B1C8686FF31100D3F8AF
:101230001CB040EA0B00C860C86840F48020C86059
:1012400013E0C8686FF30E00D3F804B040EA0B0057
:10125000C860187800F0010038B1C86820F4403048
:10126000D3F814B040EA0B00C8600AF1010AC8685C
:1012700040F00040C860C86820F08040C860A8689E
:1012800000287FF476AFB9F1000F04D0886840F0F1
:101290000040886003E0886820F000408860C868EB
:1012A00040F08050C86004F11400D4F824B040F835
:1012B00022B0226172B60AF10100D4F828B0584475
:1012C000A06262B600205CE6FFFF00C010B50368B4
:1012D00003F580531B6847F60204A3430C682343BD
:1012E000046804F5805423600C798B6843EA043366
:1012F0000C7B43EAC432036803F580535B684DF20C
:101300000104A3431343046804F5805463604C7BD9
:101310000B6A43EA0442036803F58053D3F80031B3
:10132000164C23401343046804F58054C4F800317C
:101330000C7D0B6943EA04134C7F43EA04320368D3
:1013400003F58053D3F804310D4C23401343046854
:1013500004F58054C4F804310C7F8B6943EAC472ED
:10136000036803F58053D3F80831064C2340134338
:10137000046804F58054C4F8083110BD00C0FEFFB5
:10138000EFEFC0FFFFFFC07F10B50C688B682343F1
:101390000C7943EAC4630C7B43EAC4534C7B43EAB5
:1013A00084538C7B43EA4453CC7B43EA04530C7C48
:1013B0000CB9012400E0002443EAC4434C7C0CB97E
:1013C000012400E0002443EA44438C7C43EA0443C4
:1013D0004C6923438C6923430C7F43EA04334C7FDD
:1013E00043EAC4238C7F0CB9012400E0002443EAC3
:1013F0008423CC7F43EA442391F820400CB9012494
:1014000000E0002443EA042351F8244F23430C79DD
:1014100043EA04138C6843EA040203681B683D4CEA
:1014200023401343046823600B7E5B060C7D43EA74
:1014300004630C7B43EA84434C7B43EA44438C7B48
:1014400024390CB9012400E0002443EA04434C6B26
:1014500043EA040203685B682F4C2340134304688B
:10146000636091F840404B6C43EA04220368DB68F8
:1014700040F20F14A34313430468E36091F854400F
:101480000B6D43EA440391F84C400CB9012400E091
:10149000002443EAC41331F8484F43EA0442036886
:1014A0001B6F4FF60D7423401343046823678B7B37
:1014B0004C7B43EA44020368D3F8903023F00303E3
:1014C00013430468C4F890300368D3F8003D23F058
:1014D00072030C6923430468C4F8003D0C7E4B6919
:1014E00048390CB9012400E0002443EA841391F840
:1014F000614043EA041391F8624043EAC40203687E
:10150000D3F8303D23F07B0313430468C4F8303D27
:1015100010BD0000838004000080F8C070B5044650
:10152000B3F5804F13D1D1E9000540EA05108D686D
:1015300040EA05208D6928438D8940EA054054F82A
:101540002250064E3540284344F8220003E06FF055
:10155000704044F82200002070BD00000000F0CF71
:1015600070B50246086852F8200020F001000E68AD
:1015700042F826008868082801D1402500E00025AF
:10158000486828438E683043CE6830430E69304344
:101590004E6930438E693043CE6930430E6A304322
:1015A0004E6A30438E6A3043CE6A40EA0603086BC7
:1015B0000343486B0343886B0343114C44F480148A
:1015C00044F4001444F4E024086852F82000A043D6
:1015D00018430E6842F82600086BB0F5801F07D14B
:1015E000086828B1106820F480100E6B304310603A
:1015F000086818B110684E6B30431060002070BD51
:101600007FFB080030B50346D1E9000540EA05102C
:101610008D6840EA05208D8940EA0545088A401E0C
:1016200045EA0055087D801E45EA00608D69284323
:10163000551C53F8255005F040452843551C43F8E8
:101640002500186800F48010B0F5801F0BD1586891
:1016500020F47004088A401E44EA0054586820F4BC
:10166000700020435860002030BD02460868B0B9C1
:10167000D1E901031843CB6818430B6918434B6940
:1016800018438B691843CB6918430B6A18434B6A9C
:10169000184313686FF30E031843106019E0D1E983
:1016A000070318434B6A1843136823F4F84318439D
:1016B0001060D1E901031843CB6818430B69184344
:1016C0004B6918438B69184353686FF30E03184333
:1016D0005060002070470246506943F6FE739843FD
:1016E00040EA410050610020704710B50346D1E93F
:1016F000000420438C68641E40EA4410CC6840EA31
:1017000044201C696FF3150420431861002010BDAC
:1017100030B50346FAB90868401E4C68641E40EABA
:1017200004148868401E44EA0024C868401E44EA45
:101730000034088A401E44EA0044888A401E44EA75
:101740000054087E401E44EA00609C6804F0704427
:101750002043986022E0C868401E0403888A401E27
:1017600044EA00509C680E4D2C4020439860086865
:10177000401E4C68641E40EA04148868401E44EA17
:101780000024088A401E44EA0044087E401E44EAC1
:101790000060DC6804F070442043D860002030BD55
:1017A000FF0F0FFF2DE9F041044601F0EFFC8046EA
:1017B00014B90120BDE8F08194F83500022808D062
:1017C0008020606500BF002084F8340000BF012045
:1017D000F0E7FE492068884249D0FC49183120686A
:1017E000884244D0F9493031206888423FD0F749D7
:1017F0004831206888423AD0F449603120688842F4
:1018000035D0F24978312068884230D0EF499031A4
:10181000206888422BD0ED49A8312068884226D024
:10182000EB492068884222D0E94918312068884273
:101830001DD0E74930312068884218D0E44948314A
:101840002068884213D0E2496031206888420ED077
:10185000DF4978312068884209D0DD49903120681D
:10186000884204D0DA49A8312068884201D1012099
:1018700000E0002068B12068006820F01E002168A8
:1018800008602068406920F0800021684861256870
:1018900006E02068006820F00E00216808602568D6
:1018A000CA492068884270D0C849183120688842E7
:1018B0006BD0C64930312068884266D0C349483170
:1018C0002068884261D0C1496031206888425CD07C
:1018D000BE4978312068884257D0BC499031206891
:1018E000884252D0B949A831206888424DD0B849C1
:1018F0002068884249D0B64918312068884244D0CF
:10190000B3493031206888423FD0B149483120681E
:1019100088423AD0AE4960312068884235D0AC491F
:1019200078312068884230D0A949903120688842B7
:101930002BD0A749A8312068884226D0A549206825
:10194000884222D0A3491431206888421DD0A14981
:1019500028312068884218D09E493C31206888424E
:1019600013D09C495031206888420ED09949643187
:101970002068884209D0974978312068884204D08D
:1019800094498C312068884201D1012000E0002078
:1019900028B1206E006820F48070216E08608B49A9
:1019A0002068884249D0894918312068884244D04B
:1019B00086493031206888423FD0844948312068C8
:1019C00088423AD0814960312068884235D07F49C9
:1019D00078312068884230D07C4990312068884234
:1019E0002BD07A49A8312068884226D078492068CF
:1019F000884222D076491831206888421DD0744927
:101A000030312068884218D07149483120688842B6
:101A100013D06F496031206888420ED06C4978310C
:101A20002068884209D06A4990312068884204D0F1
:101A30006749A8312068884206D12068006820F0F4
:101A400001002168086005E02068006820F00100BE
:101A50002168086011E001F099FBA0EB080005285F
:101A60000BD920206065032084F8350000BF0020DA
:101A700084F8340000BF01209CE6286800F00100D3
:101A80000028E8D151492068884249D04F4918318F
:101A90002068884244D04D493031206888423FD088
:101AA0004A494831206888423AD048496031206824
:101AB000884235D0454978312068884230D0434942
:101AC0009031206888422BD04049A8312068884254
:101AD00026D03F492068884222D03D4918312068ED
:101AE00088421DD03A4930312068884218D03849A0
:101AF00048312068884213D03549603120688842D7
:101B00000ED0334978312068884209D0304990316D
:101B10002068884204D02E49A8312068884201D12B
:101B2000012000E0002040B1A66D94F85C0000F0B8
:101B30001F013F208840B06007E0A76D94F85C006B
:101B400000F01F0101208840786020492068884209
:101B500076D01E4918312068884271D01B49303137
:101B6000206888426CD0194948312068884267D083
:101B7000164960312068884262D014497831206863
:101B800088425DD0114990312068884258D00F4971
:101B9000A8312068884253D00D49206888424FD030
:101BA0000B491831206888424AD0094930312068F1
:101BB000884245D0064948312068884240D00449CF
:101BC0006031206888423BD0014905E010000240A6
:101BD00010040240085402587831206888422FD0FF
:101BE0002549206888422BD0234918312068884233
:101BF00026D022492068884222D02049143120680A
:101C000088421DD01D4928312068884218D01B49C0
:101C10003C312068884213D01849503120688842EE
:101C20000ED0164964312068884209D013497831B2
:101C30002068884204D011498C312068884201D143
:101C4000012000E0002068B1D4E919104860E06E7E
:101C500040B1E06E006820F48070E16E0860D4E965
:101C60001C104860012084F8350000BF002084F873
:101C7000340000BF00BF9DE5A00402400854025894
:101C800070B504460CB9012070BD94F835000228E7
:101C900003D0802060650120F6E7DC492068884297
:101CA00049D0DA4918312068884244D0D7493031C8
:101CB000206888423FD0D5494831206888423AD0D0
:101CC000D24960312068884235D0D04978312068C7
:101CD000884230D0CD499031206888422BD0CB4902
:101CE000A8312068884226D0C9492068884222D07D
:101CF000C7491831206888421DD0C5493031206855
:101D0000884218D0C24948312068884213D0C0495F
:101D10006031206888420ED0BD4978312068884201
:101D200009D0BB4990312068884204D0B849A83115
:101D30002068884201D1012000E00020F0B3042097
:101D400084F83500B149206888424BD0AF4918313A
:101D50002068884246D0AD4930312068884241D061
:101D6000AA494831206888423CD0A849603120689F
:101D7000884237D0A54978312068884232D0A349BB
:101D80009031206888422DD0A049A831206888422F
:101D900028D09F492068884224D09D491831206866
:101DA00088421FD09A493031206888421AD0984919
:101DB00048312068884215D0954900E020E0603124
:101DC000206888420ED0924978312068884209D034
:101DD0008F4990312068884204D08D49A83120680D
:101DE000884206D12068006820F001002168086060
:101DF00009E12068006820F001002168086002E124
:101E00002068006820F00E00216808607F49206883
:101E1000884249D07D4918312068884244D07B49A6
:101E20003031206888423FD0784948312068884264
:101E30003AD0764960312068884235D0734978318C
:101E40002068884230D071499031206888422BD078
:101E50006E49A8312068884226D06D4920688842A2
:101E600022D06B491831206888421DD06849303132
:101E70002068884218D0664948312068884213D0CB
:101E800063496031206888420ED06149783120680A
:101E9000884209D05E4990312068884204D05C496C
:101EA000A8312068884206D12068006820F001002F
:101EB0002168086005E02068006820F001002168C2
:101EC000086052492068884270D050491831206813
:101ED00088426BD04D4930312068884266D04B49EA
:101EE00048312068884261D0484960312068884282
:101EF0005CD0464978312068884257D043499031B8
:101F00002068884252D04149A831206888424DD08B
:101F10003F492068884249D03D49183120688842AD
:101F200044D03B493031206888423FD0384948315D
:101F3000206888423AD0364960312068884235D0DE
:101F4000334978312068884230D031499031206857
:101F500088422BD02E49A8312068884226D02D49AE
:101F60002068884222D02B491431206888421DD035
:101F7000284928312068884218D026493C312068F9
:101F8000884213D023495031206888420ED021491D
:101F900064312068884209D01E497831206888421F
:101FA00004D01C498C312068884201D1012000E016
:101FB0000020D8B1206E006820F48070216E086087
:101FC000A56D94F85C0000F01F0101208840686056
:101FD000D4E919104860E06E40B1E06E006820F46A
:101FE0008070E16E0860D4E91C104860012084F81C
:101FF000350000BF002084F8340000BF206D10B110
:102000002046216D884700203EE600001000024077
:102010001004024008540258F0B5044604F144028A
:10202000536952F823109669906908B90120F0BDF0
:10203000D06900B1761C002522E0086908604FF0E5
:102040008070C860486928B148698860C86840F0F5
:102050000070C860C86840F00040C860106A18B1DD
:10206000C86840F08040C860701EA84207D900BF11
:102070005B1C042B00D31B1F00BF52F823106D1CE8
:10208000B542DAD3206800F58050C0F8281100204E
:1020900090610027276600BFC9E7704730B5044646
:1020A0000D4604F1440050F825100AB1042D02D366
:1020B0000120606730BD0A600A61C86840F0807026
:1020C000C8602BB18B604B61C86840F00070C8607D
:1020D000C86840F00040C8600020EBE77047024647
:1020E00009B9012070471068006800F00C00C86250
:1020F00010680068C0F3001081F8280010680068BC
:1021000000F06000486210680068C0F3002080F0B2
:10211000010081F8200010680068C0F34020C877F3
:1021200010680068C0F3802080F001008877106894
:102130000068C0F3C020487710680068C0F3003022
:1021400008771068006800F4005088611068006823
:1021500000F48040486110680068C0F30040887453
:1021600010680068C0F3404080F0010048741068B7
:102170000068C0F3C04080F0010008741068006877
:10218000C0F30050C87310680068C0F340508873F3
:1021900010680068C0F38050487310680068C0F38E
:1021A000C05008731068006800F0E0608860106834
:1021B0000068C0F3C06008711068006800F0E0407B
:1021C000086010684068C0F30D00486310684068FC
:1021D000C0F3004080F0010081F8320010684068D0
:1021E000C0F3404081F8310010684068C0F380407F
:1021F00081F8300010684068C0F3006081F8380052
:1022000010684068C0F34460C8631068C068C0F3D9
:10221000002081F840001068C06800F00F0048649A
:102220001068006FC0F3400081F854001068006F20
:10223000C0F3C01080F0010081F84C001068006FFE
:1022400000F0700008651068006F000C886410686A
:10225000D0F8900000F0010081F856001068D0F826
:102260009000C0F3400081F855001068D0F8000DD0
:1022700000F0720088651068D0F8300D00F023007F
:10228000C8651068D0F8300DC0F3C00081F8620056
:102290001068D0F8300DC0F3001081F861001068AC
:1022A000D0F8300DC0F3801080F0010081F860009C
:1022B000002017E72DE9F84F05468A4605F1440747
:1022C000D7F814800020009057F8286054461CB9B5
:1022D00001206867BDE8F88FB86948B9284600F062
:1022E000DFF908B90120F5E7D7F8148057F828601E
:1022F0004FF0000B1CE03069206068696060706915
:1023000020B1A4687069206068696060F068C0F3FB
:102310000E00009000BF08F10108B8F1040F01D3CE
:10232000A8F1040800BF57F82860A4680BF1010B5E
:10233000B869401E5845DED8F068C0F30E01009819
:10234000A1EB0009306920606869484502D3C4F8F0
:1023500004900DE0706948B168696060A4687069B4
:1023600020606869A9EB0000606001E00120B1E72E
:102370000020AFE72DE9F04180460E4608F1440405
:102380006569A06930B9404600F08AF910B90120AA
:10239000BDE8F08100BFA069401E0544042D00D3B4
:1023A0002D1F00BF54F82570F868C0F30E00306090
:1023B0000020EDE710B50446206800F58050D0F805
:1023C000600100F04000402812D1206800F58050E4
:1023D000D0F8340100F04000402809D1204600F038
:1023E0009BFB48F24001206800F58050C0F8601166
:1023F000206800F58050D0F8600100F0010088B13D
:10240000206800F58050D0F8340100F0010048B198
:10241000204600F053FD48F20101206800F580508D
:10242000C0F86011206800F58050D0F8600100F419
:102430008040B0F5804F41D1206800F58050D0F841
:10244000340100F48040B0F5804F37D1606F40F028
:1024500008006067206800F58050D0F8600100F443
:102460008050B0F5805F17D1206800F58050D0F81B
:10247000600141F202110840A067206800F5805019
:10248000D0F8340120F44041206800F58050C0F8B5
:102490003411E020E0660EE0206800F58050D0F8AE
:1024A000600100F4CD40A0674FF4CD41206800F5F5
:1024B0008050C0F860112046FFF7EFFD2068D0F88B
:1024C000B00000F4C040B0F5C04F0AD12068D0F889
:1024D000B800E067E020E066204600F06AF90020DE
:1024E000E0672068D0F8B00000F0100010280CD190
:1024F0002068D0F8C00000F06000C4F880002046DA
:1025000000F0CCFA0020C4F880002068D0F8B000B9
:1025100000F0200020280CD12068D0F8C00000F086
:102520000F00C4F884002046FFF7D8FD0020C4F84F
:1025300084000648006800F4800030B14FF4800049
:1025400002490860204600F0BAFC10BDA8000058FF
:1025500038B504460CB9012038BDE06E10B92046EC
:1025600000F028F92320E06600BF4B48006840F0E7
:102570000200494908600846006800F00200009027
:1025800000BF00BF207A18B9002003F099F903E0DA
:102590004FF4000003F094F9206800F580500068C3
:1025A00040F00101206800F58050016000F0EEFD70
:1025B00005460BE000F0EAFD401BB0F5FA7F05D9B7
:1025C00004206067E020E0660120C5E7206800F590
:1025D0008050006800F001000028EBD12046FEF793
:1025E00047FC02F08DFA2D49B0FBF1F0401E216846
:1025F000C1F8DC002046FEF7B7FB206800F58050EC
:10260000D0F8000120F4E01040F40021206800F52B
:102610008050C0F80011207D00F0030028B1012097
:102620006067E020E066012096E7206800F58050B2
:10263000D0F8080147F6FE718843616940EA41011C
:10264000206800F58050C0F808112046FEF75BFBBB
:102650002046FEF728FB606800796168497940EA06
:1026600001202168C1F800036068C0780006616835
:10267000897840EA01406168497840EA0120616850
:10268000097808432168C1F804030020606710201E
:10269000E066206700205FE7F444025840420F00E4
:1026A000F0B5074607F14403196953F821200025C6
:1026B00000240026986908B10020F0BD3DE06D1CA3
:1026C000D06800F0805000B3641C012C00D10E468D
:1026D00000BF491C042900D3091F00BF53F8212063
:1026E000D06800F0004058B9D06800F0804038B1A0
:1026F0000120D86100BF491C042900D3091F00BF75
:1027000019615E619C610120D7E7D06800F000503C
:1027100050B10E46012400BF491C042900D3091FF3
:1027200000BF53F8212008E0641C00BF491C0429A5
:1027300000D3091F00BF53F82120D06800F00040EB
:1027400008B9042DBBD384B319615E61314653F8D7
:102750002120002522E0106910604FF08070D060C9
:10276000506928B150699060D06840F00070D06026
:10277000D06840F00040D060186A18B1D06840F0CE
:102780008040D060601EA84207D900BF491C0429C0
:1027900000D3091F00BF53F821206D1CA542DAD3D6
:1027A000386800F58050C0F828210020986100BFEB
:1027B00083E7704730B587B0054600BF00BFB34818
:1027C000006840F00100B14908600846006800F068
:1027D0000100019000BF00BF00BF00BF00BF08465E
:1027E000006840F0010008600846006800F0010041
:1027F000019000BF00BF00BF00BF00BF08460068D7
:1028000040F0010008600846006800F001000190F7
:1028100000BF00BF00BF00BF00BF0846006840F017
:10282000040008600846006800F00400019000BF42
:1028300000BF00BF00BF00BF0846006840F00400B2
:1028400008600846006800F00400019000BF00BF67
:1028500000BF00BF00BF0846006840F004000860E9
:102860000846006800F00400019000BF00BF00BFF0
:1028700000BF00BF0846006840F00200086008463C
:10288000006800F00200019000BF00BF00BF00BF61
:1028900000BF0846006840F0020008600846006873
:1028A00000F00200019000BF00BF00BF00BF00BFEA
:1028B0000846006840F0020008600846006800F022
:1028C0000200019000BF00BF00BF00BF00BF08466C
:1028D000006840F0010008600846006800F0010050
:1028E000019000BF00BF00BF00BF00BF08460068E6
:1028F00040F0020008600846006800F00200019005
:1029000000BF00BF00BF00BF60480838006840F447
:1029100000405E49083908600846006800F400403D
:10292000019000BF00BF00BF0846006840F480303F
:1029300008600846006800F48030019000BF00BFC6
:1029400000BF0846006840F4003008600846006890
:1029500000F40030019000BF00BF022002900390FD
:1029600000200490032005900B20069002A94848FF
:1029700000F0F0FA0420029002A9454800F0EAFABB
:102980008020029002A9424800F0E4FA022002905E
:1029900002A9404800F0DEFA1020029002A93D484A
:1029A00000F0D8FA2020029002A93A4800F0D2FAAA
:1029B0004FF40060029002A9374800F0CBFA4FF4C0
:1029C0008050029002A9344800F0C4FA4FF400503D
:1029D000029002A9304800F0BDFA012211022C48F1
:1029E00000F0C8FB4FF4807002900120039000209B
:1029F00004900220059002A9254800F0ABFA0022BD
:102A00000121254800F0B6FB012002900390002030
:102A100004900220059002A91F4800F09BFA11F0D3
:102A2000F6FC022006F05EFA044694B100BF0022D4
:102A30004FF48071164800F09DFB642004F0B2FE54
:102A400001221102124800F095FB642004F0AAFE56
:102A500010E000224FF480710D4800F08BFB6420E1
:102A600004F0A0FE01221102094800F083FB64205B
:102A700004F098FE11F0CDFC002207213D2000F06B
:102A800060FE3D2000F049FE07B030BDE044025832
:102A900000000258000802580004025870472DE94F
:102AA000F04704460F46904699462068D0F8000249
:102AB00000F0010010B10120BDE8F0872068D0F8D7
:102AC000005225F0787040EA475525F4F81040EAA6
:102AD000084545F00C0545F001052068C0F8005296
:102AE00000F054FB064607E000F050FB801BB0F5F9
:102AF0007A7F01D90120DFE72068D0F8000200F0DA
:102B000001000028F0D12068D0F8040280B2C9F892
:102B100000000020D0E7000038B5044600200090F7
:102B20006946094800681AF029F901280BD100BF4D
:102B3000009838B14FF0805004490860BFF34F8FC0
:102B4000BFF36F8F00BF38BD4801002404ED00E0E3
:102B500070B504460D460DB9012070BD206F1028D8
:102B600005D129462046FEF70FFC0020F5E701209D
:102B7000F3E7000070B506463068D0F8004224F450
:102B8000706401F0BDFF05461348854205D3134824
:102B9000854202D244F400741AE01048854205D3FD
:102BA0000F48854202D244F4407411E00C4885423B
:102BB00003D30C48854200D20AE00A48854205D377
:102BC0000948854202D244F4807401E044F48064F0
:102BD0003068C0F8004270BD002D3101C00E1602F1
:102BE0000087930300E1F50580D1F0080146C86E27
:102BF00010283FD12320C8660868006840F0020012
:102C00000A6810600868006840F001000A681060F7
:102C10000868D0F8000D40F001000A68C2F8000D05
:102C2000086800F58050D0F8040140F001020868FF
:102C300000F58050C0F80421086800F58050D0F8F5
:102C4000080140F00102086800F58050C0F8082132
:102C5000086800F58050D0F8600140F4817208687F
:102C600000F58050C0F860211020C8662220086757
:102C7000002070470120FCE710B50146C86E1028FF
:102C80005BD12320C866002208E001F1440050F81F
:102C90002230D86840F08040D860521C042AF4D317
:102CA00001244C660868006840F002000C6820604F
:102CB0000868006840F001000C6820600868D0F8DF
:102CC000000D40F001000C68C4F8000D086800F524
:102CD0008050D0F8040140F00104086800F58050ED
:102CE000C0F80441086800F58050D0F8080140F0B1
:102CF0000104086800F58050C0F80841086800F534
:102D00008050D0F8600140F48174086800F580506C
:102D1000C0F86041086800F58050D0F834014DF2E9
:102D2000410420430C6804F58054C4F83401102099
:102D3000C86622200867002010BD0120FCE710B5FE
:102D40000146C86E00284ED02320C866086800F5EA
:102D50008050D0F834014DF24104A0430C6804F5D2
:102D60008054C4F83401086800F58050D0F804019C
:102D700020F00104086800F58050C0F8044108689C
:102D800000F58050D0F8080120F00104086800F533
:102D90008050C0F808410868006820F001000C6805
:102DA00020600868D0F8000D40F001000C68C4F8FD
:102DB000000D0868006820F002000C682060002206
:102DC00008E001F1440050F82230D86820F080403B
:102DD000D860521C042AF4D300244C661020C86624
:102DE0000867002010BD0120FCE72DE9F0410446F2
:102DF0000F46154637B9606F40F00100606701204B
:102E0000BDE8F081E06E102856D1002239462046F8
:102E1000FEF79CF828B1606F40F002006067012067
:102E2000EEE704F11800A16A50F8218000BFA06A03
:102E3000401CA062A06A042802D3A06A001FA062FE
:102E400000BF04F11800A16A50F82110206800F5B5
:102E50008050C0F8201100F099F9064625E020685E
:102E600000F58050D0F8600100F4805068B1606FC8
:102E700040F008006067206800F58050D0F86001DD
:102E8000A067E020E0660120BAE7681C68B100F0A6
:102E90007DF9801BA84200D83DB9606F40F0040066
:102EA0006067E020E0660120AAE7D8F80C0000F097
:102EB00000400028D3D1A3E70120A1E77047704765
:102EC0002DE9F04705460F46904699462868D0F808
:102ED000000200F0010010B10120BDE8F087286871
:102EE000D0F8004224F0787040EA475424F4F810F7
:102EF00040EA084424F00C00041D44F001041FFAC9
:102F000089F00D4908600D48C0F8004200F03EF914
:102F1000064607E000F03AF9801BB0F57A7F01D948
:102F20000120DAE72868D0F8000200F0010000284C
:102F3000F0D100BFD1E700000482024000800240CF
:102F40000348006840F00100014908607047000034
:102F500020040058F8B502460B4600216F4DD7E01B
:102F600001278F401E6806EA0704002C72D01E79E4
:102F700006F00306012E04D01E7906F00306022E89
:102F800013D190684F000326BE40B0434F00DE6867
:102F9000BE4030439060506801268E40B0431E7999
:102FA000C6F300168E40304350601E7906F00306CB
:102FB000032E09D0D0684F000326BE40B0434F0017
:102FC0009E68BE403043D0601E7906F00306022E94
:102FD00013D1CF0802F1200656F827004E07F70E4E
:102FE0000F26BE40B0434F07FF0E1E69BE40304360
:102FF000CF0802F1200646F8270010684F0003268C
:10300000BE40B0431E7906F003064F00BE40304379
:1030100010605E6806F44036002E78D000BF404E47
:10302000366846F002063E4F3E603E46366806F081
:103030000206009600BF00BF3A4E8F0856F82700E0
:103040008E07370F0F26BE40B043374EB24202D133
:1030500000262EE05BE0354EB24201D1012628E089
:10306000334EB24201D1022623E0324EB24201D1A8
:1030700003261EE0304EB24201D1042619E02F4E45
:10308000B24201D1052614E02D4EB24201D10626EE
:103090000FE02C4EB24201D107260AE02A4EB2427E
:1030A00001D1082605E0294EB24201D1092600E0EF
:1030B0000A268F073F0FBE4030431A4E8F0846F84E
:1030C00027004FF0B0463068A0435E6806F48016D3
:1030D00006B120434FF0B04630607068A0435E6890
:1030E00006F4001606B120434FF0B04670606868E1
:1030F000A0435E6806F4003606B120436860286885
:10310000A0435E6806F4803606B120432860491C5F
:103110001E68CE40002E7FF423AFF8BD800000581B
:10312000F4440258080400580000025800040258F1
:1031300000080258000C02580010025800140258EF
:1031400000180258001C025800200258002402589F
:10315000024613690B400BB1012000E000207047CC
:1031600010B5426921EA020302EA010443EA04437A
:10317000836110BD0AB1816101E00B048361704776
:1031800001480068000C70470010005C01480068AE
:1031900070470000200000240348006803490978B4
:1031A00008440149086070472000002428000024DA
:1031B00010B5032000F002FB01F0ECFC1049096897
:1031C000C1F303210F4A515C01F01F0120FA01F401
:1031D0000B48006800F00F001146085C00F01F006B
:1031E00024FA00F008490860084804600F2000F045
:1031F0000FF808B1012010BD00F08EFA0020FAE7A8
:103200001844025892DB0108040000240000002446
:1032100070B504461148007808B9012070BD0F4808
:1032200000784FF47A71B1FBF0F00D490968B1FBF9
:10323000F0F5284602F062FB08B10120EEE7102C01
:1032400007D200222146501E00F07BFA0548046098
:1032500001E00120E2E70020E0E700002800002470
:10326000000000242400002470B504460E461546D4
:1032700000BF94F8A000012801D1022070BD0120F8
:1032800084F8A00000BF022084F8A10005EB8501AE
:1032900001EBC50204F1380101EB82003422314612
:1032A000FDF7A2FB2A463146204602F09AFE012095
:1032B0002168486284F8A10000BF002084F8A000C3
:1032C00000BF00BFDAE7000070B504460CB901206A
:1032D00070BD94F8A10028B9002084F8A000204611
:1032E00000F07EF8022084F8A1002068806920F0B8
:1032F000704021688861D4E901010843E16808430E
:103300002169084321688969084321688861206828
:1033100080683249084021688860A08A05042068D6
:103320008068A16929430843216888602068C068D3
:103330002A4908402168C860A08B05042068C0683D
:10334000216A294308432168C8602068006923492D
:10335000084021680861A08C050420680069A16A02
:103360002943084321680861206840691B490840D7
:1033700021684861A08D050420684069216B2943BC
:1033800008432168486194F83500050294F8360036
:1033900006042068C06A00F07F402168C86246EADF
:1033A000050094F8341008432168C96A084321686D
:1033B000C8622068406B40F00600216848632068BE
:1033C000806940F00100216888610020C4F8A400F1
:1033D000012084F8A10000207AE7000000F800F046
:1033E00010B586B0044600BF5D48006840F0080094
:1033F0005B4908600846006800F00800009000BFC4
:1034000000BF00BF56481038006840F01000544913
:10341000103908600846006800F01000009000BFF6
:1034200000BF00BF00BF4E48001F006840F0020010
:103430004B49091F08600846006800F00200009030
:1034400000BF00BF00BF00BF00BF0846006840F0DB
:10345000200008600846006800F02000009000BFCF
:1034600000BF00BF00BF00BF0846006840F4807086
:1034700008600846006800F48070009000BF00BF3C
:1034800000BF00BF00BF0846006840F480700860BD
:103490000846006800F48070009000BF00BF00BFC5
:1034A00000BF00BF0846006840F0400008600846C2
:1034B000006800F04000009000BF00BF00BF00BFE8
:1034C0000846006840F0800008600846006800F088
:1034D0008000009000BF00BF2020019001200290DA
:1034E00003900320049001A91E48FFF733FD4FF419
:1034F000806001900220029000200390032004903D
:103500000E20059001A91848FFF724FD4FF4007024
:10351000019001A91548FFF71DFD4FF4806001904F
:1035200001A91248FFF716FD8020019001A910485B
:10353000FFF710FD4FF40460019001A90C48FFF75C
:1035400009FD4FF47E40019001A90A48FFF702FDF2
:10355000F720019001A90548FFF7FCFC06B010BD5B
:10356000E444025800040258001402580020025893
:1035700000180258001C02582DE9F04104460E467E
:103580001746984600BF94F8A000012802D10220F7
:10359000BDE8F081012084F8A00000BF022084F87B
:1035A000A10008EB880000EBC80104F1380000EB33
:1035B00081052E60A86A30446860AF60E86A3844CC
:1035C000E86042462946204602F00BFD01202168B2
:1035D000486284F8A10000BF002084F8A00000BF6A
:1035E00000BFD5E72DE9F04104460E461746984640
:1035F00000BF94F8A000012802D10220BDE8F081AC
:10360000012084F8A00000BF022084F8A10008EB8C
:10361000880000EBC80104F1380000EB8105286840
:1036200030446860A8683844E860AE62EF624246A1
:103630002946204602F0D5FC01202168486284F822
:10364000A10000BF002084F8A00000BF00BFD5E7A4
:103650004178154A11600178F9B1121D4168116075
:10366000017B0907C27A41EA0261827A41EAC241DA
:10367000427B41EA8241827B41EA4241C27B41EA8C
:103680000241427A41EA0221027A41EA4201027889
:103690001143054A0832116005E00021024A121D5B
:1036A0001160121D1160704798ED00E000BF00BF6F
:1036B00000BFBFF35F8F00BF00BF00BF05480068B9
:1036C00020F480300349086000200249703108600E
:1036D0007047000024ED00E040F001010D4A116048
:1036E0000C497039096841F480310A4A703A116016
:1036F00000BF00BF00BFBFF34F8F00BF00BF00BFC0
:1037000000BF00BF00BFBFF36F8F00BF00BF00BF8F
:103710007047000094ED00E070470146084600281D
:103720000DDB00BF00BF00F01F0301229A404309D8
:103730009B0003F1E023C3F8002100BF00BF00BFDE
:1037400070472DE9F05F80460D46164603F020FFD6
:10375000074639462A46334601F00700C0F1070AFA
:10376000BAF1040F02D94FF0040A01E0C0F1070AD0
:10377000D14600F1040ABAF1070F02D24FF0000A55
:1037800001E0A0F1030AD4464FF0010A0AFA09FA4F
:10379000AAF1010A0AEA020A0AFA0CFA4FF0010B2E
:1037A0000BFA0CFBABF1010B0BEA030B4AEA0B041F
:1037B0002146404603F0F4FEBDE8F09F00BF00F054
:1037C0000702064B19684FF6FF031940044B0B43E1
:1037D00043EA0221014B196000BF70470CED00E085
:1037E0000000FA050348006840F080700149086055
:1037F000704700000C48025810B501F081F90549E6
:103800000968C1F30211044A515C01F01F01C8406C
:1038100010BD00002044025892DB010870B501463B
:10382000844D2D6805F00303824D2D68C5F30530E6
:10383000804D2D1D2D68C5F300147E4D14352D6867
:10384000C5F3CC0515FB04F501EE105AB8EE411A8C
:10385000F0EE410A00286FD023B1012B4ED0022B8D
:103860006BD16BE0734D283D2D68C5F340153DB31A
:10387000704D283D2D68C5F3C1066F4D25FA06F23F
:1038800001EE102AF8EE411A01EE100AB8EE411AC4
:1038900081EE812A9FED691AC0EE811A654D1035BF
:1038A0002D68C5F3080501EE105AB8EE411A31EE45
:1038B000811AF7EE001A31EE211A22EE010A1CE0FD
:1038C00001EE100AB8EE411ADFED5D1A81EE812A91
:1038D0009FED5A1AC0EE811A564D10352D68C5F36A
:1038E000080501EE105AB8EE411A31EE811AF7EED2
:1038F000001A31EE211A22EE010A5BE001EE100AF5
:10390000B8EE411ADFED4F1A81EE812A9FED4B1A76
:10391000C0EE811A474D10352D68C5F3080501EE3C
:10392000105AB8EE411A31EE811AF7EE001A31EE54
:10393000211A22EE010A3DE077E01DE001EE100AB7
:10394000B8EE411A9FED402AC2EE011A9FED3B1AD4
:1039500080EE812A374D10352D68C5F3080501EE3C
:10396000105AB8EE411A32EE011AB7EE002A31EEC3
:10397000021A21EE810A1DE001EE100AB8EE411A8A
:10398000DFED301A81EE812A9FED2C1AC0EE811AEC
:10399000284D10352D68C5F3080501EE105AB8EE14
:1039A000411A31EE811AF7EE001A31EE211A22EE99
:1039B000010A00BF00BF1F4D10352D68C5F3462515
:1039C00001EE105AB8EE411AF7EE001A31EE211A44
:1039D000C0EE011ABCEEE11A81ED001A154D10354A
:1039E0002D68C5F3064501EE105AB8EE411AF7EE00
:1039F000001A31EE211AC0EE011ABCEEE11A81ED77
:103A0000011A0C4D10352D68C5F3066501EE105AEC
:103A1000B8EE411AF7EE001A31EE211AC0EE011A83
:103A2000BCEEE11A81ED021A03E000250D604D6045
:103A30008D6070BD284402580090D00300000046FD
:103A40000024744C0024744A20BCBE4B70B501465F
:103A5000844D2D6805F00303824D2D68C5F3055094
:103A6000804D2D1D2D68C5F300247E4D1C352D681D
:103A7000C5F3CC0515FB04F501EE105AB8EE411A5A
:103A8000F0EE410A00286FD023B1012B4ED0022B5B
:103A90006BD16BE0734D283D2D68C5F340153DB3E8
:103AA000704D283D2D68C5F3C1066F4D25FA06F20D
:103AB00001EE102AF8EE411A01EE100AB8EE411A92
:103AC00081EE812A9FED691AC0EE811A654D183585
:103AD0002D68C5F3080501EE105AB8EE411A31EE13
:103AE000811AF7EE001A31EE211A22EE010A1CE0CB
:103AF00001EE100AB8EE411ADFED5D1A81EE812A5F
:103B00009FED5A1AC0EE811A564D18352D68C5F32F
:103B1000080501EE105AB8EE411A31EE811AF7EE9F
:103B2000001A31EE211A22EE010A5BE001EE100AC2
:103B3000B8EE411ADFED4F1A81EE812A9FED4B1A44
:103B4000C0EE811A474D18352D68C5F3080501EE02
:103B5000105AB8EE411A31EE811AF7EE001A31EE22
:103B6000211A22EE010A3DE077E01DE001EE100A85
:103B7000B8EE411A9FED402AC2EE011A9FED3B1AA2
:103B800080EE812A374D18352D68C5F3080501EE02
:103B9000105AB8EE411A32EE011AB7EE002A31EE91
:103BA000021A21EE810A1DE001EE100AB8EE411A58
:103BB000DFED301A81EE812A9FED2C1AC0EE811ABA
:103BC000284D18352D68C5F3080501EE105AB8EEDA
:103BD000411A31EE811AF7EE001A31EE211A22EE67
:103BE000010A00BF00BF1F4D18352D68C5F34625DB
:103BF00001EE105AB8EE411AF7EE001A31EE211A12
:103C0000C0EE011ABCEEE11A81ED001A154D18350F
:103C10002D68C5F3064501EE105AB8EE411AF7EECD
:103C2000001A31EE211AC0EE011ABCEEE11A81ED44
:103C3000011A0C4D18352D68C5F3066501EE105AB2
:103C4000B8EE411AF7EE001A31EE211AC0EE011A51
:103C5000BCEEE11A81ED021A03E000250D604D6013
:103C60008D6070BD284402580090D00300000046CB
:103C70000024744C0024744A20BCBE4B2DE9F04152
:103C800004460025A846206800F00060B0F1006FEF
:103C900030D1606E48B1B0F5801F0DD0B0F5001F77
:103CA00010D0B0F5401F15D113E0F948006840F47A
:103CB0000030F74908600FE00221201D02F0C8FA29
:103CC000054609E0022104F1240002F073FB0546D9
:103CD00002E001E0012500BF00BF55B9EC482430E7
:103CE000006820F44010616E0843E94924310860FF
:103CF00000E0A846208800F48070B0F5807F2DD1C8
:103D0000606D05281AD2DFE800F0030A10171800CA
:103D1000DF48006840F40030DD49086010E0002111
:103D2000201D02F095FA05460AE0002104F1240066
:103D300002F040FB054603E002E001E0012500BF80
:103D400000BF55B9D2482430006820F00700616DEB
:103D50000843CF492431086000E0A846208800F4D9
:103D60000070B0F5007F33D1A06D802817D003DC40
:103D700040B140281CD10CE0C02817D0B0F5807F9E
:103D800016D114E0C248006840F40030C049086011
:103D900010E00021201D02F05BFA05460AE0002138
:103DA00004F1240002F006FB054603E002E001E016
:103DB000012500BF00BF55B9B5482430006820F484
:103DC000E070A16D0843B2492431086000E0A846C4
:103DD000208800F48060B0F5806F38D1D4F8A4005A
:103DE000B0F5800F19D004DC50B1B0F5001F1DD123
:103DF0000DE0B0F5C00F17D0B0F5000F16D114E0EC
:103E0000A348006840F40030A149086010E0002198
:103E1000201D02F01DFA05460AE0002104F12400ED
:103E200002F0C8FA054603E002E001E0012500BF08
:103E300000BF5DB996482C30006820F46000D4F8CB
:103E4000A410084392492C31086000E0A84620885D
:103E500000F40060B0F5006F38D1D4F8A800B0F1DC
:103E6000007F19D004DC50B1B0F1807F1DD10DE08E
:103E7000B0F1407F17D0B0F1806F16D114E08448C4
:103E8000006840F400308249086010E00021201DE5
:103E900002F0DEF905460AE0002104F1240002F0F8
:103EA00089FA054603E002E001E0012500BF00BFFA
:103EB0005DB977482C30006820F0E060D4F8A81095
:103EC000084373492C31086000E0A846206800F0E0
:103ED0000070B0F1007F27D1A06CA0B1102804D0F1
:103EE000202809D030280FD10CE06948006840F440
:103EF00000306749086009E00221201D02F0A8F99E
:103F0000054603E002E001E0012500BF00BF55B90E
:103F10005F482030006820F03000A16C08435C4905
:103F20002031086000E0A846208800F48050B0F5F9
:103F3000805F36D1E06DB0F5005F19D004DC50B180
:103F4000B0F5805F1DD10DE0B0F5405F17D0B0F542
:103F5000804F16D114E04E48006840F400304C49C0
:103F6000086010E00021201D02F072F905460AE009
:103F7000002104F1240002F01DFA054603E002E0EE
:103F800001E0012500BF00BF55B941482430006859
:103F900020F4E040E16D08433D492431086000E031
:103FA000A846208800F40050B0F5005F34D1206EA0
:103FB000B0F5403F1DD007DC68B1B0F5803F0BD0B5
:103FC000B0F5003F18D10DE0B0F5802F12D0B0F55C
:103FD000A02F11D10FE011E00121201D02F038F9CE
:103FE00005460BE0012104F1240002F0E3F9054647
:103FF00004E003E002E001E0012500BF00BF55B985
:1040000023482430006820F4E020216E0843204932
:104010002431086000E0A846208800F48040B0F514
:10402000804F38D1D4F8AC00B0F1405F1DD007DC30
:1040300068B1B0F1805F0BD0B0F1005F18D10DE036
:10404000B0F1804F12D0B0F1A04F11D10FE011E0CC
:104050000121201D02F0FCF805460BE0012104F1CE
:10406000240002F0A7F9054604E003E002E001E0C5
:10407000012500BF00BF6DB905482C30006820F055
:10408000E040D4F8AC10084301492C31086002E04C
:104090002C440258A846208800F40040B0F5004F98
:1040A00026D1E06E98B1B0F1805F03D0B0F1005F2F
:1040B0000ED106E0F948006840F40030F749086086
:1040C00008E00121201D02F0C3F8054602E001E0EE
:1040D000012500BF00BF55B9F0482430006820F02A
:1040E0004050E16E0843ED492431086000E0A846E5
:1040F000206800F08070B0F1807F27D1606CA0B1A3
:10410000012804D0022809D003280FD10CE0E3488D
:10411000006840F40030E149086009E00221201DF8
:1041200002F096F8054603E002E001E0012500BF39
:1041300000BF55B9D9482030006820F00300616CF9
:104140000843D6492031086000E0A846206800F402
:104150008000B0F5800F7DD1D148006840F48070B8
:10416000CF490860FFF712F8064606E0FFF70EF8A1
:10417000801B642801D9032505E0C948006800F4C4
:1041800080700028F2D000BF85BBC448443000686E
:1041900000F44070B4F8B01001F44071884213D0BC
:1041A000BE484430006820F44077BC484430006882
:1041B00040F48030B949443108600846006820F472
:1041C0008030086008460760D4F8B000B0F5807F02
:1041D00015D1FEF7DBFF064609E0FEF7D7FF801B8F
:1041E00041F28831884202D9032507E038E0AB4824
:1041F00044300068C0F340000028EED000BF55BB3B
:1042000000BFB4F8B00000F44070B0F5407F0ED1AC
:10421000A2481C38006820F47C51A24AD4F8B000AF
:10422000104041EA10109D491C39086007E09B4886
:104230001C38006820F47C5098491C390860974865
:1042400044300068B4F8B010C1F30B01084393493F
:10425000443101E005E001E0086002E0A84600E02A
:10426000A846207800F0010068B3A06F182819D084
:1042700005DC48B1082808D0102816D10BE020280A
:1042800011D0282811D10FE011E00121201D01F0EB
:10429000DFFF05460BE0012104F1240002F08AF85B
:1042A000054604E003E002E001E0012500BF00BF95
:1042B00055B97A482830006820F03800A16F0843CB
:1042C00076492831086000E0A846207800F0020016
:1042D000022828D1606F062815D2DFE800F0030419
:1042E0000A11121311E00121201D01F0B1FF054652
:1042F0000BE0012104F1240002F05CF8054604E023
:1043000003E002E001E0012500BF00BF55B96348AA
:104310002830006820F00700616F08435F492831AA
:10432000086000E0A846207800F0040004282AD1A4
:10433000D4F89000062815D2DFE800F003040A1133
:10434000121311E00121201D01F082FF05460BE050
:10435000012104F1240002F02DF8054604E003E0F9
:1043600002E001E0012500BF00BF5DB94B482C30E1
:10437000006820F00700D4F89010084347492C311A
:10438000086000E0A846207800F02000202836D100
:10439000D4F88C00B0F1405F1DD007DC68B1B0F1FB
:1043A000805F0BD0B0F1005F18D10DE0B0F1804F0D
:1043B00012D0B0F1A04F11D10FE011E00021201D6B
:1043C00001F046FF05460BE0022104F1240001F054
:1043D000F1FF054604E003E002E001E0012500BF33
:1043E00000BF5DB92D482830006820F0E040D4F8C7
:1043F0008C10084329492831086000E0A84620783D
:1044000000F04000402836D1D4F89800B0F5406F55
:104410001DD007DC68B1B0F5806F0BD0B0F5006F30
:1044200018D10DE0B0F5805F12D0B0F5A05F11D1CA
:104430000FE011E00021201D01F00AFF05460BE00E
:10444000022104F1240001F0B5FF054604E003E079
:1044500002E001E0012500BF00BF5DB90F482C302C
:10446000006820F4E050D4F8981008430B492C3130
:10447000086000E0A846207800F0800080283AD14B
:10448000D4F89C00B0F5C04F23D00DDC98B1B0F546
:10449000005F11D0B0F5804F1ED113E02C440258BC
:1044A00000480258FFFCFF0FB0F5004F12D0B0F5E6
:1044B000204F11D10FE011E00021201D01F0C8FEB6
:1044C00005460BE0022104F1240001F073FF0546CC
:1044D00004E003E002E001E0012500BF00BF4DB9A8
:1044E000BE48006820F46040D4F89C100843BB49E3
:1044F000086000E0A846207800F00800082817D1DE
:10450000D4F88000B0F5805F07D1022104F12400C7
:1045100001F050FF08B14FF00108B048001F0068DB
:1045200020F44050D4F880100843AC49091F0860BB
:10453000207800F01000102815D1D4F89400B0F5C0
:10454000807F07D1022104F1240001F033FF08B17C
:104550004FF00108A148006820F44070D4F894108E
:1045600008439E490860206800F40020B0F5002F41
:1045700026D1D4F8A00030B1B0F5803F09D0B0F515
:10458000003F0ED10CE00021201D01F061FE054628
:1045900009E0022104F1240001F00CFF054602E0CD
:1045A00001E0012500BF00BF4DB98C48006820F430
:1045B0004030D4F8A01008438849086000E0A846BD
:1045C000206800F48020B0F5802F2DD1D4F884002D
:1045D000B0F5801F06D0B0F5001F0CD0B0F5401F1D
:1045E00011D10FE07D482C38006840F400307B4941
:1045F0002C39086009E0012104F1240001F0DAFE01
:10460000054602E001E0012500BF00BF5DB9734827
:10461000001F006820F44010D4F8841008436F494C
:10462000091F086000E0A846206800F48030B0F55B
:10463000803F24D1E06C18B1B0F5803F0FD108E085
:1046400066482C38006840F4003064492C39086012
:1046500007E00221201D01F0FBFD054601E00125D8
:1046600000BF00BF55B95D480C38006820F48030A9
:10467000E16C084359490C39086000E0A8462068FD
:1046800000F00050B0F1005F07D1022104F12400D6
:1046900001F090FE08B14FF00108206800F40030EE
:1046A000B0F5003F27D1E06FA0B1B0F5807F06D014
:1046B000B0F5007F0CD0B0F5407F0CD109E0474841
:1046C0002C38006840F4003044492C39086004E07C
:1046D00003E002E001E0012500BF00BF55B93F48FB
:1046E000001F006820F44070E16F08433B49091F38
:1046F000086000E0A846206800F48010B0F5801F34
:1047000009D136480838006820F00040216F08437E
:10471000324908390860206800F08050B0F1805FAD
:104720000AD12E484838006820F48040D4F8B410EC
:1047300008432A4948390860206800F40010B0F5A1
:10474000001F09D125480838006820F08070A16E4C
:104750000843224908390860206800F08040B0F121
:10476000804F11D100BF1D484838006820F4004038
:104770001A494839086008460068D4F8B810084358
:1047800016494839086000BF206800F00040B0F1C9
:10479000004F09D111480C38006820F04050216DBD
:1047A00008430E490C390860206800F40000B0F599
:1047B000000F0AD10948001F006820F44000D4F817
:1047C000881008430549091F0860B8F1000F02D19D
:1047D0000020BDE8F0810120FBE7000058440258AA
:1047E0002DE9F04104460D4614B90120BDE8F081E1
:1047F000BD48006800F00F00A8420ED2BA48006819
:1048000020F00F002843B84908600846006800F00F
:104810000F00A84201D00120E8E7207800F0040052
:1048200004280ED1B1492069096801F0700188425D
:1048300007D9AE48006820F0700021690843AB49F1
:104840000860207800F00800082811D1A749091D48
:104850006069096801F07001884209D9A348001D08
:10486000006820F0700061690843A049091D0860D4
:10487000207800F01000102811D19C49091DA06972
:10488000096801F4E061884209D99848001D006870
:1048900020F4E060A16908439449091D086020786C
:1048A00000F02000202811D190490831E069096802
:1048B00001F07001884209D98C480830006820F066
:1048C0007000E1690843894908310860207800F0E8
:1048D000020002280ED18549E068096801F00F0145
:1048E000884207D98148006820F00F00E16808433A
:1048F0007E490860207800F00100002850D07B48F5
:10490000006820F47060A168084378490860606816
:10491000022807D1754818380068C0F34040F8B93C
:10492000012063E76068032807D1704818380068E1
:10493000C0F34060A0B9012058E76068012807D1A2
:104940006A4818380068C0F3002048B901204DE7D4
:10495000664818380068C0F3800008B9012045E7B0
:1049600062480838006820F00700616808435F4922
:1049700008390860FEF70AFC064608E0FEF706FC68
:10498000801B41F28831884201D903202EE7574825
:104990000838006800F038006168B0EBC10FEDD155
:1049A000207800F0020002280ED15049E068096822
:1049B00001F00F01884207D24C48006820F00F0038
:1049C000E1680843494908604748006800F00F0063
:1049D000A8420ED94448006820F00F0028434249FD
:1049E00008600846006800F00F00A84201D00120CE
:1049F000FCE6207800F0040004280ED13B49206931
:104A0000096801F07001884207D23848006820F038
:104A100070002169084335490860207800F00800DB
:104A2000082811D13149091D6069096801F0700138
:104A3000884209D22D48001D006820F0700061698D
:104A400008432A49091D0860207800F0100010284A
:104A500011D12649091DA069096801F4E061884265
:104A600009D22248001D006820F4E060A1690843D3
:104A70001E49091D0860207800F02000202811D16F
:104A80001A490831E069096801F07001884209D2C9
:104A900016480830006820F07000E16908431349A7
:104AA0000831086000F076F810490968C1F3032165
:104AB0000F4A515C01F01F0120FA01F70B48006812
:104AC00000F00F001146085C00F01F0027FA00F00C
:104AD000084908600848076008480068FEF798FB26
:104AE0008046404682E600000020005218440258EA
:104AF00092DB0108040000240000002424000024AC
:104B000010B500F047F80D490968C1F303210C4ABC
:104B1000515C01F01F0120FA01F40848006800F020
:104B20000F001146085C00F01F0024FA00F0054950
:104B30000860054804600846006810BD1844025823
:104B400092DB0108040000240000002400B5FFF7F8
:104B5000D7FF05490968C1F30211044A515C01F00D
:104B60001F01C84000BD00001C44025892DB010830
:104B700000B5FFF7C5FF05490968C1F30221044AE2
:104B8000515C01F01F01C84000BD00001C440258E8
:104B900092DB0108F0B5824E366806F0380636B171
:104BA000082E15D0102E15D0182E7DD114E07C4E75
:104BB000103E3668C6F3401646B1794E103E366850
:104BC000C6F3C107774E26FA07F000E07548E5E026
:104BD0007548E3E07548E1E0714E1836366806F036
:104BE00003046F4E18363668C6F305116C4E1C363A
:104BF000366806F001056A4E24363668C6F3CC06E0
:104C000016FB05F601EE106AB8EE410A002971D0D4
:104C100024B1012C50D0022C6DD16DE0604E103EBD
:104C20003668C6F340163EB35D4E103E3668C6F396
:104C3000C1075C4E26FA07F301EE103AF8EE411A6E
:104C400001EE101AB8EE411A81EE812A9FED581A32
:104C5000C0EE011A524E20363668C6F3080601EE41
:104C6000106AB8EE411A31EE811AF7EE001A31EEF1
:104C7000211A62EE010A1EE001EE101AB8EE411A86
:104C8000DFED4C1A81EE812A9FED491AC0EE011A20
:104C9000434E20363668C6F3080601EE106AB8EEB9
:104CA000411A31EE811A00E076E0F7EE001A31EE9B
:104CB000211A62EE010A5BE001EE101AB8EE411A09
:104CC0009FED3D2AC2EE011A9FED391A80EE012AAE
:104CD000334E20363668C6F3080601EE106AB8EE89
:104CE000411A32EE011AB7EE002A31EE021A61EED5
:104CF000810A3DE04EE01DE001EE101AB8EE411AC7
:104D0000DFED2E1A81EE812A9FED291AC0EE011ADD
:104D1000234E20363668C6F3080601EE106AB8EE58
:104D2000411A31EE811AF7EE001A31EE211A62EEC5
:104D3000010A1DE001EE101AB8EE411A9FED1E2A7D
:104D4000C2EE011A9FED1A1A80EE012A144E203687
:104D50003668C6F3080601EE106AB8EE411A32EE64
:104D6000011AB7EE002A31EE021A61EE810A00BF85
:104D700000BF0B4E20363668C6F34626721C01EE85
:104D8000102AB8EE411AC0EE811ABCEEE11A11EEFB
:104D9000100A00E0002001E0034800BF00BFF0BDA2
:104DA000104402580090D00300093D0040787D0176
:104DB000000000460024744C0024744A20BCBE4B02
:104DC0002DE9F047044614B90120BDE8F0872078AA
:104DD00000F00100002872D0FC48006800F038089C
:104DE000FA481830D0F80090B8F1100F06D0B8F19A
:104DF000180F0FD109F0030002280BD1F348103827
:104E00000068C0F3404000286ED0606800286BD175
:104E10000120DAE700BF6068B0F5803F08D1EB48B9
:104E20001038006840F48030E849103908602EE0FE
:104E3000606868B9E5481038006820F48030E349BC
:104E4000103908600846006820F4802008601EE0E1
:104E50006068B0F5A02F0DD1DC481038006840F430
:104E60008020DA49103908600846006840F4803034
:104E700008600CE0D5481038006820F48030D34931
:104E8000103908600846006820F48020086000BFE0
:104E90006068A8B1FEF77AF9054608E0FEF776F9F2
:104EA000401B41F28831884201D903208DE7C74871
:104EB00010380068C0F340400028EFD014E014E040
:104EC000FEF764F9054608E0FEF760F9401B41F281
:104ED0008831884201D9032077E7BC481038006840
:104EE000C0F340400028EFD100BF207800F002005E
:104EF000022874D1B548006800F03808B34818306B
:104F0000D0F80090B8F1000F05D0B8F1180F56D1C5
:104F100009F00300D0BBAD4810380068C0F3800032
:104F200018B1E06808B901204FE7A84810380068B8
:104F300020F01900E1680843A44910390860FEF721
:104F400025F9054606E0FEF721F9401B022801D9A4
:104F500003203AE79D4810380068C0F3800000281D
:104F6000F1D000BFFEF70CF941F2030188421AD8D4
:104F7000206940280BD195480C38006820F47C301B
:104F800040F4003091490C39086017E017E08F4871
:104F90000C38006820F47C30216940EA01308B49EC
:104FA0000C3908600AE089480C38006820F0FE409F
:104FB000217C40EA016085490C39086066E0E068C0
:104FC00088B382481038006820F01900E16808436F
:104FD0007E4910390860FEF7D9F8054607E056E02B
:104FE000FEF7D4F8401B022801D90320EDE67748EC
:104FF00010380068C0F380000028F1D000BFFEF731
:10500000BFF841F2030188421AD8206940280BD129
:105010006E480C38006820F47C3040F400306B4956
:105020000C39086017E017E068480C38006820F475
:105030007C30216940EA013064490C3908600AE09B
:1050400062480C38006820F0FE40217C40EA016094
:105050005E490C39086019E05C481038006820F09F
:1050600001005A4910390860FEF790F8054606E03D
:10507000FEF78CF8401B022801D90320A5E653480F
:1050800010380068C0F380000028F1D100BF2078FC
:1050900000F0100010287CD14C48006800F038085F
:1050A0004A481830D0F80090B8F1080F06D0B8F18F
:1050B000180F3DD109F00300012839D143481038B9
:1050C0000068C0F3002020B1E069802801D00120F1
:1050D0007BE600BFFEF754F841F2030188421AD87C
:1050E000206A20280AD139480C38006820F0F8409E
:1050F00040F0804035490C39086018E033480C38DE
:10510000006820F0F84094F8201040EA81602F49B0
:105110000C3908600BE02D48001F006820F07C501F
:1051200094F8201040EA01602849091F086066E0F1
:10513000E06978B325481038006840F080002349C2
:1051400010390860FEF722F8054606E0FEF71EF863
:10515000401B022801D9032037E61C48103800689C
:10516000C0F300200028F1D000BFFEF709F841F29B
:10517000030188421CD8206A20280CD113480C381F
:10518000006820F0F84040F0804010490C39086079
:105190001AE035E01CE00D480C38006820F0F840BB
:1051A00094F8201040EA816008490C3908600BE04F
:1051B0000648001F006820F07C5094F8201040EA58
:1051C00001600249091F086019E0000010440258FC
:1051D000FA48006820F08000F8490860FDF7D6FF23
:1051E000054606E0FDF7D2FF401B022801D9032047
:1051F000EBE5F2480068C0F300200028F2D100BFC0
:10520000207800F00800082836D16069D0B1EB485A
:105210007430006840F00100E84974310860FDF71F
:10522000B5FF054606E0FDF7B1FF401B022801D996
:105230000320CAE5E14874300068C0F3400000284C
:10524000F1D019E0DD487430006820F00100DB493E
:1052500074310860FDF79AFF054606E0FDF796FFFA
:10526000401B022801D90320AFE5D4487430006800
:10527000C0F340000028F1D1207800F02000202861
:1052800030D1A069B8B1CD48006840F48050CB4916
:105290000860FDF77BFF054606E0FDF777FF401B42
:1052A000022801D9032090E5C4480068C0F34030CB
:1052B0000028F2D016E0C148006820F48050BF49B1
:1052C0000860FDF763FF054606E0FDF75FFF401B42
:1052D000022801D9032078E5B8480068C0F34030BF
:1052E0000028F2D1207800F0040004287DD1B448D1
:1052F000006840F48070B2490860FDF747FF05463A
:1053000006E0FDF743FF401B642801D903205CE55C
:10531000AB48006800F480700028F2D000BFA0689D
:10532000012808D1A5487030006840F00100A34969
:10533000703108602DE0A06868B9A048703000683E
:1053400020F001009D49703108600846006820F097
:10535000040008601DE0A06805280DD19748703052
:10536000006840F004009549703108600846006804
:1053700040F0010008600CE090487030006820F0B8
:1053800001008E49703108600846006820F0040072
:10539000086000BFA068A0B1FDF7F8FE054608E070
:1053A000FDF7F4FE401B41F28831884201D9032009
:1053B0000BE5824870300068C0F340000028EFD051
:1053C00013E0FDF7E3FE054608E0FDF7DFFE401BB6
:1053D00041F28831884201D90320F6E477487030E1
:1053E0000068C0F340000028EFD1606A00287DD03B
:1053F00072481030006800F03800182877D0606AD2
:10540000022875D16D48006820F080706B490860F3
:10541000FDF7BCFE054606E0FDF7B8FE401B02287E
:1054200001D90320D1E465480068C0F3406000283A
:10543000F2D100BFD4E90A1041EA00105F492831D7
:10544000096840F2F332914308435C49283108600F
:10545000208E401EC0F30800616B491E4FF47E424F
:1054600002EA41210843218F491ED20102EA01418B
:1054700008433C21095D491E120202EA016108430A
:105480004E493031086000BF081F006820F001005D
:10549000091F08604948343000684FF6F8718843A6
:1054A000A16C40EAC10045493431086043482C30C2
:1054B000006820F00C00216C084340492C31086042
:1054C0000846006820F00200616C08433B492C311B
:1054D00008600846006840F48030086008460068AC
:1054E00040F4003008600846006802E06AE038E0F6
:1054F0001FE040F4802008600846006840F001008A
:1055000008602E48006840F080702C490860FDF764
:105510003DFE054606E0FDF739FE401B022801D995
:10552000032052E425480068C0F340600028F2D010
:1055300048E02248006820F0807020490860FDF7AC
:1055400025FE054606E0FDF721FE401B022801D995
:1055500003203AE419480068C0F340600028F2D103
:1055600030E0164828300768144830300668606A12
:10557000012821D007F00301A06A81421CD1C7F3A2
:105580000511E06A884217D1C6F30801206B401E5E
:10559000814211D1606B401EC6F3462188420BD177
:1055A000A06B401EC6F30641884205D1E06B401E49
:1055B000C6F30661884205D0012006E40044025883
:1055C00000480258002000E470B504460D460CB9AE
:1055D000012070BD94F82C0028B9002084F82D001B
:1055E000204600F019F8022084F82C00211D2068C4
:1055F000FCF73BF82946D4E90002FCF789F8054896
:10560000006840F0004003490860012084F82C0045
:105610000020DEE70040005210B586B0044600BF0F
:105620003E48006840F480503C49086008460068E5
:1056300000F48050009000BF00BF00BF37480C301E
:10564000006840F0040035490C31086008460068E5
:1056500000F00400009000BF00BF00BF08460068D3
:1056600040F0080008600846006800F0080000905C
:1056700000BF00BF00BF0846006840F0100008608F
:105680000846006800F01000009000BF00BF00BF97
:105690000846006840F0200008600846006800F0F6
:1056A0002000009000BF00BF00BF0846006840F027
:1056B000400008600846006800F04000009000BF0D
:1056C00000BF0D20019002200290012003900320D2
:1056D00004900C20059001A91148FDF73BFC4CF209
:1056E0000370019001A90F48FDF734FC4FF6837059
:1056F000019001A90C48FDF72DFC4FF63F000190E9
:1057000001A90A48FDF726FC48F23710019001A9CB
:105710000748FDF71FFC06B010BD0000D444025836
:1057200000080258000C02580010025800140258D9
:105730000018025870B504460D4694F82C00022853
:1057400000D170BD94F82C0001280AD1022084F801
:105750002C0029462068FBF7BEFF012084F82C00AE
:1057600001E00120EDE70020EBE72DE9F0410446E0
:105770000E46174694F82C50022D02D10220BDE8A7
:10578000F081012D01D0052D12D1022084F82C00CA
:105790003A4631462068FBF7A8FF3068022803D15B
:1057A000052084F82C0005E0012084F82C0001E09D
:1057B0000120E4E70020E2E770B504460E461546F6
:1057C0000CB9012070BD94F8450028B9002084F878
:1057D0004400204600F028F804F108012068FBF797
:1057E000BFFE3146A2682068FBF70CFF2946E36A3A
:1057F000D4E90102FBF792FEA168206850F821006D
:1058000040F00100A268216841F8220005480068C4
:1058100040F0004003490860012084F84500002062
:10582000D0E700000040005210B586B0044600BF2B
:105830002048006840F480501E490860084600680F
:1058400000F48050009000BF00BF00BF19480C302A
:10585000006840F0080017490C31086008460068ED
:1058600000F00800009000BF00BF00BF08460068BD
:1058700040F0100008600846006800F0100000903A
:1058800000BF00BF4EF2B3700190022002900120D1
:105890000390022004900C20059001A90648FDF712
:1058A00059FB4FF68070019001A90448FDF752FBA7
:1058B00006B010BDD4440258000C02580010025823
:1058C0000349096821F460010143014A11607047EE
:1058D00004040058042808D14FF0E021096941F080
:1058E00004014FF0E022116107E04FF0E021096967
:1058F00021F004014FF0E0221161704770B50446B9
:105900002546681EB0F1807F01D301200FE0681E9C
:105910004FF0E02148610F214FF0FF3001F040FED1
:1059200000204FF0E021886107200861002070BD51
:105930007047704770477047704700002DE9F04787
:1059400004462068C569206806682068876840F6B4
:105950000F0005EA0009B9F1000F0FD105F0200092
:1059600060B106F0200010B907F0805030B1206F10
:1059700010B12046216F8847BDE8F087B9F1000FCC
:105980007ED0F948384018B9F84830400028F7D0A0
:1059900005F0010058B106F4807040B10120216883
:1059A0000862D4F88C0040F00100C4F88C0005F0C7
:1059B000020058B107F0010040B1022021680862DE
:1059C000D4F88C0040F00400C4F88C0005F004000A
:1059D00058B107F0010040B1042021680862D4F8F2
:1059E0008C0040F00200C4F88C0005F0080070B193
:1059F00006F0200010B9DC48384040B1082021688A
:105A00000862D4F88C0040F00800C4F88C0005F45B
:105A1000006060B106F0806048B14FF4006021681A
:105A20000862D4F88C0040F02000C4F88C00D4F850
:105A30008C0000284ED005F0200050B106F0200068
:105A400010B907F0805020B1206F10B12046216FAF
:105A50008847D4F88CA02068806800F04000402877
:105A600002D00AF0280070B3204600F0A1FE2068A2
:105A7000806800F04000402821D100BF00BF00E056
:105A800029E02168083151E8001F21F04000216819
:105A9000083141E80002002AF1D100BFE06F50B1A7
:105AA000B348E16F0865E06FFCF7EAF890B1E06F8A
:105AB000016D88470EE02046FFF73EFF0AE02046D2
:105AC000FFF73AFF06E0FFE72046FFF735FF00202B
:105AD000C4F88C0050E7E06E012872D105F0100088
