:020000040802F0
:10000000A8200024F9030208233102081B3102084A
:100010001F310208E30902087D3F020800000000CA
:10002000000000000000000000000000B102020813
:10003000E7090208000000000D030208F935020874
:100040001F0402081F0402081F0402081F040208FC
:100050001F0402081F0402081F0402081F040208EC
:100060001F0402081F0402081F0402081F040208DC
:100070001F0402081F0402081F0402081F040208CC
:100080001F0402081F0402081F0402081F040208BC
:100090001F0402081F0402081F0402081F040208AC
:1000A0001F0402081F0402081F0402081F0402089C
:1000B0001F0402081F0402081F0402081F0402088C
:1000C0001F0402081F0402081F0402081F0402087C
:1000D0001F040208613E0208713E02081F04020864
:1000E0001F04020829310208000000001F04020852
:1000F0001F0402081F0402081F0402081F0402084C
:100100001F0402081F0402081F0402081F0402083B
:100110001F0402081F0402081F0402081F0402082B
:100120001F0402081F0402081F0402081F0402081B
:100130001F040208E90902081F0402081F0402083C
:1001400000000000000000000000000000000000AF
:100150001F0402081F0402081F0402081F040208EB
:100160001F0402081F0402081F0402081F040208DB
:100170001F0402081F0402081F04020800000000F8
:100180001F0402081F0402081F0402081F040208BB
:100190001F0402081F0402081F0402081F040208AB
:1001A0001F0402081F0402081F0402081F0402089B
:1001B0001F0402081F0402081F0402081F0402088B
:1001C0001F0402081F0402081F0402081F0402087B
:1001D0001F0402081F0402081F0402081F0402086B
:1001E0001F0402081F0402081F0402081F0402085B
:1001F0001F0402081F0402081F0402081F0402084B
:100200001F0402081F0402081F0402081F0402083A
:100210001F0402081F0402081F0402081F0402082A
:100220001F0402081F0402081F0402080000000047
:100230001F0402081F040208000000001F04020837
:100240001F0402081F0402081F0402081F040208FA
:100250001F0402081F0402081F0402081F040208EA
:100260001F0402081F0402081F0402081F040208DA
:100270001F0402081F0402081F04020800000000F7
:100280001F0402081F0402081F04020800000000E7
:10029000000000001F040208DFF810D000F020FB6F
:1002A00000480047F54C0208AFF30080A820002466
:1002B0002D4B19680868B0E8F04F80F30988BFF348
:1002C0006F8F4FF0000080F311887047000000002E
:1002D00008480068006880F308884FF0000080F349
:1002E000148862B661B6BFF34F8FBFF36F8F00DF24
:1002F00000BF00BF08ED00E0DFF80C00016841F42A
:1003000070010160704700BF88ED00E0EFF30980E5
:10031000BFF36F8F144B1A681EF0100F08BF20ED4B
:10032000108A20E9F04F106009B44FF0500072B607
:1003300080F31188BFF34F8FBFF36F8F62B605F064
:100340001DF84FF0000080F3118809BC1968086897
:10035000B0E8F04F1EF0100F08BFB0EC108A80F329
:100360000988BFF36F8F704738000024EFF30580D2
:10037000704700000246D2E84F0F411CC2E8431FFD
:1003800003B1F8E77047024652E8000F411C42E80B
:10039000001303B1F8E770470246D2E84F0FC2E8F6
:1003A000431F03B1F9E77047024652E8000F42E8E5
:1003B000001303B1F9E77047024652E8000F8301CA
:1003C00003D3BFF32F8F0020704700F00040084395
:1003D00042E8000303B1F0E77047024652E8000F1D
:1003E000800103D2BFF32F8F0020704742E8001333
:1003F00003B1F3E701207047DFF82400016841F4FE
:10040000700101600748804707480047FEE7FEE7A4
:10041000FEE7FEE7FEE7FEE7FEE7FEE7FEE7FEE7B4
:1004200088ED00E00D360208990202082DE9F05F20
:100430000546002092469B46884606468146402453
:100440001BE0284641464746224600F080F85346C6
:100450005A46C01A914110D311461846224600F060
:1004600067F82D1A67EB01084F462246012000214C
:1004700000F05EF817EB00094E41201EA4F10104C4
:10048000DFDC484631462A464346BDE8F09F10B5BA
:10049000431A934209D28318881803E010F8011D0B
:1004A00003F8011D521EF9D210BD40EA01039B075B
:1004B00003D009E008C9121F08C0042AFAD203E0D9
:1004C00011F8013B00F8013B521EF9D210BDD2B227
:1004D00001E000F8012B491EFBD270470022F6E72D
:1004E00010B513460A4604461946FFF7F0FF2046AA
:1004F00010BD034611F8012B00F8012B002AF9D199
:100500001846704730B50B460146002020220124D2
:1005100009E021FA02F59D4205D303FA02F5491BD1
:1005200004FA02F52844151EA2F10102F1DC30BDE7
:10053000202A04DB203A00FA02F1002070479140A3
:10054000C2F1200320FA03F3194390407047202A98
:1005500004DB203A21FA02F00021704721FA02F36D
:10056000D040C2F1200291400843194670472DE95E
:10057000FE4F804681EA0300C00F0C46009021F038
:10058000004123F00045B8EB0200A94105D24046E6
:10059000214690461C460B46024623F0004010437D
:1005A00047D0270DC7F30A00C3F30A510290401A3F
:1005B000019040286BDAC3F3130040F4801B0098CD
:1005C000924620B10023D2EB030A63EB0B0B019898
:1005D0005946C0F140025046FFF7AAFF06460D46B5
:1005E00050465946019A00F08DF910EB0800614120
:1005F000002487EA115284EAE7731A4340D0009A34
:1006000062B3019A012A4FEA075215DC001B61EB25
:1006100002014FF0004202EA0752CDE90042001CFD
:1006200041F5801132462B4600F08DF903B0BDE84C
:10063000F08F40462146F9E7001B61EB0201001CE8
:1006400041F5801300185B412018A2F5001747EB15
:10065000030140EAD570B6196D4111E06D084FEA0B
:10066000360645EAC0754FEA0752001B61EB0201EE
:10067000001C41F5801149084FEA30000019514132
:1006800032462B4603B0BDE8F04F00F04DB900985C
:10069000012240000023D0EB020263EBE0730098DC
:1006A00021464FEAE074B8EB000061EB0401E9E792
:1006B00083F000435BE781F0004158E72DE9FE4FEE
:1006C00081EA030404F0004421F0004100944FF05B
:1006D000000B23F0004350EA01045ED052EA030409
:1006E0005BD0C3F30A54C1F30A552C44A4F2F3348B
:1006F0000194A0FB0254C1F3130141F48011C3F330
:10070000130343F4801301FB024400FB034E840AED
:10071000970A44EA815447EA8357A4FB0768029585
:100720008D0A05FB07854FEA932C04FB0C54270523
:10073000029D4FEA065847EA1637B5EB08056EEBFF
:10074000070C870E920E47EA811742EA8312A7FB35
:100750000201B6EB0B0164EB00042B0D43EA0C33F2
:100760005E1844EB1C50DA465146E7FB0201C5F324
:1007700013044FEA0B3343EA14534FEA0432019C4B
:1007800043EA0603A4F10C040294009CCDE900B4F2
:1007900000F0D9F803B0BDE8F08F00200146F9E77A
:1007A0002DE9F04D81EA030404F0004B21F00045EF
:1007B00014464FF0000A23F0004150EA050220D011
:1007C00054EA01021DD0C5F30A570246C5F31303CC
:1007D000C1F31300C1F30A5640F4801543F48013AB
:1007E000A7EB0608101BD64608F2FD3873EB050090
:1007F00002D308F1010801E092185B41B8F1000F43
:1008000003DA00200146BDE8F08D00204FF480118E
:10081000064684460EE0171B73EB050705D3121B33
:1008200063EB050306434CEA010C49084FEA30002C
:1008300092185B4150EA0107EDD152EA030012D051
:1008400082EA040083EA0501084305D0101BAB418E
:1008500006D20122002306E000224FF0004302E00E
:100860006FF0010253101AEB06004CEB085110EB2D
:100870000A0041EB0B01BDE8F04D00F055B8C1F3A3
:100880000A52C1F3130140F2FF3341F480119A423E
:1008900002DA00200146704740F233439A42A2F246
:1008A000334202DC5242FFF752BEFFF741BE000066
:1008B00030B5041E71F1000404DB4FF000444042E7
:1008C00064EB0101141E73F1000405DB1C464FF0BC
:1008D0000043524263EB0403994208BF904230BD8B
:1008E000064C074D06E0E06840F0010394E807007D
:1008F00098471034AC42F6D3FFF7D2FC305A0208C6
:10090000505A0208202A06DBCB17203A41FA02F09F
:1009100043EAE07306E041FA02F3D040C2F120025C
:10092000914008431946704710B5141E73F1000436
:1009300008DA401C41F1000192185B411A4301D1D1
:1009400020F0010010BD2DE9F04D92469B4611B1FB
:10095000B1FA81F202E0B0FA80F220329046FFF75D
:10096000E7FD04460F4640EA0A0041EA0B01534600
:100970005A46084313D0114653EA010019D0C8F172
:1009800040025046FFF7E3FD05460E4650465946E5
:100990004246FFF7CDFD084305D0012004E0204684
:1009A0003946BDE8F08D0020054346EAE0762C4349
:1009B00037430A986305E40AA0EB08000022FD0A09
:1009C00044EA47540A3002D500200146E9E7010510
:1009D00010196941DDE9084500196941BDE8F04D8C
:1009E000A2E700BFFEE7704710B5024800F0AEFE78
:1009F00010BD0000D80300240020704710B501F09E
:100A00005BF810BD10B5024800F0C8FF002010BD13
:100A1000D803002470B504460D46164633462A46D0
:100A20002146044800F062FF10B14FF0FF3070BD66
:100A30000020FCE7D803002470B504460D46164696
:100A400033462A462146044800F0E6FF10B14FF035
:100A5000FF3070BD0020FCE7D80300240146074AA0
:100A600012780AB9002008E0054AC1F3C623D25C17
:100A7000C1F30223DA4002F0010070478010002425
:100A80000010002470B500BF1248866900F0FCF920
:100A90000446B44211D200BF01210F48FFF77CFC8D
:100AA00058B90C480069401C0A49086100BF002180
:100AB0000948FFF771FC00BF00BF00BF2146054891
:100AC0001830FFF771FC054600BFAE42DCD120466E
:100AD00070BD000080100024950000242DE9FC4723
:100AE000044688461546B8F1000F01D0802D02D982
:100AF0000020BDE8FC872046FFF7B0FF08B90120C1
:100B0000F7E7FFF7BFFF8246A4B200BFEFF305800F
:100B100010B14FF4002000E000200443464645B9E0
:100B200000231A465146204600F064F8074638462E
:100B3000DFE7082D16D80020009001902A463146A4
:100B40006846FFF7A4FC4FF4E02000EA05400443A8
:100B500044F040705146DDE9002300F04BF80746B1
:100B60003846C6E700F0AEF94FF4E02101EA00494B
:100B700030680090706801900836083D44EA090426
:100B800044F080705146DDE9002300F033F8074659
:100B90000FB90020ADE74FF6017049EA000410E0FC
:100BA00030680090706801900836083D5146204634
:100BB000DDE9002300F01EF80746641C0FB9002091
:100BC00097E7082DECD80020009001902A46314686
:100BD0006846FFF75CFC24F47F4444EA052444F0B3
:100BE00000705146DDE9002300F004F8074638465E
:100BF0007FE700002DE9FF4F81B0884691469A4675
:100C00004FF0070B51E000BF2E48FFF7BCFB064634
:100C100006F03F002C4901EB0014B0094FF47001BD
:100C200001EA00510091DDE9001008434FF08051C6
:100C300001EAD80108434FF0005101EA9901084345
:100C40004FF0804101EA5A01084340F040652946CF
:100C500004F10C00FFF7B0FB054605F0806010B30F
:100C600085F0806585F0004505F0004728F00040DC
:100C70003843206029F00040384360602AF000408B
:100C80003843A060294604F10C00FFF7A6FB48B1E9
:100C900000BF0C48001DFFF776FB00BF012005B028
:100CA000BDE8F08F04E0ABF1010BBBF1000FAAD15E
:100CB00000BF00BF03480830FFF765FB00BF0020FE
:100CC000EDE7000084100024000C0024F0B5064677
:100CD0000C461546FF2C01D2FF2D01D30020F0BD9C
:100CE000002200231AE0012098403040A0B12146A4
:100CF00010E002EBD1000B4F385C01F0070C01272C
:100D000007FA0CF7384302EBD107DFF818C00CF8EC
:100D10000700491CA942ECD920325B1C042BE2D30A
:100D20000120DCE7001000242DE9F05F82468946AF
:100D300000204249087080214148FFF7CFFB18216D
:100D4000404803F05AFF80463C48006A3E498842CA
:100D500008D00846394908620846A0F802800120F8
:100D6000C8610FE035484088404506D03348A0F8B8
:100D7000028001203149C86104E03048C069401C4C
:100D80002E49C8612D48C06901280BD100202B498C
:100D9000487048608860C8604FF480612B48FFF756
:100DA0009DFB0FE000270BE0284800EB0715E868E3
:100DB00000F0806018B1E86820F04060E8607F1CB7
:100DC000402FF1D31D48C069012811D100F068F807
:100DD00004461CB100F05EF8064600E00026174805
:100DE000466100201549886108611949087002E0D0
:100DF00000F056F80446ECB1FE2200215046FFF701
:100E000065FFEF2211460F20FFF760FFFE2211461B
:100E10000420FFF75BFFFFF735FE83460748436971
:100E20005946C2690B48FFF7E5FEB9F1000F01D042
:100E300000F012F82046BDE8F09F0000801000246A
:100E400000100024185A02086B27A5E1000C0024AA
:100E50009500002400FF000310B50948007808B190
:100E6000012010BD012006490870FFF70BFE044663
:100E700000231A4621460348FFF7BCFE0120F0E795
:100E80008010002401FF0003014840687047000003
:100E9000001000E0014800687047000000000024D6
:100EA0000648006840F08070044908600448006803
:100EB00040F001000249086001207047FCED00E0AD
:100EC000001000E010B50248FFF754FA10BD000012
:100ED000811000242DE9F041044600F0EDFD80462C
:100EE00014B90120BDE8F08194F83500022808D03B
:100EF0008020606500BF002084F8340000BF01201E
:100F0000F0E7FE492068884249D0FC491831206842
:100F1000884244D0F9493031206888423FD0F749AF
:100F20004831206888423AD0F449603120688842CC
:100F300035D0F24978312068884230D0EF4990317D
:100F4000206888422BD0ED49A8312068884226D0FD
:100F5000EB492068884222D0E9491831206888424C
:100F60001DD0E74930312068884218D0E449483123
:100F70002068884213D0E2496031206888420ED050
:100F8000DF4978312068884209D0DD4990312068F6
:100F9000884204D0DA49A8312068884201D1012072
:100FA00000E0002068B12068006820F01E00216881
:100FB00008602068406920F0800021684861256849
:100FC00006E02068006820F00E00216808602568AF
:100FD000CA492068884270D0C849183120688842C0
:100FE0006BD0C64930312068884266D0C349483149
:100FF0002068884261D0C1496031206888425CD055
:10100000BE4978312068884257D0BC499031206869
:10101000884252D0B949A831206888424DD0B84999
:101020002068884249D0B64918312068884244D0A7
:10103000B3493031206888423FD0B14948312068F7
:1010400088423AD0AE4960312068884235D0AC49F8
:1010500078312068884230D0A94990312068884290
:101060002BD0A749A8312068884226D0A5492068FE
:10107000884222D0A3491431206888421DD0A1495A
:1010800028312068884218D09E493C312068884227
:1010900013D09C495031206888420ED09949643160
:1010A0002068884209D0974978312068884204D066
:1010B00094498C312068884201D1012000E0002051
:1010C00028B1206E006820F48070216E08608B4982
:1010D0002068884249D0894918312068884244D024
:1010E00086493031206888423FD0844948312068A1
:1010F00088423AD0814960312068884235D07F49A2
:1011000078312068884230D07C499031206888420C
:101110002BD07A49A8312068884226D078492068A7
:10112000884222D076491831206888421DD07449FF
:1011300030312068884218D071494831206888428F
:1011400013D06F496031206888420ED06C497831E5
:101150002068884209D06A4990312068884204D0CA
:101160006749A8312068884206D12068006820F0CD
:1011700001002168086005E02068006820F0010097
:101180002168086011E000F097FCA0EB080005283A
:101190000BD920206065032084F8350000BF0020B3
:1011A00084F8340000BF01209CE6286800F00100AC
:1011B0000028E8D151492068884249D04F49183168
:1011C0002068884244D04D493031206888423FD061
:1011D0004A494831206888423AD0484960312068FD
:1011E000884235D0454978312068884230D043491B
:1011F0009031206888422BD04049A831206888422D
:1012000026D03F492068884222D03D4918312068C5
:1012100088421DD03A4930312068884218D0384978
:1012200048312068884213D03549603120688842AF
:101230000ED0334978312068884209D03049903146
:101240002068884204D02E49A8312068884201D104
:10125000012000E0002040B1A66D94F85C0000F091
:101260001F013F208840B06007E0A76D94F85C0044
:1012700000F01F01012088407860204920688842E2
:1012800076D01E4918312068884271D01B49303110
:10129000206888426CD0194948312068884267D05C
:1012A000164960312068884262D01449783120683C
:1012B00088425DD0114990312068884258D00F494A
:1012C000A8312068884253D00D49206888424FD009
:1012D0000B491831206888424AD0094930312068CA
:1012E000884245D0064948312068884240D00449A8
:1012F0006031206888423BD0014905E0100002407F
:1013000010040240085402587831206888422FD0D7
:101310002549206888422BD023491831206888420B
:1013200026D022492068884222D0204914312068E2
:1013300088421DD01D4928312068884218D01B4999
:101340003C312068884213D01849503120688842C7
:101350000ED0164964312068884209D0134978318B
:101360002068884204D011498C312068884201D11C
:10137000012000E0002068B1D4E919104860E06E57
:1013800040B1E06E006820F48070E16E0860D4E93E
:101390001C104860012084F8350000BF002084F84C
:1013A000340000BF00BF9DE5A0040240085402586D
:1013B00070B504460CB9012070BD94F835000228C0
:1013C00003D0802060650120F6E7DC492068884270
:1013D00049D0DA4918312068884244D0D7493031A1
:1013E000206888423FD0D5494831206888423AD0A9
:1013F000D24960312068884235D0D04978312068A0
:10140000884230D0CD499031206888422BD0CB49DA
:10141000A8312068884226D0C9492068884222D055
:10142000C7491831206888421DD0C549303120682D
:10143000884218D0C24948312068884213D0C04938
:101440006031206888420ED0BD49783120688842DA
:1014500009D0BB4990312068884204D0B849A831EE
:101460002068884201D1012000E00020F0B3042070
:1014700084F83500B149206888424BD0AF49183113
:101480002068884246D0AD4930312068884241D03A
:10149000AA494831206888423CD0A8496031206878
:1014A000884237D0A54978312068884232D0A34994
:1014B0009031206888422DD0A049A8312068884208
:1014C00028D09F492068884224D09D49183120683F
:1014D00088421FD09A493031206888421AD09849F2
:1014E00048312068884215D0954900E020E06031FD
:1014F000206888420ED0924978312068884209D00D
:101500008F4990312068884204D08D49A8312068E5
:10151000884206D12068006820F001002168086038
:1015200009E12068006820F001002168086002E1FC
:101530002068006820F00E00216808607F4920685C
:10154000884249D07D4918312068884244D07B497F
:101550003031206888423FD078494831206888423D
:101560003AD0764960312068884235D07349783165
:101570002068884230D071499031206888422BD051
:101580006E49A8312068884226D06D49206888427B
:1015900022D06B491831206888421DD0684930310B
:1015A0002068884218D0664948312068884213D0A4
:1015B00063496031206888420ED0614978312068E3
:1015C000884209D05E4990312068884204D05C4945
:1015D000A8312068884206D12068006820F0010008
:1015E0002168086005E02068006820F0010021689B
:1015F000086052492068884270D0504918312068EC
:1016000088426BD04D4930312068884266D04B49C2
:1016100048312068884261D048496031206888425A
:101620005CD0464978312068884257D04349903190
:101630002068884252D04149A831206888424DD064
:101640003F492068884249D03D4918312068884286
:1016500044D03B493031206888423FD03849483136
:10166000206888423AD0364960312068884235D0B7
:10167000334978312068884230D031499031206830
:1016800088422BD02E49A8312068884226D02D4987
:101690002068884222D02B491431206888421DD00E
:1016A000284928312068884218D026493C312068D2
:1016B000884213D023495031206888420ED02149F6
:1016C00064312068884209D01E49783120688842F8
:1016D00004D01C498C312068884201D1012000E0EF
:1016E0000020D8B1206E006820F48070216E086060
:1016F000A56D94F85C0000F01F010120884068602F
:10170000D4E919104860E06E40B1E06E006820F442
:101710008070E16E0860D4E91C104860012084F8F4
:10172000350000BF002084F8340000BF206D10B1E8
:101730002046216D884700203EE600001000024050
:1017400010040240085402587047704710B5044610
:10175000206800F58050D0F8600100F0400040287B
:1017600012D1206800F58050D0F8340100F040001C
:10177000402809D1204600F0F5F848F240012068E1
:1017800000F58050C0F86011206800F58050D0F856
:10179000600100F0010088B1206800F58050D0F8A9
:1017A000340100F0010048B1204600F033F948F25E
:1017B0000101206800F58050C0F86011206800F534
:1017C0008050D0F8600100F48040B0F5804F41D1E6
:1017D000206800F58050D0F8340100F48040B0F566
:1017E000804F37D1606F40F008006067206800F5D7
:1017F0008050D0F8600100F48050B0F5805F17D1C0
:10180000206800F58050D0F8600141F202110840D4
:10181000A067206800F58050D0F8340120F44041E2
:10182000206800F58050C0F83411E020E0660EE03A
:10183000206800F58050D0F8600100F4CD40A0672A
:101840004FF4CD41206800F58050C0F8601120466B
:10185000FFF77AFF2068D0F8B00000F4C040B0F580
:10186000C04F0AD12068D0F8B800E067E020E066F9
:10187000204600F039F80020E0672068D0F8B0007A
:1018800000F0100010280CD12068D0F8C00000F043
:101890006000C4F88000204600F027F80020C4F85B
:1018A00080002068D0F8B00000F0200020280CD183
:1018B0002068D0F8C00000F00F00C4F88400204673
:1018C000FFF743FF0020C4F884000648006800F4D6
:1018D000800030B14FF4800002490860204600F0DB
:1018E0009AF810BDA8000058704770472DE9F047DE
:1018F00004460F46904699462068D0F8000200F052
:10190000010010B10120BDE8F0872068D0F8005236
:1019100025F0787040EA475525F4F81040EA08456C
:1019200045F00C0545F001052068C0F8005200F0B4
:10193000C3F8064607E000F0BFF8801BB0F57A7FD9
:1019400001D90120DFE72068D0F8000200F0010093
:101950000028F0D12068D0F8040280B2C9F8000055
:101960000020D0E738B504460020009069460948B9
:10197000006803F07BFD01280BD100BF009838B14F
:101980004FF0805004490860BFF34F8FBFF36F8F53
:1019900000BF38BD1C00002404ED00E070B5064611
:1019A0003068D0F8004224F4706400F043FB054630
:1019B0001348854205D31348854202D244F400748B
:1019C0001AE01048854205D30F48854202D244F4FC
:1019D000407411E00C48854203D30C48854200D284
:1019E0000AE00A48854205D30948854202D244F4F8
:1019F000807401E044F480643068C0F8004270BD37
:101A0000002D3101C00E16020087930300E1F50599
:101A100080D1F008704770472DE9F04705460F4622
:101A2000904699462868D0F8000200F0010010B1F5
:101A30000120BDE8F0872868D0F8004224F07870D3
:101A400040EA475424F4F81040EA084424F00C001B
:101A5000041D44F001041FFA89F00D4908600D4887
:101A6000C0F8004200F028F8064607E000F024F82D
:101A7000801BB0F57A7F01D90120DAE72868D0F819
:101A8000000200F001000028F0D100BFD1E7000003
:101A900004820240008002400348006840F00100D8
:101AA00001490860704700002004005801480068A0
:101AB000000C70470010005C01480068704700008F
:101AC00010000024034800680349097808440149CC
:101AD00008607047100000241800002410B503208F
:101AE00000F0FAF800F0CCFA10490968C1F30321BC
:101AF0000F4A515C01F01F0120FA01F40B48006805
:101B000000F00F001146085C00F01F0024FA00F0FE
:101B100008490860084804600F2000F00FF808B179
:101B2000012010BD00F09AF80020FAE7184402588E
:101B3000F8590208040000240000002470B504468F
:101B40001148007808B9012070BD0F4800784FF4A3
:101B50007A71B1FBF0F00D490968B1FBF0F5284648
:101B600001F006F808B10120EEE7102C07D20022A0
:101B70002146501E00F073F80548046001E0012082
:101B8000E2E70020E0E70000180000240000002445
:101B9000140000244178154A11600178F9B1121D32
:101BA00041681160017B0907C27A41EA0261827AC9
:101BB00041EAC241427B41EA8241827B41EA4241A1
:101BC000C27B41EA0241427A41EA0221027A41EAB9
:101BD000420102781143054A0832116005E00021F4
:101BE000024A121D1160121D1160704798ED00E04D
:101BF00000BF00BF00BFBFF35F8F00BF00BF00BFCB
:101C00000548006820F4803003490860002002493C
:101C1000703108607047000024ED00E040F00101E1
:101C20000D4A11600C497039096841F480310A4A43
:101C3000703A116000BF00BF00BFBFF34F8F00BFFD
:101C400000BF00BF00BF00BF00BFBFF36F8F00BF6A
:101C500000BF00BF7047000094ED00E070472DE921
:101C6000F05F80460D46164602F056FB07463946A1
:101C70002A46334601F00700C0F1070ABAF1040F03
:101C800002D94FF0040A01E0C0F1070AD14600F181
:101C9000040ABAF1070F02D24FF0000A01E0A0F1E6
:101CA000030AD4464FF0010A0AFA09FAAAF1010A16
:101CB0000AEA020A0AFA0CFA4FF0010B0BFA0CFBC3
:101CC000ABF1010B0BEA030B4AEA0B042146404639
:101CD00002F02AFBBDE8F09F00BF00F00702064BB0
:101CE00019684FF6FF031940044B0B4343EA0221E6
:101CF000014B196000BF70470CED00E00000FA05D1
:101D00000348006840F08070014908607047000097
:101D10000C4802582DE9F04104460D4614B9012043
:101D2000BDE8F081BD48006800F00F00A8420ED267
:101D3000BA48006820F00F002843B84908600846F8
:101D4000006800F00F00A84201D00120E8E72078E9
:101D500000F0040004280ED1B1492069096801F09F
:101D60007001884207D9AE48006820F070002169F0
:101D70000843AB490860207800F00800082811D11A
:101D8000A749091D6069096801F07001884209D9F5
:101D9000A348001D006820F0700061690843A04955
:101DA000091D0860207800F01000102811D19C490E
:101DB000091DA069096801F4E061884209D99848C1
:101DC000001D006820F4E060A16908439449091DE2
:101DD0000860207800F02000202811D190490831B7
:101DE000E069096801F07001884209D98C4808301F
:101DF000006820F07000E1690843894908310860F3
:101E0000207800F0020002280ED18549E0680968B8
:101E100001F00F01884207D98148006820F00F00C7
:101E2000E16808437E490860207800F0010000283E
:101E300050D07B48006820F47060A168084378495E
:101E400008606068022807D1754818380068C0F338
:101E50004040F8B9012063E76068032807D1704863
:101E600018380068C0F34060A0B9012058E76068E6
:101E7000012807D16A4818380068C0F3002048B923
:101E800001204DE7664818380068C0F3800008B9A3
:101E9000012045E762480838006820F007006168C3
:101EA00008435F4908390860FFF706FE064608E068
:101EB000FFF702FE801B41F28831884201D90320DE
:101EC0002EE757480838006800F038006168B0EB2A
:101ED000C10FEDD1207800F0020002280ED1504948
:101EE000E068096801F00F01884207D24C48006899
:101EF00020F00F00E168084349490860474800683E
:101F000000F00F00A8420ED94448006820F00F00EE
:101F10002843424908600846006800F00F00A842C4
:101F200001D00120FCE6207800F0040004280ED146
:101F30003B492069096801F07001884207D238489E
:101F4000006820F070002169084335490860207856
:101F500000F00800082811D13149091D606909689D
:101F600001F07001884209D22D48001D006820F060
:101F70007000616908432A49091D0860207800F053
:101F80001000102811D12649091DA069096801F423
:101F9000E061884209D22248001D006820F4E06018
:101FA000A16908431E49091D0860207800F020003F
:101FB000202811D11A490831E069096801F070013F
:101FC000884209D216480830006820F07000E169A4
:101FD000084313490831086000F052F810490968B5
:101FE000C1F303210F4A515C01F01F0120FA01F7F0
:101FF0000B48006800F00F001146085C00F01F005D
:1020000027FA00F008490860084807600848006897
:10201000FFF794FD8046404682E600000020005213
:1020200018440258F8590208040000240000002453
:102030001400002410B500F023F80D490968C1F31D
:1020400003210C4A515C01F01F0120FA01F40848F9
:10205000006800F00F001146085C00F01F0024FA31
:1020600000F005490860054804600846006810BD96
:1020700018440258F8590208040000240000002403
:10208000F0B5824E366806F0380636B1082E15D007
:10209000102E15D0182E7DD114E07C4E103E3668DF
:1020A000C6F3401646B1794E103E3668C6F3C107F6
:1020B000774E26FA07F000E07548E5E07548E3E062
:1020C0007548E1E0714E1836366806F003046F4E2D
:1020D00018363668C6F305116C4E1C36366806F0A5
:1020E00001056A4E24363668C6F3CC0616FB05F6A3
:1020F00001EE106AB8EE410A002971D024B1012C1A
:1021000050D0022C6DD16DE0604E103E3668C6F3A3
:1021100040163EB35D4E103E3668C6F3C1075C4EB6
:1021200026FA07F301EE103AF8EE411A01EE101A02
:10213000B8EE411A81EE812A9FED581AC0EE011ABD
:10214000524E20363668C6F3080601EE106AB8EE25
:10215000411A31EE811AF7EE001A31EE211A62EEC1
:10216000010A1EE001EE101AB8EE411ADFED4C1A1A
:1021700081EE812A9FED491AC0EE011A434E2036A6
:102180003668C6F3080601EE106AB8EE411A31EE61
:10219000811A00E076E0F7EE001A31EE211A62EEC5
:1021A000010A5BE001EE101AB8EE411A9FED3D2ADC
:1021B000C2EE011A9FED391A80EE012A334E203605
:1021C0003668C6F3080601EE106AB8EE411A32EE20
:1021D000011AB7EE002A31EE021A61EE810A3DE0E3
:1021E0004EE01DE001EE101AB8EE411ADFED2E1A96
:1021F00081EE812A9FED291AC0EE011A234E203666
:102200003668C6F3080601EE106AB8EE411A31EEE0
:10221000811AF7EE001A31EE211A62EE010A1DE072
:1022200001EE101AB8EE411A9FED1E2AC2EE011AF5
:102230009FED1A1A80EE012A144E20363668C6F336
:10224000080601EE106AB8EE411A32EE011AB7EE36
:10225000002A31EE021A61EE810A00BF00BF0B4E68
:1022600020363668C6F34626721C01EE102AB8EEF8
:10227000411AC0EE811ABCEEE11A11EE100A00E01C
:10228000002001E0034800BF00BFF0BD1044025829
:102290000090D00300093D0040787D010000004619
:1022A0000024744C0024744A20BCBE4B2DE9F04736
:1022B000044614B90120BDE8F087207800F0010041
:1022C000002872D0FC48006800F03808FA4818303E
:1022D000D0F80090B8F1100F06D0B8F1180F0FD158
:1022E00009F0030002280BD1F34810380068C0F34E
:1022F000404000286ED0606800286BD10120DAE7EA
:1023000000BF6068B0F5803F08D1EB481038006826
:1023100040F48030E849103908602EE0606868B900
:10232000E5481038006820F48030E349103908602F
:102330000846006820F4802008601EE06068B0F560
:10234000A02F0DD1DC481038006840F48020DA4915
:10235000103908600846006840F4803008600CE0DE
:10236000D5481038006820F48030D349103908600F
:102370000846006820F48020086000BF6068A8B1AB
:10238000FFF79AFB054608E0FFF796FB401B41F27A
:102390008831884201D903208DE7C748103800688A
:1023A000C0F340400028EFD014E014E0FFF784FBB6
:1023B000054608E0FFF780FB401B41F28831884268
:1023C00001D9032077E7BC4810380068C0F34040CB
:1023D0000028EFD100BF207800F00200022874D15D
:1023E000B548006800F03808B3481830D0F80090BD
:1023F000B8F1000F05D0B8F1180F56D109F003005D
:10240000D0BBAD4810380068C0F3800018B1E06858
:1024100008B901204FE7A8481038006820F01900DB
:10242000E1680843A44910390860FFF745FB0546F9
:1024300006E0FFF741FB401B022801D903203AE7E1
:102440009D4810380068C0F380000028F1D000BF1C
:10245000FFF72CFB41F2030188421AD8206940287B
:102460000BD195480C38006820F47C3040F40030E3
:1024700091490C39086017E017E08F480C38006864
:1024800020F47C30216940EA01308B490C39086026
:102490000AE089480C38006820F0FE40217C40EAC0
:1024A000016085490C39086066E0E06888B38248BD
:1024B0001038006820F01900E16808437E4910399F
:1024C0000860FFF7F9FA054607E056E0FFF7F4FA6F
:1024D000401B022801D90320EDE677481038006838
:1024E000C0F380000028F1D000BFFFF7DFFA41F20F
:1024F000030188421AD8206940280BD16E480C3855
:10250000006820F47C3040F400306B490C390860DE
:1025100017E017E068480C38006820F47C30216927
:1025200040EA013064490C3908600AE062480C381E
:10253000006820F0FE40217C40EA01605E490C39D1
:10254000086019E05C481038006820F001005A4922
:1025500010390860FFF7B0FA054606E0FFF7ACFA5D
:10256000401B022801D90320A5E653481038006813
:10257000C0F380000028F1D100BF207800F01000E7
:1025800010287CD14C48006800F038084A481830C0
:10259000D0F80090B8F1080F06D0B8F1180F3DD16F
:1025A00009F00300012839D1434810380068C0F30E
:1025B000002020B1E069802801D001207BE600BF27
:1025C000FFF774FA41F2030188421AD8206A2028E2
:1025D0000AD139480C38006820F0F84040F08040BB
:1025E00035490C39086018E033480C38006820F091
:1025F000F84094F8201040EA81602F490C390860B7
:102600000BE02D48001F006820F07C5094F820104B
:1026100040EA01602849091F086066E0E06978B374
:1026200025481038006840F08000234910390860C0
:10263000FFF742FA054606E0FFF73EFA401B022884
:1026400001D9032037E61C4810380068C0F3002089
:102650000028F1D000BFFFF729FA41F203018842B8
:102660001CD8206A20280CD113480C38006820F0B0
:10267000F84040F0804010490C3908601AE035E01D
:102680001CE00D480C38006820F0F84094F8201049
:1026900040EA816008490C3908600BE00648001FD9
:1026A000006820F07C5094F8201040EA0160024954
:1026B000091F086019E0000010440258FA48006839
:1026C00020F08000F8490860FFF7F6F9054606E0BB
:1026D000FFF7F2F9401B022801D90320EBE5F2488D
:1026E0000068C0F300200028F2D100BF207800F07D
:1026F0000800082836D16069D0B1EB487430006812
:1027000040F00100E84974310860FFF7D5F905464B
:1027100006E0FFF7D1F9401B022801D90320CAE5E2
:10272000E14874300068C0F340000028F1D019E09F
:10273000DD487430006820F00100DB497431086026
:10274000FFF7BAF9054606E0FFF7B6F9401B022885
:1027500001D90320AFE5D44874300068C0F34000CD
:102760000028F1D1207800F02000202830D1A06985
:10277000B8B1CD48006840F48050CB490860FFF7FD
:102780009BF9054606E0FFF797F9401B022801D99F
:10279000032090E5C4480068C0F340300028F2D020
:1027A00016E0C148006820F48050BF490860FFF778
:1027B00083F9054606E0FFF77FF9401B022801D99F
:1027C000032078E5B8480068C0F340300028F2D113
:1027D000207800F0040004287DD1B448006840F45B
:1027E0008070B2490860FFF767F9054606E0FFF719
:1027F00063F9401B642801D903205CE5AB480068FD
:1028000000F480700028F2D000BFA068012808D131
:10281000A5487030006840F00100A349703108609D
:102820002DE0A06868B9A0487030006820F0010071
:102830009D49703108600846006820F00400086077
:102840001DE0A06805280DD197487030006840F061
:1028500004009549703108600846006840F00100A6
:1028600008600CE090487030006820F001008E494C
:10287000703108600846006820F00400086000BF5E
:10288000A068A0B1FFF718F9054608E0FFF714F9B2
:10289000401B41F28831884201D903200BE5824870
:1028A00070300068C0F340000028EFD013E0FFF75D
:1028B00003F9054608E0FFF7FFF8401B41F28831B5
:1028C000884201D90320F6E4774870300068C0F3ED
:1028D00040000028EFD1606A00287DD07248103097
:1028E000006800F03800182877D0606A022875D197
:1028F0006D48006820F080706B490860FFF7DCF8D5
:10290000054606E0FFF7D8F8401B022801D903204E
:10291000D1E465480068C0F340600028F2D100BFF0
:10292000D4E90A1041EA00105F492831096840F2F1
:10293000F332914308435C4928310860208E401EE1
:10294000C0F30800616B491E4FF47E4202EA412148
:102950000843218F491ED20102EA014108433C216C
:10296000095D491E120202EA016108434E493031F5
:10297000086000BF081F006820F00100091F086000
:102980004948343000684FF6F8718843A16C40EA3A
:10299000C10045493431086043482C30006820F0BC
:1029A0000C00216C084340492C310860084600683F
:1029B00020F00200616C08433B492C310860084656
:1029C000006840F4803008600846006840F4003039
:1029D00008600846006802E06AE038E01FE040F462
:1029E000802008600846006840F0010008602E481A
:1029F000006840F080702C490860FFF75DF80546DC
:102A000006E0FFF759F8401B022801D9032052E4E1
:102A100025480068C0F340600028F2D048E0224812
:102A2000006820F0807020490860FFF745F80546EF
:102A300006E0FFF741F8401B022801D903203AE4E1
:102A400019480068C0F340600028F2D130E0164811
:102A500028300768144830300668606A012821D0A1
:102A600007F00301A06A81421CD1C7F30511E06A97
:102A7000884217D1C6F30801206B401E814211D154
:102A8000606B401EC6F3462188420BD1A06B401EEE
:102A9000C6F30641884205D1E06B401EC6F30661CD
:102AA000884205D0012006E400440258004802583C
:102AB000002000E47047000010B5044600BF00206D
:102AC00000F0AEFB02A1002000F060FC00BF10BDD2
:102AD000414C41524D2041210D0A000010B50446E1
:102AE0004FF400301749086020688068C0F3003058
:102AF00078B12068C068C0F3002050B12068C06879
:102B000000F0800060F4C0702168C8602046FFF7C4
:102B1000D3FF20688068C0F3403078B12068C06877
:102B2000C0F3402050B12068C06800F0800060F41D
:102B300020702168C8602046FFF7BCFF012084F8A0
:102B4000210010BD88000058042808D14FF0E02172
:102B5000096941F004014FF0E022116107E04FF0F4
:102B6000E021096921F004014FF0E0221161704772
:102B700070B504462546681EB0F1807F01D3012060
:102B80000FE0681E4FF0E02148610F214FF0FF3049
:102B900001F0CAFB00204FF0E021886107200861A6
:102BA000002070BD70477047704770477047000045
:102BB0002DE9F04704462068C5692068066820684A
:102BC000876840F60F0005EA0009B9F1000F0FD140
:102BD00005F0200060B106F0200010B907F0805029
:102BE00030B1206F10B12046216F8847BDE8F087D3
:102BF000B9F1000F7ED0F948384018B9F848304094
:102C00000028F7D005F0010058B106F4807040B1FB
:102C1000012021680862D4F88C0040F00100C4F85B
:102C20008C0005F0020058B107F0010040B102200D
:102C300021680862D4F88C0040F00400C4F88C00CD
:102C400005F0040058B107F0010040B104202168EC
:102C50000862D4F88C0040F00200C4F88C0005F043
:102C6000080070B106F0200010B9DC48384040B1CF
:102C7000082021680862D4F88C0040F00800C4F8ED
:102C80008C0005F4006060B106F0806048B14FF43C
:102C9000006021680862D4F88C0040F02000C4F87D
:102CA0008C00D4F88C0000284ED005F0200050B1E4
:102CB00006F0200010B907F0805020B1206F10B14D
:102CC0002046216F8847D4F88CA02068806800F0E7
:102CD0004000402802D00AF0280070B3204600F0DF
:102CE0001FFD2068806800F04000402821D100BF0F
:102CF00000BF00E029E02168083151E8001F21F001
:102D000040002168083141E80002002AF1D100BFEB
:102D1000E06F50B1B348E16F0865E06FFEF748FB24
:102D200090B1E06F016D88470EE02046FFF73EFF4F
:102D30000AE02046FFF73AFF06E0FFE72046FFF7EC
:102D400035FF0020C4F88C0050E7E06E012872D1F6
:102D500005F0100000286ED006F010000028FAD010
:102D60001020216808622068806800F04000402838
:102D70007ED1E06F00689C49884258D0E06F0068BF
:102D800099491831884252D0E06F00689649303135
:102D900088424CD0E06F006893494831884246D061
:102DA000E06F006890496031884240D0E06F006871
:102DB0008D49783188423AD0E06F00688A49903175
:102DC000884234D0E06F00688749A83188422ED00D
:102DD000E06F00688549884229D0E06F0068834928
:102DE0001831884223D0E06F006880493031884232
:102DF0001DD0E06F00687D494831884217D0E06FF0
:102E000000687A496031884211D0E06F00687749E4
:102E1000783188420BD0E06F006874499031884265
:102E200005D0E06F00687149A831884204D1E06F95
:102E30000068406803E0A0E0E06F006840681FFAA7
:102E400080F8B8F1000F55D0B4F85C00404551DD72
:102E5000A4F85E80E06FC069B0F5807F41D000BF0C
:102E600000BF216851E8001F21F48070226800E053
:102E700041E042E800010029F3D100BF00BF00BFDC
:102E80002168083151E8001F21F001002168083154
:102E900041E80002002AF3D100BF00BF00BF216853
:102EA000083151E8001F21F040002168083141E855
:102EB0000002002AF3D100BF2020C4F888000020BF
:102EC000E06600BF00BF216851E8001F21F010003C
:102ED000226842E800010029F5D100BFE06FFDF74C
:102EE000F9FFB4F85C00B4F85E20801A81B2204685
:102EF000FFF758FE7AE634F85C0F6188401A1FFA33
:102F000080F860885C3CB8B3B8F1000F34D000BFE3
:102F100000BF216851E8001F21F49070226842E848
:102F200000010029F5D100BF00BF00BF21680831B2
:102F300051E8001F294AD24301EA02002168083102
:102F400041E80002002AF1D100BF2020C4F8880027
:102F50000020E066206700BF00BF216851E8001F25
:102F600021F01000226842E800010029F5D100BFDD
:102F700041462046FFF716FE38E605F4801050B1B2
:102F800007F4800038B14FF48010216808622046B1
:102F9000FFF70BFE2AE605F0800058B106F080002E
:102FA00010B907F4000028B1606F10B12046616FBE
:102FB00088471BE605F0400030B106F0400018B12C
:102FC000204600F0E3FB11E605F4000080B106F0B6
:102FD000804068B12046FFF7E7FD07E601000010DA
:102FE00020010004093702081000024010040240CA
:102FF00005F0807030B106F0004018B12046FFF7B0
:10300000D2FDF3E500BFF1E570B504460D46164666
:10301000D4F8880020282CD105B10EB9012070BD4C
:1030200000BF94F88000012801D10220F7E70120B9
:1030300084F8800000BF0020E0660F4920688842C5
:1030400011D02068406800F4000060B100BF00BFEC
:10305000216851E8001F41F08060226842E80001C9
:103060000029F5D100BF32462946204600F040FE37
:10307000D5E70220D3E70000000C005810B5044645
:103080002049206888423BD11F48008800F4004056
:1030900088BB1D48008800F4804070B11B48007850
:1030A0000A2803D000201849088024E01648008828
:1030B00040F40040144908801DE0144800780D28B1
:1030C00006D11148008840F480400F49088012E082
:1030D0000E4800780C490988C1F30D010C4A505480
:1030E00009480088401C0849088008460088C7280D
:1030F00001DD00200880012204490648FFF784FF13
:1031000010BD000000100140080000240A00002447
:103110008002002448030024704700BFFEE700BF80
:10312000FEE700BFFEE7000010B50248FFF7D6FC3F
:1031300010BD0000A80000242DE9F05F05460F46F1
:1031400090469946DFF860B000BF9BF8000008B9D0
:1031500000F016FF00BFDFF850A0032D1FD2EFF3E1
:1031600011810846202181F3118800BF00BF05EBC3
:1031700045020AF1600101EBC2043DB12760C4F8C9
:103180000480C4F8089000212161E1600A9961611E
:10319000C1B281F3118800BF00BF002601E04FF0EB
:1031A000FF363046BDE8F09F440700242DE9F05F6C
:1031B00005460F4690469946DFF860B000BF9BF881
:1031C000000008B900F0DCFE00BFDFF850A0032DBE
:1031D0001FD2EFF311810846202181F3118800BF2F
:1031E00000BF05EB45020AF1180101EBC2043DB135
:1031F0002760C4F80480C4F8089000212161E160D0
:103200000A996161C1B281F3118800BF00BF002635
:1032100001E04FF0FF363046BDE8F09F4407002440
:103220002DE9F8430446DFF88C8000BF98F80000D1
:1032300008B900F0A5FE00BF0027FF208DF80000B0
:10324000102C31D21C48005D8DF80100194D183545
:10325000EFF311808046202080F3118800BF00BF6B
:10326000287D00F00300022807D1144804700222D0
:103270006946284600F0D8FF0FE0284600F0B8FE67
:103280000646022E07D30D480470022269462846DE
:1032900001F005F801E04FF0FF3708F0FF0080F380
:1032A000118800BF00BF01E04FF0FF373846BDE88E
:1032B000F8830000440700248400002494000024C4
:1032C0002DE9F04104460D4616460E4F00BF3878F2
:1032D00008B900F055FE00BFEFF31180074620202B
:1032E00080F3118800BF00BF32462946204600F017
:1032F0000BF88046F8B280F3118800BF00BF40464B
:10330000BDE8F081440700242DE9F04707468846D0
:103310001646C24607EB47011B4800EBC109D9F826
:10332000140020B1012811D0022826D11EE0484601
:1033300000F05EFE0546B54201D2002405E03446A9
:1033400032465146484600F0AAFF18E0484600F0D1
:103350004FFE0546B54201D2284600E030460446FD
:1033600022465146484600F09AFF08E03246514650
:10337000484600F059FF044601E0002400BF00BFAA
:103380002046BDE8F08700005C0700240FB438B584
:10339000044606A800906A462046059900F007F802
:1033A000054600200090284638BC5DF814FB2DE946
:1033B000F04FADF2244D82460D46144603A8CDF8D9
:1033C00010044FF48060CDF814040020CDF81804E8
:1033D000CDF820A4CDF81C0400BF2E786D1C06B9D2
:1033E000EFE0252E70D100274FF0010900BF2E78A5
:1033F000232E12D02B2E0CD02D2E02D0302E10D1F9
:1034000003E047F001076D1C0EE047F002076D1C5A
:103410000AE047F004076D1C06E047F008076D1C42
:1034200002E04FF0000900BF00BFB9F1000FDED18C
:103430004FF0000800BF2E78302E01DB392E00DD62
:1034400007E06D1CA6F1300008EB880100EB410895
:10345000F1E700BF0020CDF80C042E782E2E14D1F9
:103460006D1C00BF2E78302E01DB392E00DD0BE005
:103470006D1CA6F13000DDF80C1401EB810100EBAE
:103480004100CDF80C04EDE700BF2E7800BF6C2E94
:1034900001D0682E02D16D1C2E7800E000E0F6E726
:1034A00000BF702E66D008DC252E76D0582E3AD07C
:1034B000632E0AD0642E76D114E0732E43D0752E7D
:1034C00020D0782E6FD12DE071E02168081D20609A
:1034D000D1F8009009F0FF0B59460DF5826000F01D
:1034E00081FE61E02168081D2060D1F80090CDE9DF
:1034F00000870A2249460DF58260DDF80C3400F0A1
:1035000085FD51E02168081D2060D1F80090CDE9CB
:1035100000870A2249460DF58260DDF80C3400F080
:10352000EBFD41E000BF2168081D2060D1F800904C
:10353000CDE90087102249460DF58260DDF80C3494
:1035400000F0DAFD30E02168081D2060D1F800B0FD
:1035500000BF9BF800600BF1010B06B908E0314693
:103560000DF5826000F03EFEDDF81C040028F0DA64
:1035700000BF19E02168081D2060D1F800900020EC
:1035800008210B461022CDE9001049460DF5826056
:1035900000F0B2FD08E000E005E025210DF58260B5
:1035A00000F020FE00E000BF00BF6D1C04E03146CB
:1035B0000DF5826000F016FEDDF81C040028BFF651
:1035C0000CAF00BFDDF81C0400280FDDDDF8180487
:1035D00028B103A95046DDF81824FFF771FEDDF885
:1035E0001814DDF81C040844CDF81C04DDF81C0494
:1035F0000DF2244DBDE8F08F10B5FEF763FA01F02F
:10360000C9FF012801D001F015FF10BD3448006842
:1036100040F47000324908603248006800F00F0042
:10362000072806D22F48006820F00F00C01D2D4942
:1036300008602D48006840F001002B490860002018
:10364000294910310860284800682849084026495F
:1036500008602448006800F00F00072806D92148B8
:10366000006820F00F00C01D1E49086000201E49A0
:1036700018310860091D0860091D08601C481A49B6
:10368000283108601B48091D08601B48091D086097
:103690000020091D08601848091D08600020091D48
:1036A00008601548091D08600020091D08600E48C3
:1036B000006820F480200C49086000200A4960312D
:1036C00008600E4800686FF30F00B0F1005F02D28F
:1036D00001200B49086043F2D2000A490860704794
:1036E00088ED00E000200052004402587FEDF6EA29
:1036F000000202020000FF01800201010010005CD4
:10370000088100510040005270B50546AC6B0020A6
:10371000A4F85E00A4F856002046FFF747FA70BDF3
:1037200000BF00BF026852E8002F22F490710368C6
:1037300043E80012002AF5D100BF00BF00BF0268B5
:10374000083252E8002F104B02EA030102680832E7
:1037500042E80013002BF2D100BFC16E01290CD149
:1037600000BF00BF026852E8002F22F0100103687A
:1037700043E80012002AF5D100BF2021C0F88810CC
:103780000021C16601677047FEFFFFEF10B50446D8
:1037900000BF00BF216851E8001F21F040002268EF
:1037A00042E800010029F5D100BF2020C4F88400C0
:1037B000002060672046FFF7AFFC10BD2DE9F04107
:1037C0000446B4F86070D4F88800222857D12068E5
:1037D000406A86B2A56D06EA07002880A06D801CAD
:1037E000A065B4F85E00401EA4F85E00B4F85E0068
:1037F00000284AD100BF00BF216851E8001F21F412
:103800009070226842E800010029F5D100BF00BF96
:1038100000BF2168083151E8001F21F00100216834
:10382000083141E80002002AF3D100BF2020C4F88B
:10383000880000202067E06E01281CD10020E0668F
:1038400000BF00BF216851E8001F21F0100022686E
:1038500042E800010029F5D100BF2068C069C0F32B
:10386000001010B1102021680862B4F85C102046E6
:10387000FFF798F909E02046FFF700FC05E0206813
:10388000806940F0080021688861BDE8F08100008F
:103890002DE9F84F0446B4F860B02068C569206887
:1038A000006800902068D0F808A0D4F8880022288A
:1038B0007ED1B4F8689096E02068406A1FFA80F8DC
:1038C000A76D08EA0B003880A06D801CA065B4F8D5
:1038D0005E00401EA4F85E002068C56905F0070080
:1038E000B0B305F0010060B1009800F4807040B101
:1038F000012021680862D4F88C0040F00100C4F86F
:103900008C0005F0020058B10AF0010040B102201D
:1039100021680862D4F88C0040F00400C4F88C00E0
:1039200005F0040058B10AF0010040B104202168FC
:103930000862D4F88C0040F00200C4F88C00D4F87F
:103940008C0028B12046FFF731F90020C4F88C0024
:10395000B4F85E0068BB00BF00BF216851E8001FDB
:1039600021F48070226842E800010029F5D100BFEF
:1039700000BF00BF2168083151E8001F344A01EA46
:1039800002002168083141E80002002AF2D100BF9C
:103990002020C4F8880000202067E06E01281FD195
:1039A0000020E06600BF00BF216851E8001F01E071
:1039B00046E018E021F01000226842E800010029EA
:1039C000F2D100BF2068C069C0F3001010B1102010
:1039D00021680862B4F85C102046FFF7E3F802E0C3
:1039E0002046FFF74BFBB9F1000F04D005F0200093
:1039F00000287FF461AFB4F85E6006B3B4F86800E5
:103A0000B04223DD00BF00BF2168083151E8001F2C
:103A100021F080502168083141E80002002AF3D1EA
:103A200000BF0C48206700BF00BF216851E8001F9D
:103A300041F02000226842E800010029F5D105E0AC
:103A40002068806940F0080021688861BDE8F88F2F
:103A5000FEFFFFEFBD37020870B50446B4F86060A2
:103A6000D4F88800222857D12068406A85B2F0B285
:103A70002840A16D0870A06D401CA065B4F85E00E0
:103A8000401EA4F85E00B4F85E0000284AD100BFD2
:103A900000BF216851E8001F21F49070226842E8BD
:103AA00000010029F5D100BF00BF00BF2168083127
:103AB00051E8001F21F001002168083141E80002AF
:103AC000002AF3D100BF2020C4F88800002020671E
:103AD000E06E01281CD10020E06600BF00BF216815
:103AE00051E8001F21F01000226842E8000100297F
:103AF000F5D100BF2068C069C0F3001010B11020DC
:103B000021680862B4F85C102046FFF74BF809E022
:103B10002046FFF7B3FA05E02068806940F008000E
:103B20002168886170BD00002DE9F05F0446B4F89B
:103B300060A02068C5692068D0F800B02068D0F87F
:103B40000890D4F8880022287DD1B4F8688095E0E8
:103B50002068406A87B20AF0FF003840A16D087003
:103B6000A06D401CA065B4F85E00401EA4F85E0085
:103B70002068C56905F00700A8B305F0010058B139
:103B80000BF4807040B1012021680862D4F88C00E9
:103B900040F00100C4F88C0005F0020058B109F0B3
:103BA000010040B1022021680862D4F88C0040F086
:103BB0000400C4F88C0005F0040058B109F00100BD
:103BC00040B1042021680862D4F88C0040F0020063
:103BD000C4F88C00D4F88C0028B12046FEF7E6FF2C
:103BE0000020C4F88C00B4F85E0068BB00BF00BFC2
:103BF000216851E8001F21F48070226842E800012A
:103C00000029F5D100BF00BF00BF2168083151E88D
:103C1000001F354A01EA02002168083141E800022C
:103C2000002AF2D100BF2020C4F8880000202067BD
:103C3000E06E01281FD10020E06600BF00BF2168B0
:103C400051E8001F01E046E018E021F01000226872
:103C500042E800010029F2D100BF2068C069C0F32A
:103C6000001010B1102021680862B4F85C102046E2
:103C7000FEF798FF02E02046FFF700FAB8F1000FC8
:103C800004D005F0200000287FF462AFB4F85E6035
:103C900006B3B4F86800B04223DD00BF00BF21685E
:103CA000083151E8001F21F080502168083141E8B7
:103CB0000002002AF3D100BF0C48206700BF00BFFC
:103CC000216851E8001F41F02000226842E800010D
:103CD0000029F5D105E02068806940F008002168DE
:103CE0008861BDE8F09F0000FEFFFFEF593A02082F
:103CF00030B503469965A3F85C20A3F85E20002048
:103D0000186700BF9868B0F5805F0AD1186920B9BC
:103D100040F2FF10A3F8600020E0FF20A3F860004D
:103D20001CE0986848B9186918B9FF20A3F860002A
:103D300014E07F20A3F8600010E09868B0F1805F85
:103D400009D1186918B97F20A3F8600006E03F2068
:103D5000A3F8600002E00020A3F8600000BF00208C
:103D6000C3F88C002220C3F8880000BF00BF1C6885
:103D7000083454E8004F44F001001C68083444E85B
:103D80000005002DF3D100BF586EB0F1005F31D1B6
:103D9000B3F8680090422DDC9868B0F5805F04D1DC
:103DA000186910B92A48186701E02A48186700BF47
:103DB000002083F8800000BF186960B100BF00BF19
:103DC0001C6854E8004F44F480701D6845E8000406
:103DD000002CF5D100BF00BF00BF1C68083454E8B8
:103DE000004F44F080501C68083444E80005002D62
:103DF000F3D12BE09868B0F5805F04D1186910B951
:103E00001548186701E01548186700BF002083F8BF
:103E1000800000BF186960B100BF00BF1C6854E893
:103E2000004F44F490701D6845E80004002CF5D163
:103E30000CE000BF00BF1C6854E8004F44F02000B5
:103E40001D6845E80004002CF5D100BF002030BDFE
:103E500091380208293B0208BD370208593A020886
:103E600010B50248FEF7A4FE10BD00004803002470
:103E700010B53C480068C069C0F34010002862D00B
:103E800039488021002923DD00F01F046218034611
:103E900000BF00BF00BFBFF34F8F00BF00BF00BF18
:103EA00000BF324C23602033203A002AF9DC00BFE7
:103EB00000BF00BFBFF34F8F00BF00BF00BF00BFF8
:103EC00000BF00BFBFF36F8F00BF00BF00BF00BFC8
:103ED00000BF00BF0020FFF7A3F9234A24A1002060
:103EE000FFF754FA00BF24488021002924DD00F0A8
:103EF0001F046218034600BF00BF00BFBFF34F8F0F
:103F000000BF00BF00BF00BF184C0C34236020333B
:103F1000203A002AF8DC00BF00BF00BFBFF34F8F7C
:103F200000BF00BF00BF00BF00BF00BFBFF36F8F67
:103F300000BF00BF00BF00BF00BF80220A49094880
:103F4000FFF762F80DE007480068C069C0F3C000E1
:103F500020B1082003490968086202E00148FEF721
:103F600027FE10BDE0000024800100245CEF00E08B
:103F700025730D0A000000000002002400BFFEE7C8
:103F800010B5124C03202061606111A0A06113499B
:103F9000E1614FF4806121620021A1626162E1620E
:103FA0000BA020660E4961661021A16600212167E1
:103FB000E16661670BA1E01DFCF79BFA0AA12046B0
:103FC000FCF797FA2020A07110BD000044070024E0
:103FD0005465726D696E616C00000000EC0700248E
:103FE000EC0B0024525454005345474745520000FF
:103FF00010B501460A69CB689A4204D88C68641EE1
:10400000E41AA01801E0D41A601E10BD2DE9FC5F6F
:1040100006460F4692469846DDE90C45002F01DA28
:10402000784200E0384683464FF0010903E09BFBED
:10403000FAFB09F10109D345F9DAC84500D9C146AF
:1040400034B1002F03DB05F00400042800D1641E06
:1040500005F0020010B1B8F1000F11D005F0010019
:1040600070B96CB108E0641E2021304600F0BAF847
:10407000F068002800DA02E00CB1A145F3D300BFDC
:10408000F068002836DB002F05DA7F422D2130460C
:1040900000F0A8F807E005F00400042803D12B2164
:1040A000304600F09FF8F068002823DB05F002009E
:1040B000022814D105F0010088B9B8F1000F0ED123
:1040C0006CB108E0641E3021304600F08BF8F068D7
:1040D000002800DA02E00CB1A145F3D300BFF0687C
:1040E000002807DB4346524639463046CDE90045B5
:1040F00000F002F8BDE8FC9F2DE9FC5F8046894690
:1041000015461E460C9CCDF804900127BB4605E0E1
:104110000198B0FBF5F001900BF1010B0198A8425A
:10412000F6D25E4500D9B3460D9800F00100D0B933
:10413000CCB10D9800F00200022803D116B930204E
:10414000009001E02020009009E0641E40460099A4
:1041500000F048F8D8F80C00002800DA02E00CB1B2
:10416000A345F2D300BFD8F80C00002835DB09E0E6
:10417000012E01D9761E04E0B9FBF7FAAA4500D258
:1041800001E06F43F4E700BF00BFB9FBF7FA0AFB99
:104190001799134810F80A10404600F023F8D8F891
:1041A0000C00002800DA03E0B7FBF5F7002FECD194
:1041B00000BF0D9800F0010078B174B109E0641EF1
:1041C0002021404600F00EF8D8F80C00002800DA54
:1041D00002E00CB1A345F2D300BFBDE8FC9F000094
:1041E000085A020870B504460E46A568681C616846
:1041F000814206D320684655681CA060E068401CD8
:10420000E060D4E9011088420DD1A26821682069DC
:10421000FFF756F8A168884203D04FF0FF30E06006
:1042200001E00020A06070BD2DE9F05F04468946E2
:1042300017464FF0000AE56800BFD4F81080A84583
:1042400003D9A8EB0500461E04E0A5EB0800401CBE
:10425000A1680E1AA068401BB04201D9304601E0A7
:10426000A068401B0646BE4201D2304600E03846F8
:104270000646606800EB050B324649465846FCF797
:1042800006F9B244B144BF1B3544A068A84200D12E
:104290000025E560002FD0D15046BDE8F09F2DE904
:1042A000F047044689461546E668A068871BAF427A
:1042B0000AD9606800EB060A2A4649465046FCF7D0
:1042C000E6F87019E06014E0B846606800EB060A92
:1042D000424649465046FCF7DAF8A5EB0708D4F801
:1042E00004A009EB070142465046FCF7D0F8C4F899
:1042F0000C80BDE8F08700000FB4054B10B503A992
:10430000044A029800F0F6F810BC5DF814FB0000B7
:10431000D54C0208A400002402480068C0F3022023
:10432000704700000CED00E010B5002804DB0A0720
:10433000130E054A135406E00A07140E034A00F050
:104340000F031B1FD45410BD00E400E018ED00E083
:1043500002E008C8121F08C1002AFAD1704770474E
:10436000002001E001C1121F002AFBD170470000AC
:104370002DE9FF5F82B00021DDE90430020DDDF898
:1043800040B0034318D044F61050A2F2FF3242432B
:104390001514119801281FD0A5EB0B00401C5FEAF3
:1043A000000A4FF000064E4FDFF83891B0465046F5
:1043B00015D5CAF1000413E0119801244AA301287D
:1043C00001D16FEA0B010298119AC0E90031C0E9EE
:1043D000024206B0BDE8F09FCBF10000DFE70446E3
:1043E0000021404A491842EB0450CDE9001012E088
:1043F000E00707D032463B4640464946FCF75EF9A7
:104400008046894632463B4610461946FCF756F927
:1044100006460F466410002CEAD1DDE90401DDE90F
:104420000023BAF1000F06DAFCF748F942464B4682
:10443000FCF744F905E0FCF7B3F942464B46FCF7BC
:10444000AFF904460E460022284BFCF731FA03D898
:104450004FF0FF30014607E00022254B2046314651
:10446000FCF785F8FCF70BFA102409E0002C0ADBB6
:104470000A220023FBF7DAFF039B30321A55641E31
:1044800050EA0102F2D1641C039AC4F111031444EE
:10449000119A012A03D0012208430DD10AE00843F2
:1044A00004D000204FF0110B119072E7A3EB0B0525
:1044B0006D1E0DE05B4504DD4FF0000205F10105C6
:1044C00004E003DA4FF00002A5F10105002AECD068
:1044D00002981199C0E90231C0E9004579E700006E
:1044E000000014400000F03F300000000000F043E6
:1044F0000000E03F2DE9FF4F95B09A4688460646FA
:104500000025EEE1252877D100242746F94A01212C
:10451000039400E0044316F8013F203B01FA03F046
:104520001042F7D130782A2811D06FF02F0330785D
:10453000A0F13002092A16D8039A44F0020402EBD3
:10454000820203EB42021044761C0390EFE758F816
:10455000042B0392002A03DA504244F400540390DF
:1045600044F00204761C30782E2816D116F8010F7C
:1045700044F004042A280DD06FF02F023078A0F107
:104580003003092B09D807EB870302EB4303C71855
:10459000761CF3E758F8047B761C30786C280FD033
:1045A00006DC4C2817D068280DD06A2814D104E006
:1045B000742810D07A280FD10DE044F400140AE0DA
:1045C00044F4801401E044F440147278824202D131
:1045D00004F58014761C761C307866280BD013DC2A
:1045E000582877D009DC002875D04528F6D0462811
:1045F000F4D047281AD193E118E0632835D0642815
:1046000079D0652812D18BE1702873D008DC672837
:10461000F1D069286FD06E280DD06F2806D1ACE09C
:1046200073282CD0752874D0782853D05246179907
:1046300090476D1C54E1C4F30250022809D00328AE
:104640000DD0D8F8001004280DD00D6008F1040832
:1046500046E1D8F80010EA17C1E90052F6E7D8F8A9
:1046600000100D80F2E70D70F0E718F8041B8DF8CC
:10467000001000208DF80100EB46012003E058F8FF
:1046800004BB4FF0FF3061074FF0000102D40DE092
:1046900009F101018946B9420FDA8145F8DB1BF8BF
:1046A00009100029F4D108E009F10101894681428D
:1046B000FADB1BF809100029F6D103985346A0EB4A
:1046C000090721463846179A00F080FA284400EB83
:1046D000090507E044E008E10DE01BF8010B524634
:1046E00017999047B9F10109F7D253462146384648
:1046F000179AF2E039E00A21C4F302524FF0000B9E
:104700000091022A06D058F8040BC117032A09D0D9
:104710000AE023E008F1070020F00702F2E80201B6
:10472000904605E000B2C117042A01D140B2C1177A
:10473000002906DA0A460021404261EB02012D22DF
:1047400002E0220504D52B228DF80420012203E08B
:10475000E20701D02022F7E7914657E00A2100E066
:1047600010214FF0000B00910BE010214FF0000BD7
:1047700044F004040827009103E008204FF0000BE8
:104780000090C4F30252022A05D058F8040B00210D
:10479000032A08D008E008F1070020F00702F2E839
:1047A0000201904603E080B2042A00D1C0B24FF06B
:1047B000000922072AD53278702A07D0DDF800C018
:1047C0008CF0100C5CEA0B0C05D00EE040228DF84A
:1047D0000420012208E050EA010306D030238DF8BE
:1047E00004308DF8052002229146009B83F00803D7
:1047F00053EA0B030AD150EA010201D1620705D541
:1048000030228DF804204FF001097F1E3278582A9B
:1048100004D039A20C920CAA02920BE03BA2F9E759
:104820005B46009AFBF702FE0C9B9B5C029A521EB1
:104830000292137050EA0102F2D1029804A9081AF8
:1048400000F1200B600702D524F4803400E001273A
:104850005F4502DDA7EB0B0000E0002000EB0B0141
:10486000009003984944401A0390E00306D453464D
:104870002146179A039800F0A9F90544002706E09D
:1048800001A85246C05D179990476D1C7F1C4F458B
:10489000F6DBE0030CD553462146179A039800F047
:1048A00095F9054404E030205246179990476D1C55
:1048B0000099481E00900029F5DC08E00298029952
:1048C00052460078491C0291179990476D1CBBF124
:1048D0000001ABF1010BF1DC5BE100F065F905448F
:1048E000761C307800287FF40DAE19B02846BDE85C
:1048F000F08F00000928010030313233343536376B
:10490000383961626364656600000000303132331B
:1049100034353637383941424344454600000000BB
:10492000600700D4062708F1070020F00700F0E830
:104930000223804603F0004C5FEA0C0001D097A0F0
:1049400009E0200501D596A005E0E00701D095A07B
:1049500001E0AFF24C001390307823F0004365285B
:104960000CD006DC452809D046281DD047287FD129
:104970003BE0662818D067287AD136E00021112F55
:1049800001DB112000E0781CCDE9000104A90CA88E
:10499000FFF7EEFCDDE90D010C9A4FF0000B07F17B
:1049A0000109109200914EE04FF000400097CDE9D0
:1049B000011004A90CA8FFF7DBFCDDE90D020C9B3C
:1049C0000F994FF0000B91461093009211B9791C8A
:1049D00000EB0109B7EB090003D4C0F1FF3B07F17D
:1049E0000109A9EB0700019042E0012F00DA01273D
:1049F0000021112F01DD112000E03846CDE9000132
:104A000004A90CA8FFF7B4FCDDE90D010C9A009194
:104A10004FF0000BB946109221070FD4009A4A4577
:104A200003DA914601E0A9F10109B9F1010F05DDB1
:104A3000109AA9F10101515C3029F4D0B84202DA90
:104A400010F1040F03DA0121CDE9011010E0002874
:104A500003DC8344A9EB000102E0411C494500DD71
:104A60008946A0EB0B00401C01904FF000400290E3
:104A7000200705D40198484502DB4FF0FF30019034
:104A800000208DF84B0002980DF14B07B0F1004F5C
:104A900025D002200C902B200D90029800280CDAD3
:104AA000404202902D200D9007E00A210298FBF76A
:104AB00029FD3031029007F8011D0C99481E0C9019
:104AC0000029F2DC02980028EFD1791E0D980870B9
:104AD000307800F0200040F0450007F8020D11A8E2
:104AE000C01BC01D02901398007800B1012000EB9C
:104AF0000901019801EBE071029801440398401A02
:104B0000401E0390E00306D453462146179A0398AB
:104B100000F05CF805441398007818B152461799D4
:104B200090476D1CE00323D553462146179A0398FE
:104B300000F04CF805441BE0BBF1000F07DB0098C8
:104B4000584504DD1098179910F80B0001E01799EB
:104B500030205246904701980BF1010B401E05F1A1
:104B60000105019004D12E205246179990476D1CE3
:104B7000B9F10001A9F10109DEDC05E017F8010B2C
:104B80005246179990476D1C0299481E02900029C1
:104B9000F4DC53462146179A03989EE62D00000048
:104BA0002B000000200000002DE9F0410446002504
:104BB0001E461746880404D405E039462020B04735
:104BC0006D1C641EF9D52846BDE8F0812DE9F04141
:104BD000044600251E469046C80301D5302700E054
:104BE0002027880404D505E041463846B0476D1CAF
:104BF000641EF9D52846BDE8F08130B502464FF66F
:104C0000FF7018E012F8015B80EA052008230FE02E
:104C100000F400443CB14FF6FF7404EA400041F256
:104C20002104604003E04FF6FF7404EA40005B1E7D
:104C3000002BEDD1491E0029E4D130BD70B50446EA
:104C40000420FDF781FF0A48046025464FF47A707E
:104C500045434FF0E020006940F002004FF0E021B2
:104C6000086108464561006940F00100086170BDB7
:104C70000C00002430B50446002504E04FF47A709F
:104C800000F004F86D1CA542F8D330BD70B50346A2
:104C900000224FF0E02675690D4E366803FB06F4DE
:104CA0004FF0E026B16910E04FF0E026B06988428D
:104CB0000BD0884202D20E1A324402E02E1A0E4461
:104CC00032440146A24200D300E0EDE700BF70BDD0
:104CD0000C00002470B505460C460548844203D1FB
:104CE000284600F043F970BD4FF0FF30FBE70000AD
:104CF000A4000024002400F099FA0EE000BF002078
:104D0000FEF78EFA2246641C04A10020FEF73EFB4B
:104D100000BF4FF47A70FFF7ADFFEFE7B4F3BCD2FA
:104D2000BAC3A3ACCAC0BDE7C4E3BAC3A3AC686549
:104D30006C6C776F7264203D2025640D0A000000C2
:104D40000EB501200021009103230A46CDE9011090
:104D50001921580700F022F80120002100910323B7
:104D60000246CDE901101221400700F017F801209A
:104D70000021009103230222CDE901101821C80669
:104D800000F00CF801200021009103231A46CDE920
:104D900001101B21C00700F001F80EBD2DE9FF47EF
:104DA00004460D4616461F46DDE90D9ADDF83080B3
:104DB000FCF71EFF01208DF80000F0B28DF8010015
:104DC0000194E8B28DF8080000208DF809008DF8F4
:104DD0000A008DF80B708DF80C008DF80D808DF8A1
:104DE0000E908DF80FA06846FCF7D4FE0420FCF767
:104DF00015FF002004B0BDE8F0872DE9F04104461E
:104E00000F4615464FF00008A66B206C48B9206885
:104E100000282CD1A06800F0C1FC80460020A060D2
:104E200025E07DB93946226C6068FBF730FB216CC8
:104E3000606808446060D4E90101884217D32068A3
:104E4000606014E03946226CE068FBF720FB216CBF
:104E5000E068411AE1602168E068884203D2216C71
:104E6000A068411AE160022D01D106B1761E701CC6
:104E7000A0634046BDE8F081F1B50098846C00263F
:104E80002CB940F6D53220A128A0FFF735FAA06B47
:104E9000E16B884201D2012000E0002028B940F6F1
:104EA000D63219A121A0FFF727FAA06BE16B884247
:104EB00027D294F94550002269462046FFF79DFF0E
:104EC0000646681C60B9606A08B9012000E000204D
:104ED000B0B904F1240000F0E9FC88B101260FE02C
:104EE0007F2D01D0012000E0002028B940F6F632E5
:104EF00005A10EA0FFF700FA681C40B284F8450037
:104F000000BF3046F8BD00002E2E5C2E2E5C4D6991
:104F100064646C6577617265735C46726565525452
:104F20004F535C71756575652E6300004572726F35
:104F3000723A2025732C2025640D0A000948006868
:104F4000006808B9012000E0002020B14FF0FF30D8
:104F50000549086005E003480068C0680068024928
:104F6000086070473C0000246800002410B5044627
:104F70000F480068082802D34FF0FF3010BD0C48DE
:104F800002680068401C0A4B18600A48845418469E
:104F90000068082801D00A2C08D105480549026894
:104FA0000548FBF79BFD0020014908602046E5E726
:104FB000980000249C00002400FE020010B500BFF1
:104FC0004C48006800F4003000B139E000BF00BF79
:104FD00000BFBFF34F8F00BF00BF00BF00BF00BFC7
:104FE00000BFBFF36F8F00BF00BF00BF002042496A
:104FF000086000BF00BF00BFBFF34F8F00BF00BFFE
:1050000000BF00BF00BF00BFBFF36F8F00BF00BF76
:1050100000BF3848006840F400303649086000BFDF
:1050200000BF00BFBFF34F8F00BF00BF00BF00BF76
:1050300000BF00BFBFF36F8F00BF00BF00BF00BF46
:1050400000BF2C4B1B6803F4803303B148E00023FE
:10505000284C7034236000BF00BF00BFBFF34F8FE8
:1050600000BF00BF00BF231F1868C0F34E3100BF50
:10507000C0F3C90200BF43F6E07303EA41134FF0E7
:10508000404404EA827423431B4C1034236000BF65
:1050900000BF131EA2F10102EDD10B1EA1F101010F
:1050A000E6D100BF00BF00BFBFF34F8F00BF00BFFE
:1050B00000BF104B1B6843F480330E4C236000BFCD
:1050C00000BF00BFBFF34F8F00BF00BF00BF00BFD6
:1050D00000BF00BFBFF36F8F00BF00BF00BF00BFA6
:1050E00005484C30006840F0040003494C3108602A
:1050F00010BD000014ED00E050EF00E04A0A52023B
:105100000243014B1A60704708ED00E02DE9F041C1
:105110009CB080460C4615461E4600274048006855
:1051200020F004003E49086000BF002000903D4888
:10513000006820F001003B4908600846006800F064
:105140000100009036480C30006840F4404034497B
:105150000C3108600846006800F44040009000BF31
:1051600000BF00BF2E480C30006800F40050B0F5BE
:10517000005FF7D1212001904FF480300290002091
:10518000049008900120079002200A9002210B91C0
:10519000CDF834800C940E950F96002112910821C1
:1051A00011910021139101A8FDF780F807461FB166
:1051B00001201CB0BDE8F0813F2014900320159021
:1051C00000201690082017904020199000011A9096
:1051D000402018901B90042114A8FCF79BFD074663
:1051E0000FB10120E5E7FCF78BFD0F48006840F0A8
:1051F00080000D49086000BF0B48F430006840F0A3
:1052000002000949F43108600846006800F0020015
:10521000009000BF00BFFCF73FFC0020C9E7000082
:105220000C4802582C0400580044025808B54FF4AA
:1052300000318802FFF762FF00BF042013490860B5
:1052400000BFFFF77DFDFFF7B9FEFCF747FC042325
:1052500002220521C020FFF759FF4FF4F070FFF73D
:10526000EDFC01210F20FBF75FFDFBF7F5FD0020B2
:105270000346024606A10090FDF798FF0020034672
:10528000024605A10090FDF757FF08BD9CEF00E026
:105290005254545550000000525454444F574E003D
:1052A00001460A69D1E901309860D1E901035860EB
:1052B0005068884201D188685060002008611068F9
:1052C000401E10601068704770B5FBF74FF8054638
:1052D000102D11D305F1E02090F8F043104800782C
:1052E000844201DB012000E0002028B940F20932AD
:1052F0000CA11CA0FFF700F81E48006800F4E06055
:105300001D490968884201D8012000E0002028B921
:1053100040F2193203A113A0FEF7EEFF70BD0000AA
:105320007C0000242E2E5C2E2E5C4D6964646C651E
:1053300077617265735C4672656552544F535C7059
:105340006F727461626C655C525644535C41524D9D
:105350005F434D375C723070315C706F72742E63D6
:10536000000000004572726F723A2025732C2025D0
:10537000640D0A000CED00E08000002410B51B480D
:10538000006818B101201A4908602DE00020184972
:10539000086018480068B0FA80F0C0F11F0404EB00
:1053A0008400154951F8200008B1012000E00020D8
:1053B00028B940F6024211A119A0FEF79DFF04EBA7
:1053C00084010D4A02EB810041684968416000F1A7
:1053D000080142688A4202D14168496841604168D7
:1053E000C968134A116000BF10BD0000740000249A
:1053F0005C00002450000024600400242E2E5C2E4B
:105400002E5C4D6964646C6577617265735C46728D
:10541000656552544F535C7461736B732E63000067
:105420004572726F723A2025732C2025640D0A0094
:105430003800002410B500BF502072B680F31188E8
:10544000BFF34F8FBFF36F8F62B600BF00F0B2F8AB
:1054500018B14FF080500449086000BF002080F36D
:10546000118800BF10BD000004ED00E02DE9F047F9
:1054700007460D463C462CB940F2AD4238A141A04A
:10548000FEF73AFF206C08B9012000E0002028B99F
:1054900040F2B14232A13BA0FEF72EFF206808B9CE
:1054A000A06808B9012000E0002028B940F2B64207
:1054B0002BA134A0FEF720FFFFF706FF00BF50210D
:1054C000EFF3118072B681F31188BFF34F8FBFF3F2
:1054D0006F8F62B600BF0646D4F838A0E06B504527
:1054E00035D994F945900AF10100A06309F1010052
:1054F000C0B9A06C38B12046FFF7BEFC20B31DB385
:105500000120286020E0606A08B9012000E0002046
:10551000D0B904F1240000F0C9F9A8B1A5B1012067
:10552000286011E0B9F17F0F01D0012000E00020D8
:1055300028B940F235520AA112A0FEF7DDFE09F1AA
:10554000010040B284F845004FF0010801E04FF03F
:10555000000800BF86F3118800BF4046BDE8F08711
:105560002E2E5C2E2E5C4D6964646C6577617265CD
:10557000735C4672656552544F535C717565756511
:105580002E6300004572726F723A2025732C20251D
:10559000640D0A000549096809B9012005E00449BC
:1055A000096809B9022000E0002070475400002477
:1055B000740000242DE9F0414FF000085F480068B6
:1055C00000287DD15E480068451C5D480560002DBF
:1055D0001DD15C480068006808B9012000E0002087
:1055E00028B940F6C72258A160A0FEF785FE5548AD
:1055F000076862480068534908606048076060486F
:105600000068401C5E490860FFF798FC00BF5D48D9
:105610000068854277D300BF4A480068006808B92F
:10562000012000E0002020B14FF0FF305549086014
:1056300068E044480068C068C4686668B54202D241
:10564000504806605EE06069D4E902128A60D4E9DD
:1056500002214A60211D42688A4201D1E16841600D
:10566000002262610168491E0160A06A98B1A06AC7
:10567000D4E907128A60D4E907214A6004F11801CD
:1056800042688A4201D1216A41600022A262016817
:10569000491E016000BF94F82C10012088403A494F
:1056A0000968084338490860E16A01EB8101374A1B
:1056B00002EB81014868A0608268E260211D00E081
:1056C00033E0826851608160E16A01EB81012F4A19
:1056D00002EB81026261E16A01EB81012B4A52F81F
:1056E0002110491CE26A02EB8202284B43F8221087
:1056F0002749E06A0968C96A88428DD34FF00108DA
:105700008AE700E000BF22480068C06A00EB800022
:105710001E4951F82000012801D94FF001081D4809
:10572000006808B14FF0010804E01B480068401C05
:10573000194908604046BDE8F0810000740000246B
:105740004C0000243C0000242E2E5C2E2E5C4D6963
:1057500064646C6577617265735C4672656552540A
:105760004F535C7461736B732E6300004572726FEC
:10577000723A2025732C2025640D0A004000002475
:10578000600000246800002450000024600400240D
:10579000380000245C0000245800002470B5054641
:1057A0002C460026002D5ED030480068844201D18E
:1057B000012000E0002028B941F24F022CA135A0C1
:1057C000FEF79AFD206D28B941F2500228A131A0C0
:1057D000FEF792FD206D401E2065E16CE06A884274
:1057E00041D0206D00283ED1201DFFF759FD40B962
:1057F00094F82C10012088402A49096881432948DF
:105800000160E06CE062E06AC0F12000A06194F801
:105810002C10012088402349096808432149086069
:10582000E16A01EB8101204A02EB81014868A06036
:105830008268E260211D826851608160E16A01EB4B
:105840008101194A02EB81026261E16A01EB810187
:10585000154A52F82110491CE26A02EB8202124BEF
:1058600043F822100126304670BD000038000024A5
:105870002E2E5C2E2E5C4D6964646C6577617265BA
:10588000735C4672656552544F535C7461736B73FD
:105890002E6300004572726F723A2025732C20250A
:1058A000640D0A00500000246004002470B5064610
:1058B000F068C4682CB940F682423CA144A0FEF7CF
:1058C0001BFDA06AD4E907128A60D4E907214A6067
:1058D00004F1180142688A4201D1216A4160002224
:1058E000A2620168491E01603D48006800283DD160
:1058F0006069D4E902128A60D4E902214A60211D5C
:1059000042688A4201D1E168416000226261016817
:10591000491E016094F82C10012088403149096823
:10592000084330490860E16A01EB81012E4A02EB2D
:1059300081014868A0608268E260211D8268516030
:105940008160E16A01EB8101274A02EB8102626119
:10595000E16A01EB8101244A52F82110491CE26AF4
:1059600002EB8202204B43F8221010E01F494868E6
:10597000E0618268226204F11801826851608160EE
:105980001A4AA26211460968491C116000BF1849F1
:10599000E06A0968C96A884204D9012501201549CD
:1059A000086000E00025284670BD00002E2E5C2E09
:1059B0002E5C4D6964646C6577617265735C4672D8
:1059C000656552544F535C7461736B732E630000B2
:1059D0004572726F723A2025732C2025640D0A00DF
:1059E00074000024500000246004002408070024F0
:1059F000380000245C0000240000000001020304C1
:105A000001020304060708093031323334353637D2
:105A1000383941424344454601000101400000003D
:105A2000000C00240010002480100024000000005E
:105A3000505A020800000024A80000005043020849
:105A4000F85A0208A8000024002000006043020861
:105A50000090D0030090D003000000000000000080
:105A60000000000010000000010000000000000025
:105A7000050A0208F9090208390A0208150A02088B
:105A8000FD09020800000000000000000000000006
:105A90000000000000000000000000000000000006
:105AA00000000000000000000000000000000000F6
:105AB00000000000000000000000000000000000E6
:105AC0001F00000000000000AAAAAAAA000000000F
:105AD0000000000030313233343536373839414236
