:020000040800F2
:100000002813002439030008FB4E0008E3460008CB
:10001000F94E000837050008C15A0008000000002A
:1000200000000000000000000000000081510008F6
:10003000BD07000800000000FD4E000883510008C5
:100040005703000857030008570300085703000828
:100050005703000857030008570300085703000818
:100060005703000857030008570300083905000824
:1000700045050008510500085D05000869050008F0
:10008000750500088105000857030008570300089C
:1000900057030008570300085703000857030008D8
:1000A00057030008570300085703000857030008C8
:1000B00057030008570300085703000857030008B8
:1000C00057030008570300085703000857030008A8
:1000D0005703000857030008B55A000857030008E3
:1000E00057030008570300080000000057030008EA
:1000F0005703000857030008570300085703000878
:100100005703000857030008570300085703000867
:100110005703000857030008570300085703000857
:100120008D050008990500085703000857030008CB
:100130005703000857030008570300085703000837
:1001400000000000000000000000000000000000AF
:100150005703000857030008570300085703000817
:100160005703000857030008570300085703000807
:100170005703000857030008570300080000000059
:100180005703000857030008570300085D54000890
:1001900057030008570300085703000857030008D7
:1001A00057030008570300085703000857030008C7
:1001B00057030008570300085703000857030008B7
:1001C00057030008570300085703000857030008A7
:1001D0005703000857030008570300085703000897
:1001E0005703000857030008570300085703000887
:1001F0005703000857030008570300085703000877
:100200005703000857030008570300085703000866
:100210005703000857030008570300085703000856
:1002200057030008570300085703000800000000A8
:100230005703000857030008000000005703000898
:100240005703000857030008570300085703000826
:100250005703000857030008570300085703000816
:100260005703000857030008570300085703000806
:100270005703000857030008570300080000000058
:100280005703000857030008570300080000000048
:10029000000000005703000800F002F800F03CF8EE
:1002A0000AA090E8000C82448344AAF10107DA45D1
:1002B00001D100F031F8AFF2090EBAE80F0013F0E7
:1002C000010F18BFFB1A43F001031847045900003F
:1002D00024590000103A24BF78C878C1FAD85207D0
:1002E00024BF30C830C144BF04680C6070470000B0
:1002F0000023002400250026103A28BF78C1FBD82F
:10030000520728BF30C148BF0B6070471FB505F0CA
:100310003AFC1FBD10B510BD00F0D3F81146FFF731
:10032000F5FF05F0DFFB00F0F1F803B4FFF7F2FF93
:1003300003BC00F0F9F800000A4880470A488047EB
:100340000A480047FEE7FEE7FEE7FEE7FEE7FEE7B6
:10035000FEE7FEE7FEE7FEE705480649064A074BCB
:1003600070470000F90A000831520008990200089D
:10037000280D002428130024280F0024280F00240F
:1003800053EA020C00F069802DE9F04B4FF00006B3
:10039000002B1FBFB3FA83F503FA05F424FA05F620
:1003A0005E4012BF1643B2FA82F502FA05F4C5F1B7
:1003B00020051EBF22FA05FC44EA0C04203556EA4B
:1003C000044C4FEA144418BF641C4FF000084FF06F
:1003D0000009904271EB030C39D3002919BFB1FA1F
:1003E00081F701FA07F6B0FA80F700FA07F6C7F1CD
:1003F00020071EBF20FA07FC46EA0C062037B6FB92
:10040000F4FCA7EB0507103F07F01F0BCBF120060C
:100410000CFA0BFB2CFA06F644BFB3460026202F3D
:10042000A4BF5E464FF0000B5BEA060C08BF4FF01E
:10043000010B19EB0B09ABFB027C48EB0608C01B58
:1004400006FB02CC0BFB03CC71EB0C01C1E70B46A6
:10045000024641464846BDE8F08B13B54FF0000018
:100460004FF00001AFF30080BDE81C4070474FF033
:10047000000200B5134694469646203922BFA0E8F4
:100480000C50A0E80C50B1F12001BFF4F7AF090700
:1004900028BFA0E80C5048BF0CC05DF804EB8900F1
:1004A00028BF40F8042B08BF704748BF20F8022B34
:1004B00011F0804F18BF00F8012B7047704770474C
:1004C0007047754600F02CF8AE4605006946534665
:1004D00020F00700854618B020B5FFF73DFFBDE8C6
:1004E00020404FF000064FF000074FF000084FF09B
:1004F000000B21F00701AC46ACE8C009ACE8C0092C
:10050000ACE8C009ACE8C0098D46704710B5044698
:10051000AFF300802046BDE81040FFF706BF0000A3
:1005200000487047C80C002401491820ABBEFEE704
:10053000260002007047FEE7014800F0DDBD000024
:100540006C080024014800F0D7BD0000E408002436
:10055000014800F0D1BD00005C090024014800F012
:10056000CBBD0000D4090024014800F0C5BD000047
:1005700014060024014800F0BFBD00008C060024D2
:10058000014800F0B9BD000004070024014800F054
:10059000B3BD00007C070024014800F0ADBD0000A1
:1005A000F4070024294A016891423AD0274A1832B8
:1005B000914236D0254A3032914232D0234A4832D5
:1005C00091422ED0214A603291422AD01F4A78327D
:1005D000914226D01D4A9032914222D01B4AA83225
:1005E00091421ED01A4A91421BD0194A18329142A8
:1005F00017D0174A3032914213D0154A48329142EF
:100600000FD0134A603291420BD0114A7832914296
:1006100007D00F4A9032914203D00D4AA83291423E
:1006200011D1CAB21823103AB2FBF3F26FF30901E9
:10063000032A02F00703074AD25CC26500D9091DEC
:1006400081650846704721F0FF01F9E7100002407C
:1006500010040240905B000830B5224A0123016873
:100660009142CAB21BD01F4C1434A14217D01D4C6A
:100670002834A14213D01B4C3C34A1420FD0194C5A
:100680005034A1420BD0174C6434A14207D0154C12
:100690007834A14203D0134C8C34A1420CD11421E4
:1006A000114C083AB2FBF1F10F4A803201F01F05FC
:1006B00004EB8101AB4010E00C4D1824103A0D44BE
:1006C000B2FBF4F1A82D00D80831094A01F01F044B
:1006D00002EB8101064AA3408032603080E80E00C0
:1006E00030BD00000854025800580258F0FBFDBF0E
:1006F0000008024010B50279531E072B2DD8174C65
:100700000168A1421BD0154C1434A14217D0134CE0
:100710002834A14213D0114C3C34A1420FD00F4CCD
:100720005034A1420BD00D4C6434A14207D00B4C85
:100730007834A14203D0094C8C34A14203D108493A
:10074000074C443102E00749064C443104EB820275
:10075000C0E91B2101219940416710BD085402588E
:10076000FC580258FC08024010B583694FF0C07471
:10077000826A0146002053B1B3F5005F15D072B113
:10078000012A0CD0022A0AD0032A09D104E01AB1A6
:10079000012A06D0022A03D1C96AC90100D5012065
:1007A00010BDC96AA142FAD010BD002AF7D0012AB3
:1007B000F2D0022AF3D0032AF3D010BD704770B5EF
:1007C000A2B0064600244FF4C36001258DF80F50F7
:1007D00002238DF81D4069038DF80E5009948DF8A1
:1007E0001F400D9020208DF804508DF832504202A9
:1007F0008DF8605006914FF040518DF838400294CA
:100800008DF861408DF81C408DF828408DF86240CD
:100810008DF80C400B948DF81E500F948DF81150EC
:1008200012948DF840408DF831408DF812401494A8
:100830008DF856401790304616938DF8205005924B
:100840008DF854408DF830408DF810500091694675
:100850008DF80D408DF8554011948DF84C5000F0F6
:1008600075F81B9568058DF871404FF406718DF889
:10087000685019948DF880408DF870401F908DF865
:1008800078401D9030468DF88140219119A900F0E3
:1008900003F822B070BD0000F0B5026847F6020E02
:1008A000274E4DF2010702F58052264DD1F800C0C7
:1008B0001368254C23EA0E0343EA0C0313600B79FB
:1008C000026891F80CE002F58052D1F808C01B03D1
:1008D00043EACE3343EA0C03D2F804C02CEA070CF7
:1008E0004CEA030CC2F804C002684F7B02F5805248
:1008F0000B6A43EA0747D2F8003133403B43C2F862
:10090000003102680B7D02F5805291F81DC00F691D
:10091000D2F804611B0143EA0C332E403B431E43D3
:10092000C2F8046100680B7F00F580508A69D0F836
:10093000081142EAC37221401143C0F80811F0BD0A
:1009400000C0FEFFEFEFC0FFFFFFC07FF0B50B79E7
:100950000C7B0F688A68DB064D7B43EAC4533A433D
:100960008E7B1A43CF7B91F810C042EA855242EA4F
:100970004652BCF1000F42EA07537CD000224C7C67
:10098000002C43EAC24278D000238E7C0D7F42EADD
:1009900043428F7FD1E9053442EA06424E7F1A4333
:1009A000224342EA0532002F42EAC62466D00022E2
:1009B000CD7F91F8203044EA8222002B42EA452282
:1009C0007ED0002504684B6A42EA052291F828701F
:1009D000464D1A43CE6A236842EA071232432B403F
:1009E0001343236091F83C2091F8383091F830504F
:1009F00091F83140520642EA036291F8326042EACD
:100A0000854242EA4444BEB300220368384E4F6B2D
:100A100044EA02425C683A4340F20F153440144302
:100A20005C60036891F840604C6CDA6844EA062424
:100A3000AA432243DA6091F854300A6D91F84C4091
:100A400042EA4302ECB300240368B1F848504FF681
:100A50000D76E7011C6F47EA05452A4334401443ED
:100A60001C67026891F8563091F8555052F8904F33
:100A700043EA450303E02BE032E02BE02CE024F0D6
:100A800003041C43146002688C6DD2F8003D23F00F
:100A900072032343C2F8003D91F86020CC6D1AB375
:100AA0005FF00003026891F8615091F8621044EA27
:100AB0008310D2F8303D2C0144EAC101084301E023
:100AC0000CE00FE023F07B010143C2F8301DF0BDC4
:100AD000012254E7012358E7012269E7012571E764
:100AE000012292E70124AFE70123DBE783800400C2
:100AF0000080F8C072B6FEE705480549083902686B
:100B000042F00202026008688004FCD570470000D1
:100B10000C4802582DE9F84F044601F0E5FA009020
:100B20003CB194F83500022806D080216165002090
:100B3000E4E00120BDE8F88FC74DC74EC64918351F
:100B400020683036DFF81483DFF814938842DFF82A
:100B500014A3DFF814B32ED0A8422CD0B0422AD070
:100B6000404528D0484526D0504524D0584522D06D
:100B7000BD4A183290421ED0BC4A90421BD0BB4A9C
:100B80001832904217D0B94A3032904213D0B74A47
:100B9000483290420FD0B54A603290420BD0B34AEF
:100BA0007832904207D0B14A9032904203D0AF4A97
:100BB000A832904209D1026822F01E020260206829
:100BC000426922F08002426103E0026822F00E02D4
:100BD000026027688F4238464DD0A8424BD0B042C1
:100BE00049D0404547D0484545D0504543D0584569
:100BF00041D09D4A183290423DD09C4A90423AD012
:100C00009A4A1832904236D0984A3032904232D0C6
:100C1000964A483290422ED0944A603290422AD06E
:100C2000924A7832904226D0904A9032904222D016
:100C30008E4AA83290421ED08D4A90421BD08C4AD8
:100C40001432904217D08A4A2832904213D0884AF0
:100C50003C3290420FD0864A503290420BD0844AA8
:100C60006432904207D0824A7832904203D0804A60
:100C70008C32974204D1206E026822F480720260A6
:100C800075492068884228D0A84226D0B04224D096
:100C9000404522D0484520D050451ED058451CD054
:100CA00071491831884218D07049884215D06F496F
:100CB0001831884211D06D49303188420DD06B49CE
:100CC0004831884209D069496031884205D0674976
:100CD0007831884201D065499031016821F00101E5
:100CE00001600EE001F000FA0099401A052808D9C9
:100CF000202262650321002084F8351084F8340036
:100D000017E73868C007EDD1534A012120689042A7
:100D10002ED0A8422CD0B0422AD0404528D04845F9
:100D200026D0504524D0584522D04F4B18339842F6
:100D30001ED04E4B98421BD04C4B1833984217D0C4
:100D40004A4B3033984213D0484B483398420FD027
:100D5000464B603398420BD0444B7833984207D0CF
:100D6000424B9033984203D0404BA833984208D16D
:100D700094F85C703F23A06D07F01F07BB408360B1
:100D800007E094F85C30A06D03F01F0301FA03F351
:100D90004360206890424DD0A8424BD0B04249D029
:100DA000404547D0484545D0504543D0584541D0AF
:100DB0002D4A183290423DD02C4A90423AD02B4ACC
:100DC0001832904236D0294A3032904232D0274AE7
:100DD000483290422ED0254A603290422AD0234A8F
:100DE0007832904226D0214A9032904222D01F4A37
:100DF000A83290421ED01E4A90421BD01C4A143288
:100E0000904217D01A4A2832904213D0184A3C32E6
:100E100090420FD0164A503290420BD0144A64329E
:100E2000904207D0124A7832904203D0104A8C3256
:100E300090420BD1D4E919024260E06E30B10268F1
:100E400022F480720260D4E91C024260002084F81F
:100E5000351084F834006DE610000240580002405E
:100E60007000024088000240A000024010040240CE
:100E7000085402582DE9F05F28B190F83510022986
:100E800004D0802141650120BDE8F09F904C904B3B
:100E90000168183C18338E4ADFF83C92A1428D4C11
:100EA000DFF838E28E4FDFF83CB2DFF83CA28F4D1E
:100EB0008F4E31D091422FD099422DD0A1422BD0CC
:100EC000494529D0714527D0B94225D0DFF810C255
:100ED0000CF1180C61451FD0DFF808C2ACF1600CB2
:100EE000614519D0DFF8FCC1ACF1480C614513D065
:100EF000DFF8F0C1ACF1300C61450DD0DFF8E4C192
:100F0000ACF1180C614507D0594505D0514503D0C7
:100F1000A94201D0B1422CD1DFF8B4C14FF004088E
:100F200080F83580ACF1180C61451DD091421BD082
:100F3000994219D0A14217D0494515D0714513D017
:100F4000B94211D06648183081420DD065486038EA
:100F5000814209D063484838814205D06148303821
:100F6000814201D05F481838086820F0010008600D
:100F7000ABE0D1F800C02CF00E08DFF854C1C1F886
:100F80000080ACF1180C0168614527D0914225D052
:100F9000994223D0A14221D049451FD071451DD08F
:100FA000B9421BD0DFF838C10CF1180C614515D0DF
:100FB000DFF830C1ACF1600C61450FD0DFF824C11F
:100FC000ACF1480C614509D0DFF818C1ACF1300C28
:100FD000614503D0DFF80CC1ACF1180CD1F800C0AA
:100FE0002CF0010CC1F800C0DFF8E4804FF0010CD8
:100FF0000168A8F11808414546D0914244D0994271
:1010000042D0A14240D049453ED071453CD0B94282
:101010003AD0334A1832914236D0324A603A91423D
:1010200032D0304A483A91422ED02E4A303A91423C
:101030002AD02C4A183A914226D0594524D05145FD
:1010400022D0A94220D0B1421ED02A4A91421BD0C0
:10105000284A1432914217D0264A2832914213D09E
:10106000244A3C3291420FD0224A503291420BD056
:10107000204A6432914207D01E4A7832914203D00E
:101080001C4A8C32914218D1016E0A6822F4807297
:101090000A6090F85C20816D02F01F020CFA02F2E7
:1010A0004A60D0E919124A60C16E31B10A6822F46F
:1010B00080720A60D0E91C124A600022016D80F83B
:1010C00035C080F8342001B188470020DCE60000FC
:1010D0002800024058000240700002408800024090
:1010E000A00002407004024088040240A0040240B4
:1010F000B8040240085402582DE9FC5F0446F74E3C
:101100000020DFF8D88300904FF41652F44808F11D
:101110001808A56DDFF8C493DFF8C0A3016809F1D2
:10112000300920680AF1480AB1FBF2F1B04201919E
:101130002F68D5F800C0DFF8ACB335D041468842FF
:1011400032D0484530D050452ED058452CD0E549B6
:101150001831884228D0E3493031884224D0E1490F
:101160004831884220D0E04988421DD0DE491831FC
:10117000884219D0DC493031884215D0DA494831EB
:10118000884211D0DFF860E30EF1600E70450BD09D
:10119000D54A7832904207D0D34B9033984203D04F
:1011A000D149A83188427DD194F85C20082102F011
:1011B0001F0201FA02F23A424AD0B04232D0404510
:1011C00030D048452ED050452CD058452AD0C54A5D
:1011D0001832904226D0C34A3032904222D0C14ABF
:1011E000483290421ED0C04A90421BD0BE4A1832AC
:1011F000904217D0BC4A3032904213D0BA4A48329B
:1012000090420FD0B84A603290420BD0B64A783242
:10121000904207D0B44A9032904203D0B24AA832EA
:10122000904203D1026802F0040202E0026802F078
:1012300008026AB1026822F00402026094F85C00BD
:1012400000F01F008140A960606D40F00100606502
:1012500094F85C00012100F01F008140394240D029
:101260002068B04234D0404532D0484530D0504557
:101270002ED058452CD09B4A1832904228D0994AFB
:101280003032904224D0974A4832904220D0964A39
:1012900090421DD0944A1832904219D0924A30326E
:1012A000904200E0AFE113D08F4A483290420FD015
:1012B0008D4A603290420BD08B4A7832904207D0F0
:1012C000894A9032904203D0874AA83290427DD119
:1012D000406910F0800F04D0A960606D40F00200FA
:1012E000606594F85C00042100F01F0081403942E1
:1012F0003ED02068B04232D0404530D048452ED054
:1013000050452CD058452AD0764A1832904226D0E3
:10131000744A3032904222D0724A483290421ED0F3
:10132000714A90421BD0704A1832904217D06E4AD0
:101330003032904213D06C4A483290420FD06A4A01
:10134000603290420BD0684A7832904207D0664AA9
:101350009032904203D0644AA83290424ED1006845
:1013600010F0020F04D0A960606D40F004006065C9
:1013700094F85C00102100F01F008140394258D0E1
:101380002068B04234D0404532D0484530D0504536
:101390002ED058452CD0534A1832904228D0514A6A
:1013A0003032904224D04F4A4832904220D04E4AA8
:1013B00090421DD04C4A1832904219D04A4A3032DD
:1013C000904215D0484A4832904200E014E00FD0D5
:1013D000454A603290420BD0434A7832904207D05F
:1013E000414A9032904203D03F4AA832904207D1FE
:1013F000006800F0080006E0006872E70068B7E7E0
:10140000006800F00400A0B1A960206801684903E9
:1014100004D50068000308D5A16C07E00168C90580
:1014200003D4016821F008010160216C09B1204654
:10143000884794F85C00202100F01F008140394269
:1014400079D02068B04232D0404530D048452ED0C7
:1014500050452CD058452AD0224A1832904226D0E6
:10146000204A3032904222D01E4A483290421ED04A
:101470001D4A90421BD01C4A1832904217D01A4A7B
:101480003032904213D0184A483290420FD0164A58
:10149000603290420BD0144A7832904207D0124A00
:1014A0009032904203D0104AA832904203D1006893
:1014B00000F0100002E0006800F00200B0B3A96084
:1014C00094F835000428206801680FD049037ED5C0
:1014D000006800032BD4616C2AE000001000024079
:1014E00014000024700002401004024021F0160194
:1014F00001602068416921F080014161206C08B9D8
:10150000A06C20B12068016821F00801016094F806
:101510005C303F21012003F01F0300229940A960A5
:1015200084F8350084F83420216D65E003E0E16B38
:1015300009B120468847606D00287DD0606DC007E6
:1015400059D02068042184F83510B0422BD0404592
:1015500029D0484527D0504525D0584523D09D490E
:10156000884220D09B49183188421CD0994930319B
:10157000884218D09849884215D097491831884236
:1015800011D09549303188420DD093494831884275
:1015900009D091496031884205D08F49783188421D
:1015A00001D08D499031016821F00101016020686E
:1015B0000099019A491C0091914202D80168C9071B
:1015C000F6D10068C00710D003200FE0FFE70168E4
:1015D000C905ACD403680121002223F01003036085
:1015E00084F8351084F83420A1E7012084F8350010
:1015F000002084F83400E16C00291DD002B02046A0
:10160000BDE8F05F0847754988421DD07349143121
:10161000884219D071492831884215D06F493C3130
:10162000884211D06D49503188420DD06B496431E8
:10163000884209D0694900E084E07831884203D0CB
:1016400066498C3188427DD194F85C80042701681A
:1016500008F01F0807FA08F717EA0C0F009746D0A2
:101660004F0744D500980F04686003D5C8033CD4E5
:10167000A16CC1E7880638D42068B0422DD0554906
:101680006039884229D0484527D0504525D0584553
:1016900023D05049884220D04E49183188421CD06E
:1016A0004C493031884218D04B49884215D04A49BC
:1016B0001831884211D04849303188420DD046490E
:1016C0004831884209D0704507D0904205D09842F1
:1016D00003D04149A831884203D1016821F00801B3
:1016E00002E0016821F004010160216C84E7022717
:1016F00007FA08F717EA0C0F00974ED08F074CD562
:1017000000980F04686003D5C80344D4616C73E784
:10171000880640D42068B0422FD02E4960398842D4
:101720002BD0484529D0504527D0584525D02949A8
:10173000884222D02749183188421ED025493031AD
:10174000884200E044E018D02349884215D022495D
:101750001831884211D02049303188420DD01E49BD
:101760004831884209D0704507D0904205D0984250
:1017700003D01949A831884203D1016821F014012E
:1017800002E0016821F00A010160012184F83510AE
:10179000002084F83400E16B2EE7082202FA08F2F8
:1017A00012EA0C0F14D0090712D5016821F00E01BE
:1017B000016094F85C100120002201F01F0100FA82
:1017C00001F16960606584F8350084F8342012E71F
:1017D000BDE8FC9F880002401004024008540258F3
:1017E0002DE9F05F044600F07FFC002C07467DD019
:1017F000E34E022120684FF00308DFF888934FF092
:101800000005DFF884A3B042DFF880B334D0DC4AAF
:101810001832904230D048452ED050452CD05845F3
:101820002AD0DA4A1832904226D0D84A3032904232
:1018300022D0D64A483290421ED0D54A90421BD080
:10184000D34A1832904217D0D14A3032904213D046
:10185000CF4A483290420FD0CD4A603290420BD0EE
:10186000CB4A7832904207D0C94A9032904203D096
:10187000C74AA83290427DD184F83510B04284F82E
:1018800034502ED0BE49183188422AD0484528D03D
:10189000504526D0584524D0BC491831884220D024
:1018A000BA49303188421CD0B8494831884218D0F2
:1018B000B749884215D0B6491831884211D0B44989
:1018C000303188420DD0B2494831884209D0B04900
:1018D0006031884205D0AE497831884201D0AC49A8
:1018E0009031016821F00101016008E027E100BFAB
:1018F00000F0FAFBC01B052801D920211CE120685B
:101900000068C007F4D104F108002168D4E9053C5F
:101910008E4685C809681043D4E907281F43636AC7
:1019200038439C4F40EA0C001043394040EA08001D
:10193000042B40EA010003D1D4E90B121143084300
:10194000954909686FF30F01B1F1005F0FD361682A
:10195000A1F12902052A08D9163A032A05D9083A1D
:10196000012A02D94F39032901D840F48010CEF85A
:10197000000000E023E02068676A4069042F20F03F
:10198000070047EA00070DD1D4E90A01074349B12E
:101990002046FEF7E9FE28B140206065012184F869
:1019A0003510CCE0206847612046FEF7FBFD94F837
:1019B0005C203F2102F01F029140816054E0774A91
:1019C00090421BD0754B1433984217D0734B283379
:1019D000984213D0714B3C3398420FD06F4B503329
:1019E00098420BD06D4B6433984207D06B4B7833E1
:1019F000984203D0694B8C3398427DD184F83510DE
:101A000084F83450664B0168A26801EA030E402A4C
:101A100073D0802A72D00022D4E90378D4E905314A
:101A200042EAD70242EAD8085C4AD4E9077C48EA8D
:101A3000D30848EAD10141EAD701524241EA1C11D8
:101A4000142341EA0E01016020681044B0FBF3F05A
:101A50008000E0652046FEF7A5FD94F85C2001219A
:101A600002F01F02914041602068B04257D04449C3
:101A70001831884253D0484551D050454FD0584531
:101A80004DD042491831884249D0404930318842CE
:101A900045D03E494831884241D03D4988423ED0F8
:101AA0003B49183188423AD039493031884236D0E2
:101AB00037494831884232D03549603188422ED08A
:101AC0003349783188422AD031499031884226D032
:101AD0002F49A831884222D0304988421FD02F494F
:101AE000143188421BD02D492831884217D02B4908
:101AF0003C31884213D002E01DE017E018E027498E
:101B0000503188420BD025496431884207D023499F
:101B10007831884203D021498C31884229D120462E
:101B2000FEF79AFDA06880280CD00CE0102273E725
:101B30004FF4804270E74021616584F835800120D0
:101B4000BDE8F09F6560216E20790860D4E9190135
:101B500041606068401E072808D82046FEF7CAFD8D
:101B6000E06E0560D4E91C01416002E0E56625678E
:101B700065670120656584F835000020E0E7000016
:101B80001000024040000240580002407000024035
:101B9000100402403F8010FE0010005C0854025800
:101BA0000F00FEFFF8B5040003D0D4F8840010B194
:101BB00007E00120F8BD2320C4F88400204600F08F
:101BC000CBF86248016841F002010160006800F052
:101BD00002000090207A08B14FF4000001F040FFAD
:101BE0005B492068096800F58050016841F00101F7
:101BF000016000F079FAE02605464FF4FA7706E036
:101C000000F072FA401BB84201D9042023E020689A
:101C100000F580500068C007F2D1204600F006F9B8
:101C200001F074FA4B4A2168B0FBF2F0401EC1F893
:101C3000DC002046FEF7C3FD206800F58050D0F898
:101C4000001121F4E01141F40021C0F80011616994
:101C5000880705D00120C4F88800C4F88460A8E78C
:101C6000206847F6FE7300F58050D0F808219A43AB
:101C700042EA4101C0F8081100210846E26800EB81
:101C8000400504EB800302EBC502116051609160D6
:101C9000D160401C04289A61F0D3A162032320681C
:101CA00000F58050C0F82C312068E26800F58050C3
:101CB000C0F814212068E26800F58050C0F82021A7
:101CC0005FF00002206902EB420604EB820500EBA4
:101CD000C600016041608160C160521C0161042A3C
:101CE0004161A864EED3E1652166A166E166A16564
:101CF000206800F58050C0F830312068226900F576
:101D00008050C0F81C212268206902F580524830BA
:101D1000C2F828011023D4E900208088C2F800030B
:101D2000D4E900208578C77890F801C006782D04A2
:101D300046EA076045EA0C252843C2F80403C4F8C4
:101D40008810C4F884300020F8BD0000F444025824
:101D50000404005840420F0070B586B004461421B8
:101D60006846FEF784FB2C492068884251D12B48F5
:101D7000016841F400410160016801F400410591EE
:101D8000016841F480310160016801F480310591FE
:101D9000016841F400310160006800F400300590F2
:101DA0001E480830016841F004010160016801F03B
:101DB00004010591016841F001010160016801F031
:101DC00001010591016841F00201016000680224EF
:101DD0000025694600F00200059032200B268DE8B0
:101DE00031000F48CDE9034600F05CF886206946D3
:101DF0008DE831000B48CDE9034600F053F84FF46D
:101E0000605069468DE831000748CDE9034600F08F
:101E100049F806B070BD000000800240D844025866
:101E200000080258000002580004025870B5054628
:101E30000068D0F8000220F4706401F067F91149DD
:101E4000114A0144914202D244F4007416E00F4A50
:101E50000F4902448A4202D244F440740EE00D4A13
:101E60000D4902448A4209D30C4A0D491044884264
:101E700002D244F4807401E044F480642868C0F81D
:101E8000004270BD00D3CEFEC0E1E40040F1E9FDA8
:101E900040787D0100796CFC005A6202001F0AFA4A
:101EA00080F0FA022DE9F84F03247D4D00234FF016
:101EB00001094FF0B04B4FF00F0AE9E009FA03F7C0
:101EC0003A4076D00E7906F00306012E01D0022E9C
:101ED00018D1D0F808C04FEA430ECE6804FA0EF8C5
:101EE0002CEA080C06FA0EF646EA0C068660D0F8D4
:101EF00004C00E792CEA070CC6F300169E4046EA91
:101F00000C0646600E79F643B6070BD0C6684FEA5A
:101F100043088F6804FA08FC26EA0C0607FA08F75B
:101F20003743C7600E7906F00306022E12D1DE0891
:101F30000F694FEA437C00EB8606B646366A4FEAE5
:101F4000DC6C0AFA0CF807FA0CF726EA08063743A5
:101F5000CEF820700F7906684FEA430807F00307B0
:101F600004FA08FC07FA08F726EA0C06374307606C
:101F70004E6816F4403F1CD04A4E376847F00207BF
:101F8000376036689F0706F00206009623F00306C6
:101F900006F1B046B6463F0FD6F80864DFF8088170
:101FA0000AFA07FC404526EA0C0603D14FF0000C64
:101FB00041E06CE0DFF8F4C0604502D14FF0010C65
:101FC00039E0DFF8ECC0604502D14FF0020C32E09E
:101FD000DFF8E0C0604502D14FF0030C2BE0DFF8E2
:101FE000D8C0604502D14FF0040C24E0DFF8CCC02B
:101FF000604502D14FF0050C1DE0DFF8C4C060451C
:1020000002D14FF0060C16E0DFF8B8C0604502D1EF
:102010004FF0070C0FE0DFF8B0C0604502D14FF081
:10202000080C08E0DFF8A4C0604502D14FF0090CAD
:1020300001E04FF00A0C0CFA07FC4CEA060CCEF853
:1020400008C44F68DBF80060FF0226EA020600D5EC
:1020500016435F46CBF80060D1F804C0DBF804609B
:102060005FEA8C2C26EA020600D516437E606E6875
:102070004F6826EA0206BF0300D516436E602E683D
:102080004F6826EA0206FF0300D516432E605B1C4C
:102090000A6832FA03F67FF411AFBDE8F88F00004A
:1020A00080000058F444025800000258000402580E
:1020B00000080258000C0258001002580014025880
:1020C00000180258001C0258002002580024025830
:1020D0000AB1816170470904FBE70000014800680C
:1020E000000C70470010005C0148806870470000D9
:1020F000080000240248816802781144816070471A
:1021000008000024032010B500F0D6F801F044F8D0
:102110000F4A104914681368C4F3032203F00F0335
:102120008A5CC95C02F01F0201F01F01D0400A4A1C
:1021300020FA01F1116009490860032000F010F84D
:1021400008B1012010BD00F079F8002010BD00009A
:1021500018440258C05B0008180000241400002432
:1021600070B50D4D04462878A0B14FF47A71B1FBDB
:10217000F0F00A490968B1FBF0F001F07BFC48B9C6
:10218000102C07D200222146501E00F075F80020C6
:102190006C6070BD012070BD080000241400002494
:1021A000F0B5154C4378211D0A1D23600378F3B167
:1021B00043680B60057BC67A817A437B2D07847B5D
:1021C00045EA0665C77B90F809C0067A90F800E0FA
:1021D00045EAC14040EA834040EA444040EA0740C3
:1021E00040EA0C2040EA460040EA0E0001E00020F0
:1021F00008601060F0BD000098ED00E0BFF35F8F55
:10220000044800210368034A23F4803303607032DA
:102210001160704724ED00E0074A40F001000649D4
:1022200070321060086840F480300860BFF34F8F50
:10223000BFF36F8F7047000024ED00E0064882B0C6
:10224000016841F002010160006800F002000090A6
:10225000052002B000F030B8F4440258002809DB31
:10226000410900F01F028900012001F1E0219040A6
:10227000C1F80001704700000E4BF0B41B680D461A
:10228000C3F30223C3F10706042E00D90426191D47
:10229000072901D2002300E0DB1E012404FA06F125
:1022A0009C40491E2940641E994014402143F0BCC3
:1022B00003F007BC0CED00E0064900F0070210B582
:1022C0004FF6FF040868044B204040EA0220184300
:1022D000086010BD0CED00E00000FA05134970B570
:1022E0000A68D243520705D5096801F00701814207
:1022F00013D118E00A6822F0070202430A60FFF7D0
:10230000F3FE0A4D4FF47A760446083D07E000BF1D
:10231000FFF7EAFE001BB04201D9012070BD28681A
:10232000C0438004F4D4002070BD00000C48025863
:1023300010B500F0EBFE05490968054AC1F302112A
:10234000515C01F01F01C84010BD0000204402583C
:10235000C05B0008494930B5484C0B1D0A6814346D
:1023600009681D68246802F00303C5F30012C1F375
:102370000531C4F3CC04002914FB02F200EE102A4C
:10238000F8EE400A75D03F4A9FED3D1AB7EE000ABD
:102390006BB1DFED3D1A012B01D0022B64D002EEB0
:1023A000101A1168F8EE422A81EEA22A21E0334C7D
:1023B000283C23689B0612D5344B246801EE901A02
:1023C0001168C4F3C104F8EE612AE34001EE903ACB
:1023D000C1F30801F8EE611A81EEA22A0BE001EECA
:1023E000901ADFED2B2A00BFF8EE611A116882EE19
:1023F000A12AC1F3080101EE901A1168F8EE611AE2
:1024000040EE811A71EE800A62EE200AC1F3462185
:1024100001EE101AB8EE411A31EE001AC0EE811A20
:10242000BCEEE11A80ED001A1168C1F3064101EE1D
:10243000101AB8EE411A31EE001AC0EE811ABCEE45
:10244000E11A80ED011A1168C1F3066101EE101A5C
:10245000B8EE411A31EE000A80EE801ABCEEC10AD5
:1024600080ED020A30BD04E001EE901ADFED092A8A
:10247000BAE70021016041608160F3E72844025817
:1024800000000039384402580024744A0090D003F8
:102490000024744C20BCBE4B494930B5484C0B1D40
:1024A0000A681C3409681D68246802F00303C5F338
:1024B0000022C1F30551C4F3CC04002914FB02F23D
:1024C00000EE102AF8EE400A75D03F4A9FED3D1A03
:1024D000B7EE000A6BB1DFED3D1A012B01D0022BE4
:1024E00064D002EE101A1168F8EE422A81EEA22A98
:1024F00021E0334C283C23689B0612D5344B2468DA
:1025000001EE901A1168C4F3C104F8EE612AE340A9
:1025100001EE903AC1F30801F8EE611A81EEA22AA9
:102520000BE001EE901ADFED2B2A00BFF8EE611AE6
:10253000116882EEA12AC1F3080101EE901A116818
:10254000F8EE611A40EE811A71EE800A62EE200AFE
:10255000C1F3462101EE101AB8EE411A31EE001A0D
:10256000C0EE811ABCEEE11A80ED001A1168C1F3C9
:10257000064101EE101AB8EE411A31EE001AC0EE13
:10258000811ABCEEE11A80ED011A1168C1F30661EF
:1025900001EE101AB8EE411A31EE000A80EE801AF0
:1025A000BCEEC10A80ED020A30BD04E001EE901AD3
:1025B000DFED092ABAE70021016041608160F3E79D
:1025C0002844025800000039404402580024744A4C
:1025D0000090D0030024744C20BCBE4B2DE9FC5F5E
:1025E000044650F8241B002500902E460801FE4F9B
:1025F000DFF8F8831DD5606E50B1B0F5801F0CD0A8
:10260000B0F5001F0ED0B0F5401F1DD001250FE022
:10261000386840F40030386016E00221201D02F0D6
:102620008FFC03E00098022102F01AFD05000BD098
:102630002E462088C00523D5606D05281ED2DFE810
:1026400000F00C11161B1B00626ED8F8001021F46C
:1026500040111143C8F80010EBE7386840F400302F
:10266000386009E00021201D02F06AFC03E00098B8
:10267000002102F0F5FC05466DB100E001252E4673
:102680002088800528D5A06D80281ED00CDC90B154
:1026900040280ED114E0626DD8F8001021F0070137
:1026A0001143C8F80010EBE7C02813D0B0F5807FC5
:1026B00010D001250FE0386840F40030386009E0A0
:1026C0000021201D02F03CFC03E00098002102F0F4
:1026D000C7FC054695B12E462088DFF810934005CB
:1026E00009F108092CD5D4F8A400B0F5800F20D04A
:1026F0000DDCA0B1B0F5001F0FD115E0A26DD8F828
:10270000001021F4E0711143C8F80010E4E7B0F5BF
:10271000C00F13D0B0F5000F10D001250FE03868BE
:1027200040F40030386009E00021201D02F008FC70
:1027300003E00098002102F093FC054675B12E4697
:10274000208800052DD5D4F8A800B0F1007F21D055
:102750000EDCA8B1B0F1807F10D116E0D4F8A4202F
:10276000D9F8001021F460011143C9F80010E7E71F
:10277000B0F1407F13D0B0F1806F10D001250FE091
:10278000386840F40030386009E00021201D02F074
:10279000D7FB03E00098002102F062FC05466DB112
:1027A0002E46206880011FD5A06CD8B110280FD00C
:1027B000202812D0302815D0012514E0D4F8A82004
:1027C000D9F8001021F0E0611143C9F80010E8E7E2
:1027D000386840F40030386004E00221201D02F027
:1027E000AFFB05466DB12E462088C0042BD5E06DA9
:1027F000B0F5005F20D00DDCA0B1B0F5805F0FD147
:1028000015E07A48A26C001F016821F030011143E5
:102810000160E9E7B0F5405F13D0B0F5804F10D00C
:1028200001250FE0386840F40030386009E00021ED
:10283000201D02F085FB03E00098002102F010FC4F
:10284000054685B12E462088800429D5206EB0F536
:10285000403F23D010DC08B3B0F5803F14D0B0F572
:10286000003F0FD115E0E26DD8F8001021F4E041EF
:102870001143C8F80010E6E7B0F5802F0ED0B0F590
:10288000A02F0BD001250AE00121201D02F058FBEA
:1028900003E00098012102F0E3FB05468DB12E46CE
:1028A000208840042AD5D4F8AC00B0F1405F23D092
:1028B00010DC08B3B0F1805F14D0B0F1005F0FD12D
:1028C00015E0226ED8F8001021F4E0211143C8F879
:1028D0000010E5E7B0F1804F0ED0B0F1A04F0BD063
:1028E00001250AE00121201D02F02AFB03E00098E7
:1028F000012102F0B5FB05466DB12E46208800048B
:102900001FD5E06ED8B1B0F1805F0ED0B0F1005F9E
:1029100010D0012514E0D4F8AC20D9F8001021F033
:10292000E0411143C9F80010E8E7386840F400308E
:10293000386004E00121201D02F002FB05466DB164
:102940002E462068C0011ED5606CD0B101280ED083
:10295000022811D0032814D0012513E0E26ED8F824
:10296000001021F040511143C8F80010E9E7386821
:1029700040F40030386004E00221201D02F0E0FA4B
:10298000054685B12E462068DFF85CB04002ABF109
:102990001C0B57D51648016841F480710160FFF7A0
:1029A000A3FB82460EE01148626C001F016821F013
:1029B000030111430160E6E7FFF796FBA0EB0A0075
:1029C00064283DD80A480068C005F5D57DBBDFF80E
:1029D0001CA0B4F8B0200AF1200ADAF8001002F4C2
:1029E000407001F4407105E02C44025850440258F4
:1029F00000480258814211D0DAF80010DAF80020BD
:102A000021F4407142F48032CAF80020DAF8002044
:102A100022F48032CAF80020CAF80010D4F8B000BE
:102A2000B0F5807F21D1FFF75FFB019019E008E04E
:102A3000FFF75AFB0199411A41F28830814210D9BF
:102A400003252E462078DFF844A4C0073DD0A06FB0
:102A5000182838D026DC80B3082829D0102825D1A2
:102A60002CE0DAF800008007E2D5D4F8B010C1F30A
:102A70000120032858460DD0016821F47C510160E3
:102A8000B4F8B020DAF80010C2F30B021143CAF810
:102A90000010D7E7FE4A036802EA111223F47C51C2
:102AA0001143ECE720280ED028280CD001250BE09C
:102AB0000121201D02F044FA04E004E00098012105
:102AC00002F0CEFA05465DB12E46207880071ED56D
:102AD000606F062819D2DFE800F0160C11161616E2
:102AE000A26FDAF8001021F038011143CAF8001083
:102AF000EBE70121201D02F023FA03E000980121F9
:102B000002F0AEFA054675B100E001252E462078A8
:102B100040071FD5D4F89000062819D2DFE800F04E
:102B2000160C11161616626FDAF8001021F0070164
:102B30001143CAF80010EAE70121201D02F000FA53
:102B400003E00098012102F08BFA05469DB100E0F8
:102B500001252E46207880062BD5D4F88C00B0F1C4
:102B6000405F24D011DC10B3B0F1805F15D0B0F11C
:102B7000005F10D116E0D4F89020D9F8001021F0B1
:102B800007011143C9F80010E4E7B0F1804F0ED0FF
:102B9000B0F1A04F0BD001250AE00021201D02F06A
:102BA000CFF903E00098022102F05AFA05468DB1F0
:102BB0002E46207840062BD5D4F89800B0F5406F0B
:102BC00024D011DC10B3B0F5806F15D0B0F5006FD4
:102BD00010D116E0D4F88C20DAF8001021F0E04192
:102BE0001143CAF80010E4E7B0F5805F0ED0B0F5ED
:102BF000A05F0BD001250AE00021201D02F0A0F902
:102C000003E00098022102F02BFA05468DB12E4612
:102C1000207800062BD5D4F89C00B0F5C04F24D006
:102C200011DC10B3B0F5005F15D0B0F5804F10D1B6
:102C300016E0D4F89820D9F8001021F4E05111439F
:102C4000C9F80010E4E7B0F5004F0ED0B0F5204F02
:102C50000BD001250AE00021201D02F071F903E0EC
:102C60000098022102F0FCF905464DB12E4620786D
:102C700000071ED5D4F88000B0F5805F0AD00FE0C1
:102C8000D4F89C20D9F8001021F460411143C9F810
:102C90000010ECE70098022102F0E2F900B10126F1
:102CA000D4F88020DAF8001021F440511143CAF81A
:102CB00000102078C00613D5D4F89400B0F5807FBA
:102CC00005D10098022102F0CBF900B10126D4F819
:102CD0009420D9F8001021F440711143C9F8001074
:102CE0002068000316D5D4F8A00038B1B0F5803FB5
:102CF00009D0B0F5003F0BD001250AE00021201DCE
:102D000002F01EF903E00098022102F0A9F905463D
:102D100085B12E462068400322D5D4F88400B0F552
:102D2000801F11D0B0F5001F13D0B0F5401F15D093
:102D3000012514E0D4F8A020D9F8001021F4403186
:102D40001143C9F80010E5E7386840F400303860F6
:102D500004E00098012102F083F9054655B12E46A2
:102D60002068C0031CD5E06C70B1B0F5803F10D076
:102D7000012514E0D4F88420DAF8001021F4401181
:102D80001143CAF80010EBE7386840F400303860AF
:102D900004E00221201D02F0D3F80546CDB12E46F5
:102DA0002068800005D50098022102F059F900B191
:102DB0000126206880031BD5E06FB8B1B0F5807F95
:102DC00010D0B0F5007F11D0B0F5407F0ED00125B6
:102DD0000DE02E48E26C0838016821F4803111437F
:102DE0000160DDE7386840F400303860F5B32E4606
:102DF0002068C00207D5226FD8F8001021F00041EA
:102E00001143C8F800102068C00008D5D4F8B420D9
:102E1000DBF8001021F480411143CBF8001020684A
:102E2000800207D5A26ED8F8001021F080711143FE
:102E3000C8F80010206840000CD5DBF8001021F421
:102E40000041CBF80010DBF80010D4F8B820114393
:102E5000CBF800102068002807DA0C48226D0838EB
:102E6000016821F040511143016000E014E0206846
:102E7000000208D5D4F88820DAF8001021F44001C7
:102E80001143CAF8001086B1012003E054440258EF
:102E9000CFFFFF00BDE8FC9FE26FDAF8001021F4DD
:102EA00040711143CAF80010A2E70020EDE70000CE
:102EB0002DE9F05F04000F467ED0DFF83882D8F8A5
:102EC000000000F00F00B8420CD2D8F8001021F03A
:102ED0000F013943C8F80010D8F8000000F00F00C7
:102EE000B84269D12078844D40070AD52069296805
:102EF00001F07001884204D9296821F07001014372
:102F0000296020787C4E361D00070AD5606931683B
:102F100001F07001884204D9316821F07001014349
:102F200031602078C0060AD5A069316801F4E061FB
:102F3000884204D9316821F4E0610143316020788E
:102F4000DFF8B4B180060BF1080B0CD5E1695846E7
:102F5000DBF8002002F07002914204D9026822F0EE
:102F600070020A430260207880070AD5E068296869
:102F700001F00F01884204D9296821F00F010143B3
:102F800029602078C0073ED05B49A26828681839BC
:102F900020F47060104328606068022818D003286D
:102FA00019D00968012819D0490700294ADADFF841
:102FB00048A1AAF1080A00E044E0DAF8002022F073
:102FC00007020243CAF80020FFF78EF8814612E09C
:102FD00009688903E9E709688901E6E7C905E4E7C3
:102FE000FFF782F8A0EB090141F28830814202D953
:102FF0000320BDE8F09F6168DAF8000000F03800B7
:10300000B0EBC10FECD1207880070AD5E0682968C1
:1030100001F00F01884204D2296821F00F01014319
:103020002960D8F80010404601F00F01B9420BD9D1
:10303000016821F00F0139430160006800F00F00C2
:10304000B84201D00120D4E7207840070AD5206992
:10305000296801F07001884204D2296821F07001CA
:1030600001432960207800070AD56069316801F0C2
:103070007001884204D2316821F07001014331604F
:103080002078C0060AD5A069316801F4E061884261
:1030900004D2316821F4E061014331602078800678
:1030A0000CD5E1695846DBF8002002F0700291422D
:1030B00004D2026822F070020A43026000F06CF849
:1030C0000E492A682B68C2F3032203F00F038A5CBF
:1030D000C95C02F01F0201F01F01D040084A20FA2B
:1030E00001F111600749086007480068BDE8F05F1A
:1030F000FFF736B80020005218440258C05B0008A1
:1031000018000024140000240C00002430B500F046
:1031100043F80B4A0B490C4B15681468C5F303229E
:1031200004F00F048A5C095D02F01F0201F01F0128
:10313000D040064A20FA01F119601060084630BDFF
:1031400018440258C05B0008180000241400002432
:1031500000B5FFF7DBFF05490968054AC1F3021115
:10316000515C01F01F01C84000BD00001C44025822
:10317000C05B000800B5FFF7C9FF05490968054AAB
:10318000C1F30221515C01F01F01C84000BD0000E5
:103190001C440258C05B0008454970B545480968A1
:1031A000434B103B11F0380208D00111082A03D01C
:1031B000102A0BD0182A0BD0084670BD1968890652
:1031C000FBD51968C1F3C101C84070BD3A4870BD54
:1031D0003749374D18310C1D24350A6809682668AF
:1031E0002D6802F0030406F00102C1F30511C5F3D6
:1031F000CC0515FB02F200EE102AB8EE400AE9B346
:103200002F4ADFED2E0AB7EE001A6CB1DFED2D1A52
:10321000012C01D0022C43D002EE101A1068F8EEF7
:10322000422A81EEA22A1EE01C68A40611D51B6862
:1032300001EE901A1168C3F3C103F8EE612AD84079
:1032400001EE900AC1F30800F8EE611A81EEA22A9D
:103250000BE001EE901ADFED1C2A00BFF8EE611AB8
:10326000106882EEA12AC0F3080001EE900AF8EE81
:10327000611A40EE201A31EE810A00E015E022EEDC
:10328000000A1068C0F34620401C00EE900AF8EED9
:10329000600A80EE201ABCEEC10A10EE100A70BD62
:1032A00001EE901ADFED092AD8E7002070BD00007A
:1032B000104402580090D00340787D01000000398E
:1032C000304402580024744A0024744C20BCBE4B85
:1032D0002DE9F05F04007DD0FF4F2078FE4D1837B8
:1032E000DFF8F493103DC00748D0D9F800003968E2
:1032F00000F03800102815D0182803D101F0030081
:1033000002280FD06068B0F5803F12D010B1B0F540
:10331000A02F18D0286820F480302860286820F476
:10332000802009E02868800328D560680028D2D072
:1033300024E0286840F480302860606888B1FEF797
:10334000D3FE064609E0286840F480202860F0E7B4
:10335000FEF7CAFE801B64286FD828688003F7D563
:103360000CE0FEF7C1FE064605E000BFFEF7BCFE1E
:10337000801B6428F0D828688003F7D4207841F2B5
:103380000308D54E0C3E800769D5D9F8000039688E
:1033900010F038000ED0182801D188070AD0E06854
:1033A00090B3296821F0190101432960FEF79CFEC2
:1033B000824631E02868400702D5E06800288AD0BC
:1033C000E168286820F0190008432860FEF78CFEA9
:1033D000824607E0DFE000BFFEF786FEA0EB0A00B2
:1033E0000228B9D828684007F6D500BFFEF776FE58
:1033F00040451BD82069402812D0316821F47C3127
:1034000041EA003030602AE018E000BFFEF76CFEB1
:10341000A0EB0A0002289FD828684007F6D5E5E708
:10342000306820F47C3040F40030EBE7207C3168D9
:1034300021F0FE4141EA0060E4E70DE1286820F058
:1034400001002860FEF750FE824605E0FEF74CFEC4
:10345000A0EB0A0002288DD828684007F6D420780F
:10346000C0065DD5D9F80000DFF86CB2396800F00D
:103470003800ABF1040B082810D0182803D101F054
:10348000030001280AD0E0690028286838D040F0FD
:1034900080002860FEF728FE824623E02868C005E9
:1034A00023D5E069802876D11FE0206A202821D02A
:1034B000316821F0F84141EA8060306030E000BFBF
:1034C00094F82010DBF8002022F07C5242EA0161DF
:1034D000CBF8001024E000BFFEF706FEA0EB0A00C8
:1034E000022898D82868C005F6D5FEF7F7FD4045B4
:1034F000E6D8DAE7306820F0F84040F08040DCE7BA
:1035000020F080002860FEF7EFFD064605E000BFD2
:10351000FEF7EAFD801B02289DD82868C005F7D475
:103520002078000729D56C486169643000298046FD
:10353000016811D041F001010160FEF7D5FD06469A
:1035400005E000BFFEF7D0FD801B0228C9D8D8F8DF
:1035500000008007F6D510E021F001010160FEF7C0
:10356000C3FD064605E000BFFEF7BEFD801B022836
:1035700072D8D8F800008007F6D42078800623D5CA
:10358000A0690028286810D040F480502860FEF719
:10359000ABFD064605E02CE1FEF7A6FD801B0228E8
:1035A0005AD828688004F7D50EE020F480502860AF
:1035B000FEF79AFD064604E0FEF796FD801B022802
:1035C0004AD828688004F7D4207840074FD5DFF820
:1035D0000C81D8F8001041F48071C8F80010FEF793
:1035E00083FD064605E000BFFEF77EFD801B6428D4
:1035F00032D8D8F80000C005F6D5374EA06860363E
:1036000001280AD008B1052813D0306820F0010045
:103610003060306820F0040002E0306840F00100C3
:103620003060A06841F2883A90B1FEF75DFD8046B7
:103630000AE0306840F004003060EEE7FEF754FD29
:10364000A0EB0801514507D830688007F6D50EE099
:10365000FEF74AFD804607E084E000BFFEF744FD28
:10366000A0EB080151457DD830688007F6D4606A28
:10367000B0B3DFF86480D9F8001008F12008C1F376
:10368000C20103296FD00228286820F080702860CA
:1036900003D0FEF729FD044680E0FEF725FD06462F
:1036A00005E000BFFEF720FD801B022873D82868C4
:1036B0008001F7D4E26A40F2F331386854F8283FC9
:1036C000884340EA021018433860217B4FF4FE0C17
:1036D00022894FF0FE4704E0104402580048025887
:1036E00089E0208A4902521E267DA1F5007189B227
:1036F000401EC2F308021143761E0CEA004001434B
:103700003E4807EA066211433C4AC8F800100832F6
:10371000016821F00101016011684FF6F876236A13
:10372000B14341EAC30111600168A26921F00C01B3
:10373000114301600168E26921F002011143016057
:10374000016841F480310160016841F40031016099
:10375000016841F480210160016841F001010160CC
:10376000286801E017E01DE040F080702860FEF757
:10377000BBFC044605E000BFFEF7B6FC001B0228B8
:1037800009D828688001F7D535E000BFFEF7ACFC0A
:10379000001B022802D90320BDE8F09F28688001A1
:1037A000F4D428E039680128D8F8000021D0A26AB2
:1037B00001F0030393421CD1E26AC1F305118A426E
:1037C00017D1216BC0F30802491E8A4211D1616BE7
:1037D000C0F34622491E91420BD1A16BC0F30642B1
:1037E000491E914205D1E16BC0F30660491E81423A
:1037F00001D00120D0E70020CEE700002C44025881
:103800002DE9F047040029D0504A4FF00009206804
:103810004F4B504D9042C4F8289006D0984204D0A7
:10382000A84202D0E1680F2918D8E1684FF0010AD8
:10383000E76B0831C9080AEB57167143904205D06F
:10384000984203D0A84201D0082907D8904203D05B
:10385000984201D0A84204D1102902D90120BDE824
:10386000F08794F8810020B9204684F8809000F019
:1038700073F8022084F881002068016821F00101BA
:1038800001602168A0698A68B0F1806F02F4F810C5
:1038900010D16268B2F5800F01D01AB10AE0A26BB4
:1038A00022B107E0A26BB2F1805F03D10A6842F453
:1038B00080520A60A66AE169E26B25683143E368D9
:1038C000024311431943A960D4E90D02D4E90571FB
:1038D000636A25691843D4F820C00A432668104358
:1038E0002843A56D3843D4E90182D4E9123140EA76
:1038F0000C0040EA08000843104318432843F060D6
:10390000606868B92068816821F4C05141F40061A1
:1039100081602068816821F4C06141F48061816028
:103920002068016D21F0010101656068400206D543
:103930002068626DC16821F000411143C160C4F884
:10394000849084F881A0002089E7000000300140C5
:1039500000380040003C00402DE9F041B6B005467B
:1039600014212FA8FCF783FDBC216846FCF77FFDDE
:10397000354C0226364A05272968103CDFF8C880F6
:1039800000253248914214D1D8F8002042F48052E8
:10399000C8F80020D8F8001001F480513491216853
:1039A00041F002012160216801F0020134913821C7
:1039B00016E0284A91421ED1234908390A6842F488
:1039C00080420A60096801F480413491216841F025
:1039D00002012160216801F0020134914FF4444159
:1039E0002F91CDE93065CDE932572FA9FEF75AFA6C
:1039F00036B0BDE8F08118488142F9D140141895DD
:103A000000906846FEF7EAFD08B1FDF773F8D8F8B4
:103A1000001041F40051C8F80010D8F8000000F47C
:103A200000503490206840F010002060206831AAD7
:103A30002FA900F0100034904FF4E040CDE92F069C
:103A400082E8E0000548D1E7F0440258000402583B
:103A5000003001400038004000340140001002589E
:103A600003490A6822F4600202430A6070470000BA
:103A700004040058401EB0F1807F10B501D301202E
:103A800010BD4FF0E02460610F21601702F019F8BB
:103A90000020A0610721216110BD0000F0B590F861
:103AA0003C20012A3BD01F4E012480F83C400222DA
:103AB00080F83D2002681C4D5368B242D2F808C01D
:103AC00001D0AA4203D14F6823F470033B430F682F
:103AD00023F070031F4357600268B24213D0B2F163
:103AE000804F10D0114B9A420DD0114B9A420AD000
:103AF000104B9A4207D0AA4205D00F4B9A4202D0EF
:103B00000E4B9A4204D189682CF0800319439160CE
:103B1000002180F83D4080F83C100846F0BD0220AE
:103B2000F0BD00000000014000040140000400401E
:103B300000080040000C0040001800400040014018
:103B400010B5040003D094F83D0010B107E0012047
:103B500010BD002084F83C00204600F023F802202D
:103B600084F83D002068211D01F0DEFB012084F86F
:103B7000480084F83E0084F83F0084F8400084F850
:103B8000410084F8420084F8430084F8440084F83B
:103B9000450084F8460084F8470084F83D00002082
:103BA00010BD000008B501681148B1F1804F0BD07D
:103BB000104A914210D1016841F010010160006883
:103BC00000F01000009008BD016841F001010160A3
:103BD000006800F00100F5E7074A9142F3D101685F
:103BE00041F020010160006800F02000EAE70000D9
:103BF000E8440258001000400014004070B504462C
:103C000090F83C000025012814D03A4B012684F896
:103C10003C60022084F83D0022689068184020F43F
:103C20007F409060086870282FD010DC10F00F0FD4
:103C300003D022E04FF0020070BD4FEA2012072AA5
:103C40001BD2DFE802F0535353534B394100B0F11C
:103C5000101F4BD009DCB0F5805F0FD0B0F5005FCE
:103C60001ED0B0F5801F08D140E0A0F580112039AA
:103C70003CD010293AD0202938D0012584F83D6065
:103C8000002084F83C00284670BD4A682068D1E9CD
:103C9000021301F0ABFB2068816841F0770109E075
:103CA0004A682068D1E9021301F0A0FB206881680E
:103CB00041F480418160E1E7CA684968206801F009
:103CC000A9FB2068502106E0CA684968206801F015
:103CD000B2FB2068602101F093FBCFE7CA68496816
:103CE000206801F097FB20684021F4E72268014634
:103CF0001046F0E788FFCEFF30B590F8801001291C
:103D000018D0012280F880202421C0F884100022DD
:103D1000202450F8641B0B680D6823F0005325F035
:103D200001050D60026050F8641C0B6004620277AC
:103D3000104630BD022030BD7047704770B5044654
:103D400090F8800001281DD0012284F880202420D2
:103D5000C4F8840020680568026822F0010202604D
:103D60002068826822F060620A438260204601F087
:103D70007BFB2268202100201560C4F8841084F8A1
:103D8000800070BD022070BD70B5044690F88000C0
:103D900001281DD0012284F880202420C4F884004A
:103DA00020680568026822F00102026020688268CB
:103DB00022F060420A438260204601F055FB2268EF
:103DC000202100201560C4F8841084F8800070BDA4
:103DD000022070BD70477047704700002DE9F04128
:103DE00003680446002540F60F06D86919689A68EA
:103DF000304209D186067DD501F0200602F08057B9
:103E00003E4377D0216F62E1C64EC74F16400F4048
:103E100037436FD0C70709D0CF0507D501271F62E9
:103E2000D4F88C3043F00103C4F88C3083070AD5F2
:103E3000D30708D0276802233B62D4F88C3043F0C4
:103E40000403C4F88C3043070AD5D30708D0276889
:103E500004233B62D4F88C3043F00203C4F88C3066
:103E600003070CD501F02003334308D0266808234C
:103E70003362D4F88C3043F00803C4F88C30030567
:103E80000BD54B0109D526684FF400633362D4F893
:103E90008C3043F02003C4F88C30D4F88C30002BE5
:103EA0003AD0800609D501F0200002F08051084385
:103EB00003D0216F09B1204688472168D4F88C00CF
:103EC0008968490602D410F0280F27D0204601F057
:103ED0008BFB2068806840061BD52068083050E8BE
:103EE000001F21F0400140E80012002AF5D1E06FE8
:103EF00078B100E018E08D490165E06FFCF7BAFF8A
:103F0000002809D0E06F016D00E02046BDE8F041D7
:103F100008472046FFF760FFBDE8F0812046FFF725
:103F20005BFFC4F88C50F7E7E76E2026012F7CD1A9
:103F3000C7067AD5CF0678D5102018622068806829
:103F400040067DD5E16F7A4A0868904234D0784ABD
:103F50001832904230D0764A303290422CD0744A97
:103F60004832904228D0724A6032904224D0704A3F
:103F70007832904220D06E4A903290421CD06C4AE7
:103F8000A832904218D06B4A904215D0694A183234
:103F9000904211D0674A303290420DD0654A483283
:103FA000904209D0634A6032904205D0614A78322B
:103FB000904201D05F4A903240680004000CABD0C0
:103FC000B4F85C208242A7D9A4F85E00C869B0F5B5
:103FD000807F2ED0216851E8000F20F4807041E8E6
:103FE0000002002AF6D12068083050E8001F21F0B6
:103FF000010140E80012002AF5D12068083050E89D
:10400000001F21F0400140E80012002AF5D1C4F859
:104010008860E566216851E8000F20F0100041E853
:104020000002002AF6D1E06F01E03BE008E0FCF777
:1040300071FDB4F85C00B4F85E10401A81B22DE056
:10404000B4F85C00B4F85E10B4F85E20401A81B297
:10405000002AB4D00029B2D0226852E8000F20F420
:10406000907042E80003002BF6D1334B226802F136
:10407000080252E8000F00EA030042E80007002FA0
:10408000F4D1C4F88860E5662567226852E8000F1D
:1040900020F0100042E80003002BF6D12046FFF785
:1040A0004BFE39E7C70209D5570207D54FF48010F8
:1040B00018622046BDE8F041FFF78DBE03060AD521
:1040C00001F0800302F40002134304D0616F002961
:1040D0007FF41BAF20E7420611D54A060FD52046D4
:1040E000026852E8001F21F0400142E80013002B53
:1040F000F6D1C0F88460456700F0F2FA0CE70202DE
:1041000006D54A0004D52046BDE8F041FFF762BE5F
:10411000C001C6D50029C4DA2046BDE8F041FFF74A
:104120000CBE00000100001020010004D55500085D
:104130001000024010040240FEFFFFEF10B5040023
:1041400003D0D4F8840010B107E0012010BD002096
:1041500084F88000204600F027F82420C4F884006A
:104160002068016821F001010160204601F066FA33
:104170000128EBD0A06A10B1204601F097F9206821
:10418000416821F4904141602068816821F02A0152
:1041900081602068016841F0010101602046BDE8AE
:1041A000104001F0E7B900002DE9F04FB5B004462A
:1041B00014212FA8FCF75BF9BC216846FCF757F9DE
:1041C000FF4F4FF0040A4FF0080B4FF00208FD4973
:1041D00000252068884227D16846CDF800A02495A4
:1041E000FEF7FCF908B1FCF785FCF54814300168CE
:1041F00041F008010160006800F008003490386860
:1042000040F00200386038682FA9CDE9308500F011
:1042100002003490C0202F90EB48CDE9325BFDF7CF
:1042200041FE35B0BDE8F08FE8494FF48066DFF815
:104230009093884209F1080937D16846CDF800808B
:104240001D95FEF7CBF908B1FCF754FCD9F8001026
:1042500041F40021C9F80010D9F8000000F4002052
:104260003490386840F00400386038684FF4406299
:10427000CDE9308500F004002F9232952FA9CDE9C9
:1042800033B0D348FDF70EFED24F3F21D24887E826
:104290002300C7E903567D613846BD61FD613D627B
:1042A0007D620AE2E767BC63BBE7CC49884249D13B
:1042B0006846CDF800801D95FEF790F908B1FCF72F
:1042C00019FCD9F8001041F48011C9F80010D9F890
:1042D000000000F480103490386840F0040038602A
:1042E000386800F004003490386840F00800386006
:1042F00038684FF48051CDE9308500F008002F91E7
:1043000032952FA95F46CDE933B0B148FDF7CAFD1C
:10431000B3482FA9CDE93085CDE93257CDF8BCA0FF
:10432000FDF7C0FDAB4FAC4878371830412187E826
:104330002300C7E903567D613846BD61FD613D62DA
:104340007D62BAE1A7494FF0070A884236D1684634
:10435000CDF800801D95FEF741F908B1FCF7CAFBC6
:10436000D9F8001041F08041C9F80010D9F80000D8
:1043700000F080403490386840F0100038603868B1
:104380004FF4C072CDE9308500F010002F923295C5
:104390002FA9CDE933A09448FDF784FD8D4F8E48B9
:1043A000F03730304F2187E82300C7E903567D619D
:1043B0003846BD61FD613D627D627EE18B49884288
:1043C0005FD16846CDF800801D95FEF707F908B16A
:1043D000FCF790FBD9F8001041F00041C9F800103B
:1043E000D9F8000000F000403490386840F0100028
:1043F0003860386803222FA900F010003490CDE90E
:104400002F28CDF8CCB07848CDE93158FDF74AFDDA
:10441000774F5121774887E82300C7E903567D612C
:104420003846BD61FD613D627D62FDF7D9F908B195
:10443000FCF760FBDFF8B88152226E49402308F197
:104440007808E7671831BC63404688E86E00C8F812
:104450001450C8F81850C8F81C50C8F82050C8F8B4
:104460002450FDF7BDF908B1FCF744FB0022C4F865
:10447000788053201146C8F83840FDF7FDFE5320E0
:1044800080E05D4A0121DFF874B1904235D11E957C
:1044900068460091FEF7A2F808B1FCF72BFBDBF8A9
:1044A000001041F01001CBF80010DBF8000000F024
:1044B00010003490386840F00100386038684FF4DC
:1044C000C061CDE9308500F001002F9132952FA910
:1044D000CDE933A04A48FDF7E5FC454F3E48F037AB
:1044E0006038292187E82300C7E903567D613846F3
:1044F000BD61FD613D627D62DFE0424A904244D190
:104500006846CDF800801D95FEF768F808B1FCF705
:10451000F1FAD9F8001041F40031C9F80010D9F8C7
:10452000000000F400303490386840F00800386033
:10453000386860222FA900F008003490CDE92F28B8
:10454000CDF8CCA02648CDE93158FDF7ABFC2E4F75
:104550002B212148483887E82300C7E903567D61AD
:104560003846BD61FD613D627D62FDF739F908B1F4
:10457000FCF7C0FA0022E76726201146BC63FDF76E
:104580007BFE2620FDF76AFE4BE6204A90425DD175
:104590006846CDF800801D95FEF720F808B1FCF7BD
:1045A000A9FAD9F8001041F48021C9F80010D9F80F
:1045B000000000F480203490386840F0080027E0C4
:1045C000E0440258000C005800040258004C00401F
:1045D00000080258140600247000024000500040F9
:1045E000000C02580078004000100258007C004087
:1045F0007C0700241004024000100140F0440258DF
:104600000000025800440040E40800240048004034
:10461000386038684FF44072CDE9308500F008000A
:104620002F9232952FA9CDE933A02848FDF73AFC07
:10463000274F2D21274887E82300C7E903567D61CE
:104640003846BD61FD613D627D6236E0224A90429E
:104650009AD11E9568460091FDF7C0FF08B1FCF79E
:1046600049FADBF8001041F02001CBF80010DBF82C
:10467000000000F020003490386840F004003860FA
:1046800038682FA9CDE9308500F004003490C020AF
:104690002F901248CDE9325AFDF704FC0C4F472108
:1046A0000C487837183087E82300C7E903567D6146
:1046B0003846BD61FD613D627D62FDF791F80028DD
:1046C0003FF4F0ADFCF716FAECE50000000C0258E0
:1046D0005C09002440000240001401400008025818
:1046E0007047FEE72D4808B5016841F001010160FF
:1046F000016801F001010091016841F002010160CF
:1047000000680022114600F0020000900B20FDF727
:10471000B3FD0B20FDF7A2FD00220C201146FDF792
:10472000ABFD0C20FDF79AFD00220D201146FDF790
:10473000A3FD0D20FDF792FD00220E201146FDF78E
:104740009BFD0E20FDF78AFD00220F201146FDF78C
:1047500093FD0F20FDF782FD002210201146FDF78A
:104760008BFD1020FDF77AFD002211201146FDF788
:1047700083FD1120FDF772FD002238201146FDF760
:104780007BFD3820FDF76AFD002239201146FDF738
:1047900073FDBDE808403920FDF760BDD8440258DC
:1047A00016498023164870B5134A00240A60E12593
:1047B0000470012643704FF4C0628570C4700471A8
:1047C000447148600F480E72C8600F48C1E9040286
:1047D0000846FDF7E7F908B1FCF78CF907483821DE
:1047E0003838FBF744FE054821224FF44031383871
:1047F0000260C0E9044170BD008002405400002402
:104800000000002480000030000000302DE9F04F4F
:1048100087B014216846FBF72AFE4848016841F03A
:1048200010010160016801F010010591016841F07B
:1048300004010160016801F004010591016841F083
:1048400080010160016801F080010591016841F07B
:1048500001010160016801F001010591016841F069
:1048600002010160016801F002010591016841F057
:104870000801016000680022DFF8C4904FF4037162
:1048800000F0080005904846FDF722FCDFF8B480F0
:104890004FF40057002239464046FDF719FCDFF877
:1048A000A8A0012202215046FDF712FCDFF89CB0BF
:1048B000002279115846FDF70BFC0122584651029F
:1048C000FDF706FC0024694601254FF401700090B5
:1048D000CDE9015448460394FDF7E4FA02266946FF
:1048E0000820CDE90005CDE902464846FDF7DAFA91
:1048F00000976946CDE9015440460394FDF7D2FA8A
:10490000A8024FF488118DE8130069464846FDF768
:10491000C9FACDE90065CDE9024669465046FDF782
:10492000C1FA4FF440700090CDE9015469465846F1
:104930000394FDF7B7FA07B0BDE8F08FE0440258E2
:104940000010025800080258000C025800040258D7
:104950001748002110B5154C0C22164B0460C0E915
:104960000131C160C0E9041281610162416281626A
:104970004166FFF7E3FB08B1FCF7BCF80C480021E7
:10498000FFF702FA08B1FCF7B5F809480021FFF774
:10499000D5F908B1FCF7AEF80548FFF7ADF90028E6
:1049A00003D0BDE81040FCF7A5B810BD000C0058BE
:1049B000040100242433030070B5144803224FF48B
:1049C0008004114D00212301C0E9021201611A0186
:1049D000C0E90513C161016241628162C162C0E93F
:1049E0000D21C163016441648164C1640165416555
:1049F0008165C0E90054FEF703FF002803D0BDE83D
:104A00007040FCF777B870BD003001404C0A0024BC
:104A100070B5144803224FF48004114D0021230186
:104A2000C0E9021201611A01C0E90513C161016206
:104A300041628162C162C0E90D21C16301644164C8
:104A40008164C164016541658165C0E90054FEF778
:104A5000D7FE002803D0BDE87040FCF74BB870BD0E
:104A600000380040D40A00242DE9F04116480722FE
:104A70004FF48006134F0021B500C0E90212AC00CC
:104A80008461C0E904154FF0C043C0E907314162B9
:104A900022018162C162C0E90D21C16301644164E8
:104AA0008164C164016541658165C0E90076FEF7F6
:104AB000A7FE002803D0BDE8F041FCF71BB8BDE815
:104AC000F0810000003401405C0B002410B588B078
:104AD00016480024621E00944FF080410194029415
:104AE0000394049405940694C0E90014C0E90242BA
:104AF00004618461FFF724F808B1FBF7FBFF4FF472
:104B00008050009009486946FFF778F808B1FBF734
:104B1000F1FF064804A904940694FEF7BFFF00289D
:104B200001D0FBF7E7FF08B010BD0000E40B002444
:104B30003EB50F4800244FF6FF710C4A00940194D3
:104B40000294C0E90024C0E902418461FEF7F8FF45
:104B500008B1FBF7CFFF0648694600940294FEF7C0
:104B60009DFF002801D0FBF7C5FF3EBD00100040AF
:104B7000300C00243EB50F4800244FF6FF710C4A5C
:104B8000009401940294C0E90024C0E902418461C8
:104B9000FEF7D6FF08B1FBF7ADFF06486946009463
:104BA0000294FEF77BFF002801D0FBF7A3FF3EBD78
:104BB000001400407C0C00241848002110B5164C4D
:104BC0000C224FF4E1330460C0E90131C160C0E957
:104BD00004128161C161016241628162FFF7AEFA34
:104BE00008B1FBF787FF0D480021FFF7CDF808B1AA
:104BF000FBF780FF09480021FFF7A0F808B1FBF799
:104C000079FF0648FFF778F8002803D0BDE8104088
:104C1000FBF770BF10BD0000004C00409401002461
:104C20001848002110B5164C0C224FF4E1330460F3
:104C3000C0E90131C160C0E904128161C161016252
:104C400041628162FFF77AFA08B1FBF753FF0D4822
:104C50000021FFF799F808B1FBF74CFF0948002144
:104C6000FFF76CF808B1FBF745FF0648FFF744F87B
:104C7000002803D0BDE81040FBF73CBF10BD00008A
:104C800000500040240200241848002110B5164CA2
:104C90000C224FF4E1330460C0E90131C160C0E986
:104CA00004128161C161016241628162FFF746FACB
:104CB00008B1FBF71FFF0D480021FFF765F808B1A9
:104CC000FBF718FF09480021FFF738F808B1FBF798
:104CD00011FF0648FFF710F8002803D0BDE8104088
:104CE000FBF708BF10BD000000780040B4020024AC
:104CF0001848002110B5164C0C224FF4E133046023
:104D0000C0E90131C160C0E904128161C161016281
:104D100041628162FFF712FA08B1FBF7EBFE0D4822
:104D20000021FFF731F808B1FBF7E4FE0948002144
:104D3000FFF704F808B1FBF7DDFE0648FEF7DCFFDD
:104D4000002803D0BDE81040FBF7D4BE10BD000022
:104D5000007C0040440300241848002110B5164C84
:104D60000C224FF4E1330460C0E90131C160C0E9B5
:104D700004128161C161016241628162FFF7DEF963
:104D800008B1FBF7B7FE0D480021FEF7FDFF08B1A3
:104D9000FBF7B0FE09480021FEF7D0FF08B1FBF792
:104DA000A9FE0648FEF7A8FF002803D0BDE8104082
:104DB000FBF7A0BE10BD000000100140D40300248A
:104DC0001848002110B5164C0C224FF4E133046052
:104DD000C0E90131C160C0E904128161C1610162B1
:104DE00041628162FFF7AAF908B1FBF783FE0D4823
:104DF0000021FEF7C9FF08B1FBF77CFE094800213E
:104E0000FEF79CFF08B1FBF775FE0648FEF774FF3E
:104E1000002803D0BDE81040FBF76CBE10BD0000B9
:104E200000440040640400241848002110B5164CCA
:104E30000C224FF4E1330460C0E90131C160C0E9E4
:104E400004128161C161016241628162FFF776F9FA
:104E500008B1FBF74FFE0D480021FEF795FF08B1A2
:104E6000FBF748FE09480021FEF768FF08B1FBF791
:104E700041FE0648FEF740FF002803D0BDE8104081
:104E8000FBF738BE10BD000000480040F4040024C9
:104E90001848002110B5164C0C224FF4E133046081
:104EA000C0E90131C160C0E904128161C1610162E0
:104EB00041628162FFF742F908B1FBF71BFE0D4822
:104EC0000021FEF761FF08B1FBF714FE094800213D
:104ED000FEF734FF08B1FBF70DFE0648FEF70CFFA6
:104EE000002803D0BDE81040FBF704BE10BD000051
:104EF0000014014084050024FEE7FEE7704770B50A
:104F0000B0B0BC216846FBF7B2FA022204250021AA
:104F1000CDE903528026059205230891A024CDE90E
:104F200006614FF480508DE8190017906846FDF730
:104F300055FB002801D072B6FEE730B070BD00000E
:104F40002DE9F047454D044689464FF0000A286890
:104F5000C04380070AD0414E283E306820F0806070
:104F60003060FDF7C1F80746B04608E00120BDE813
:104F7000F08700BFFDF7B8F8C01B022867D8D8F843
:104F800000000001F6D4206829684FF4FE0721F4E0
:104F90007C313E0241EA00302860207AA389B4F8CF
:104FA00004C040022D4D2D495B1E227CACF1010C4A
:104FB0001035091DA0F5007080B2521ECCF3080C0C
:104FC00007EA034340EA0C00184306EA0262104372
:104FD00028600868626920F0C000104308600A6811
:104FE000A06922F0200202430A60281D0A6822F00C
:104FF00010020A6002684FF6F873E4699A4342EAC5
:10500000C40202600868B9F1000F40F010020A60A3
:1050100011D00868B9F1010F11D040F400100860F8
:10502000D8F80000444640F08060C8F80000FDF762
:105030005BF805460DE0086840F40020EFE740F417
:105040008010ECE7FDF750F8401B022801D903203F
:105050008DE720680001F5D5504688E728440258BE
:105060002DE9F047454D044689464FF0000A28686F
:10507000C04380070AD0414E283E306820F080505F
:105080003060FDF731F80746B04608E00120BDE882
:10509000F08700BFFDF728F8C01B022867D8D8F8B2
:1050A00000008000F6D4208829684FF4FE0721F024
:1050B0007C713E0241EA00502860207AA389B4F84E
:1050C00004C040022D4D2D495B1E227CACF1010C29
:1050D0001835091DA0F5007080B2521ECCF3080CE3
:1050E00007EA034340EA0C00184306EA0262104351
:1050F00028600868626920F44060104308600A680C
:10510000A06922F4007202430A60281D0A6822F492
:1051100080720A6002684FF6F873E4699A4342EAC3
:10512000C40202600868B9F1000F40F480720A609E
:1051300011D00868B9F1010F11D040F080700860FB
:10514000D8F80000444640F08050C8F80000FCF752
:10515000CBFF05460DE0086840F48000EFE740F41F
:105160000000ECE7FCF7C0FF401B022801D9032038
:105170008DE720688000F5D5504688E7284402581E
:105180007047FCF7B7BF000070B59CB04C21684673
:10519000FBF76DF9202113A8FBF769F90220FDF751
:1051A0009DF8214800242149026842F440420260EF
:1051B00002680A6842F001020A60096801F0010110
:1051C0001B9101688904FCD50DF1280C022009907F
:1051D0000521C0228CE80700C6030F9008250D901A
:1051E00001230E90CDE91054CDE9003668461294A3
:1051F000FEF76EF808B172B6FEE740201A903F2124
:105200000301CDE916500322CDE9180313AB13A80F
:1052100083E816000421FDF74BFE002801D072B68A
:10522000FEE71CB070BD0000184802582C0400585E
:105230003348F0B5334A016841F4700101601068E9
:1052400000F00F00072804D2106820F00F00C01DE6
:1052500010602D4900202C4C10340B682B4D43F06E
:1052600001030B6020600B682B400B60136803F098
:105270000F03072B04D9136823F00F03DB1D136002
:10528000214C234A1834234B261D371D20601E4C09
:10529000214D28343060261D3860371D23603B1DAA
:1052A00035601C1D3A60251D2E1D1860331D2260BF
:1052B0002860326018600A68134B184C22F4802270
:1052C00060330A60186020686FF30F00B0F1005F70
:1052D00003D213490120C1F808010B48D4300168FA
:1052E000C9040BD4026843F2D2010E4B42F480523F
:1052F00002601960016821F480510160F0BD000076
:1053000088ED00E000200052004402587FEDF6EAEC
:1053100080020101000202020000FF010010005C97
:1053200000800051004000522DE9F047274B4FF01C
:10533000804A274D02689842264E274F274C09D0B5
:10534000504507D0A84205D0B04203D0B84201D0A2
:10535000A04205D1D1F804C022F070024CEA02024A
:10536000DFF87CC0DFF87C809842DFF87C900FD0BB
:1053700050450DD0A8420BD0B04209D0B84207D05A
:10538000A04205D0604503D0404501D0484503D137
:10539000CD6822F440722A434D6922F080022A43EC
:1053A000026098428A68C2620A68826207D0A0429C
:1053B00005D0604503D0404501D0484501D1096979
:1053C000016301214161BDE8F08700000000014058
:1053D0000004004000080040000C004000040140B0
:1053E00000400140004401400048014042EA0322DD
:1053F00083680A4323F47F410A43826070470000B8
:10540000034B82681A400A4342F0070181607047EB
:105410008FFFCFFF10B5036A046A23F00A0324F05C
:105420000104046284690B4324F0F00141EA021193
:105430008161036210BD10B5036A23F0100303629B
:105440008369046A23F4704324F0A00443EA02321F
:10545000826144EA0111016210BD00000148FEF7BB
:10546000BDBC00004403002430B5416EB9B10168F1
:105470000D4B03F108048A688968C2F34262490F40
:105480005D5C615C2D01B5FBF1F1A0F86A10995CDF
:10549000A25C0901B1FBF2F1A0F8681030BD012156
:1054A000A0F86A10F8E70000B05B000890F8281038
:1054B000C90706D00168C36A4A6822F400321A4359
:1054C0004A6090F82810890706D50168036B4A687E
:1054D00022F480321A434A6090F82810490706D512
:1054E0000168436B4A6822F480221A434A6090F8AC
:1054F0002810090706D50168836B4A6822F4004228
:105500001A434A6090F82810C90606D50168C36B93
:105510008A6822F480521A438A6090F8281089061B
:1055200006D50168036C8A6822F400521A438A6027
:1055300090F82810490611D50168436C4A6822F496
:1055400080121A434A60416CB1F5801F06D1016890
:10555000836C4A6822F4C0021A434A6090F828100B
:10556000090606D50168C26C486820F40020104383
:1055700048607047F8B500260446C0F88C60FCF718
:10558000B3FD054620686FF07E470068000708D528
:1055900000222B464FF400112046009700F024FA19
:1055A00060B92068006840070AD500222B464FF4F6
:1055B00080012046009700F017FA08B10320F8BDDB
:1055C0002020C4F88400C4F88800E666002084F82F
:1055D0008060F8BD10B5806B0021A0F85E10A0F8C7
:1055E0005610FEF7F9FB10BD10B5026852E8001F17
:1055F00021F4907142E80013002BF6D10E4B0268A3
:10560000083252E8001F194042E80014002CF6D17D
:10561000C16E012908D1026852E8001F21F0100173
:1056200042E80013002BF6D100212022C0F8882088
:10563000C166016710BD0000FEFFFFEF2DE9F043DA
:1056400004468068D84E87B0D84B2168D4E9042737
:10565000D4F81CC010430A68002547EA0C073843F9
:10566000324002430A602068E268416821F44051F8
:10567000114341602268A1699A4201D0206A014326
:105680009768DFF82CC3CB4ECB4807EA0C070F43D3
:1056900097602168676ACA6A22F00F023A43CA62B9
:1056A0002268B2420ED1006800F03800182873D08A
:1056B00047DCB8B3082879D010286FD178E02828C3
:1056C0007ED17BE0BD498A4209D1006800F0070025
:1056D000062875D2DFE800F0546A6C6E7072B84923
:1056E0008A4209D1006800F00700062868D2DFE886
:1056F00000F0475D5F616365B2498A4209D1006885
:1057000000F0070006285BD2DFE800F03A50525460
:105710005658AD498A420BD1006800F007000628B0
:105720004ED200E010E0DFE800F02B41434547494E
:10573000A6498A420AD1006800F03800182839D0FA
:10574000B7DD2028BBD13CE001203AE0A0498A42E5
:1057500009D1006800F00700062831D2DFE800F028
:105760001026282A2C2E9B498A420BD1006800F073
:105770000700062824D2DFE800F003191B1D1F21B3
:1057800000201EE09A421BD18B48001D006800F0EB
:105790000700062814D202E00CE007E010E0DFE882
:1057A00000F0030507090B0D02200AE0042008E0C1
:1057B000082006E0102004E0202002E0402000E065
:1057C00080208549DFF814829A42854A4FF40043CD
:1057D0004FEA21174FF000064ED110281AD006DCF0
:1057E000022809D004280BD008287CD10DE02028FD
:1057F0003ED0402877D13DE0FCF79AFD014610E00D
:105800006846FCF7A7FD01990BE003A8FCF744FEEE
:10581000049906E01068800605D51068C0F3C10041
:10582000C140002970D0606A676838F8102007EB23
:105830004703B1FBF2F0834255D8B0EB073F52D893
:10584000002308461946FAF79BFD02467808130E16
:10585000120243EA012110183A4671410023FAF777
:105860008FFD604AA0F5407191423CD821688FE0DD
:105870003946D8E71946D6E7D4F81CC04FF6EF7979
:105880009C4546D1082819D005DC58B101280CD018
:10589000042875D10DE0102815D0202835D04028D7
:1058A0006ED134E0FDF754FC01E0FDF763FC0146E6
:1058B00010E06846FCF74EFD01990BE003A8FCF7E9
:1058C000EBFD049906E01068800604D51068C0F36B
:1058D000C100C140C1B1636A606838F81330B1FBE0
:1058E000F3F1490000E04BE001EB5001B1FBF0F0B7
:1058F000A0F11001494543D84FF6F0732168C0F379
:1059000042021840104343E043E03946E3E71946BA
:10591000E1E7082819D005DC58B101280CD004288B
:105920002ED10DE0102815D020282BD0402827D1CB
:105930002AE0FDF70DFC01E0FDF71CFC014610E03C
:105940006846FCF707FD01990BE003A8FCF7A4FDEE
:10595000049906E01068800604D51068C0F3C10001
:10596000C140B1B1636A606838F81330B1FBF3F13C
:1059700001EB5001B1FBF0F0A0F11001494505D950
:10598000012506E03946EDE71946EBE7216880B2CC
:10599000C8600120A4F86A00A4F8680028462667B9
:1059A000666707B0BDE8F083F369FFCF000C0058CD
:1059B000FFF4FF110010014054440258004400401D
:1059C00000480040004C00400050004000140140DE
:1059D00000780040007C00400090D003985B0008F5
:1059E00000440258FFFC0F002DE9F0479A46174685
:1059F0000E460446089D4FF000094FF020084CE089
:105A0000681C4AD0FCF770FBA0EB0A00A8422AD819
:105A10004DB32068016849073FD5C069C043000500
:105A20003BD421684FF400600862216851E8000F00
:105A300020F4D07041E80002002AF6D12068083036
:105A400050E8001F21F0010140E80012002AF5D1C2
:105A5000C4F8848084F88090C4F88880C4F88C806E
:105A60000320BDE8F087206850E8001F21F4D071C2
:105A700040E80012002AF6D12068083050E8001FE4
:105A800021F0010140E80012002AF5D1C4F8848019
:105A900084F88090C4F88880E2E72068C06936EA1C
:105AA000000004D00020B842AAD00020D9E701208D
:105AB000F9E700000148FEF791B9000064040024F2
:105AC000FEE7090700284FEA116104DB00F1E0203E
:105AD00080F80014704700F00F0000F1E02080F81B
